:100000000C9451010C947E010C947E010C947E01A1
:100010000C947E010C947E010C947E010C947E0164
:100020000C947E010C947E010C947E010C947E0154
:100030000C947E010C947E010C947E010C947E0144
:100040000C947E010C947E010C947E010C947E0134
:100050000C947E010C9424210C947E010C948D252B
:100060000C947E010C94322A0C94B92A0C947E01D3
:100070000C947E010C947E010C947E010C947E0104
:100080000C947E010C947E010C947E010C947E01F4
:100090000C947E010C947E010C947E010C944A1AFF
:1000A0000C947E010C947E010C947E010C947E01D4
:1000B0000C947E010C947E010C947E010C947E01C4
:1000C0000C947E010C947E010C947E010C94E32A26
:1000D0000C946A2B0C947E010C947E010C947E018E
:1000E0000C947E0107634236B79BD8A71A3968562D
:1000F00018AEBAAB558C1D3CB7CC5763BD6DEDFD4A
:10010000753EF6177231BF000000803F0800000006
:10011000BE922449123EABAAAA2ABECDCCCC4C3EFC
:1001200000000080BEABAAAAAA3E00000000BF00EB
:100130000000803F0000000000084178D3BB4387E7
:10014000D1133D190E3CC3BD4282AD2B3E68EC82FB
:1001500076BED98FE1A93E4C80EFFFBE01C4FF7F80
:100160003F00000000007C3C3E5E2B3D3F2F5B5D6E
:100170003B2C2A225C0000002100240027002A00DA
:100180002D003000330001010000040107010A01C5
:1001900000002200250028002B002E003100340032
:1001A00002010000050108010B01000020002300EE
:1001B000260029002C002F0032000001000003015E
:1001C00006010901050505050705080808080202DA
:1001D00002020A0A080804040404010101010101E1
:1001E00001010303030303030303040707070C0CC4
:1001F0000C0C0C0C0C0C020202020606060606068B
:1002000006060B0B0B0B0B0B0B0B0102102020082F
:100210000810204010204080020102010804020161
:1002200001020408102040808040201008040201D0
:100230008004020180402010080402010804020129
:1002400001020408102040800102040810204080B0
:100250000000090A02080B0C0D0706030401000048
:10026000000000000000000000000000000000008E
:1002700000000000000000000000000011100F004E
:10028000000000000000000000000000000000006E
:100290000000000000002E02F305E6186C2A1D2B5A
:1002A000270211241FBECFEFD1E2DEBFCDBF00E099
:1002B0000CBF14E0A0E0B2E0E2EEF8E600E00BBF15
:1002C00002C007900D92A234B107D9F71BBE19E006
:1002D000A2E4B4E001C01D92A436B107E1F712E038
:1002E000C0EAD2E004C02297FE010E944C34C63915
:1002F000D107C9F70E94942B0C9464340C9400002D
:10030000FB01DC0104C08D910190801921F4415062
:100310005040C8F7881B990B0895FB01DC0102C00F
:1003200001900D9241505040D8F70895DC0101C072
:100330006D9341505040E0F70895FC01819186177C
:1003400021F08823D9F7992708953197CF0108958F
:10035000FB01DC0101900D920020E1F70895FB0103
:10036000DC014150504048F001900D920020C9F747
:1003700001C01D9241505040E0F70895FB019F01DC
:10038000E8944230C4F04532B4F44A3029F497FB83
:100390001EF4909581959F4F642F77270E945034CB
:1003A000805D8A330CF0895D8193CB010097A1F7C2
:1003B00016F45DE251931082C9010C94DF01DC0157
:1003C000FC01672F71917723E1F7329704C07C918C
:1003D0006D9370836291AE17BF07C8F308950895B7
:1003E0008130910511F56F5F7F4F81F582E494E0D4
:1003F0000E94FD1B89E594E00E94900484E794E04C
:1004000060E072E00E94E82E8AE794E060E072E02B
:100410000E94E82E80E894E060E072E00E94E82EFE
:1004200086E894E00E9490040895892B79F46F5F28
:100430007F4F61F480E894E00E947A2F8AE794E08D
:100440000E947A2F84E794E00E947A2F089580E03A
:1004500090E06FEF7FEF0E94F001089581E090E05F
:100460006FEF7FEF0E94F00108958F929F92AF92FD
:10047000BF92CF92DF92EF92FF920F931F93DF9381
:10048000CF93CDB7DEB7E3970FB6F894DEBF0FBEBC
:10049000CDBF86E298E040E855E260E070E026E0FB
:1004A0000E94F82883EC98E040EC52E160E070E0B4
:1004B00026E00E94F82886E298E061E072E00E945F
:1004C000CC2D86E298E062E772E00E94E22C86E2A0
:1004D00098E062E872E00E94CC2D84E794E064E644
:1004E00070E00E94262E82E494E063E00E94341FB4
:1004F000882339F486E298E06BE972E00E94CC2D03
:10050000FFCF86E298E06FEC72E00E94E22C8AE076
:1005100061E00E94AD2686EA94E064E00E9424092E
:10052000882339F486E298E067EE72E00E94CC2DD1
:1005300007C186E298E06EEF72E00E94CC2DCE01FA
:10054000499666EA74E043E153E023E10E94FF0725
:100550008B8D9C8D90935C0480935B048D8D9E8D20
:10056000AF8DB8A180935D0490935E04A0935F0467
:10057000B093600489A19AA1ABA1BCA1809361044E
:1005800090936204A0936304B0936404A5E6B4E07E
:10059000FE01B5968DE001900D928150E1F78AA998
:1005A0009BA9909373048093720489E594E00E9460
:1005B000DF048823A9F086E298E06CE173E00E94F2
:1005C000E22C89E594E063E373E00E94CC2D89E599
:1005D00094E00E94EC0486E298E064E473E004C0D6
:1005E00086E298E06AE473E00E94CC2D01E010E01E
:1005F0004E010894811C911C2DE0A22EB12CAC0E52
:10060000BD1E97E0C92ED12CCC0EDD1E83E1E82E55
:10061000F12CEC0EFD1E61C0C401B8014AE00E943D
:10062000332F8AE794E0B4010E94632FC4010E9433
:100630007A2F80917E0490917F048130910589F416
:10064000C60161E673E00E94012FC6016AE774E00B
:100650000E94B12EBC018AE794E00E94632FC6017C
:1006600012C0029791F4C50164E673E00E94012F65
:10067000C5016AE774E00E94B12EBC018AE794E0EC
:100680000E94632FC5010E94802F0F5F1F4FC7017B
:1006900066E673E00E94012FC7016AE774E00E94DA
:1006A000B12E6BE673E00E94952EBC018AE794E0C0
:1006B0000E94632FC7010E94802F8AE794E062EFB7
:1006C00073E04CE050E020E030E00E94DF2D86E255
:1006D00098E062EF73E00E94CC2D86EA94E062EF2E
:1006E00073E00E94D606882309F096CF84E661E085
:1006F00040E00E94C2219093A5048093A40480E46A
:1007000094E060E070E041E851E020E030E002E099
:10071000EE24FF24CC24DD24AA24BB240E9436240A
:100720008093A20483EB93E060E070E04DE151E040
:1007300020E030E00E9436248093A3040E946025CC
:10074000E3960FB6F894DEBF0FBECDBFCF91DF9119
:100750001F910F91FF90EF90DF90CF90BF90AF90DF
:100760009F908F90089586E298E060E773E00E9482
:10077000E22C82E494E00E94361DAB01BC0186E2CB
:1007800098E022E030E00E94C92D86E298E06FE711
:1007900073E00E94CC2D86E298E063E873E00E944B
:1007A000E22C82E494E00E94571DAB01BC0186E27A
:1007B00098E02AE030E00E94A22C86E298E06FE800
:1007C00073E00E94CC2D86E298E063E973E00E941A
:1007D000E22C82E494E040E856EE65EC77E40E9477
:1007E000D31EAB01BC0186E298E022E030E00E941B
:1007F000C92D86E298E06FE973E00E94CC2D86E275
:1008000098E067EA73E00E94E22C82E494E040E022
:1008100050E060E070E00E94FA1EAB01BC0186E28D
:1008200098E02AE030E00E94A22C86E298E06FE88F
:1008300073E00E94CC2D86E298E06CEC73E00E949D
:10084000E22C82E494E040E05EE366EC77E40E9410
:10085000D31EAB01BC0186E298E022E030E00E94AA
:10086000C92D86E298E06FE973E00E94CC2D86E204
:1008700098E00E94DF2B84EF91E00E94D32373CF96
:100880001CC083EC98E00E947829682F8093A10413
:100890008D3069F486E298E064E774E00E94FF2BF3
:1008A00084E794E060E072E00E941A2F06C08A306C
:1008B00021F084E794E00E946F2E83EC98E00E9480
:1008C0005C29892BF1F682E390E00E94D3230895FE
:1008D0002CB5382F33702C7F322B3CBD2DB590E0DA
:1008E000959587959595879581702E7F822B8DBDE7
:1008F000089585E361E00E94602785E361E00E943E
:10090000AD268CB580618CBD8CB580648CBD84E3D4
:1009100061E00E94AD2683E361E00E94AD26089568
:10092000FC011382128288EE93E0A0E0B0E08483A1
:100930009583A683B7838EE094E091838083128EA3
:10094000118E14860895DF93CF930F92CDB7DEB743
:10095000FC016983A081B18112962D913C9113977E
:10096000BE016F5F7F4F41E050E0F90119950F9094
:10097000CF91DF910895DC015996ED91FC915A9742
:10098000309719F420E030E018C023893489458974
:10099000568982859385A485B585281B390B4A0B1A
:1009A0005B0B2030B0E83B07B0E04B07B0E05B07E3
:1009B00020F02FEF3FE740E050E0C9010895DC014F
:1009C0005996ED91FC915A97309711F480E0089573
:1009D0008581811181E00895CF93DF93EC01898DAA
:1009E0009A8D009741F00E94980D898D9A8D0E94F2
:1009F00030281A8E198EDF91CF910895FC01818DD8
:100A0000928D009711F00E944E0D0895DF93CF93C1
:100A10000F92CDB7DEB7FC01818D928D009749F022
:100A2000BE016F5F7F4F41E050E00E946F0E019763
:100A300019F02FEF3FEF03C08981282F30E0C90163
:100A40000F90CF91DF910895EF92FF920F931F9334
:100A5000DF93CF930F92CDB7DEB77C01DC015996BF
:100A60008D919C915A97009719F400E010E01FC0F7
:100A7000BE016F5F7F4F41E050E00E946F0E019713
:100A800019F00FEF1FEF13C08981082F10E0D70175
:100A90005996ED91FC915A974285538564857585E9
:100AA0004150504060407040CF010E94880CC80106
:100AB0000F90CF91DF911F910F91FF90EF900895CC
:100AC000CF93DF93EC01E98DFA8D309761F01382BB
:100AD0001282CF010E94B4109C01E98DFA8D8281AF
:100AE0009381892B31F081E090E09B838A8320E021
:100AF00030E0C901DF91CF910895EF92FF920F93FB
:100B00001F93CF93DF93EC01F62EE72E8A011B8211
:100B10001A8288EE93E0A0E0B0E08C839D83AE83E0
:100B2000BF838EE094E0998388838DE190E00E94FA
:100B300093279A8F898F009791F0DC018F2D9E2D3E
:100B40009C01F9018DE101900D928150E1F7CE01F8
:100B50000C96B8014CE050E00E94AF01188EDF9176
:100B6000CF911F910F91FF90EF9008950F931F93D6
:100B7000CF93DF938C01FB01C081D181FC01EC0F8D
:100B8000FD1F80818F3209F4219698012C0F3D1FA3
:100B9000A0E0B0E00BC0FA01EA0FFB1F80831196C2
:100BA00021962F5F3F4FAC30B10531F0F9018081C4
:100BB0008F3211F0882379F7A40FB51F1C92F8012A
:100BC000EC0FFD1F80818F3209F42196FB01D18348
:100BD000C083C00FD11F8881811181E0DF91CF9147
:100BE0001F910F9108951092AB041092AC041092D3
:100BF000AF041092B10482E090E0A0E0B0E08093F6
:100C0000B2049093B304A093B404B093B5041092CB
:100C1000C9041092D3041092D2048EE194E0909310
:100C2000D1048093D0041092D5040895EF92FF92DE
:100C30001F93DF93CF93CDB7DEB76D970FB6F894C0
:100C4000DEBF0FBECDBF9C01AB011C821B828EE1BB
:100C500094E09A8389831E827E010894E11CF11C32
:100C6000C701B90121E00E94E012182F882319F072
:100C7000C7010E94980D812F6D960FB6F894DEBFC4
:100C80000FBECDBFCF91DF911F91FF90EF900895E0
:100C90002F923F924F925F926F927F928F929F928C
:100CA000BF92CF92DF92EF92FF920F931F93DF9349
:100CB000CF93CDB7DEB7C954D0400FB6F894DEBF9E
:100CC0000FBECDBF1C017B012A0139011B8A1A8A84
:100CD0008EE194E0998B888B1D8A18AA1FA69EA787
:100CE0008DA71AAA1A8219828B0120E1C22ED12C5B
:100CF000CC0EDD1E93E0892E912C8C0E9D1E03C020
:100D0000C80186016C01C101BE016F5F7F4FA40164
:100D10000E94B605B82E40E0882309F441E0C801DE
:100D2000B4019301F2011995882339F40E151F05BA
:100D300019F1C8010E94980D1FC0BB20A9F0C6017F
:100D4000B801A40121E00E94E012B82E0E151F0583
:100D500019F0C8010E94980DBB2071F00E151F05F7
:100D600079F6CE018D96CDCF0E151F0519F0C8016D
:100D70000E94980D81E001C080E0C75BDF4F0FB695
:100D8000F894DEBF0FBECDBFCF91DF911F910F91C1
:100D9000FF90EF90DF90CF90BF909F908F907F90CB
:100DA0006F905F904F903F902F9008959B01BC01F2
:100DB000665D7F4FC90146E156E020E030E00E94C9
:100DC000480608952F923F924F925F926F927F92C2
:100DD0008F929F92AF92BF92CF92DF92EF92FF924B
:100DE0000F931F93DF93CF93CDB7DEB7C754D04097
:100DF0000FB6F894DEBF0FBECDBF582E492EFB01B3
:100E00003A01190184A595A5998B888B2EE134E0D0
:100E10003F872E8786A58A8B87A58B8B80A991A972
:100E2000A2A9B3A98C8B9D8BAE8BBF8B84A995A9EE
:100E3000A6A9B7A9888F998FAA8FBB8F80AD91ADD6
:100E4000A2ADB3AD8C8F9D8FAE8FBF8F84AD88A3C5
:100E5000FD9681919191A191B19189A39AA3ABA3A0
:100E6000BCA381919191A191B1918DA39EA3AFA3B8
:100E7000B8A7808191819AA789A71EA61DA63CA725
:100E80002BA718AA7A018E01025F1F4F3BE2A32E07
:100E9000B12CAC0EBD1E4E010894811C911C35C0B6
:100EA000D7018C918F3221F40894E11CF11C2DC0E4
:100EB000422F4E194D3008F04CE0C42EDD24C40101
:100EC000B701A6010E94AF01F401EC0DFD1D1082D7
:100ED000C5010E94980DC501B801A40121E00E943E
:100EE000E012882351F4E52DF42D138212828EE155
:100EF00094E091838083158266C0EC0CFD1CC801D0
:100F00000E94980DC50158018C01C7016FE270E085
:100F10000E949D019C01009719F6E618F708F1015F
:100F2000F182E082E52DF42DD80112968D919C91ED
:100F30001397938382838EE194E091838083149648
:100F40008C911497848315968C91159785831696AA
:100F50002D913D914D915C91199726833783408760
:100F600051871A962D913D914D915C911D97228745
:100F70003387448755871E962D913D914D915C9105
:100F8000519726873787408B518B52968C91529779
:100F9000828B53962D913D914D915C915697238B69
:100FA000348B458B568B57962D913D914D915C918D
:100FB0005A97278B308F418F528F5B968D919C91E2
:100FC0005C97948F838F852D942DC95BDF4F0FB66F
:100FD000F894DEBF0FBECDBFCF91DF911F910F916F
:100FE000FF90EF90DF90CF90BF90AF909F908F9049
:100FF0007F906F905F904F903F902F9008959F92B9
:10100000AF92BF92CF92DF92EF92FF920F931F9316
:10101000DF93CF93CDB7DEB7C657D0400FB6F89465
:10102000DEBF0FBECDBFC82E992E8A01D22E43E05F
:10103000A42EB12CAC0EBD1EC501A8019E012F5FD0
:101040003F4F0E94E206E980FA80E00EF11EF701B0
:1010500080814EE154E02885882309F03FC08D81CE
:101060009E819BA38AA359A348A38F818CA32DA300
:1010700089859A85AB85BC858EA39FA3A8A7B9A7B0
:101080008D859E85AF85B8898AA79BA7ACA7BDA78C
:1010900089899A89AB89BC898EA79FA7A8ABB9AB70
:1010A0008D898AAB8E899F89A88DB98D8BAB9CABBE
:1010B000ADABBEAB8A8D9B8DAC8DBD8D8FAB98AF2C
:1010C000A9AFBAAF8E8D9F8D9CAF8BAF8C2D992D14
:1010D000BE01605E7F4F4DED53E09FC0FE01FF9665
:1010E000118210825EAF4DAFFE01EE5BFF4F1082AA
:1010F0002223A9F02250CE01CD96223048F460ED93
:1011000074E0A7012D2D0E94E012882381F407C00E
:10111000B501A7012D2D0E94E012882329F48C2D02
:10112000992D0E9490047BC0C5010E94980DF6E0A5
:10113000DF2259F0FE01E05BFF4F40815181628167
:101140007381CE01CD960E94880C9E01265A3F4F96
:10115000FE01FF9680819181F901938382838EE164
:1011600094E091838083FE01EF5BFF4F8081F90162
:101170008483FE01EE5BFF4F8081F9018583FE01D0
:10118000ED5BFF4F80819181A281B381F90186835C
:101190009783A087B187FE01E95BFF4F8081918132
:1011A000A281B381F90182879387A487B587FE0165
:1011B000E55BFF4F80819181A281B381F901868730
:1011C0009787A08BB18BFE01E15BFF4F8081F90116
:1011D000828BFE01E05BFF4F80819181A281B38110
:1011E000F901838B948BA58BB68BFE01EC5AFF4FD4
:1011F00080819181A281B381F901878B908FA18F2A
:10120000B28FFE01E85AFF4F80819181F901948FDE
:10121000838F8C2D992DB901A7010E947D058C2DFE
:10122000992DCA58DF4F0FB6F894DEBF0FBECDBF61
:10123000CF91DF911F910F91FF90EF90DF90CF90B2
:10124000BF90AF909F9008950F931F93CF93DF931C
:10125000EC01462F61E00E94870B8823D1F08E01BC
:10126000045F1F4FC801BE0141E00E948114882322
:1012700039F4C801BE0140E00E948114882349F07E
:10128000CE018A96B8010E94CE0F882319F081E022
:1012900001C080E0DF91CF911F910F910895FF92DF
:1012A0000F931F93CF93DF938B010E94D525EB0102
:1012B000FF24FA94FEBC0DB407FEFDCF8EB58F3F20
:1012C00011F481E008C00E94D5256C1B7D0B6017CE
:1012D000710780F380E0DF91CF911F910F91FF9014
:1012E0000895FC01673020F086E1858380E0089551
:1012F0006330B9F0643028F4613069F0623070F422
:1013000007C06530A1F0653078F06630A9F412C0EE
:1013100084E090E011C080E090E00EC085E090E0B5
:101320000BC081E090E008C086E090E005C082E05C
:1013300090E002C083E090E00E94680481E008959C
:10134000FC01848160E00E9460270895FC01848193
:1013500061E00E9460270895DC016EBD0DB407FEB8
:10136000FDCF8EB520E030E0FA01E20FF31F80815F
:101370008EBD0DB407FEFDCF8EB52F5F3F4F82E0CF
:101380002030380789F78FEF8EBD0DB407FEFDCFF3
:101390008EB58FEF8EBD0DB407FEFDCF8EB58FEFEE
:1013A0008EBD0DB407FEFDCF8EB51A968C931A979D
:1013B0008F71853011F481E0089581E115968C9349
:1013C0001597CD010E94A60980E00895FF920F9322
:1013D0001F93CF93DF93EC010E94D5258B01FF244F
:1013E000FA9409C00E94D525601B710B6D527140A3
:1013F00010F08FE00DC0FEBC0DB407FEFDCF8EB522
:101400008A878F3F79F38E3F11F481E006C08DE02B
:101410008D83CE010E94A60980E0DF91CF911F91BC
:101420000F91FF900895CF93DF93EC018E81882375
:10143000B1F02F8138854FEF05C04EBD0DB407FECA
:10144000FDCF8EB52F5F3F4FC9010197825092406B
:10145000A0F338872F83CE010E94A6091E82DF9158
:10146000CF910895DF92EF92FF920F931F93CF9346
:10147000DF93EC01D62E79018A010E94130ACE0176
:101480000E94A009CE016CE271E00E944F098D2DEF
:1014900080648EBD0DB407FEFDCF8EB528E130E02F
:1014A000D801C701022E04C0B695A79597958795D8
:1014B0000A94D2F78EBD0DB407FEFDCF8EB528502D
:1014C00030408FEF283F380759F7DD2011F485E9C8
:1014D00006C088E0D81611F487E801C08FEF8EBDF2
:1014E0000DB407FEFDCF8EB590E02FEF2EBD0DB4ED
:1014F00007FEFDCF8EB587FF02C09150B9F78A87EE
:10150000DF91CF911F910F91FF90EF90DF900895A1
:10151000CF92DF92EF92FF920F931F93CF93DF93BF
:10152000EC017A018B0169014115510561057105D5
:1015300011F482E137C08B85833039F099E0EE0CED
:10154000FF1C001F111F9A95D1F7CE0168E1A80179
:1015500097010E94320A882311F084E023C0CE0153
:101560006EEFA6010E94AC098823E9F0CE0168E580
:1015700072E00E944F09882311F485E113C0CE0167
:101580006DE020E030E040E050E00E94320A882325
:1015900041F48FEF8EBD0DB407FEFDCF8EB58823CD
:1015A00079F084E18D83CE010E94A60980E0DF916D
:1015B000CF911F910F91FF90EF90DF90CF90089502
:1015C000CE010E94A60981E0F2CF8F929F92AF9246
:1015D000BF92CF92DF92EF92FF920F931F93CF9320
:1015E000DF93EC015A016B0149010115110509F462
:1015F00070C0C801820F931F8150924008F064C0F0
:101600008E81882371F088819981AA81BB814817D6
:1016100059076A077B0729F48F81988588169906F0
:1016200010F5A882B982CA82DB828B85833039F0BB
:1016300059E0AA0CBB1CCC1CDD1C5A95D1F7CE017D
:1016400061E1A60195010E94320A882319F083E026
:101650008D833AC0CE010E94E6098823A9F118863D
:101660001F8281E08E838F8198852FEF06C02EBD6B
:101670000DB407FEFDCF3EB5019688159905B8F368
:1016800098878F8320E030E09FEF0BC09EBD0DB4A4
:1016900007FEFDCF8EB5F701E20FF31F80832F5FAA
:1016A0003F4F2017310790F32F813885200F311FCE
:1016B00038872F838985882319F02050324048F0DD
:1016C000CE010E94130A05C0CE010E94A60980E047
:1016D00001C081E0DF91CF911F910F91FF90EF90BA
:1016E000DF90CF90BF90AF909F908F900895EF9232
:1016F000FF920F931F93790120E030E000E012E0A9
:101700000E94E50A1F910F91FF90EF900895BF92FC
:10171000CF92DF92EF92FF920F931F93CF93DF93BD
:10172000EC01B62E1B8619861E821D824C830E94F8
:10173000D5256B018C8161E00E94AD26CE010E940F
:10174000A6090E94790483E00E94680480E09FEF6C
:101750009EBD0DB407FEFDCF2EB58F5F8A30C1F759
:10176000CE010E94A00909C00E94D5256C197D09EF
:10177000615D774010F081E05EC0CE0160E020E066
:1017800030E040E050E00E94320A182F8A87813012
:1017900059F7CE0168E02AEA31E040E050E00E94CB
:1017A000320A82FF02C01B8711C080E02FEF2EBDDE
:1017B0000DB407FEFDCF9EB58F5F8430C1F79A87C9
:1017C0009A3A11F082E037C082E08B878B858230B5
:1017D00021F0EE24FF2487010FC0E12CF12C012D14
:1017E00060E4162F09C00E94D5256C197D09615D42
:1017F000774010F088E01FC0CE0167E320E030E0C2
:1018000040E050E00E94320ACE0169E2A80197014F
:101810000E94320A8A87882331F78B85823031F51E
:10182000CE016AE320E030E040E050E00E94320A5E
:10183000882339F086E08D83CE010E94A60980E0DE
:101840001CC08FEF8EBD0DB407FEFDCF8EB5807C22
:10185000803C11F483E08B8780E09FEF9EBD0DB448
:1018600007FEFDCF2EB58F5F8330C1F7CE010E94FA
:10187000A609CE016B2D0E947109DF91CF911F91B6
:101880000F91FF90EF90DF90CF90BF900895CF938E
:10189000DF93EC01DB0180E090E020E2FD01E80F46
:1018A000F91F208301968B309105C1F757E040E086
:1018B00021C02E3219F086E691E007C05A3019F1A6
:1018C0005AE048E017C03217F1F0FC01019634915C
:1018D0003323C9F75417B8F02132A8F02F3798F402
:1018E000822F81568A3108F42052FD01E40FF11D48
:1018F00020834F5F29912223E1F690E08C91803282
:1019000019F091E001C090E0892FDF91CF91089507
:101910006F927F928F929F92AF92BF92CF92DF92FF
:10192000EF92FF920F931F93CF93DF93EC017A0115
:101930008B012D81222309F480C08B899C89AD897C
:10194000BE8984179507A607B70708F476C085C037
:10195000E114F1040105110549F41E821F82188665
:1019600019861A861B861C861D8665C02A853B85BE
:101970004C855D85EB8DFC8D858590E00996215029
:1019800030404040504039014A01082E04C096942E
:101990008794779467940A94D2F72F5F3F4F4F4F05
:1019A0005F4F0894E108F108010911095701680126
:1019B00004C0D694C794B794A7948A95D2F7089494
:1019C000E11CF11C011D111DA614B704C804D904A3
:1019D00028F0211531054105510549F48F89988D6D
:1019E000A98DBA8D8E839F83A887B98716C0A61844
:1019F000B708C808D90811C04E815F81688579850C
:101A00008B8D9C8D94010E9462160894A108B108E8
:101A1000C108D108882331F410C086E0882E912CAB
:101A20008C0E9D1EA114B104C104D10429F7EA86CD
:101A3000FB860C871D8781E001C080E0DF91CF919C
:101A40001F910F91FF90EF90DF90CF90BF90AF90DC
:101A50009F908F907F906F900895223009F078CFFB
:101A6000E6CFCF93DF93EC01462F6E857F85888983
:101A700099890E944614882319F420E030E00AC0B6
:101A80008A89282F30E095E0220F331F9A95E1F7DD
:101A90002F503B4FC901DF91CF9108950F931F93B2
:101AA000CF93DF938C01FC0185818823D9F1848158
:101AB00087FF35C0C80161E00E94310DEC0100973D
:101AC00089F1F8018581823040F483899489A58960
:101AD000B6898C8F9D8FAE8FBF8FF8018789908DCF
:101AE0009B8F8A8F8789908DA18DB28DCD01AA277A
:101AF000BB279D8B8C8BE091EF04F091F004309725
:101B000051F0BE016A5E7F4FCE0148961995888DCF
:101B1000998D9B8B8A8BF80184818F7784830E94B7
:101B2000E71301C080E0DF91CF911F910F910895DD
:101B3000CF93DF93EC010E944E0D882311F01D829C
:101B400081E0DF91CF9108956F927F928F929F9263
:101B5000AF92BF92CF92DF92EF92FF920F931F93BB
:101B6000DF93CF9300D00F92CDB7DEB77C015A013F
:101B70006B01DC0115968C911597813009F08FC0AF
:101B800014968C9181FF8BC09EC00097A105B10572
:101B900011F481E085C0F7016284738484849584A4
:101BA000C701B601A5010E94880C882309F477C0FB
:101BB000D7015B968D919C915C97A114B104C104EF
:101BC000D10489F457964D915D916D917C915A970E
:101BD0000E94D516882309F462C0F701178A108E77
:101BE000118E128E3DC0D70116964D915D916D916B
:101BF0007C9119979E012F5F3F4F0E9462168823A8
:101C000009F44DC0D7015B96ED91FC915C97498139
:101C10005A816B817C818789803129F088EF9FEF21
:101C2000AFEFBFE004C088EF9FEFA0E0B0E048173F
:101C300059076A077B07A0F4CF010E94D5168823B5
:101C400071F1F7014681578160857185838D948D8F
:101C50000FEF1FEF2FEF3FE00E94C6158823F9F02A
:101C6000D7015396AD92BD92CD92DC9256971496C1
:101C70008C911497806814968C93C7010E944E0D26
:101C8000882369F0B601A5016A147B048C049D04C5
:101C900010F4B401A301C7010E94880C01C080E0C8
:101CA0000F900F900F900F90CF91DF911F910F9198
:101CB000FF90EF90DF90CF90BF90AF909F908F906C
:101CC0007F906F900895F70183899489A589B689DB
:101CD00084179507A607B70708F057CFE0CF2F92D4
:101CE0003F924F925F926F927F928F929F92AF92AC
:101CF000BF92CF92DF92EF92FF920F931F93CF93F9
:101D0000DF93EC012A018D81882309F4C6C08C8100
:101D100080FFC3C0D8C025014E185F084B0176E094
:101D2000272E312C2C0E3D1E3201B1C02A853B8559
:101D30004C855D856FEFA62E61E0B62EA222B32200
:101D40008D8179018A0199E016950795F794E794BA
:101D50009A95D1F7EB8DFC8D823049F4428D538DED
:101D6000648D758D4E0D5F1D601F711F3FC0D48047
:101D7000DA94DE20A114B104D9F4DD20C9F42115D0
:101D800031054105510549F48F89988DA98DBA8D8A
:101D90008E839F83A887B9870BC04E815F8168853A
:101DA0007985CF0191010E946216882309F475C0DC
:101DB000EB8DFC8D4E815F81688579854250504066
:101DC00060407040058404C0440F551F661F771F94
:101DD0000A94D2F786859785A089B189480F591F43
:101DE0006A1F7B1F4D0D511D611D711D80E092E02A
:101DF0008A199B0963018615970508F46C018C818B
:101E000086FD06C080E0C81682E0D80609F073C0DF
:101E10008091FE039091FF03A0910004B091010412
:101E2000481759076A077B0709F465C08091F106D6
:101E30009091F2069501860174010E94E50A8823BB
:101E400061F18C0C9D1C12C095012F503B4FA901D4
:101E50004C0D5D1DD401F90102C081918D93E417F1
:101E6000F507D9F7E21BF30B8E0E9F1E960140E09B
:101E700050E08A859B85AC85BD85820F931FA41F8A
:101E8000B51F8A879B87AC87BD876C187D08611456
:101E9000710409F04BCFA20102C04FEF5FEFCA01FE
:101EA000DF91CF911F910F91FF90EF90DF90CF9036
:101EB000BF90AF909F908F907F906F905F904F906A
:101EC0003F902F900895AB88BC88CD88DE88EA8447
:101ED000FB840C851D859A0140E050E0D601C501C8
:101EE0008E199F09A00BB10B82179307A407B507A2
:101EF00008F411CF13CFCB01BA0140E00E94461481
:101F0000882309F0A1CFC9CFCF92DF92EF92FF9241
:101F10000F931F93DF93CF930F92CDB7DEB76C0172
:101F2000FC018581823070F0E284F384048515859C
:101F3000C601BE016F5F7F4F41E050E00E946F0E0F
:101F4000019769F020E030E0C9010F90CF91DF9157
:101F50001F910F91FF90EF90DF90CF900895F601C1
:101F600082859385A485B5854F96A11DB11D828775
:101F70009387A487B587F5E016950795F794E794BE
:101F8000FA95D1F78E2D8F70282F30E0E5E0220FE3
:101F9000331FEA95E1F72F503B4FD6CF0F931F9396
:101FA000CF93DF93EC018B018D81882309F041C031
:101FB000FB0187898031B1F482E08D831F8A188EFE
:101FC000198E1A8E808D918DA0E0B0E045E0880FCB
:101FD000991FAA1FBB1F4A95D1F78B8B9C8BAD8B8A
:101FE000BE8B15C0803229F583E08D83FB01428DC5
:101FF000538D648D758D4F8B588F698F7A8F9E01AD
:102000002D5E3F4FC8010E942E17882391F01C8F30
:102010000B8F81E08C831E821F82188619861A8698
:102020001B861C861D861E861F86188A198A1A8A98
:1020300001C080E0DF91CF911F910F9108951F9310
:10204000CF93DF93EC01142FE62FF0E075E0EE0F55
:10205000FF1F7A95E1F7EF50FB4F8385817121F0E7
:10206000842F827409F054C06A8B8091FE03909192
:10207000FF03A0910004B09101048E879F87A88B75
:10208000B98B84899589A0E0B0E0BC01552744272D
:10209000828D938DA0E0B0E0482B592B6A2B7B2BCF
:1020A0004F8B588F698F7A8F838590E088719070FD
:1020B000009751F4848D958DA68DB78D8B8B9C8B5D
:1020C000AD8BBE8B81E00CC0409711F59E012D5E5B
:1020D0003F4F8B8D9C8D0E942E178823C9F084E082
:1020E0008D83812F8F708C831E821F8218861986A4
:1020F0001A861B861C861D8616FD02C081E009C05B
:10210000CE0140E050E060E070E00E94A40D01C00C
:1021100080E0DF91CF911F910895CF93DF93EC0181
:102120009C012A5F3F4F8B8D9C8D41E050E060E029
:1021300070E00E949D178823A1F08F89988DA98D4A
:10214000BA8D0097A105B10559F48E819F81A885AC
:10215000B9858F8B988FA98FBA8F8C8180688C837B
:1021600081E0DF91CF9108952F923F924F925F923D
:102170007F928F929F92AF92BF92CF92DF92EF9217
:10218000FF920F931F93DF93CF9300D000D0CDB772
:10219000DEB76C01162F072F5E834D83DC01159689
:1021A0008C911597813009F070C114968C9181FF44
:1021B0006CC18EC1F601438954896589768982850F
:1021C0009385A485B58584179507A607B70731F0D1
:1021D000C6010E94880C882309F457C1812F902FD3
:1021E0009C0129012D803E8017C1D6015B96ED919F
:1021F000FC915C97DA01C90119E0B695A79597950E
:1022000087951A95D1F774807A9478227FEF872E7C
:1022100071E0972E82229322772009F04EC081141C
:10222000910409F04AC0D60116964D915D916D91C9
:102230007C911997411551056105710581F45796F7
:102240008D919D910D90BC91A02D0097A105B10598
:1022500049F1F60186839783A087B1872EC0CF010D
:102260009E012F5F3F4F0E946216882309F414C11C
:1022700029813A814B815C81D6015B96ED91FC917D
:102280005C978789803129F088EF9FEFAFEFBFE03F
:1022900004C088EF9FEFA0E0B0E0281739074A0795
:1022A0005B0730F0C6010E948D10882331F4EDC029
:1022B000F601268337834087518780E092E08819B2
:1022C000990951018215930508F45C01D6015B96CA
:1022D000ED91FC915C971696ED90FD900D911C91FF
:1022E00019978EEF9FEFAFEFBFEFE80EF91E0A1FB1
:1022F0001B1F058404C0EE0CFF1C001F111F0A9455
:10230000D2F786859785A089B189E80EF91E0A1F44
:102310001B1FE70CF11C011D111D90E0A91692E096
:10232000B90651F58091FE039091FF03A09100043E
:10233000B09101048E159F05A007B10761F48FEFDE
:102340009FEFAFEFBFEF8093FE039093FF03A09347
:102350000004B09301048091F1069091F206B80157
:10236000A70192010E94880A882309F48EC0A0E088
:10237000B2E04A0E5B1E3EC08114910409F5F601DD
:10238000228533854485558583899489A589B689B5
:10239000281739074A075B0798F00E94E71388233C
:1023A00009F473C0E092FE03F092FF03009300046F
:1023B000109301048091F30681608093F30608C0B6
:1023C000C801B70141E00E944614882309F45DC0AA
:1023D00094012F503B4FA9014A0D5B1DD201F90119
:1023E00002C08D918193E417F507D9F7E21BF30B37
:1023F0004E0E5F1E2A183B08950140E050E0F601A2
:1024000082859385A485B585820F931FA41FB51F70
:1024100082879387A487B587D6011A962D913D911F
:102420004D915C911D972114310409F0DECE539635
:102430008D919D910D90BC91A02D82179307A407BB
:10244000B50748F4F601238B348B458B568B84817A
:102450008068848311C08091EF049091F004892BEF
:1024600059F08D819E81892B39F0D60114968C917B
:102470001497806814968C93F601848183FF0EC0B4
:10248000C6010E944E0D882349F481E090E0D601F8
:1024900013969C938E9312971E821D828D819E812E
:1024A00026960FB6F894DEBF0FBECDBFCF91DF9159
:1024B0001F910F91FF90EF90DF90CF90BF90AF9062
:1024C0009F908F907F905F904F903F902F900895B6
:1024D00082FD70CE83CEDF93CF930F92CDB7DEB760
:1024E0006983BE016F5F7F4F41E050E00E94B410EE
:1024F0000F90CF91DF910895DF92EF92FF920F93AB
:102500001F93CF93DF93EC010E948D10882309F471
:102510004EC0EB8DFC8DEE80FF80088519858EEF17
:102520009FEFAFEFBFEFE80EF91E0A1F1B1F0584D8
:1025300004C0EE0CFF1C001F111F0A94D2F7868501
:102540009785A089B189E80EF91E0A1F1B1FD48048
:102550000894E108F108010911090BC0C801B7018D
:102560006D0D711D811D911D0E9422148823F9F0AB
:10257000DA94DD2099F7EB8DFC8D20E032E040E02D
:1025800050E0058404C0220F331F441F551F0A94D6
:10259000D2F78B899C89AD89BE89820F931FA41FB6
:1025A000B51F8B8B9C8BAD8BBE8B81E001C080E017
:1025B000DF91CF911F910F91FF90EF90DF900895E1
:1025C0006F927F928F929F92AF92BF92CF92DF9243
:1025D000EF92FF920F931F93DF93CF93CDB7DEB7A8
:1025E0002B970FB6F894DEBF0FBECDBF5C016B0119
:1025F000822EDC0115968C91882309F0D2C0CA0185
:102600008E010F5F1F4FB8010E94470C882309F409
:10261000C8C0F601838D948DD5015C969C938E93F2
:102620005B971682178210861186D6011A961D9224
:102630001D921D921C921D979924380141C0C6011C
:102640000E94840FFC01009709F4ABC085E0169549
:102650000795F794E7948A95D1F71E2D1F70808116
:10266000882311F0853ED1F4992091F4D50152963A
:102670001C9352972091FE033091FF034091000478
:10268000509101041E962D933D934D935C93519769
:102690008081882399F49924939421C0C301BF01B8
:1026A0004BE050E00E948001009751F4882D807328
:1026B000803309F476C0C501612F6FC099249394CB
:1026C000F601E284F3840485158583899489A589BC
:1026D000B689E816F9060A071B0708F4B0CF882D5B
:1026E0008271823109F05DC0992041F0C50161E03D
:1026F0000E94310D8C01009789F453C0D6011596C4
:102700008C91823009F44DC0C6010E947C1288234E
:1027100009F447C0F501128A01EF14E080E2D80104
:102720001D928A95E9F7D801FE0131968BE0019060
:102730000D928150E1F7E091EF04F091F0043097B1
:1027400039F0B801625F7F4FC8014096199509C002
:1027500081E298E2F801918B808B80E098E0978786
:102760008687D80150968D919C91519753969C9352
:102770008E93529759969C938E9358971E968D914F
:102780009C911F9757969C938E9356970E94E713A0
:10279000882339F0C501F5016289482D0E941F1078
:1027A00001C080E02B960FB6F894DEBF0FBECDBF00
:1027B000CF91DF911F910F91FF90EF90DF90CF901D
:1027C000BF90AF909F908F907F906F900895809171
:1027D000F306882399F14091FE035091FF03609125
:1027E0000004709101048091F1069091F20621EFAE
:1027F00034E00E94880A882319F14091F406509130
:10280000F5066091F6067091F706411551056105D0
:10281000710591F08091F1069091F20621EF34E07C
:102820000E94880A882361F01092F4061092F5063F
:102830001092F6061092F7061092F30681E00895C2
:1028400080E00895EF92FF920F931F937B018C011C
:102850000E94E7138823A9F0E1EFF4E0119286E0EB
:10286000E13FF807D9F7E092FE03F092FF030093EF
:102870000004109301048091F30681608093F306B5
:1028800081E01F910F91FF90EF900895DF92EF92FA
:10289000FF920F931F937B018C01D42E8091FE0336
:1028A0009091FF03A0910004B09101048E159F0543
:1028B000A007B107C1F00E94E7138823D9F08091E7
:1028C000F1069091F206B801A70121EF34E00E94D1
:1028D000770B882379F0E092FE03F092FF030093D8
:1028E0000004109301048091F3068D298093F30670
:1028F00081E001C080E01F910F91FF90EF90DF9089
:1029000008958F929F92AF92BF92CF92DF92EF92F3
:10291000FF920F931F93CF93DF936C01142F70934B
:10292000F2066093F106442321F48824992454018B
:1029300040C0453008F01CC160E070E080E090E0ED
:1029400040E00E944614882309F412C1C12FD0E050
:102950002197FE0174E0EE0FFF1F7A95E1F7EF502B
:10296000FB4FE254FE4F8081EE5BF14090E08F77A9
:102970009070892B09F0FCC0E653FE4F8081918155
:10298000A281B38184369105A105B10508F4F0C098
:1029900064E0CC0FDD1F6A95E1F7C954D94F8880F8
:1029A0009980AA80BB8081149104A104B10409F428
:1029B000DFC0C501B40140E00E944614882309F439
:1029C000D7C08091FC049091FD048050924009F0A2
:1029D000CFC020910105222309F4CAC08091FF04D1
:1029E00090910005892B09F4C3C08091FE048823CF
:1029F00009F4BEC0F601228B8091FE048483158603
:102A000061E070E007C04F5FF601458741504830F4
:102A100008F0AEC0F6014585848190E09B01042E4C
:102A200002C0220F331F0A94E2F78217930759F767
:102A300020910705309108052115310519F040E076
:102A400050E008C0209115053091160540911705FA
:102A500050911805F6012583368347835087E0900F
:102A6000FF04F090000500E010E0E80CF91C0A1DDE
:102A70001B1DE38AF48A058B168B809102059091C9
:102A80000305918F808F6091010570E080E090E0F8
:102A90000E94EE336E0D7F1D801F911FF601628F25
:102AA000738F848F958F209102053091030555E037
:102AB000220F331F5A95E1F721503E4F232F332722
:102AC000269540E050E0260F371F481F591F2687E4
:102AD0003787408B518B80910405909105050097B5
:102AE00019F0A0E0B0E008C08091110590911205A6
:102AF000A0911305B091140585017401E21AF30A3F
:102B0000040B150BA8019701280F391F4A1F5B1FE3
:102B1000F601058404C056954795379527950A9484
:102B2000D2F72187328743875487253FFFE03F074D
:102B3000F0E04F07F0E05F0710F48CE006C0255F7F
:102B40003F4F4040504028F480E1F601878B81E000
:102B500010C080911D0590911E05A0911F05B09198
:102B60002005F601828F938FA48FB58F80E2EECF80
:102B700080E0DF91CF911F910F91FF90EF90DF9058
:102B8000CF90BF90AF909F908F9008954F925F929B
:102B90006F927F928F929F92AF92BF92CF92DF926D
:102BA000EF92FF920F931F93CF93DF93EC016A0193
:102BB0007B0128013901423051056105710508F496
:102BC0006FC089859A85AB85BC850196A11DB11D15
:102BD00084179507A607B70708F462C02B893C89BC
:102BE0004D895E898F89803129F499278F2D7E2D1B
:102BF0006D2D09C0C701B60117E0969587957795A9
:102C000067951A95D1F74B015C01820E931EA41EA5
:102C1000B51E8091FE039091FF03A0910004B09136
:102C2000010488169906AA06BB0639F0C501B4014D
:102C300040E00E944614882399F18F89803149F43D
:102C4000F601F070EE0FFF1FEF50FB4F51824082F4
:102C50000DC0F601EF77F070EE0FFF1FEE0FFF1FB4
:102C6000EF50FB4F40825182628273828091F30663
:102C700081608093F3068A89823080F08D819E8105
:102C8000AF81B885880E991EAA1EBB1E8092F406DD
:102C90009092F506A092F606B092F70681E001C088
:102CA00080E0DF91CF911F910F91FF90EF90DF9027
:102CB000CF90BF90AF909F908F907F906F905F90DC
:102CC0004F900895CF92DF92EF92FF920F931F9350
:102CD000CF93DF93EC017A018B01690189859A8595
:102CE000AB85BC850196A11DB11D84179507A6076C
:102CF000B70708F450C02B893C894D895E898F89BC
:102D0000803129F49927812F702F6F2D09C0C801B8
:102D1000B701E7E09695879577956795EA95D1F79E
:102D2000260F371F481F591F8091FE039091FF0304
:102D3000A0910004B0910104281739074A075B07E6
:102D400039F0CA01B90140E00E944614882319F104
:102D50008F89803159F4F701F070EE0FFF1FEF50AB
:102D6000FB4F80819181A0E0B0E00EC0F701EF77CA
:102D7000F070EE0FFF1FEE0FFF1FEF50FB4F808133
:102D80009181A281B381BF70F60180839183A28378
:102D9000B38381E001C080E0DF91CF911F910F915B
:102DA000FF90EF90DF90CF900895AF92BF92CF92B7
:102DB000DF92EF92FF920F931F93DF93CF9300D098
:102DC0000F92CDB7DEB76C017A018B0182E090E003
:102DD000A0E0B0E0F60180839183A283B3835E011B
:102DE0000894A11CB11CC601B801A70195010E945D
:102DF0006216882319F1C601B801A70100E010E0AE
:102E000020E030E00E94C6158823C1F0E980FA80F6
:102E10000B811C81F6018789803129F088EF9FEFB3
:102E2000AFEFBFE004C088EF9FEFA0E0B0E0E8168E
:102E3000F9060A071B07B8F281E001C080E00F9095
:102E40000F900F900F90CF91DF911F910F91FF90F6
:102E5000EF90DF90CF90BF90AF9008954F925F9228
:102E60006F927F928F929F92AF92BF92CF92DF929A
:102E7000EF92FF920F931F93DF93CF9300D00F92A7
:102E8000CDB7DEB76C0149835A836B837C833901EC
:102E9000EE24FF2487012E010894411C511C812C33
:102EA000A2E09A2EA12CB12C49815A816B817C81A0
:102EB000C60192010E946216882351F1D501C40116
:102EC000F601058404C0880F991FAA1FBB1F0A942E
:102ED000D2F7E80EF91E0A1F1B1F29813A814B8188
:102EE0005C818789803129F088EF9FEFAFEFBFE0E9
:102EF00004C088EF9FEFA0E0B0E0281739074A0729
:102F00005B0790F2F301E082F1820283138381E098
:102F10000F900F900F900F90CF91DF911F910F9115
:102F2000FF90EF90DF90CF90BF90AF909F908F90E9
:102F30007F906F905F904F9008952F923F924F92A5
:102F40005F926F927F928F929F92AF92BF92CF9239
:102F5000DF92EF92FF920F931F93DF93CF93CDB742
:102F6000DEB72F970FB6F894DEBF0FBECDBF1C01A2
:102F70004A875B876C877D873F872E87D9010D91B4
:102F80001D912D913C91011511052105310549F047
:102F9000480159010894811C911CA11CB11C19867F
:102FA00010C0FC0180809180A280B38019868A8540
:102FB0009B85AC85BD850197A105B10511F491E014
:102FC0009987D10119968D919D910D90BC91A02D5D
:102FD0000196A11DB11D8D839E83AF83B8877501B6
:102FE00064014424552432018E010F5F1F4FF1010B
:102FF00081859285A385B485481659066A067B06A5
:1030000008F090C08D819E81AF81B8858C159D059B
:10301000AE05BF0550F482E0882E912CA12CB12C76
:10302000B2E0CB2ED12CE12CF12CC101B701A601CD
:1030300098010E946216882309F474C089819A81DC
:10304000AB81BC81A70196012F5F3F4F4F4F5F4F70
:103050000097A105B10519F049015A010DC02819C1
:1030600039094A095B098A859B85AC85BD85281786
:1030700039074A075B0759F00894411C511C611C31
:10308000711C0894C11CD11CE11CF11CB0CFC10102
:10309000A601B7010FEF1FEF2FEF3FE00E94C6150B
:1030A000882399F43FC0260137010894410851084C
:1030B00061087108C101B301A201970186010E9454
:1030C000C615882379F1730162018C149D04AE0446
:1030D000BF0448F3AE85BF854D915D916D917C91A4
:1030E000411551056105710539F0C1019501840152
:1030F0000E94C6158823B1F0EE85FF8580829182FB
:10310000A282B382F985FF2359F00894811C911C97
:10311000A11CB11CD1018D929D92AD92BC921397CE
:1031200081E001C080E02F960FB6F894DEBF0FBE9D
:10313000CDBFCF91DF911F910F91FF90EF90DF9066
:10314000CF90BF90AF909F908F907F906F905F9047
:103150004F903F902F90089581E080933D076093BA
:103160001A0710923B0710923C0708952091190707
:1031700030E080911807281B3109C901089540915A
:10318000180780911907481718F02FEF3FEF0AC072
:10319000E42FF0E0E850F94F8081282F30E04F5FB6
:1031A00040931807C9010895E09118078091190705
:1031B000E81718F0EFEFFFEF06C0F0E0E850F94F26
:1031C0008081E82FF0E0CF01089508951092410723
:1031D0001092400788EE93E0A0E0B0E080934207B1
:1031E00090934307A0934407B093450786E294E089
:1031F00090933F0780933E070895CF92DF92EF921E
:10320000FF920F931F93CF93DF937C016B018A0191
:1032100080913D078823A1F0C0E0D0E00DC0D70128
:10322000ED91FC91D601AC0FBD1F0190F081E02D16
:10323000C7016C9119952196C017D10780F304C07E
:10324000CB01642F0E942F1AC801DF91CF911F91EB
:103250000F91FF90EF90DF90CF900895DF93CF9381
:103260000F92CDB7DEB7FC01698380913D078823BB
:10327000C9F080913C07803238F081E090E0938380
:10328000828320E030E015C080913B07E82FF0E01A
:10329000E55EF84F998190838F5F80933B07809321
:1032A0003C0705C0CE01019661E00E942F1A21E083
:1032B00030E0C9010F90CF91DF9108950F93062F51
:1032C00080911A076BE177E040913C0721E00E9472
:1032D000DA1910923B0710923C0710923D070F91AC
:1032E000089561E00E945E190895413208F040E2BD
:1032F000862F68EF76E00E9491191092180780934C
:103300001907089521E00E94751908951092180771
:103310001092190710923B0710923C070E94DF1B86
:103320000895382F413210F040E042C080914A07A2
:103330008823E1F791E090934A0720934C078FEFA1
:103340008093B707109272074150409373074F5F05
:1033500090934B0780914B07330F832B80934B0740
:1033600080914D07813041F410924D0780914B07B9
:103370008093BB0085EC01C085EE8093BC008091FA
:103380004A078130E1F380917207841710F440916D
:10339000720720E030E00AC0FB01E20FF31FD90101
:1033A000AE5AB84F8C9180832F5F3F4F2417A0F304
:1033B000842F08950F931F93582F122F413210F02E
:1033C00081E04AC080914A078823E1F782E0809338
:1033D0004A0700934C078FEF8093B707109272074C
:1033E00040937307A2E5B7E0FB0102C081918D9382
:1033F0008E2F861B8417D0F310924B0780914B07BA
:10340000550F852B80934B0780914D07813041F4F8
:1034100010924D0780914B078093BB0085EC01C053
:1034200085EE8093BC00112321F080914A07823001
:10343000E1F38091B7078F3F11F480E00DC08091D8
:10344000B707803211F482E007C08091B70780335C
:1034500011F084E001C083E01F910F910895482F7F
:10346000613210F081E0089580914A07843011F0B4
:1034700082E0089560939507A4E7B7E0842F9C014C
:10348000F90102C081918D938E2F841B8617D0F392
:1034900080E008951F920F920FB60F920BB60F9215
:1034A00011242F933F934F935F936F937F938F9349
:1034B0009F93AF93BF93EF93FF938091B90090E0F8
:1034C000887F90708036910509F4F2C081369105AD
:1034D000CCF58832910509F47BC089329105B4F4AA
:1034E0008031910509F46FC0813191053CF400975A
:1034F00009F447C1089709F04FC165C088319105AB
:1035000009F466C0809709F047C182C080349105F4
:1035100009F4A4C08134910544F48033910509F481
:1035200082C0C89709F038C189C08035910509F477
:1035300089C08835910509F496C08834910509F051
:103540002BC1AEC08839910509F413C189399105A1
:10355000ECF48837910509F4ABC0893791054CF438
:103560008836910509F4A4C08037910509F014C18B
:103570009FC08838910509F4FCC08039910509F491
:103580009DC08038910509F007C198C0803B910526
:1035900009F4C6C0813B91054CF4803A910509F4C9
:1035A0009FC0883A910509F0F7C0BAC0803C9105E8
:1035B00009F4E3C0883C910509F4DFC0883B91051C
:1035C00009F0EAC0C2C080914B078093BB00CFC016
:1035D0009091720780917307981768F49091720721
:1035E000E92FF0E0EE5AF84F80818093BB009F5F97
:1035F00090937207BCC080914C07882309F44BC09C
:1036000085ED8093BC008091BC0084FDFCCFC2C0DE
:1036100080E28093B70785ED8093BC008091BC0069
:1036200084FDFCCFB7C080E38093B70785ED80931E
:10363000BC008091BC0084FDFCCFACC088E38093CB
:10364000B7079BC0809172079091BB00E82FF0E014
:10365000EE5AF84F90838F5F8093720790917207B4
:103660008091730782C0809172079091BB00E82F10
:10367000F0E0EE5AF84F90838F5F8093720780914D
:103680004C07882341F085ED8093BC008091BC00FD
:1036900084FDFCCF7FC081E080934D0784EA6EC03B
:1036A00085ED8093BC008091BC0084FDFCCF72C08E
:1036B00083E080934A071092B60759C08091B607FD
:1036C000803208F056C08091B6079091BB00E82F79
:1036D000F0E0EA56F84F90838F5F8093B60747C0BB
:1036E0008091B607803230F4E091B607F0E0EA56F8
:1036F000F84F108285ED8093BC008091BC0084FD62
:10370000FCCF10924A076091B607E0915007F09104
:10371000510786E997E070E019951092B6072DC021
:1037200084E080934A071092940710929507E091E5
:103730004E07F0914F07199580919507882329F43A
:1037400081E0809395071092740790919407E92F78
:10375000F0E0EC58F84F80818093BB009F5F90931E
:1037600094079091940780919507981710F485EC31
:1037700001C085E88093BC000FC085EC8093BC003D
:1037800009C01092B70785ED8093BC008091BC0002
:1037900084FDFCCF10924A07FF91EF91BF91AF914A
:1037A0009F918F917F916F915F914F913F912F9159
:1037B0000F900BBE0F900FBE0F901F901895109298
:1037C0004A0781E080934C0710924D0784E161E045
:1037D0000E94602785E161E00E946027E9EBF0E04C
:1037E00080818E7F808380818D7F808388E4809339
:1037F000B80085E48093BC0008950895CF92DF92CD
:10380000EF92FF920F931F936C01CB01BA01F60167
:103810002589368940E050E0621B730B840B950BC1
:103820002389348940E050E00E94EE337B018C0113
:103830003FE015950795F794E7943A95D1F7F6018F
:1038400065857685882777FD8095982F2BE0660F14
:10385000771F881F991F2A95D1F72785308944271C
:1038600037FD4095542F2E0D3F1D401F511F0E94C4
:103870002F342E0D3F1D401F511FB901CA011F914A
:103880000F91FF90EF90DF90CF900895EF92FF920D
:103890000F931F93162F042F4EE3E42E47E0F42ED0
:1038A000C70167E770E00E94AC18C701612F0E9452
:1038B0002E19C701602F0E942E19C7010E9471198D
:1038C0001F910F91FF90EF900895CF92DF92EF92AA
:1038D000FF920F931F93162F5EE3E52E57E0F52E10
:1038E000C70167E770E00E94AC18C701612F0E9412
:1038F0002E19C7010E947119C70167E770E00E9485
:10390000AC18C70167E770E042E050E00E948219FE
:10391000C7010E94BF18182F00E0C7010E94BF18FE
:103920006C01C7010E9471190C291D29C8011F9142
:103930000F91FF90EF90DF90CF900895EF92FF925C
:103940001F93162F6EE3E62E67E0F62EC70167E79A
:1039500070E00E94AC18C701612F0E942E19C701A8
:103960000E947119C70167E770E00E94AC18C70197
:1039700067E770E041E050E00E948219C7010E94B1
:10398000BF18182FC7010E947119812F1F91FF9036
:10399000EF900895EF92FF920F931F93CF93DF93D1
:1039A000EC0148814295440F440F407C4C5C64EF2D
:1039B0000E94461C8881882329F465E070E080E03D
:1039C00090E012C0813029F468E070E080E090E07F
:1039D0000BC0823029F46EE070E080E090E004C01B
:1039E0006AE170E080E090E00E944526CE0166EF3B
:1039F0000E94651C7C0100E010E0102F0F2DFE2CB2
:103A0000EE24CE0168EF0E949E1C282F30E040E09B
:103A100050E02E293F29402B512B688188E090E00F
:103A2000861B910904C056954795379527958A9529
:103A3000D2F7B901CA01DF91CF911F910F91FF9089
:103A4000EF9008950F931F938C0164EF4EE20E9454
:103A5000461C65E070E080E090E00E944526C801C9
:103A600066EF0E94651C1F910F9108950F931F939D
:103A70008C010E94221DAC0160E070E0C8010E9430
:103A8000FE1B685F7F4F8F4F9F4FE4E095958795B2
:103A900077956795EA95D1F70E946C3120E030E088
:103AA00040E251E40E94D1301F910F9108953F925E
:103AB0004F925F926F927F928F929F92AF92BF923E
:103AC000CF92DF92EF92FF920F931F93DF93CF93EA
:103AD000CDB7DEB728970FB6F894DEBF0FBECDBFC7
:103AE0004C010E94221D7C01C4010E94CA1C6D83EE
:103AF0007E838F83988700E010E0C401B801A7019E
:103B00000E94FE1B5B016C0180E690EFAFEFBFEF00
:103B1000A80EB91ECA1EDB1EC601B501A60195017D
:103B20000E94EE332B013C01ACE0759467945794EE
:103B30004794AA95D1F7D4013C9015966D917C914C
:103B40001697882777FD8095982F0E94EE337B018A
:103B50008C01FDE015950795F794E794FA95D1F758
:103B600082E090E0A0E0B0E0E80EF91E0A1F1B1F03
:103B7000D40117962D913C911897442737FD409515
:103B8000542FC301B2010E94EE33BC01992777FD87
:103B90009095892FE60EF71E081F191F72E01595E4
:103BA0000795F794E7947A95D1F780E090E8A0E044
:103BB000B0E0E80EF91E0A1F1B1FD40151962D918B
:103BC0003C91529740E050E0C801B7010E94EE33AB
:103BD000DC01CB016FE0B695A795979587956A951F
:103BE000D1F789839A83AB83BC83D40113966D91FB
:103BF0007C911497882777FD8095982FA6019501D1
:103C00000E94EE337B018C015BE015950795F794DC
:103C1000E7945A95D1F7F40181819281AA2797FD03
:103C2000A095BA2F42E0880F991FAA1FBB1F4A9583
:103C3000D1F7E80EF91E0A1F1B1F21853285442784
:103C400037FD4095542FC301B2010E94EE333BE093
:103C500095958795779567953A95D1F7E60EF71E76
:103C6000081F191F032C04C0EE0CFF1C001F111F9E
:103C70000A94D2F782E090E0A0E0B0E0E80EF91EEE
:103C80000A1F1B1FC801B70124E030E040E050E0EC
:103C90000E942F348D819E81AF81B885821B930B4A
:103CA000A40BB50B8D839E83AF83B88720E533ECDF
:103CB00040E050E004C056954795379527953A94D3
:103CC000D2F7BC01CD010E94EE3397FD0FC0660F05
:103CD000771F881F991F29813A814B815C810E943F
:103CE0000D34C901DA015C016D010CC029813A81F2
:103CF0004B815C810E940D3459016A01AA0CBB1CE6
:103D0000CC1CDD1C5527D7FC5A954D2D3C2D2B2D59
:103D1000CA01B9010E94EE332EED3BE040E050E0D5
:103D20000E94EE337B018C01C601B50123E433EE22
:103D30004FEF5FEF0E94EE339C01552737FD509502
:103D4000452F2153314F4F4F5F4F78011127F7FC1B
:103D50001095012F2E0D3F1D401F511FF4E055956A
:103D6000479537952795FA95D1F72A0D3B1D4C1DA0
:103D70005D1DB901CA0128960FB6F894DEBF0FBECB
:103D8000CDBFCF91DF911F910F91FF90EF90DF900A
:103D9000CF90BF90AF909F908F907F906F905F90EB
:103DA0004F903F900895EF92FF920F931F937A01E7
:103DB0008B010E94571D0E946C31A80197010E943F
:103DC000D13021E03EED42E45EE30E9483329B016C
:103DD000AC0160E070E080E89FE30E94683020E082
:103DE0003AE24DE257E40E9420321F910F91FF907A
:103DF000EF900895AF92BF92CF92DF92EF92FF9231
:103E00000F931F937A018B010E94571D5B016C0178
:103E1000C801B70120E03AE24DE257EC0E94D130F0
:103E200020E030E040E85FE30E94693026EF38E2AE
:103E300048EA50E40E9483327B018C01C601B5013F
:103E40000E946C31A80197010E94D1300E94393143
:103E50009B01AC01CA011F910F91FF90EF90DF9081
:103E6000CF90BF90AF900895CF93DF93EC01643073
:103E700008F063E068838EE397E00E948619CE0124
:103E800060ED0E949E1C853511F080E043C0CE019C
:103E90006AEA0E94651C9A838983CE016CEA0E94BB
:103EA000651C9C838B83CE016EEA0E94651C9E83F9
:103EB0008D83CE0160EB0E94651C9A8B898BCE01AD
:103EC00062EB0E94651C9C8B8B8BCE0164EB0E9485
:103ED000651C9E8B8D8BCE0166EB0E94651C9887BE
:103EE0008F83CE0168EB0E94651C9A878987CE017B
:103EF0006AEB0E94651C9C878B87CE016CEB0E944D
:103F0000651C9E878D87CE016EEB0E94651C988B89
:103F10008F8781E0DF91CF91089508950E94EF018E
:103F20000895CF93DF93EC01009739F00E94EE21C2
:103F3000CE010E9430280E945823DF91CF9108952E
:103F40000F931F938C010E94EE21C8010E949327BA
:103F5000182F092F0E945823812F902F1F910F9106
:103F60000895FC019C012D5F3F4F328321838FEF29
:103F70009FEF948383833683258330872783108242
:103F80000895FC01118610860895CF93DF93AC014C
:103F9000DB01EC0129813A81F90182819381139639
:103FA0009C938E93129789819A8115969C938E93F8
:103FB00014970280F381E02D75836483E9017B838C
:103FC0006A83FA017283618319965C934E93189702
:103FD00080818F5F8083DF91CF910895CF93DF93AE
:103FE0009C01EB01488159818FEF4F3F580721F425
:103FF000F901A781B08510C0D901139604C01296AB
:104000000D90BC91A02D1296ED91FC91139780819B
:1040100091814817590798F71296ED91FC911397E3
:10402000FB83EA83D583C483BD83AC831396DC937F
:10403000CE93129739872887F90180818F5F80831B
:10404000DF91CF910895CF93DF93DC011296ED912C
:10405000FC91139714968D919C9115979583848369
:104060001496CD91DC911597FB83EA831896ED9118
:10407000FC911997818192818A179B0711F4D28351
:10408000C18319961C921E9218978081815080835B
:104090008081DF91CF910895FC0191E1908322E22C
:1040A000229383E38293629372931292129280E836
:1040B0008293129282E0829383E0829384E08293DF
:1040C00085E0829386E0829387E0829388E0829302
:1040D00089E0829380E18293929382E1829383E1EB
:1040E000829384E1829385E1829386E1829387E1E2
:1040F000829388E1829389E1829380E2829381E2D4
:104100008293229383E282934293529386E2829334
:1041100087E2829388E2829389E2829380E38293AA
:1041200081E382933197CF01089581E087BDEEE668
:10413000F0E0808182608083A091B807B091B907D8
:10414000CD91CDBFDD91DEBFFF91EF91DF91CF919A
:10415000BF91AF919F918F917F916F915F914F919F
:104160003F912F911F910F91FF90EF90DF90CF9093
:10417000BF90AF909F908F907F906F905F904F9087
:104180003F902F901F900F900FBE0F90089581E0E9
:1041900008950F920FB6F8940F921F9211242F9248
:1041A0003F924F925F926F927F928F929F92AF92C7
:1041B000BF92CF92DF92EF92FF920F931F932F93B4
:1041C0003F934F935F936F937F938F939F93AF939F
:1041D000BF93CF93DF93EF93FF93A091B807B09174
:1041E000B9070DB60D920EB60D920E94AC220E9438
:1041F000F421A091B807B091B907CD91CDBFDD9161
:10420000DEBFFF91EF91DF91CF91BF91AF919F9171
:104210008F917F916F915F914F913F912F911F915E
:104220000F91FF90EF90DF90CF90BF90AF909F9055
:104230008F907F906F905F904F903F902F901F9046
:104240000F900FBE0F9008950E94C92018950F92ED
:104250000FB6F8940F921F9211242F923F924F9213
:104260005F926F927F928F929F92AF92BF92CF9206
:10427000DF92EF92FF920F931F932F933F934F93F1
:104280005F936F937F938F939F93AF93BF93CF93DE
:10429000DF93EF93FF93A091B807B091B9070DB6E4
:1042A0000D920EB60D920E94F421A091B807B09124
:1042B000B907CD91CDBFDD91DEBFFF91EF91DF91C9
:1042C000CF91BF91AF919F918F917F916F915F91AE
:1042D0004F913F912F911F910F91FF90EF90DF90A1
:1042E000CF90BF90AF909F908F907F906F905F9096
:1042F0004F903F902F901F900F900FBE0F900895FA
:10430000CF93DF93EC010FB6F8940F92EC8D2B8DC9
:10431000E29FC001112448815981840F951F9B831E
:104320008A831A8E5D834C8330E021503040F0E068
:104330002E9FC0012F9F900D3E9F900D1124480F7E
:10434000591F5F834E838FEF8D8F8E8F662361F4AD
:104350008885882389F0CE0108960E943622813014
:1043600059F40E94272108C0CE0108960E94B11F6F
:10437000CE0141960E94B11F0F900FBE81E0DF91E8
:10438000CF9108950F931F93CF93DF93182F062F8C
:104390008823E1F08FE190E00E94A01FEC010097DC
:1043A000A9F0019FC001112401960E94A01F9983CA
:1043B0008883009741F01B8F0C8FCE0161E00E9433
:1043C00080219E0105C0CE010E94911F20E030E0B7
:1043D000C901DF91CF911F910F9108958091BF077F
:1043E0008F5F8093BF0708958091BF07882351F0A6
:1043F00081E08093BB0708958091BA078150809334
:10440000BA0701C099E0E091BA07E99FF0011124D1
:10441000E853F84F8081882379F39091BA0789E0B7
:10442000989FD0011124A853B84F1196ED91FC919B
:1044300012970280F381E02D1296FC93EE93119770
:10444000CD010396E817F90731F482819381129622
:104450009C938E9311971196ED91FC911297868102
:1044600097819093B9078093B80708950F931F938E
:10447000CF93DF93FC010580F681E02D0681178143
:10448000E8012C96CE010E9423208091BF0788234B
:10449000A9F4E8012296CE010E942320D801569665
:1044A0009C918091BA07891710F49093BA0789E01C
:1044B000989FC00111248853984F02C082E098E071
:1044C000BE010E94C51FE091B807F091B90720E036
:1044D000D80156969C918689981708F021E0822F82
:1044E000DF91CF911F910F910895CF93DF93EC014E
:1044F000E091B807F091B907938382838091BD075B
:104500009091BE07C817D90768F480910008909170
:1045100001086091B8077091B9076E5F7F4F0E94E4
:10452000EE1F17C08091FE079091FF076091B807BA
:104530007091B9076E5F7F4F0E94EE1F8091020459
:1045400090910304C817D90720F4D0930304C093B3
:104550000204DF91CF910895FF920F931F93CF93A1
:10456000DF938091BF07882309F08FC08091BD073A
:104570009091BE0701969093BE078093BD078091EE
:10458000BD079091BE07892B79F52091FE073091E8
:10459000FF0780910008909101089093FF07809396
:1045A000FE0730930108209300088091BC078F5FBD
:1045B0008093BC07E091FE07F091FF07808188237C
:1045C00019F48FEF9FEF0CC0E091FE07F091FF0709
:1045D0000580F681E02D0680F781E02D82819381B0
:1045E00090930304809302042091BD073091BE078D
:1045F00080910204909103042817390708F44CC0F5
:1046000099E0F92EE091FE07F091FF078081882361
:1046100039F48FEF9FEF90930304809302043CC022
:10462000E091FE07F091FF070580F681E02DC6813D
:10463000D7812A813B818091BD079091BE07821767
:10464000930728F4309303042093020425C08E01BD
:104650000E5F1F4FC8010E9423208C899D89892BE2
:1046600021F0CE010C960E9423209E898091BA07EA
:10467000891710F49093BA079F9DC00111248853A5
:10468000984FB8010E94C51FBDCF8091C0078F5FB2
:104690008093C0070E948D1F8091C007882311F46A
:1046A0000E948D1FDF91CF911F910F91FF90089570
:1046B000CF92DF92FF920F931F93DF93CF930F92CE
:1046C000CDB7DEB70FB6F8940F928091BF07815037
:1046D0008093BF078091BF07882309F058C080915D
:1046E000C307882309F453C0198229E0F22E2DC094
:1046F000E0910708F0910808C680D780C6010C96A3
:104700000E94232086010E5F1F4FC8010E942320B4
:10471000D60156969C918091BA07891710F4909310
:10472000BA079F9DC00111248853984FB8010E9479
:10473000C51FE091B807F091B907D60156969C9134
:104740008689981710F0B1E0B98380910208882318
:1047500079F68091C007882341F40CC00E94AC22F6
:104760008091C00781508093C0078091C007882343
:10477000A9F707C0E981E13021F08091BB078130C2
:1047800031F41092BB070E94272181E001C080E034
:104790000F900FBE0F90CF91DF911F910F91FF905F
:1047A000DF90CF9008950F931F93CF93DF93EC0189
:1047B0000097C9F08091BF078F5F8093BF0700917A
:1047C000BD071091BE078091B8079091B907029676
:1047D0000E942320CE01800F911F0E9475220E940B
:1047E0005823882311F40E942721DF91CF911F9134
:1047F0000F9108950F931F932CC08091BF078F5F77
:104800008093BF0710910B080E945823112309F1D0
:104810000FB6F8940F92E0911008F09111080681FC
:104820001781C80102960E9423208091C3078150FE
:104830008093C3078091C50781508093C5070F906F
:104840000FBEF8018789908D0E94911FC8010E94B8
:10485000911F8091C507882381F68091C807823017
:1048600010F00E9427210E948E1FF3CF2F923F92BB
:104870005F926F927F928F929F92AF92BF92CF92F0
:10488000DF92EF92FF920F931F93DF93CF9300D0AD
:104890000F92CDB7DEB79A8389834B015A01190174
:1048A000502E370182E290E00E94A01F8B839C83F0
:1048B0008B819C81892B89F0C114D10421F4C5011D
:1048C0000E94A01F6C01EB81FC81D08EC78AC114AD
:1048D000D10429F4CF010E94911F8FEFDBC0C601E4
:1048E00065EA70E0A5010E9496010894A108B1084C
:1048F000EB81FC81E788F08CEA0CFB1CCF01499628
:10490000B40148E050E00E94AF01EB81FC8110A2AD
:10491000052DF3E0F51508F403E0EB81FC81068B2F
:1049200001A362E0C62ED12CCE0EDF1EC6010E946E
:10493000C11F8B819C810C960E94C11F8B819C8121
:10494000FC019187808784E090E0801B9109958726
:104950008487F38BE28BC70169817A81A1010E9470
:104960004C20EB81FC81918380836114710421F0E0
:10497000CF01F301918380830FB6F8940F92809159
:10498000C3078F5F8093C3078091B8079091B907E1
:10499000892BE1F5EB81FC81F093B907E093B8072F
:1049A0008091C307813009F042C088EC97E00E94F3
:1049B000B11F81ED97E00E94B11F8AED97E00E9440
:1049C000B11F83EE97E00E94B11F5CEEE52E57E029
:1049D000F52EC7010E94B11F05EF17E0C8010E9424
:1049E000B11F82E098E00E94B11F8BE098E00E9426
:1049F000B11F84E198E00E94B11FF092FF07E0929E
:104A0000FE07109301080093000811C08091C407AD
:104A1000882369F4E091B807F091B90786895816A0
:104A200030F08B819C819093B9078093B807EB811C
:104A3000FC8196898091C707891710F49093C70766
:104A40008091C6078F5F8093C607EB81FC819689B2
:104A50008091BA07891710F49093BA07EB81FC8113
:104A6000868929E0829FC00111248853984FB6019E
:104A70000E94C51F0F900FBE8091C407882349F084
:104A8000E091B807F091B9078689851510F40E9466
:104A9000272181E00F900F900F900F90CF91DF9121
:104AA0001F910F91FF90EF90DF90CF90BF90AF904C
:104AB0009F908F907F906F905F903F902F90089580
:104AC000AF92BF92CF92DF92EF92FF920F938AEF55
:104AD00093E26FED73E045E550E020E030E000E068
:104AE000E1ECEE2EE7E0FE2ECC24DD24AA24BB244C
:104AF0000E943624813049F4F8948093C4071092C0
:104B0000BE071092BD070E9495200F91FF90EF9075
:104B1000DF90CF90BF90AF9008951F920F920FB685
:104B20000F9211242F933F938F939F93AF93BF9333
:104B30008091210890912208A0912308B091240827
:104B4000309125080196A11DB11D232F2D5F2D3712
:104B500020F02D570196A11DB11D209325088093AB
:104B6000210890932208A0932308B09324088091F1
:104B70001D0890911E08A0911F08B0912008019671
:104B8000A11DB11D80931D0890931E08A0931F08BE
:104B9000B0932008BF91AF919F918F913F912F913A
:104BA0000F900FBE0F901F9018958FB7F89420911B
:104BB00021083091220840912308509124088FBF8A
:104BC000B901CA010895789484B5826084BD84B522
:104BD000816084BD85B5826085BD85B5816085BDF8
:104BE000EEE6F0E0808181608083E1E8F0E0108211
:104BF000808182608083808181608083E0E8F0E052
:104C0000808181608083E1EBF0E08081846080833B
:104C1000E0EBF0E0808181608083E1E9F0E0808179
:104C200082608083808181608083E0E9F0E0808120
:104C300081608083E1EAF0E080818260808380810E
:104C400081608083E0EAF0E0808181608083E1E23E
:104C5000F1E0808182608083808181608083E0E2F6
:104C6000F1E0808181608083EAE7F0E08081846008
:104C70008083808182608083808181608083808165
:104C8000806880831092C1000895EF92FF920F9385
:104C90001F93CF93DF937B018C013FB7F8948091F2
:104CA0001D0890911E08A0911F08B091200826B5FC
:104CB000A89B05C02F3F19F00196A11DB11D3FBF54
:104CC000BA2FA92F982F8827820F911DA11DB11DE2
:104CD00052E0880F991FAA1FBB1F5A95D1F7EC010C
:104CE00030C00E94862F3FB7F89480911D089091A4
:104CF0001E08A0911F08B091200826B5A89B05C0EA
:104D00002F3F19F00196A11DB11D3FBFBA2FA92F4A
:104D1000982F8827820F911DA11DB11D32E0880FA9
:104D2000991FAA1FBB1F3A95D1F78C1B9D0B885E5C
:104D30009340B8F20894E108F10801091109C8513B
:104D4000DC4FE114F1040105110559F6DF91CF9113
:104D50001F910F91FF90EF900895CF93DF93482F0D
:104D600050E0CA01865F9D4FFC0134914C535E4F69
:104D7000FA018491882369F190E0880F991FFC0162
:104D8000EA58FE4FA591B491FC01E057FE4FC59142
:104D9000D491662351F42FB7F8948C91932F90956A
:104DA00089238C93888189230BC0623061F42FB7EB
:104DB000F8948C91932F909589238C938881832BE1
:104DC00088832FBF06C09FB7F8948C91832B8C9358
:104DD0009FBFDF91CF910895893009F449C08A308F
:104DE000A0F4843051F1853040F4823079F1833081
:104DF00000F5813009F063C026C0873079F1883032
:104E000098F5863009F05BC025C08D3009F442C0AA
:104E10008E3028F48B30B1F18C30C0F52DC080314C
:104E200009F442C0813109F445C08F3009F047C010
:104E300037C0809180008F7703C0809180008F7D84
:104E400080938000089584B58F7702C084B58F7DEC
:104E500084BD08958091B0008F7703C08091B00029
:104E60008F7D8093B0000895809190008F7707C068
:104E7000809190008F7D03C080919000877F809308
:104E8000900008958091A0008F7707C08091A000C6
:104E90008F7D03C08091A000877F8093A00008953C
:104EA000809120018F7703C0809120018F7D8093B6
:104EB0002001089580912001877F8093200108952B
:104EC000FF920F931F93F62E482F50E0CA01805B8C
:104ED0009D4FFC012491CA01865F9D4FFC011491F6
:104EE0004C535E4FFA0104910023C9F0222319F0BC
:104EF000822F0E94EC26E02FF0E0EE0FFF1FE0571C
:104F0000FE4FA591B4919FB7F894FF2021F48C91A6
:104F10001095812302C08C91812B8C939FBF1F9190
:104F20000F91FF9008950F931F93CF93DF93BC01D0
:104F30008230910510F462E070E0E0916209F09136
:104F4000630940E050E0A0E0B0E024C0808191819E
:104F500086179707D0F08617970771F4828193819F
:104F6000109729F013969C938E9312972CC09093D0
:104F700063098093620927C04115510519F0841710
:104F8000950718F48D01AC01EF01DF018281938157
:104F90009C01F9013097D1F641155105F9F0CA018C
:104FA000861B970B8430910580F48A819B810115C3
:104FB000110521F0F8019383828304C09093630963
:104FC00080936209FE01329645C0FE01E80FF91F89
:104FD000619371930297998388833CC080916009A3
:104FE00090916109892B41F4809106049091070406
:104FF00090936109809360094091080450910904DD
:105000004115510541F44DB75EB78091040490916C
:105010000504481B590B2091600930916109241740
:105020003507B0F4CA01821B930B8617970780F0EF
:10503000AB014E5F5F4F8417950750F0420F531F2F
:105040005093610940936009F9016193719302C023
:10505000E0E0F0E0CF01DF91CF911F910F91089533
:10506000CF93DF939C01009709F48FC0EC01229746
:105070001B821A8260916209709163096115710542
:1050800081F488819981820F931F2091600930916A
:1050900061092817390739F5D0936109C093600970
:1050A00074C0DB0140E050E0AC17BD0708F1BB83E2
:1050B000AA83FE0121913191E20FF31FAE17BF07C2
:1050C00079F48D919C911197280F391F2E5F3F4FD6
:1050D0003983288312968D919C9113979B838A83A1
:1050E0004115510571F4D0936309C09362094DC015
:1050F00012968D919C911397AD01009711F0DC01F0
:10510000D3CFDA011396DC93CE931297FA01219153
:105110003191E20FF31FCE17DF0769F4888199817F
:10512000280F391F2E5F3F4FFA01318320838A8178
:105130009B8193838283E0E0F0E0DB0112968D9106
:105140009C911397009719F0BC01FD01F6CFAB01BC
:105150004E5F5F4FDB018D919C91840F951F2091D5
:105160006009309161092817390779F4309729F4DB
:10517000109263091092620902C013821282425097
:1051800050405093610940936009DF91CF91089599
:10519000DC015C968C915C97FD01E80FF11DE35AF0
:1051A000FF4F20815C968C915C9790E001968F7305
:1051B00090705C968C935C975696ED91FC91579706
:1051C00020835096ED91FC9151978081806480837B
:1051D0005B969C915B975C968C915C97981739F4E1
:1051E0005296ED91FC91539780818F7D8083089535
:1051F000DF92EF92FF920F931F93CF93DF93EC0117
:105200007A018B01D22EE889F98982E080834030CF
:1052100081EE580780E0680780E07807A1F060E041
:1052200079E08DE390E0A80197010E940D342150B0
:10523000304040405040569547953795279580E13E
:105240002030380798F0E889F989108260E874E81E
:105250008EE190E0A80197010E940D34215030406A
:10526000404050405695479537952795EC85FD85EC
:105270003083EE85FF852083188EEC89FD89D082EE
:10528000EA89FB89808180618083EA89FB8980814A
:1052900088608083EA89FB89808180688083EA89CD
:1052A000FB8980818F7D8083DF91CF911F910F914A
:1052B000FF90EF90DF900895FC01218D828D30E00A
:1052C000205C3F4F281B31092F733070C9010895AE
:1052D000FC01918D828D981719F42FEF3FEF06C0D6
:1052E000828DE80FF11D858D282F30E0C9010895CA
:1052F000DC0159969C9159975A968C915A97981718
:1053000019F42FEF3FEF10C05A968C915A97FD0178
:10531000E80FF11D958D5A968C915A978F5F8F7378
:105320005A968C93292F30E0C9010895CF93DF93CB
:10533000EC01888D882361F419C08C9185FF0AC027
:10534000E889F989808185FF05C0CE010E94C828BF
:10535000AA89BB898C9185FD05C0E889F98980817E
:1053600086FD04C00FB607FEE8CFF4CFDF91CF91E2
:1053700008950F931F93CF93DF93EC01062F9B8D1E
:105380008C8D981791F5E889F989808185FF2DC06A
:10539000EE89FF896083E889F98980818064808350
:1053A0001DC00FB607FC08C0E889F989808185FF18
:1053B00003C0CE010E94C8288C8D181791F38B8DE5
:1053C000FE01E80FF11DE35AFF4F00831B8FEA89AE
:1053D000FB8980818062808381E0888F81E090E01A
:1053E000DF91CF911F910F9108951B8D1F5F1F7348
:1053F000E3CF8FEA9AE2892B51F080E090E0892B8D
:1054000031F00E94AF2A882311F00E94000080E052
:1054100090E0892B51F080E090E0892B31F00E94E0
:105420000000882311F00E94000080E69BE2892B97
:1054300051F080E090E0892B31F00E94602B8823AE
:1054400011F00E94000080E090E0892B51F080E094
:1054500090E0892B31F00E940000882311F00E9417
:10546000000008951F920F920FB60F920BB60F9285
:1054700011242F938F939F93EF93FF93E09136081E
:10548000F0913708808182FD16C0E0913C08F091D0
:105490003D08208190913F089F5F9F738091400855
:1054A000981771F0E0913F08F0E0EA5DF74F258F23
:1054B00090933F0805C0E0913C08F0913D08E081E1
:1054C000FF91EF919F918F912F910F900BBE0F90B5
:1054D0000FBE0F901F90189510922908109228085F
:1054E00088EE93E0A0E0B0E080932A0890932B0828
:1054F000A0932C08B0932D0886E394E0909327089E
:105500008093260885EC90E09093330880933208CE
:1055100084EC90E0909335088093340880EC90E020
:10552000909337088093360881EC90E09093390887
:105530008093380882EC90E090933B0880933A087F
:1055400086EC90E090933D0880933C0810923F08D1
:10555000109240081092410810924208089586E285
:1055600098E00E945C2920E0892B09F021E0822F3D
:1055700008951F920F920FB60F920BB60F9211243F
:105580002F933F934F935F936F937F938F939F934B
:10559000AF93BF93EF93FF9386E298E00E94C828F1
:1055A000FF91EF91BF91AF919F918F917F916F91FB
:1055B0005F914F913F912F910F900BBE0F900FBEB7
:1055C0000F901F9018951F920F920FB60F920BB667
:1055D0000F9211242F938F939F93EF93FF93E0915A
:1055E000D308F091D408808182FD16C0E091D908DB
:1055F000F091DA0820819091DC089F5F9F73809181
:10560000DD08981771F0E091DC08F0E0ED53F74FFA
:10561000258F9093DC0805C0E091D908F091DA0855
:10562000E081FF91EF919F918F912F910F900BBE91
:105630000F900FBE0F901F9018951092C6081092F1
:10564000C50888EE93E0A0E0B0E08093C70890938F
:10565000C808A093C908B093CA0886E394E0909361
:10566000C4088093C30885ED90E09093D0088093A0
:10567000CF0884ED90E09093D2088093D10880ED1C
:1056800090E09093D4088093D30881ED90E09093BC
:10569000D6088093D50882ED90E09093D808809347
:1056A000D70886ED90E09093DA088093D90810929D
:1056B000DC081092DD081092DE081092DF080895D1
:1056C00083EC98E00E945C2920E0892B09F021E01E
:1056D000822F08951F920F920FB60F920BB60F9262
:1056E00011242F933F934F935F936F937F938F93E7
:1056F0009F93AF93BF93EF93FF9383EC98E00E9447
:10570000C828FF91EF91BF91AF919F918F917F91A9
:105710006F915F914F913F912F910F900BBE0F9022
:105720000FBE0F901F901895CF93DF930E94E32533
:105730000E943502C9EFD9E20E94EF012097E1F300
:105740000E94F929F9CFCF92DF92EF92FF920F9347
:105750001F93CF93DF937C016B018A01C0E0D0E0FF
:105760000FC0D6016D916D01D701ED91FC910190B3
:10577000F081E02DC7011995C80FD91F01501040C5
:105780000115110571F7CE01DF91CF911F910F9196
:10579000FF90EF90DF90CF900895CF93DF93FB01C0
:1057A000EC01A881B9816081718144815581129693
:1057B000ED91FC9113971995DF91CF910895EF9298
:1057C000FF920F931F938C01DC01ED91FC910190EE
:1057D000F081E02D6DE019957C01D801ED91FC91EF
:1057E0000190F081E02DC8016AE019959C012E0D11
:1057F0003F1DC9011F910F91FF90EF900895EF9207
:10580000FF920F931F937C010E94CD2B8C01C70147
:105810000E94DF2B9C01200F311FC9011F910F91A6
:10582000FF90EF900895CF93DF93EC016115710520
:1058300019F420E030E00FC0DB010D900020E9F703
:105840001197A61BB70BE881F9810280F381E02D47
:10585000AD0119959C01C901DF91CF9108954F9237
:105860005F927F928F929F92AF92BF92CF92DF9280
:10587000EF92FF920F931F93DF93CF93CDB7DEB7D5
:10588000A1970FB6F894DEBF0FBECDBF2C01742ECA
:10589000CB01223008F42AE019A231E2C32ED12C28
:1058A000CC0EDD1E822E9924AA24BB24672D752FD1
:1058B000A50194010E940D3479018A01C801B70144
:1058C000A50194010E94EE33472D461B0894C108A0
:1058D000D1084A3014F4405D01C0495CF6014083B0
:1058E000E114F1040105110521F07E2C5F2DC801A2
:1058F000DDCFC201B6010E94132CA1960FB6F89419
:10590000DEBF0FBECDBFCF91DF911F910F91FF90F2
:10591000EF90DF90CF90BF90AF909F908F907F904F
:105920005F904F900895DC012115310541F4ED9110
:10593000FC910190F081E02D642F199508950E944B
:105940002F2C0895CF92DF92EF92FF920F931F9327
:10595000CF93DF93EC016A017B012115310541F4FE
:10596000E881F9810190F081E02D642F19951FC025
:105970002A303105D1F477FF17C0E881F981019011
:10598000F081E02D6DE219958C0144275527BA016D
:105990004C195D096E097F09CE012AE00E942F2C67
:1059A0009801280F391F04C02AE00E942F2C9C0167
:1059B000C901DF91CF911F910F91FF90EF90DF9080
:1059C000CF9008950E94132C08957F928F929F92FA
:1059D000AF92BF92CF92DF92EF92FF920F931F93FD
:1059E000CF93DF934C017A018B01722ECB01BA0168
:1059F000A80197010E94CF32882321F0C40164EEF0
:105A000073E021C0C0E0D0E057016801E894D7F806
:105A1000C601B5012FEF3FEF4FE75FE70E94CF329E
:105A2000882351F4C601B5012FEF3FEF4FE75FE741
:105A30000E94CD30181614F0C1E0D0E0219739F063
:105A4000C40168EE73E00E94132CEC0193C0C801FE
:105A5000B7012FEF3FEF4FE75FE40E941C321816AB
:105A600054F0C801B7012FEF3FEF4FE75FEC0E9402
:105A7000CD30882324F4C4016CEE73E0E4CFC80178
:105A8000B70120E030E040E050E00E94CD3087FDDB
:105A900003C0C0E0D0E00EC0D401ED91FC910190B4
:105AA000F081E02DC4016DE21995EC0117FB109512
:105AB00017F9109520E030E040E05FE3DD240BC0F3
:105AC000CA01B90120E030E040E251E40E94D13047
:105AD0009B01AC01D394D71498F3C801B7010E947D
