:100000000C9448010C9475010C9475010C947501C5
:100010000C9475010C9475010C9475010C94750188
:100020000C9475010C9475010C9475010C94750178
:100030000C9475010C9475010C9475010C94750168
:100040000C9475010C9475010C9475010C94750158
:100050000C9475010C9475010C9475010C9458174F
:100060000C9475010C94FD1B0C94841C0C9475016C
:100070000C9475010C9475010C9475010C94750128
:100080000C9475010C9475010C9475010C94750118
:100090000C9475010C9475010C9475010C94A515C4
:1000A0000C9475010C9475010C9475010C947501F8
:1000B0000C9475010C9475010C94270E0C949C0DF6
:1000C0000C94DA0E0C9475010C9475010C94750166
:1000D0000C9475010C9475010C9475010C947501C8
:1000E0000C94750107634236B79BD8A71A39685636
:1000F00018AEBAAB558C1D3CB7CC5763BD6DEDFD4A
:10010000753EF6177231BF000000803F0800000006
:10011000BE922449123EABAAAA2ABECDCCCC4C3EFC
:1001200000000080BEABAAAAAA3E00000000BF00EB
:100130000000803F0000000000084178D3BB4387E7
:10014000D1133D190E3CC3BD4282AD2B3E68EC82FB
:1001500076BED98FE1A93E4C80EFFFBE01C4FF7F80
:100160003F000000000000002100240027002A00BA
:100170002D003000330001010000040107010A01D5
:1001800000002200250028002B002E003100340042
:1001900002010000050108010B01000020002300FE
:1001A000260029002C002F0032000001000003016E
:1001B00006010901050505050705080808080202EA
:1001C00002020A0A080804040404010101010101F1
:1001D00001010303030303030303040707070C0CD4
:1001E0000C0C0C0C0C0C020202020606060606069B
:1001F00006060B0B0B0B0B0B0B0B01021020200840
:100200000810204010204080020102010804020171
:1002100001020408102040808040201008040201E0
:100220008004020180402010080402010804020139
:1002300001020408102040800102040810204080C0
:100240000000090A02080B0C0D0706030401000058
:10025000000000000000000000000000000000009E
:1002600000000000000000000000000011100F005E
:10027000000000000000000000000000000000007E
:10028000000000000000CB0161044114371CC401D0
:1002900011241FBECFEFD1E2DEBFCDBF00E00CBF07
:1002A00013E0A0E0B2E0E4E5F9E400E00BBF02C037
:1002B00007900D92A236B107D9F71BBE18E0A2E64F
:1002C000B3E001C01D92A634B107E1F712E0CEE819
:1002D000D2E004C02297FE010E949924C638D107BB
:1002E000C9F70E94AE1C0C949D240C940000FB01E5
:1002F000DC0102C001900D9241505040D8F70895A2
:10030000FB01DC0101900D920020E1F7089581309E
:10031000910541F56F5F7F4FB1F582E693E00E9452
:10032000B90F1092B0031092AF0388EE93E0A0E0F3
:10033000B0E08093B1039093B203A093B303B09362
:10034000B40386E393E09093AE038093AD0389EB0F
:1003500093E060E072E00E94B61F8FEB93E00E9492
:1003600074030895892B79F46F5F7F4F61F489EBF3
:1003700093E00E94E81F86E393E09093AE0380939E
:10038000AD030E94460D089580E090E06FEF7FEF8F
:100390000E948701089581E090E06FEF7FEF0E9457
:1003A00087010895EF92FF920F931F93DF93CF93EE
:1003B000CDB7DEB728970FB6F894DEBF0FBECDBF1E
:1003C0003EC08DEA93E00E94250F682F8D3089F59D
:1003D00085EA97E061E072E00E94FC1D85EA97E003
:1003E0006AE072E00E94FC1D85EA97E069EB73E029
:1003F0000E94191D8FEB93E00E94C303882391F0A4
:100400008FEB93E061E072E00E94FC1D8FEB93E0C4
:100410006AE072E00E94FC1D8FEB93E069EB73E0F1
:100420000E94E71C89EB93E060E072E00E94CF1F1E
:1004300006C08A3021F089EB93E00E946F1F8DEA9D
:1004400093E00E944F0F892B09F0BBCF82E693E027
:100450000E946110882309F401C1682F772767FD86
:100460007095872F972F0E94101882E693E0BE01A7
:100470006F5F7F4F0E94DB11882309F4EAC085EA91
:1004800097E06CE072E00E94FC1D85EA97E061E075
:1004900072E00E94FC1D85EA97E06AE072E00E942B
:1004A000FC1D49815A816B817C8185EA97E022E0BD
:1004B00030E00E94E31E85EA97E06AE072E00E9465
:1004C000FC1D8FEB93E00E94C303882311F185EAA2
:1004D00097E06CE072E00E94FC1D8FEB93E061E01E
:1004E00072E00E94FC1D8FEB93E06AE072E00E94D4
:1004F000FC1D49815A816B817C818FEB93E022E066
:1005000030E00E94E31E8FEB93E06AE072E00E940D
:10051000FC1D82E693E063E00E943010882309F41A
:1005200093C0682F772767FD7095872F972F0E94BC
:10053000101882E693E0BE016B5F7F4FAE014F5F04
:100540005F4F0E94BD10882309F479C04D815E8100
:100550006F81788585EA97E022E030E00E94E31E13
:1005600085EA97E06AE072E00E94FC1D8FEB93E061
:100570000E94C303882381F04D815E816F8178855D
:100580008FEB93E022E030E00E94E31E8FEB93E0DC
:100590006AE072E00E94FC1D4D815E816F8178856A
:1005A00082E693E000E010EE2EEC34E40E94D90FD6
:1005B0007B018C0185EA97E0B801A70122E030E0D9
:1005C0000E94E31E85EA97E06AE072E00E94FC1D4B
:1005D0008FEB93E00E94C303882371F08FEB93E0CD
:1005E000B801A70122E030E00E94E31E8FEB93E008
:1005F0006AE072E00E94FC1D4D815E816F8178850A
:1006000082E693E0980187010E94BA0F7B018C017A
:1006100085EA97E0B801A70120E030E00E94E61EDD
:100620008FEB93E00E94C3038823F1F08FEB93E0FC
:10063000B801A70120E030E00E94E61E15C085EA5F
:1006400097E066E372E00EC085EA97E06DE572E040
:1006500009C085EA97E062E872E004C085EA97E0A5
:100660006CEA72E00E94F91E8FEB93E00E94D003C7
:1006700028960FB6F894DEBF0FBECDBFCF91DF91A5
:100680001F910F91FF90EF90089585EA97E040E861
:1006900055E260E070E026E00E94C31A65E07DE06C
:1006A00080E090E00E945F0F85EA97E064ED72E0E1
:1006B0000E94F91E89EB93E06FE770E00E94261F0D
:1006C00082E693E00E94A112882339F085EA97E040
:1006D0006BED72E00E94F91E089585EA97E06FEED7
:1006E00072E00E94F91EFFCFFC011382128288EE95
:1006F00093E0A0E0B0E084839583A683B7838EE186
:1007000093E091838083128E118E14860895DF9377
:10071000CF930F92CDB7DEB7FC016983A081B18181
:1007200012962D913C911397BE016F5F7F4F41E070
:1007300050E0F90119950F90CF91DF910895DC01F8
:100740005996ED91FC915A97309719F420E030E0DA
:1007500018C0238934894589568982859385A48563
:10076000B585281B390B4A0B5B0B2030B0E83B07E3
:10077000B0E04B07B0E05B0720F02FEF3FE740E031
:1007800050E0C9010895DC015996ED91FC915A970A
:10079000309711F480E008958581811181E00895FA
:1007A000CF93DF93EC01898D9A8D009741F00E94E1
:1007B0009D07898D9A8D0E94FB191A8E198EDF91E3
:1007C000CF910895FC01818D928D009711F00E94C8
:1007D00053070895DF93CF930F92CDB7DEB7FC0197
:1007E000818D928D009749F0BE016F5F7F4F41E090
:1007F00050E00E94A907019719F02FEF3FEF03C0C7
:100800008981282F30E0C9010F90CF91DF910895A1
:10081000EF92FF920F931F93DF93CF930F92CDB779
:10082000DEB77C01DC0159968D919C915A97009717
:1008300019F400E010E01FC0BE016F5F7F4F41E080
:1008400050E00E94A907019719F00FEF1FEF13C0A6
:100850008981082F10E0D7015996ED91FC915A97A4
:100860004285538564857585415050406040704095
:10087000CF010E948D06C8010F90CF91DF911F918B
:100880000F91FF90EF900895CF93DF93EC01E98DE6
:10089000FA8D309761F013821282CF010E94E50831
:1008A0009C01E98DFA8D82819381892B31F081E061
:1008B00090E09B838A8320E030E0C901DF91CF91F3
:1008C00008951092DF031092E0031092E303109258
:1008D000E50382E090E0A0E0B0E08093E60390932F
:1008E000E703A093E803B093E9031092FD0310928D
:1008F0000704109206048EE293E09093050480931F
:100900000404109209040895FF920F931F93CF934C
:10091000DF938B010E94A017EB01FF24FA94FEBC29
:100920000DB407FEFDCF8EB58F3F11F481E008C0F6
:100930000E94A0176C1B7D0B6017710780F380E08D
:10094000DF91CF911F910F91FF900895FC01848159
:1009500060E00E942B190895FC01848161E00E94EF
:100960002B190895DC016EBD0DB407FEFDCF8EB5C9
:1009700020E030E0FA01E20FF31F80818EBD0DB45C
:1009800007FEFDCF8EB52F5F3F4F82E02030380746
:1009900089F78FEF8EBD0DB407FEFDCF8EB58FEFBB
:1009A0008EBD0DB407FEFDCF8EB58FEF8EBD0DB49D
:1009B00007FEFDCF8EB51A968C931A978F718530EE
:1009C00011F481E0089581E115968C931597CD017E
:1009D0000E94AC0480E00895FF920F931F93CF9381
:1009E000DF93EC010E94A0178B01FF24FA9409C049
:1009F0000E94A017601B710B6D52714010F08FE0C8
:100A00000DC0FEBC0DB407FEFDCF8EB58A878F3FAB
:100A100079F38E3F11F481E006C08DE08D83CE0125
:100A20000E94AC0480E0DF91CF911F910F91FF9065
:100A30000895CF93DF93EC018E818823B1F02F814D
:100A400038854FEF05C04EBD0DB407FEFDCF8EB506
:100A50002F5F3F4FC901019782509240A0F3388722
:100A60002F83CE010E94AC041E82DF91CF910895A6
:100A7000DF92EF92FF920F931F93CF93DF93EC01DE
:100A8000D62E79018A010E941905CE010E94A60482
:100A9000CE016CE271E00E9484048D2D80648EBDD5
:100AA0000DB407FEFDCF8EB528E130E0D801C701B7
:100AB000022E04C0B695A795979587950A94D2F70C
:100AC0008EBD0DB407FEFDCF8EB5285030408FEFA0
:100AD000283F380759F7DD2011F485E906C088E082
:100AE000D81611F487E801C08FEF8EBD0DB407FE54
:100AF000FDCF8EB590E02FEF2EBD0DB407FEFDCFDC
:100B00008EB587FF02C09150B9F78A87DF91CF91E8
:100B10001F910F91FF90EF90DF900895CF92DF9299
:100B2000EF92FF920F931F93CF93DF93EC017A0123
:100B30008B016901411551056105710511F482E1CF
:100B400037C08B85833039F099E0EE0CFF1C001F15
:100B5000111F9A95D1F7CE0168E1A80197010E9473
:100B60003805882311F084E023C0CE016EEFA60182
:100B70000E94B2048823E9F0CE0168E572E00E9489
:100B80008404882311F485E113C0CE016DE020E0D8
:100B900030E040E050E00E943805882341F48FEFB8
:100BA0008EBD0DB407FEFDCF8EB5882379F084E1AC
:100BB0008D83CE010E94AC0480E0DF91CF911F9124
:100BC0000F91FF90EF90DF90CF900895CE010E949B
:100BD000AC0481E0F2CF8F929F92AF92BF92CF92FE
:100BE000DF92EF92FF920F931F93CF93DF93EC016D
:100BF0005A016B0149010115110509F470C0C801C2
:100C0000820F931F8150924008F064C08E81882328
:100C100071F088819981AA81BB81481759076A07B9
:100C20007B0729F48F8198858816990610F5A8828C
:100C3000B982CA82DB828B85833039F059E0AA0CF5
:100C4000BB1CCC1CDD1C5A95D1F7CE0161E1A6017D
:100C500095010E943805882319F083E08D833AC0FE
:100C6000CE010E94EC048823A9F118861F8281E03E
:100C70008E838F8198852FEF06C02EBD0DB407FEA1
:100C8000FDCF3EB5019688159905B8F398878F83F7
:100C900020E030E09FEF0BC09EBD0DB407FEFDCFFE
:100CA0008EB5F701E20FF31F80832F5F3F4F2017B0
:100CB000310790F32F813885200F311F38872F831C
:100CC0008985882319F02050324048F0CE010E94D7
:100CD000190505C0CE010E94AC0480E001C081E08E
:100CE000DF91CF911F910F91FF90EF90DF90CF9008
:100CF000BF90AF909F908F900895EF92FF920F93C7
:100D00001F93790120E030E000E012E00E94EB0543
:100D10001F910F91FF90EF9008956F927F928F92A5
:100D20009F92AF92BF92CF92DF92EF92FF920F937A
:100D30001F93CF93DF93EC017A018B012D81222346
:100D400009F480C08B899C89AD89BE898417950779
:100D5000A607B70708F476C085C0E114F1040105C1
:100D6000110549F41E821F82188619861A861B8671
:100D70001C861D8665C02A853B854C855D85EB8D6F
:100D8000FC8D858590E009962150304040405040D0
:100D900039014A01082E04C0969487947794679489
:100DA0000A94D2F72F5F3F4F4F4F5F4F0894E108EF
:100DB000F108010911095701680104C0D694C794CC
:100DC000B794A7948A95D2F70894E11CF11C011DF1
:100DD000111DA614B704C804D90428F02115310543
:100DE0004105510549F48F89988DA98DBA8D8E835F
:100DF0009F83A887B98716C0A618B708C808D9085E
:100E000011C04E815F81688579858B8D9C8D9401A1
:100E10000E94BF0B0894A108B108C108D10888231B
:100E200031F410C086E0882E912C8C0E9D1EA114EA
:100E3000B104C104D10429F7EA86FB860C871D871B
:100E400081E001C080E0DF91CF911F910F91FF9071
:100E5000EF90DF90CF90BF90AF909F908F907F905A
:100E60006F900895223009F078CFE6CFCF93DF93CB
:100E7000EC01462F6E857F85888999890E94E80A52
:100E8000882319F420E030E00AC08A89282F30E056
:100E900095E0220F331F9A95E1F72B5D3B4FC90177
:100EA000DF91CF9108950F931F93CF93DF938C0120
:100EB000FC0185818823D9F1848187FF35C0C80171
:100EC00061E00E943607EC01009789F1F801858105
:100ED000823040F483899489A589B6898C8F9D8F4F
:100EE000AE8FBF8FF8018789908D9B8F8A8F8789FE
:100EF000908DA18DB28DCD01AA27BB279D8B8C8BA8
:100F0000E0912304F0912404309751F0BE016A5E11
:100F10007F4FCE0148961995888D998D9B8B8A8B32
:100F2000F80184818F7784830E94AD0A01C080E03C
:100F3000DF91CF911F910F910895CF93DF93EC0133
:100F40000E945307882311F01D8281E0DF91CF9129
:100F500008952F923F924F925F926F927F928F925D
:100F60009F92AF92BF92CF92DF92EF92FF920F9338
:100F70001F93CF93DF93EC012A018D81882309F41D
:100F8000C6C08C8180FFC3C0D8C025014E185F0841
:100F90004B0176E0272E312C2C0E3D1E3201B1C0C4
:100FA0002A853B854C855D856FEFA62E61E0B62EC8
:100FB000A222B3228D8179018A0199E016950795C5
:100FC000F794E7949A95D1F7EB8DFC8D823049F434
:100FD000428D538D648D758D4E0D5F1D601F711F89
:100FE0003FC0D480DA94DE20A114B104D9F4DD200E
:100FF000C9F4211531054105510549F48F89988DB2
:10100000A98DBA8D8E839F83A887B9870BC04E8127
:101010005F8168857985CF0191010E94BF0B88238C
:1010200009F475C0EB8DFC8D4E815F8168857985F3
:101030004250504060407040058404C0440F551F2A
:10104000661F771F0A94D2F786859785A089B18994
:10105000480F591F6A1F7B1F4D0D511D611D711DCA
:1010600080E092E08A199B0963018615970508F4D0
:101070006C018C8186FD06C080E0C81682E0D8062F
:1010800009F073C08091100390911103A091120395
:10109000B0911303481759076A077B0709F465C025
:1010A00080912506909126069501860174010E9483
:1010B000EB05882361F18C0C9D1C12C095012B5D02
:1010C0003B4FA9014C0D5D1DD401F90102C0819176
:1010D0008D93E417F507D9F7E21BF30B8E0E9F1ED5
:1010E000960140E050E08A859B85AC85BD85820FE6
:1010F000931FA41FB51F8A879B87AC87BD876C1879
:101100007D086114710409F04BCFA20102C04FEFBA
:101110005FEFCA01DF91CF911F910F91FF90EF9088
:10112000DF90CF90BF90AF909F908F907F906F9007
:101130005F904F903F902F900895AB88BC88CD88EA
:10114000DE88EA84FB840C851D859A0140E050E02E
:10115000D601C5018E199F09A00BB10B8217930709
:10116000A407B50708F411CF13CFCB01BA0140E0B3
:101170000E94E80A882309F0A1CFC9CFCF93DF935B
:10118000EC019C012A5F3F4F8B8D9C8D41E050E02C
:1011900060E070E00E94320C8823A1F08F89988D66
:1011A000A98DBA8D0097A105B10559F48E819F8153
:1011B000A885B9858F8B988FA98FBA8F8C8180680D
:1011C0008C8381E0DF91CF9108952F923F924F92CF
:1011D0005F927F928F929F92AF92BF92CF92DF9257
:1011E000EF92FF920F931F93DF93CF9300D000D025
:1011F000CDB7DEB76C01162F072F5E834D83DC0160
:1012000015968C911597813009F070C114968C91C8
:1012100081FF6CC18EC1F601438954896589768945
:1012200082859385A485B58584179507A607B7079A
:1012300031F0C6010E948D06882309F457C1812F21
:10124000902F9C0129012D803E8017C1D6015B960D
:10125000ED91FC915C97DA01C90119E0B695A7956B
:10126000979587951A95D1F774807A9478227FEFB5
:10127000872E71E0972E82229322772009F04EC0AC
:101280008114910409F04AC0D60116964D915D91E2
:101290006D917C911997411551056105710581F496
:1012A00057968D919D910D90BC91A02D0097A10511
:1012B000B10549F1F60186839783A087B1872EC0D7
:1012C000CF019E012F5F3F4F0E94BF0B882309F47F
:1012D00014C129813A814B815C81D6015B96ED91E5
:1012E000FC915C978789803129F088EF9FEFAFEF01
:1012F000BFE004C088EF9FEFA0E0B0E028173907F7
:101300004A075B0730F0C6010E94BE08882331F40B
:10131000EDC0F601268337834087518780E092E055
:101320008819990951018215930508F45C01D601C9
:101330005B96ED91FC915C971696ED90FD900D916A
:101340001C9119978EEF9FEFAFEFBFEFE80EF91EDC
:101350000A1F1B1F058404C0EE0CFF1C001F111F79
:101360000A94D2F786859785A089B189E80EF91E7F
:101370000A1F1B1FE70CF11C011D111D90E0A9168F
:1013800092E0B90651F58091100390911103A0915C
:101390001203B09113038E159F05A007B10761F4E6
:1013A0008FEF9FEFAFEFBFEF809310039093110388
:1013B000A0931203B0931303809125069091260603
:1013C000B801A70192010E948E05882309F48EC0FE
:1013D000A0E0B2E04A0E5B1E3EC08114910409F504
:1013E000F601228533854485558583899489A589AD
:1013F000B689281739074A075B0798F00E94AD0A9B
:10140000882309F473C0E0921003F0921103009353
:10141000120310931303809127068160809327069F
:1014200008C0C801B70141E00E94E80A882309F416
:101430005DC094012B5D3B4FA9014A0D5B1DD2019C
:10144000F90102C08D918193E417F507D9F7E21BEA
:10145000F30B4E0E5F1E2A183B08950140E050E04A
:10146000F60182859385A485B585820F931FA41FFD
:10147000B51F82879387A487B587D6011A962D91C9
:101480003D914D915C911D972114310409F0DECE00
:1014900053968D919D910D90BC91A02D821793072D
:1014A000A407B50748F4F601238B348B458B568B84
:1014B00084818068848311C08091230490912404E6
:1014C000892B59F08D819E81892B39F0D601149694
:1014D0008C911497806814968C93F601848183FF15
:1014E0000EC0C6010E945307882349F481E090E0B2
:1014F000D60113969C938E9312971E821D828D8126
:101500009E8126960FB6F894DEBF0FBECDBFCF9159
:10151000DF911F910F91FF90EF90DF90CF90BF90E0
:10152000AF909F908F907F905F904F903F902F90C3
:10153000089582FD70CE83CEDF93CF930F92CDB707
:10154000DEB76983BE016F5F7F4F41E050E00E94CC
:10155000E5080F90CF91DF910895809127068823A9
:1015600099F1409110035091110360911203709111
:101570001303809125069091260625E234E00E940F
:101580008E05882319F14091280650912906609113
:101590002A0670912B06411551056105710591F0E0
:1015A000809125069091260625E234E00E948E0562
:1015B000882361F0109228061092290610922A06BC
:1015C00010922B061092270681E0089580E008957E
:1015D000DF92EF92FF920F931F937B018C01D42E29
:1015E0008091100390911103A0911203B091130305
:1015F0008E159F05A007B107C1F00E94AD0A882390
:10160000D9F08091250690912606B801A70125E220
:1016100034E00E947D06882379F0E0921003F09276
:1016200011030093120310931303809127068D2951
:101630008093270681E001C080E01F910F91FF9009
:10164000EF90DF9008954F925F926F927F928F920A
:101650009F92AF92BF92CF92DF92EF92FF920F9341
:101660001F93CF93DF93EC016A017B0128013901BD
:10167000423051056105710508F46FC089859A856E
:10168000AB85BC850196A11DB11D84179507A607E2
:10169000B70708F462C02B893C894D895E898F8920
:1016A000803129F499278F2D7E2D6D2D09C0C7011A
:1016B000B60117E096958795779567951A95D1F7B6
:1016C0004B015C01820E931EA41EB51E8091100377
:1016D00090911103A0911203B091130388169906FB
:1016E000AA06BB0639F0C501B40140E00E94E80A31
:1016F000882399F18F89803149F4F601F070EE0F5B
:10170000FF1FEB5DFB4F518240820DC0F601EF776A
:10171000F070EE0FFF1FEE0FFF1FEB5DFB4F4082DF
:1017200051826282738280912706816080932706AE
:101730008A89823080F08D819E81AF81B885880E44
:10174000991EAA1EBB1E8092280690922906A0927E
:101750002A06B0922B0681E001C080E0DF91CF9194
:101760001F910F91FF90EF90DF90CF90BF90AF90BF
:101770009F908F907F906F905F904F900895CF9241
:10178000DF92EF92FF920F931F93CF93DF93EC01C1
:101790007A018B01690189859A85AB85BC850196A3
:1017A000A11DB11D84179507A607B70708F450C0FF
:1017B0002B893C894D895E898F89803129F499274D
:1017C000812F702F6F2D09C0C801B701E7E09695F2
:1017D000879577956795EA95D1F7260F371F481FAC
:1017E000591F8091100390911103A0911203B091A1
:1017F0001303281739074A075B0739F0CA01B901F3
:1018000040E00E94E80A882319F18F89803159F459
:10181000F701F070EE0FFF1FEB5DFB4F80819181B0
:10182000A0E0B0E00EC0F701EF77F070EE0FFF1F01
:10183000EE0FFF1FEB5DFB4F80819181A281B38191
:10184000BF70F60180839183A283B38381E001C0DE
:1018500080E0DF91CF911F910F91FF90EF90DF908B
:10186000CF9008952F923F924F925F926F927F9206
:101870008F929F92AF92BF92CF92DF92EF92FF92A0
:101880000F931F93DF93CF93CDB7DEB72F970FB68C
:10189000F894DEBF0FBECDBF1C014A875B876C8703
:1018A0007D873F872E87D9010D911D912D913C9108
:1018B000011511052105310549F048015901089428
:1018C000811C911CA11CB11C198610C0FC018080D8
:1018D0009180A280B38019868A859B85AC85BD8561
:1018E0000197A105B10511F491E09987D1011996ED
:1018F0008D919D910D90BC91A02D0196A11DB11DC2
:101900008D839E83AF83B887750164014424552479
:1019100032018E010F5F1F4FF10181859285A385F2
:10192000B485481659066A067B0608F090C08D817A
:101930009E81AF81B8858C159D05AE05BF0550F41D
:1019400082E0882E912CA12CB12CB2E0CB2ED12C90
:10195000E12CF12CC101B701A60198010E94BF0B37
:10196000882309F474C089819A81AB81BC81A70165
:1019700096012F5F3F4F4F4F5F4F0097A105B10575
:1019800019F049015A010DC0281939094A095B09A2
:101990008A859B85AC85BD85281739074A075B0773
:1019A00059F00894411C511C611C711C0894C11C05
:1019B000D11CE11CF11CB0CFC101A601B7010FEF92
:1019C0001FEF2FEF3FE00E94230B882399F43FC0C5
:1019D0002601370108944108510861087108C101C6
:1019E000B301A201970186010E94230B882379F19C
:1019F000730162018C149D04AE04BF0448F3AE85EC
:101A0000BF854D915D916D917C91411551056105A9
:101A1000710539F0C101950184010E94230B8823CF
:101A2000B1F0EE85FF8580829182A282B382F98532
:101A3000FF2359F00894811C911CA11CB11CD101F9
:101A40008D929D92AD92BC92139781E001C080E08F
:101A50002F960FB6F894DEBF0FBECDBFCF91DF91AA
:101A60001F910F91FF90EF90DF90CF90BF90AF90BC
:101A70009F908F907F906F905F904F903F902F90AE
:101A80000895809187068823E1F708958091730077
:101A90008B7F80937300809173008F7D80937300A0
:101AA00080912C0680932D06809187068823E1F78C
:101AB000809173008D7F809373000895282F9091FB
:101AC0008A069F5F943408F090E080918B06891716
:101AD000E1F33FB7F89480918706882341F0E92F1E
:101AE000F0E0E457F94F208390938A061DC081E00F
:101AF00080938706209388061092890682E08ABB2D
:101B000080917300826080937300809120018F73B5
:101B10008068809320018091240190912501409656
:101B200090932901809328013FBF0895862F0E943A
:101B30005E0D81E090E008951F920F920FB60F9214
:101B40000BB60F9211242F933F934F935F936F9394
:101B50007F938F939F93EF93FF93409187065091CC
:101B600088062091280130912901609183067091A7
:101B70008406809189061FC0260F371F952F91700C
:101B800056954F5F9817B9F0992321F08091200165
:101B9000806C04C0809120018F7380688093200145
:101BA0003093290120932801909389065093880649
:101BB000409387063BC04930F8F2493039F48AE057
:101BC0008093870680912001806C28C080918A06CE
:101BD000E0918B068E1769F41092870680912001A0
:101BE0008F7380932001809173008D7F80937300A9
:101BF0001DC081E080938706EF5FE43408F0E0E0E9
:101C0000E0938B06F0E0E457F94F808180938806DB
:101C100010928906809120018F7380688093200143
:101C2000260F371F3093290120932801FF91EF9150
:101C30009F918F917F916F915F914F913F912F91E4
:101C40000F900BBE0F900FBE0F901F9018951F9214
:101C50000F920FB60F920BB60F9211241F932F9372
:101C60003F934F935F936F937F938F939F93AF9324
:101C7000BF93EF93FF93209126013091270190911C
:101C80007F06992341F0809121018F7B8093210170
:101C900010927F0608C08091210180648093210109
:101CA00080E880937F0670917E06772331F5992333
:101CB00009F06CC08091810690918206820F931F7B
:101CC00090932B0180932A0184E08ABB809173005A
:101CD0008460809373008091830690918406280F1E
:101CE000391F96958795280F391F309386062093C4
:101CF000850681E080937E0649C04091850650911B
:101D0000860610917F06E0918306F091840660912B
:101D10008006AA27BB27AE1BBF0BC901841B950BEE
:101D200097FD2CC06695612B7F5F8A0F9B1F7930D2
:101D300018F44E0F5F1FF4CF6093800680917300FC
:101D40008B7F8093730090912D069F5F903508F0F4
:101D500090E080912C06981739F0E92FF0E0E25DD1
:101D6000F94F608390932D06809121018F7B8093A2
:101D7000210110927F0610927E0608C060938006B3
:101D8000509386064093850670937E06FF91EF91EF
:101D9000BF91AF919F918F917F916F915F914F9183
:101DA0003F912F911F910F900BBE0F900FBE0F9080
:101DB0001F9018951F920F920FB60F920BB60F92AD
:101DC00011242F938F939F93EF93FF938091730030
:101DD0008B7F80937300809121018F7B8093210101
:101DE00090917E0680917F0680582091800603C0E6
:101DF0002695282B9F5F9930D8F3209380069091E9
:101E00002D069F5F903508F090E080912C06981782
:101E100039F0E92FF0E0E25DF94F208390932D0631
:101E200010927E06809121018F7B80932101109278
:101E30007F06FF91EF919F918F912F910F900BBE95
:101E40000F900FBE0F901F90189580912D06E09176
:101E50002C068E1719F42FEF3FEF0EC02E2F2F5F99
:101E6000203508F020E0E22FF0E0E25DF94F8081BC
:101E700020932C06282F30E0C901089580912D066B
:101E8000E0912C068E1719F4EFEFFFEF06C0F0E09B
:101E9000E25DF94F8081E82FF0E0CF010895909145
:101EA0002D0680912C06292F30E0482F50E09817FE
:101EB00010F4205B3F4F241B350BC90108959B0193
:101EC000AC012D3A8BE1380780E0480780E05807E5
:101ED00030F4109273001092200181E814C063E086
:101EE00056954795379527956A95D1F72D3A8BE109
:101EF000380780E0480780E05807D0F5109273005B
:101F00001092200182E8809321013093840620936F
:101F10008306CA01B90125E230E040E050E00E94AA
:101F2000562452E096958795779567955A95D1F7FF
:101F3000709382066093810680E362E00E947818C5
:101F40008EE261E00E942B198EE261E00E94781817
:101F500010927E0610922D0610922C061092870683
:101F600010928A0610928B0680E28ABB80937300DF
:101F7000089508950F931F93CB01BA01A901980109
:101F80000E9439212EEA3CED42E45EE30E94EB22FE
:101F90009B01AC0160E070E080E89FE30E94D020EC
:101FA00020E03AE24DE257E40E9488221F910F910F
:101FB0000895CF92DF92EF92FF920F931F936A01E1
:101FC0007B01C901B80120E03AE24DE257EC0E94E2
:101FD000392120E030E040E85FE30E94D12026EF85
:101FE00038E248EA50E40E94EB229B01AC01C701B1
:101FF000B6010E9439211F910F91FF90EF90DF9061
:10200000CF900895CF92DF92EF92FF920F931F939C
:102010007C016B01042F82E297E067E770E00E9489
:102020000714112707FD109582E297E0B601A80179
:102030000E94581482E297E00E94CC142AE430E017
:10204000E20EF31EF701808390E0882309F491E00B
:10205000892F1F910F91FF90EF90DF90CF900895FF
:102060001F93DF93CF930F920F92CDB7DEB79C01F2
:10207000613039F062308CF0623039F0633069F4ED
:1020800008C084E78A8318E00BC084EB8A831EE0D3
:1020900007C084EF8A831AE103C084E38A8315E0D2
:1020A00084EF8983C901BE016F5F7F4F42E00E94C8
:1020B00002108111812F0F900F90CF91DF911F910E
:1020C0000895DF93CF930F920F92CDB7DEB724EF31
:1020D00029832EE22A83BE016F5F7F4F42E00E9478
:1020E0000210811185E00F900F90CF91DF9108953C
:1020F000FF920F931F93CF93DF938C01EB01F42E8C
:1021000082E297E067E770E00E94071482E297E0BE
:1021100068810E94891482E297E00E94CC14065BD9
:102120001F4FF8018083882311F080E020C00F2D1D
:10213000112707FD109582E297E067E770E0A8019C
:102140000E94DD1482E297E00E941114801791072B
:10215000C9F71C2FCE01EC0105C082E297E00E9476
:102160001A1489939E01211B2F15BCF381E0DF9186
:10217000CF911F910F91FF9008952F923F924F9210
:102180005F926F927F928F929F92AF92BF92CF9207
:10219000DF92EF92FF920F931F93DF93CF93CDB710
:1021A000DEB728970FB6F894DEBF0FBECDBF9E8373
:1021B0008D8378876F838A0186EF89838D819E81E5
:1021C000BE016F5F7F4F43E00E9478108C838823AD
:1021D00009F4D7C0F801608171818281938120E088
:1021E00030E048EC51E40E94D0203B014C01A401B6
:1021F00093010E9488227B018C01698170E088270D
:1022000077FD8095982F0E94D42120E030E040E8AF
:1022100053E40E9488225B016C016A8170E0882788
:1022200077FD8095982F0E94D4219B01AC01C601B7
:10223000B5010E94D1205B016C016B8170E08827A1
:1022400077FD8095982F0E94D42120E030E040E86F
:102250005BE30E9488229B01AC01C601B5010E948C
:10226000D1201B012C01C801B701ED81FE8126A5FB
:1022700037A540A951A90E9488225B016C01C401C5
:10228000B301ED81FE8122A533A544A555A50E9489
:1022900088229B01AC01C601B5010E94D120ED81CD
:1022A000FE8126A137A140A551A50E94D1209B0106
:1022B000AC01C201B1010E94D0205B016C01C801D8
:1022C000B701ED81FE8122AD33AD44AD55AD0E9425
:1022D00088227B018C01C401B301ED81FE8126A916
:1022E00037A940AD51AD0E9488229B01AC01C801C5
:1022F000B7010E94D120ED81FE8122A933A944A912
:1023000055A90E94D1209B01AC01C601B5010E94D4
:1023100039217B018C01A80197010E9488229B0131
:10232000AC01CA012D813E812A5B3F4F3E832D8344
:10233000F90120813181428153810E9488225B0111
:102340006C01C801B701ED81FE8152914291329139
:102350002291FE83ED830E9488229B01AC01C6017D
:10236000B5010E94D120ED81FE81529142913291BE
:1023700022910E94D120EF81F8856083718382834E
:1023800093838C8128960FB6F894DEBF0FBECDBF25
:10239000CF91DF911F910F91FF90EF90DF90CF9041
:1023A000BF90AF909F908F907F906F905F904F9075
:1023B0003F902F9008959F92AF92BF92CF92DF925D
:1023C000EF92FF920F931F93DF93CF930F920F9291
:1023D000CDB7DEB76C015B0186EF8983C601BE0114
:1023E0006F5F7F4F42E00E947810982E882309F497
:1023F00049C0698170E0882777FD8095982F0E94F9
:10240000D42120E030E040E853E40E9488227B01A0
:102410008C016A8170E0882777FD8095982F0E9453
:10242000D4219B01AC01C801B7010E94D120F60163
:10243000228D338D448D558D0E94D020F601268942
:102440003789408D518D0E9488227B018C01F601D5
:1024500022A133A144A155A10E94D1209B01AC012E
:10246000F601668D778D80A191A10E9439219B0193
:10247000AC01C801B7010E94D120F50160837183CE
:1024800082839383892D0F900F90CF91DF911F91BD
:102490000F91FF90EF90DF90CF90BF90AF909F9003
:1024A00008950F931F93DF93CF930F920F92CDB7A1
:1024B000DEB78A016983BE016F5F7F4F42E00E94F1
:1024C0007810882359F0998180E02A8130E0822BAE
:1024D000932BF8019183808381E004C0F80111827D
:1024E000108280E00F900F90CF91DF911F910F919C
:1024F00008950F931F93DF93CF930F920F92CDB751
:10250000DEB78A016983BE016F5F7F4F42E00E94A0
:102510007810882359F0998180E02A8130E0822B5D
:10252000932BF8019183808381E004C0F80111822C
:10253000108280E00F900F90CF91DF911F910F914B
:1025400008956F927F928F929F92AF92BF92CF9297
:10255000DF92EF92FF920F931F93CF93DF93EC01E3
:1025600082E297E00E94E114CE016AEAAE010E9485
:102570007912882309F43BC1AE014E5F5F4FCE0153
:102580006CEA0E947912882309F431C1AE014C5FD4
:102590005F4FCE016EEA0E947912882309F427C1A9
:1025A000AE01405F5F4FCE0160EB0E945112882365
:1025B00009F41DC1AE014E5E5F4FCE0162EB0E9479
:1025C0005112882309F413C1AE014C5E5F4FCE0156
:1025D00064EB0E945112882309F409C1AE014A5FDD
:1025E0005F4FCE0166EB0E947912882309F4FFC089
:1025F000AE01485F5F4FCE0168EB0E9479128823DD
:1026000009F4F5C0AE01465F5F4FCE016AEB0E9450
:102610007912882309F4EBC0AE01445F5F4FCE010D
:102620006CEB0E947912882309F4E1C0AE01425F8D
:102630005F4FCE016EEB0E947912882309F4D7C058
:102640006C817D81882777FD8095982F0E94D42109
:1026500020E030E040EA5BE30E9488223B014C012D
:102660006889798980E090E00E94D2212FE632E1EA
:1026700043E053E30E9488227B018C016E817F81BD
:10268000882777FD8095982F0E94D42120E030E0A4
:1026900048EC57E30E9488225B016C016A897B89C0
:1026A00080E090E00E94D2212DEC3CEC4CE454E31D
:1026B0000E9488226E8B7F8B888F998F6C897D8991
:1026C00080E090E00E94D2216A8F7B8F8C8F9D8F5B
:1026D0006C857D85882777FD8095982F0E94D42171
:1026E0002AE037ED43EA5DE30E9488226E8F7F8FF8
:1026F00088A399A36E857F85882777FD8095982F7D
:102700000E94D42120E030E040E253E40E943921CD
:102710006AA37BA38CA39DA368817981882777FD19
:102720008095982F0E94D4216EA37FA388A799A794
:102730006A817B81882777FD8095982F0E94D4211C
:1027400020E030E040EA5CE30E9488226AA77BA791
:102750008CA79DA768857985882777FD8095982F18
:102760000E94D42120E030E048E45AE30E9488220D
:102770006EA77FA788AB99ABC801B70120E030E016
:1027800040E057E40E9488226AAB7BAB8CAB9DABE8
:10279000C801B701A40193010E9488226EAB7FABF0
:1027A00088AF99AFC801B701A60195010E948822A0
:1027B0006AAF7BAF8CAF9DAFEE968CEE91E5A7E153
:1027C000B0E489939993A993B99380E394E3AEE736
:1027D000BFE389939993A993B99380E097E5A4E91E
:1027E000B6E388839983AA83BB8381E001C080E03C
:1027F000DF91CF911F910F91FF90EF90DF90CF90DD
:10280000BF90AF909F908F907F906F90089581E0E0
:10281000809321076093FE0610921F0710922007F5
:1028200008952091FD0630E08091FC06281B3109B7
:10283000C90108954091FC068091FD06481718F0E3
:102840002FEF3FEF0AC0E42FF0E0E452F94F808110
:10285000282F30E04F5F4093FC06C9010895E091B6
:10286000FC068091FD06E81718F0EFEFFFEF06C0B9
:10287000F0E0E452F94F8081E82FF0E0CF010895B5
:102880000895109225071092240788EE93E0A0E0A7
:10289000B0E08093260790932707A0932807B09372
:1028A000290786E493E090932307809322070895F5
:1028B000CF92DF92EF92FF920F931F93CF93DF930C
:1028C0007C016B018A01809121078823A1F0C0E07F
:1028D000D0E00DC0D701ED91FC91D601AC0FBD1F2A
:1028E0000190F081E02DC7016C9119952196C017D8
:1028F000D10780F304C0CB01642F0E948A15C80160
:10290000DF91CF911F910F91FF90EF90DF90CF90CB
:102910000895DF93CF930F92CDB7DEB7FC016983A3
:10292000809121078823C9F080912007803238F0F8
:1029300081E090E09383828320E030E015C08091B5
:102940001F07E82FF0E0E150F94F998190838F5FE6
:1029500080931F078093200705C0CE01019661E098
:102960000E948A1521E030E0C9010F90CF91DF91DC
:1029700008950F93062F8091FE066FEF76E0409149
:10298000200721E00E94351510921F0710922007A2
:10299000109221070F91089561E00E94B9140895E3
:1029A000413208F040E2862F6CED76E00E94EC1494
:1029B0001092FC068093FD06089521E00E94D01439
:1029C00008951092FC061092FD0610921F071092B7
:1029D00020070E943A170895382F413210F040E046
:1029E00042C080912E078823E1F791E090932E0753
:1029F000209330078FEF80939B071092560741502A
:102A0000409357074F5F90932F0780912F07330F05
:102A1000832B80932F0780913107813041F41092EE
:102A2000310780912F078093BB0085EC01C085EEB4
:102A30008093BC0080912E078130E1F3809156078E
:102A4000841710F44091560720E030E00AC0FB01E3
:102A5000E20FF31FD901AA5CB84F8C9180832F5FDE
:102A60003F4F2417A0F3842F08950F931F93582FDF
:102A7000122F413210F081E04AC080912E07882346
:102A8000E1F782E080932E07009330078FEF809369
:102A90009B071092560740935707A6E3B7E0FB0148
:102AA00002C081918D938E2F861B8417D0F31092D4
:102AB0002F0780912F07550F852B80932F0780912B
:102AC0003107813041F41092310780912F078093B4
:102AD000BB0085EC01C085EE8093BC00112321F082
:102AE00080912E078230E1F380919B078F3F11F494
:102AF00080E00DC080919B07803211F482E007C016
:102B000080919B07803311F084E001C083E01F9126
:102B10000F910895482F613210F081E0089580915F
:102B20002E07843011F082E0089560937907A8E5BC
:102B3000B7E0842F9C01F90102C081918D938E2F03
:102B4000841B8617D0F380E008951F920F920FB672
:102B50000F920BB60F9211242F933F934F935F93D5
:102B60006F937F938F939F93AF93BF93EF93FF9355
:102B70008091B90090E0887F90708036910509F4CB
:102B8000F2C081369105CCF58832910509F47BC0FD
:102B900089329105B4F48031910509F46FC0813117
:102BA00091053CF4009709F447C1089709F04FC11B
:102BB00065C08831910509F466C0809709F047C166
:102BC00082C08034910509F4A4C08134910544F495
:102BD0008033910509F482C0C89709F038C189C0D3
:102BE0008035910509F489C08835910509F496C0AE
:102BF0008834910509F02BC1AEC08839910509F4DC
:102C000013C189399105ECF48837910509F4ABC0FB
:102C1000893791054CF48836910509F4A4C08037B2
:102C2000910509F014C19FC08838910509F4FCC0D2
:102C30008039910509F49DC08038910509F007C1DC
:102C400098C0803B910509F4C6C0813B91054CF4C6
:102C5000803A910509F49FC0883A910509F0F7C0C0
:102C6000BAC0803C910509F4E3C0883C910509F4A1
:102C7000DFC0883B910509F0EAC0C2C080912F07F0
:102C80008093BB00CFC0909156078091570798174B
:102C900068F490915607E92FF0E0EA5CF84F8081E4
:102CA0008093BB009F5F90935607BCC08091300714
:102CB000882309F44BC085ED8093BC008091BC0053
:102CC00084FDFCCFC2C080E280939B0785ED80939A
:102CD000BC008091BC0084FDFCCFB7C080E3809332
:102CE0009B0785ED8093BC008091BC0084FDFCCFE8
:102CF000ACC088E380939B079BC08091560790915E
:102D0000BB00E82FF0E0EA5CF84F90838F5F809380
:102D10005607909156078091570782C080915607B9
:102D20009091BB00E82FF0E0EA5CF84F90838F5F52
:102D30008093560780913007882341F085ED80937A
:102D4000BC008091BC0084FDFCCF7FC081E08093FB
:102D5000310784EA6EC085ED8093BC008091BC0091
:102D600084FDFCCF72C083E080932E0710929A07F7
:102D700059C080919A07803208F056C080919A0716
:102D80009091BB00E82FF0E0E658F84F90838F5FFA
:102D900080939A0747C080919A07803230F4E0917F
:102DA0009A07F0E0E658F84F108285ED8093BC005A
:102DB0008091BC0084FDFCCF10922E0760919A0791
:102DC000E0913407F09135078AE797E070E01995B4
:102DD00010929A072DC084E080932E0710927807F6
:102DE00010927907E0913207F0913307199580919D
:102DF0007907882329F481E0809379071092580796
:102E000090917807E92FF0E0E85AF84F808180939D
:102E1000BB009F5F90937807909178078091790726
:102E2000981710F485EC01C085E88093BC000FC0B2
:102E300085EC8093BC0009C010929B0785ED8093C0
:102E4000BC008091BC0084FDFCCF10922E07FF9146
:102E5000EF91BF91AF919F918F917F916F915F9112
:102E60004F913F912F910F900BBE0F900FBE0F907F
:102E70001F90189510922E0781E0809330071092D2
:102E8000310784E161E00E942B1985E161E00E9435
:102E90002B19E9EBF0E080818E7F808380818D7F2C
:102EA000808388E48093B80085E48093BC00089513
:102EB0001F920F920FB60F9211242F933F938F936F
:102EC0009F93AF93BF938091A0079091A107A0918A
:102ED000A207B091A3073091A4070196A11DB11DCF
:102EE000232F2D5F2D3720F02D570196A11DB11DE9
:102EF0002093A4078093A0079093A107A093A20713
:102F0000B093A30780919C0790919D07A0919E0785
:102F1000B0919F070196A11DB11D80939C079093CE
:102F20009D07A0939E07B0939F07BF91AF919F917C
:102F30008F913F912F910F900FBE0F901F9018957A
:102F40008FB7F8942091A0073091A1074091A20774
:102F50005091A3078FBFB901CA010895789484B531
:102F6000826084BD84B5816084BD85B5826085BD85
:102F700085B5816085BDEEE6F0E08081816080836B
:102F8000E1E8F0E01082808182608083808181604E
:102F90008083E0E8F0E0808181608083E1EBF0E015
:102FA000808184608083E0EBF0E0808181608083B9
:102FB000E1E9F0E0808182608083808181608083AC
:102FC000E0E9F0E0808181608083E1EAF0E08081E7
:102FD00082608083808181608083E0EAF0E080818C
:102FE00081608083E1E2F1E0808182608083808182
:102FF00081608083E0E2F1E0808181608083EAE7A4
:10300000F0E0808184608083808182608083808121
:10301000816080838081806880831092C1000895E0
:10302000EF92FF920F931F93CF93DF937B018C015D
:103030003FB7F89480919C0790919D07A0919E07BF
:10304000B0919F0726B5A89B05C02F3F19F00196A8
:10305000A11DB11D3FBFBA2FA92F982F8827820F1E
:10306000911DA11DB11D52E0880F991FAA1FBB1F02
:103070005A95D1F7EC0130C00E94EE1F3FB7F8948B
:1030800080919C0790919D07A0919E07B0919F070A
:1030900026B5A89B05C02F3F19F00196A11DB11DB3
:1030A0003FBFBA2FA92F982F8827820F911DA11DEE
:1030B000B11D32E0880F991FAA1FBB1F3A95D1F7A7
:1030C0008C1B9D0B885E9340B8F20894E108F108D0
:1030D00001091109C851DC4FE114F1040105110582
:1030E00059F6DF91CF911F910F91FF90EF900895C6
:1030F000CF93DF93482F50E0CA0186509E4FFC01CA
:1031000034914C545E4FFA018491882369F190E028
:10311000880F991FFC01EA59FE4FA591B491FC015B
:10312000E058FE4FC591D491662351F42FB7F8941F
:103130008C91932F909589238C93888189230BC040
:10314000623061F42FB7F8948C91932F9095892376
:103150008C938881832B88832FBF06C09FB7F894F8
:103160008C91832B8C939FBFDF91CF9108958930F1
:1031700009F449C08A30A0F4843051F1853040F41C
:10318000823079F1833000F5813009F063C026C0C8
:10319000873079F1883098F5863009F05BC025C01A
:1031A0008D3009F442C08E3028F48B30B1F18C3070
:1031B000C0F52DC0803109F442C0813109F445C009
:1031C0008F3009F047C037C0809180008F7703C0EF
:1031D000809180008F7D80938000089584B58F77E3
:1031E00002C084B58F7D84BD08958091B0008F7733
:1031F00003C08091B0008F7D8093B00008958091CE
:1032000090008F7707C0809190008F7D03C08091E0
:103210009000877F8093900008958091A0008F7721
:1032200007C08091A0008F7D03C08091A000877FA0
:103230008093A0000895809120018F7703C0809132
:1032400020018F7D80932001089580912001877F48
:10325000809320010895FF920F931F93F62E482F1D
:1032600050E0CA01805C9D4FFC012491CA01865048
:103270009E4FFC0114914C545E4FFA0104910023BF
:10328000C9F0222319F0822F0E94B718E02FF0E036
:10329000EE0FFF1FE058FE4FA591B4919FB7F89431
:1032A000FF2021F48C911095812302C08C91812BF9
:1032B0008C939FBF1F910F91FF9008950F931F93C1
:1032C000CF93DF93BC018230910510F462E070E08F
:1032D000E0914408F091450840E050E0A0E0B0E003
:1032E00024C08081918186179707D0F086179707B1
:1032F00071F482819381109729F013969C938E9399
:1033000012972CC0909345088093440827C041151C
:10331000510519F08417950718F48D01AC01EF01E0
:10332000DF01828193819C01F9013097D1F641152B
:103330005105F9F0CA01861B970B8430910580F482
:103340008A819B810115110521F0F8019383828305
:1033500004C09093450880934408FE01329645C00E
:10336000FE01E80FF91F6193719302979983888397
:103370003CC08091420890914308892B41F4809190
:10338000160390911703909343088093420840914D
:103390001803509119034115510541F44DB75EB71B
:1033A0008091140390911503481B590B20914208FA
:1033B0003091430824173507B0F4CA01821B930BE0
:1033C0008617970780F0AB014E5F5F4F8417950714
:1033D00050F0420F531F5093430840934208F901A5
:1033E0006193719302C0E0E0F0E0CF01DF91CF91F3
:1033F0001F910F910895CF93DF939C01009709F4DB
:103400008FC0EC0122971B821A8260914408709150
:1034100045086115710581F488819981820F931F98
:1034200020914208309143082817390739F5D09385
:103430004308C093420874C0DB0140E050E0AC1781
:10344000BD0708F1BB83AA83FE0121913191E20FF0
:10345000F31FAE17BF0779F48D919C911197280F38
:10346000391F2E5F3F4F3983288312968D919C918F
:1034700013979B838A834115510571F4D0934508B6
:10348000C09344084DC012968D919C911397AD0145
:10349000009711F0DC01D3CFDA011396DC93CE93C1
:1034A0001297FA0121913191E20FF31FCE17DF0736
:1034B00069F488819981280F391F2E5F3F4FFA01E7
:1034C000318320838A819B8193838283E0E0F0E0D3
:1034D000DB0112968D919C911397009719F0BC0116
:1034E000FD01F6CFAB014E5F5F4FDB018D919C91EB
:1034F000840F951F209142083091430828173907FF
:1035000079F4309729F4109245081092440802C0CB
:103510001382128242505040509343084093420815
:10352000DF91CF910895DC015C968C915C97FD0151
:10353000E80FF11DE35AFF4F20815C968C915C9758
:1035400090E001968F7390705C968C935C97569682
:10355000ED91FC91579720835096ED91FC915197F6
:103560008081806480835B969C915B975C968C9154
:103570005C97981739F45296ED91FC91539780819E
:103580008F7D80830895DF92EF92FF920F931F93B8
:10359000CF93DF93EC017A018B01D22EE889F98970
:1035A00082E08083403081EE580780E0680780E049
:1035B0007807A1F060E079E08DE390E0A801970141
:1035C0000E94752421503040404050405695479508
:1035D0003795279580E12030380798F0E889F989F8
:1035E000108260E874E88EE190E0A80197010E94E3
:1035F00075242150304040405040569547953795AE
:103600002795EC85FD853083EE85FF852083188E18
:10361000EC89FD89D082EA89FB8980818061808381
:10362000EA89FB89808188608083EA89FB898081BF
:1036300080688083EA89FB8980818F7D8083DF9128
:10364000CF911F910F91FF90EF90DF900895FC01B3
:10365000218D828D30E0205C3F4F281B31092F7374
:103660003070C9010895FC01918D828D981719F46D
:103670002FEF3FEF06C0828DE80FF11D858D282FBB
:1036800030E0C9010895DC0159969C9159975A96EA
:103690008C915A97981719F42FEF3FEF10C05A9654
:1036A0008C915A97FD01E80FF11D958D5A968C91DA
:1036B0005A978F5F8F735A968C93292F30E0C901E8
:1036C0000895CF93DF93EC01888D882361F419C0AE
:1036D0008C9185FF0AC0E889F989808185FF05C042
:1036E000CE010E94931AAA89BB898C9185FD05C0E1
:1036F000E889F989808186FD04C00FB607FEE8CF0E
:10370000F4CFDF91CF9108950F931F93CF93DF9361
:10371000EC01062F9B8D8C8D981791F5E889F9891E
:10372000808185FF2DC0EE89FF896083E889F98952
:103730008081806480831DC00FB607FC08C0E889C3
:10374000F989808185FF03C0CE010E94931A8C8D78
:10375000181791F38B8DFE01E80FF11DE35AFF4F0F
:1037600000831B8FEA89FB8980818062808381E0EE
:10377000888F81E090E0DF91CF911F910F910895A4
:103780001B8D1F5F1F73E3CF8AE79CE1892B51F0EC
:1037900080E090E0892B31F00E947A1C882311F0A0
:1037A0000E94000080E090E0892B51F080E090E0E2
:1037B000892B31F00E940000882311F00E94000044
:1037C00080E090E0892B51F080E090E0892B31F08F
:1037D0000E940000882311F00E94000080E090E029
:1037E000892B51F080E090E0892B31F00E9400009D
:1037F000882311F00E94000008951F920F920FB6C7
:103800000F920BB60F9211242F938F939F93EF93E8
:10381000FF93E091B507F091B607808182FD16C055
:10382000E091BB07F091BC0720819091BE079F5F9C
:103830009F738091BF07981771F0E091BE07F0E089
:10384000EB55F84F258F9093BE0705C0E091BB075D
:10385000F091BC07E081FF91EF919F918F912F91A3
:103860000F900BBE0F900FBE0F901F9018951092E7
:10387000A8071092A70788EE93E0A0E0B0E080933D
:10388000A9079093AA07A093AB07B093AC0786E56E
:1038900093E09093A6078093A50785EC90E0909322
:1038A000B2078093B10784EC90E09093B4078093C3
:1038B000B30780EC90E09093B6078093B50781EC56
:1038C00090E09093B8078093B70782EC90E09093D4
:1038D000BA078093B90786EC90E09093BC07809379
:1038E000BB071092BE071092BF071092C00710923C
:1038F000C107089585EA97E00E94271B20E0892BE5
:1039000009F021E0822F08951F920F920FB60F92B7
:103910000BB60F9211242F933F934F935F936F93A6
:103920007F938F939F93AF93BF93EF93FF9385EA1A
:1039300097E00E94931AFF91EF91BF91AF919F91F1
:103940008F917F916F915F914F913F912F910F9048
:103950000BBE0F900FBE0F901F901895CF93DF9363
:103960000E94AE170E944503C4ECDBE10E94D20125
:103970002097E1F30E94C41BF9CFCF92DF92EF9220
:10398000FF920F931F93CF93DF937C016B018A010A
:10399000C0E0D0E00FC0D6016D916D01D701ED916F
:1039A000FC910190F081E02DC7011995C80FD91F36
:1039B000015010400115110571F7CE01DF91CF9133
:1039C0001F910F91FF90EF90DF90CF900895CF93CC
:1039D000DF93FB01EC01A881B98160817181448191
:1039E00055811296ED91FC9113971995DF91CF9126
:1039F0000895EF92FF920F931F938C01DC01ED91DC
:103A0000FC910190F081E02D6DE019957C01D801C9
:103A1000ED91FC910190F081E02DC8016AE01995CB
:103A20009C012E0D3F1DC9011F910F91FF90EF903A
:103A30000895EF92FF920F931F937C010E94E71C61
:103A40008C01C7010E94F91C9C01200F311FC90184
:103A50001F910F91FF90EF900895CF93DF93EC01AA
:103A60006115710519F420E030E00FC0DB010D9005
:103A70000020E9F71197A61BB70BE881F9810280B6
:103A8000F381E02DAD0119959C01C901DF91CF9122
:103A900008954F925F927F928F929F92AF92BF92C2
:103AA000CF92DF92EF92FF920F931F93DF93CF930A
:103AB000CDB7DEB7A1970FB6F894DEBF0FBECDBF6E
:103AC0002C01742ECB01223008F42AE019A231E235
:103AD000C32ED12CCC0EDD1E822E9924AA24BB2409
:103AE000672D752FA50194010E94752479018A0123
:103AF000C801B701A50194010E945624472D461B19
:103B00000894C108D1084A3014F4405D01C0495CF2
:103B1000F6014083E114F1040105110521F07E2C2A
:103B20005F2DC801DDCFC201B6010E942D1DA196F7
:103B30000FB6F894DEBF0FBECDBFCF91DF911F91BE
:103B40000F91FF90EF90DF90CF90BF90AF909F903C
:103B50008F907F905F904F900895DC012115310583
:103B600041F4ED91FC910190F081E02D642F1995C5
:103B700008950E94491D0895CF92DF92EF92FF921F
:103B80000F931F93CF93DF93EC016A017B01211503
:103B9000310541F4E881F9810190F081E02D642F35
:103BA00019951FC02A303105D1F477FF17C0E8817D
:103BB000F9810190F081E02D6DE219958C01442787
:103BC0005527BA014C195D096E097F09CE012AE01B
:103BD0000E94491D9801280F391F04C02AE00E9445
:103BE000491D9C01C901DF91CF911F910F91FF9059
:103BF000EF90DF90CF9008950E942D1D08957F9241
:103C00008F929F92AF92BF92CF92DF92EF92FF92EC
:103C10000F931F93CF93DF934C017A018B01722E88
:103C2000CB01BA01A80197010E943723882321F014
:103C3000C40162E073E021C0C0E0D0E05701680138
:103C4000E894D7F8C601B5012FEF3FEF4FE75FE7E4
:103C50000E943723882351F4C601B5012FEF3FEFAF
:103C60004FE75FE70E943521181614F0C1E0D0E05D
:103C7000219739F0C40166E073E00E942D1DEC012C
:103C800093C0C801B7012FEF3FEF4FE75FE40E94F9
:103C90008422181654F0C801B7012FEF3FEF4FE709
:103CA0005FEC0E943521882324F4C4016AE073E0AC
:103CB000E4CFC801B70120E030E040E050E00E94CE
:103CC000352187FD03C0C0E0D0E00EC0D401ED91E6
:103CD000FC910190F081E02DC4016DE21995EC0199
:103CE00017FB109517F9109520E030E040E05FE3F6
:103CF000DD240BC0CA01B90120E030E040E251E40C
:103D00000E9439219B01AC01D394D71498F3C801C8
:103D1000B7010E94D1205B016C010E94A6217B01AA
:103D20008C01C401B801A7012AE030E00E94AD1D5A
:103D3000C80FD91F772039F0C4016EE073E00E94EC
:103D40002D1DC80FD91FC801B7010E94D2219B01A8
:103D5000AC01C601B5010E94D02024C020E030E0B3
:103D600040E251E40E9488227B018C010E94A12143
:103D70005B016C01CC24B7FCC094DC2CC401B601FF
:103D8000A5012AE030E00E94BC1DC80FD91FC60162
:103D9000B5010E94D4219B01AC01C801B7010E946A
:103DA000D0207A947720D1F6CE01DF91CF911F9168
:103DB0000F91FF90EF90DF90CF90BF90AF909F90CA
:103DC0008F907F9008950E94FF1D0895EF92FF92BB
:103DD0000F931F937C010E94FF1D8C01C7010E945D
:103DE000F91C080F191FC8011F910F91FF90EF9048
:103DF0000895EF92FF920F931F937C010E942D1D57
:103E00008C01C7010E94F91C080F191FC8011F91DE
:103E10000F91FF90EF9008950F931F93CF93DF932F
:103E2000EC018B016F5F7F4F888199810E94EF1FAA
:103E3000009711F480E005C0998388831B830A836F
:103E400081E0DF91CF911F910F910895CF93DF9380
:103E5000EC0188819981892B29F08A819B818617C1
:103E6000970760F4CE010E940C1F882341F08C81DB
:103E70009D81892B19F4E881F981108281E0DF911D
:103E8000CF910895EF92FF920F931F93CF93DF93FB
:103E9000EC017B016C817D81E114F104C1F04115DD
:103EA000510599F08A01060F171FB8010E94261FBD
:103EB000882369F0888199812C813D81820F931F2D
:103EC000B7010E9480011D830C8381E001C080E066
:103ED000DF91CF911F910F91FF90EF900895DF93A5
:103EE000CF930F920F92CDB7DEB769831A82BE01CE
:103EF0006F5F7F4F41E050E00E94421F0F900F9094
:103F0000CF91DF910895CF93DF93EC018881998160
:103F1000009711F00E94FB19198218821D821C82E1
:103F20001B821A82DF91CF910895EF92FF920F9337
:103F30001F93CF93DF93EC017B018A01BA010E94AA
:103F4000261F882321F4CE010E94831F07C01D83F2
:103F50000C8388819981B7010E948001CE01DF9195
:103F6000CF911F910F91FF90EF900895CF93DF9322
:103F7000EC01198218821B821A821D821C82611533
:103F8000710551F0DB010D900020E9F71197A61B98
:103F9000B70BAD010E94951FDF91CF9108950F934C
:103FA0001F93182F092F6115710559F0DB010D9032
:103FB0000020E9F71197A61BB70BAD010E94951FD2
:103FC00002C00E94831F812F902F1F910F9108958F
:103FD000FC01808191810E94FB19089508956F92E0
:103FE0007F928F929F92AF92BF92CF92DF92EF9289
:103FF000FF920F931F93CF93DF938C01009729F4C7
:10400000CB010E945E198C01BBC08EEFE82E8FEFB2
:10401000F82EE00EF11E4801860E971E8E149F04A6
:1040200008F4ACC0D7014D915C9111974617570722
:10403000B8F04530510508F4A3C0CA0104978617AB
:10404000970708F49DC042505040461B570BF4019F
:10405000419351936D937C93CF010E94FB1990C0C3
:104060005B01A41AB50A3801640E751EA0914408BC
:10407000B0914508E0E0F0E0CC24DD2447C0A6156F
:10408000B705A9F5CD91DC911197CE0102968A155D
:104090009B0568F1CE018A199B09029612962C9114
:1040A000129713963C91059758F0F40122833383BD
:1040B000CA19DB09D183C083D7016D937C9309C0F2
:1040C0004E5F5F4F4C0F5D1FF70151834083C90165
:1040D000FC01C114D10431F0D6011396FC93EE9388
:1040E00012974EC0F0934508E093440849C08D9163
:1040F0009C911197E817F90708F4FC016D011296DD
:104100008C91129713969C919C01D901109709F0FC
:10411000B6CF809142089091430886159705E9F43F
:10412000E617F707D0F420911803309119032115F1
:10413000310541F42DB73EB78091140390911503DA
:10414000281B390B82169306C8F49092430880927C
:104150004208F7017183608313C0CB010E945E198E
:10416000EC01009759F0D7014D915C91B8010E9484
:104170007701C8010E94FB198E0102C000E010E027
:10418000C801DF91CF911F910F91FF90EF90DF90C9
:10419000CF90BF90AF909F908F907F906F90089539
:1041A0005058BB27AA270ED075C166D130F06BD10D
:1041B00020F031F49F3F11F41EF45BC10EF4E09542
:1041C000E7FB51C1E92F77D180F3BA176207730774
:1041D0008407950718F071F49EF58FC10EF4E095F1
:1041E0000B2EBA2FA02D0B01B90190010C01CA01B1
:1041F000A0011124FF27591B99F0593F50F4503E5C
:1042000068F11A16F040A22F232F342F4427585F4D
:10421000F3CF469537952795A795F0405395C9F765
:104220007EF41F16BA0B620B730B840BBAF091501D
:10423000A1F0FF0FBB1F661F771F881FC2F70EC0BC
:10424000BA0F621F731F841F48F48795779567958F
:10425000B795F7959E3F08F0B3CF9395880F08F078
:104260009927EE0F979587950895D9D008F481E0A6
:1042700008950CD00FC107D140F0FED030F021F4EA
:104280005F3F19F0F0C0511139C1F3C014D198F358
:104290009923C9F35523B1F3951B550BBB27AA27C7
:1042A00062177307840738F09F5F5F4F220F331F39
:1042B000441FAA1FA9F333D00E2E3AF0E0E830D005
:1042C00091505040E695001CCAF729D0FE2F27D008
:1042D000660F771F881FBB1F261737074807AB07D6
:1042E000B0E809F0BB0B802DBF01FF2793585F4F4B
:1042F0002AF09E3F510568F0B6C000C15F3FECF365
:10430000983EDCF3869577956795B795F7959F5F0F
:10431000C9F7880F911D9695879597F90895E1E063
:10432000660F771F881FBB1F621773078407BA07C2
:1043300020F0621B730B840BBA0BEE1F88F7E0951D
:10434000089504D06894B111D9C00895BCD088F004
:104350009F5790F0B92F9927B751A0F0D1F0660F71
:10436000771F881F991F1AF0BA95C9F712C0B1308C
:1043700081F0C3D0B1E00895C0C0672F782F88279F
:10438000B85F39F0B93FCCF3869577956795B395CB
:10439000D9F73EF490958095709561957F4F8F4F3A
:1043A0009F4F0895E89409C097FB3EF4909580953F
:1043B000709561957F4F8F4F9F4F9923A9F0F92FEB
:1043C00096E9BB279395F695879577956795B79569
:1043D000F111F8CFFAF4BB0F11F460FF1BC06F5F4F
:1043E0007F4F8F4F9F4F16C0882311F096E911C061
:1043F000772321F09EE8872F762F05C0662371F082
:1044000096E8862F70E060E02AF09A95660F771F95
:10441000881FDAF7880F9695879597F90895990F71
:104420000008550FAA0BE0E8FEEF16161706E8077E
:10443000F907C0F012161306E407F50798F0621B9F
:10444000730B840B950B39F40A2661F0232B242B74
:10445000252B21F408950A2609F4A140A6958FEF93
:10446000811D811D089597F99F6780E870E060E0E5
:1044700008959FEF80EC089500240A9416161706FD
:1044800018060906089500240A9412161306140645
:1044900005060895092E0394000C11F4882352F0A8
:1044A000BB0F40F4BF2B11F460FF04C06F5F7F4F60
:1044B0008F4F9F4F089557FD9058440F551F59F047
:1044C0005F3F71F04795880F97FB991F61F09F3F01
:1044D00079F087950895121613061406551FF2CF2A
:1044E0004695F1DF08C0161617061806991FF1CF7A
:1044F00086957105610508940895E894BB276627A1
:104500007727CB0197F908958ADF08F48FEF089594
:104510000BD0C0CFB1DF28F0B6DF18F0952309F03B
:10452000A2CFA7CF1124EACFC6DFA0F3959FD1F386
:10453000950F50E0551F629FF001729FBB27F00D51
:10454000B11D639FAA27F00DB11DAA1F649F6627A6
:10455000B00DA11D661F829F2227B00DA11D621FF5
:10456000739FB00DA11D621F839FA00D611D221FAF
:10457000749F3327A00D611D231F849F600D211D93
:10458000822F762F6A2F11249F5750408AF0E1F036
:1045900088234AF0EE0FFF1FBB1F661F771F881F7F
:1045A00091505040A9F79E3F510570F05CCFA6CFC7
:1045B0005F3FECF3983EDCF3869577956795B7956A
:1045C000F795E7959F5FC1F7FE2B880F911D969594
:1045D000879597F90895FA01EE0FFF1F3096210590
:1045E000310599F16115710561F48038BFE39B07CE
:1045F00049F168949038810561F08038BFEF9B07DE
:1046000041F0992342F5FF3FE1053105210511F104
:10461000E8940894E795D901AA2329F4AB2FBE2F7B
:10462000F85FD0F310C0FF5F70F4A695E0F7F7399C
:1046300050F019F0FF3A38F49F779F930CD00F9009
:1046400007FC905808953EF014CF60E070E080E8D9
:104650009FE308954FE79F775F934F933F932F9387
:10466000A2D02F913F914F915F9152DF09C0D7DEC9
:10467000880B990B089519F40EF0F5CE3ECFF9CEC4
:1046800022DFC8F39638C0F707F80F92E8942BE3BF
:104690003AEA48EB5FE74ADF0F920F920F924DB76D
:1046A0005EB70F92C0D0E4EEF0E016D04F915F916C
:1046B000EF91FF91E595EE1FFF1F49F0FE57E0686F
:1046C0004427EE0F441FFA95E1F74195550B32D080
:1046D0000F9007FE26C00895DF93CF931F930F938B
:1046E000FF92EF92DF927B018C01689405C0DA2E75
:1046F000EF011ADFFE01E894A591259135914591CE
:104700005591AEF3EF015EDDFE019701A801DA9449
:1047100079F7DF90EF90FF900F911F91CF91DF918C
:1047200008959B01AC0160E070E080E89FE3A1CDBB
:104730009ACEACC0C8DEE8F39923D9F3940F511D8B
:10474000BBF39150504094F059F0882332F0660F3B
:10475000771F881F91505040C1F79E3F510544F785
:10476000880F911D9695879597F908955F3FACF056
:10477000983E9CF0BB27869577956795B79508F48A
:10478000B1609395C1F7BB0F58F711F460FFE8CF04
:104790006F5F7F4F8F4F9F4FE3CFB0CE0EF076C04D
:1047A00068CE689460CE8FDEC8F39923D1F3C6F348
:1047B000DF93CF931F930F93FF92C92FDD27882399
:1047C0002AF02197660F771F881FDAF720E030E084
:1047D00040E85FEB9FE3883920F0803E30F021967F
:1047E0008F77DFDCECE0F1E003C0DBDCE9E3F1E054
:1047F00073DF8B01BE01EC01FB2E6F5771097595BC
:10480000771F880B990BD0DD28E132E741E35FE3A6
:104810008BDEAF2D9801AE01FF900F911F91CF91CC
:10482000DF91D0DC37CEFA01DC01AA0FBB1F9B0160
:10483000AC01BF5728F422273327442750781FC0E4
:10484000B75188F4AB2F0024469537952795011C66
:10485000A395D2F3002069F0220F331F441FB395B4
:10486000DAF30DD09DCC61307105A0E88A07B94616
:1048700030F49B01AC016627772788279078309623
:1048800021F0208331834283538308959F3F49F071
:10489000915028F4869577956795B7959F5F8038F6
:1048A0009F4F880F9695879597F90895629FD0013D
:1048B000739FF001829FE00DF11D649FE00DF11DDB
:1048C000929FF00D839FF00D749FF00D659FF00D8A
:1048D0009927729FB00DE11DF91F639FB00DE11D77
:1048E000F91FBD01CF0111240895A1E21A2EAA1BC0
:1048F000BB1BFD010DC0AA1FBB1FEE1FFF1FA21790
:10490000B307E407F50720F0A21BB30BE40BF50B8C
:10491000661F771F881F991F1A9469F76095709515
:10492000809590959B01AC01BD01CF010895EE0FDC
:10493000FF1F0590F491E02D199412E0CEE8D2E02B
:1049400004C0FE010E9499242296C039D107C9F7FC
:04495000F894FFCF09
:104954000032323A34333A3330002C0074696D65D6
:10496400636F64652C74656D702C61627320707262
:1049740065732C72656C2873656129707265732C7C
:10498400616C743A20006572726F72207265747281
:10499400696576696E6720707265737375726520D8
:1049A4006D6561737572656D656E740A006572720A
:1049B4006F72207374617274696E672070726573AC
:1049C40073757265206D6561737572656D656E745E
:1049D4000A006572726F7220726574726965766915
:1049E4006E672074656D7065726174757265206D93
:1049F4006561737572656D656E740A006572726FB8
:104A040072207374617274696E672074656D706569
:104A1400726174757265206D6561737572656D651B
:104A24006E740A005245424F4F5400424D50313883
:104A34003020696E69742073756363657373004213
:104A44004D5031383020696E6974206661696C0A92
:104A54000A006E616E00696E66006F7666002E0055
:104A6400FFFFFFFF800046080000000000008703EE
:104A740044049F03EA030804E203000000009C0AC4
:104A8400BD1C00000000960DBD1C4F0F250F3E0FEE
:104A9400410D000000008914581411141A142F1425
:104AA400401400000000841BBD1C271B431B331B48
:024AB400611B84
:00000001FF
