:100000000C94A6000C94CE000C94CE000C94CE0060
:100010000C94CE000C94CE000C94CE000C94CE0028
:100020000C94CE000C94CE000C942B030C94A402E0
:100030000C94DA030C94CE000C94CE000C94CE00F9
:100040000C944B0C0C94CE000C94090F0C948C0F58
:100050000C94CE000C94CE000C94CE000C94CE00E8
:100060000C949C0A0C94CE0007634236B79BD8A729
:100070001A39685618AEBAAB558C1D3CB7CC5763CD
:10008000BD6DEDFD753EF6177231BF000000803F7B
:1000900008000000BE922449123EABAAAA2ABECD97
:1000A000CCCC4C3E00000080BEABAAAAAA3E000009
:1000B0000000BF000000803F000000000008417801
:1000C000D3BB4387D1133D190E3CC3BD4282AD2B38
:1000D0003E68EC8276BED98FE1A93E4C80EFFFBE30
:1000E00001C4FF7F3F00000000000000000024006A
:1000F00027002A0000000000250028002B00000037
:10010000000023002600290004040404040404045D
:1001100002020202020203030303030301020408B2
:100120001020408001020408102001020408102061
:1001300000000007000201000003040600000000A8
:1001400000000000200138093F0F190111241FBED3
:10015000CFEFD8E0DEBFCDBF12E0A0E0B1E0E4EC2D
:10016000F1E302C005900D92A634B107D9F714E06F
:10017000A6E4B2E001C01D92AD3BB107E1F711E08A
:10018000CAE4D1E004C02297FE010E94D118C43411
:10019000D107C9F70E94B20F0C94D5180C94000037
:1001A000FB01DC0102C001900D9241505040D8F794
:1001B0000895FB01DC0101900D920020E1F7089504
:1001C0008130910521F56F5F7F4F91F586E492E0D4
:1001D0000E94B504109294021092930288EE93E06C
:1001E000A0E0B0E08093950290939602A0939702CE
:1001F000B09398028AE192E09093920280939102E8
:100200008DE992E060E071E00E94B9120895892BB7
:1002100079F46F5F7F4F61F48DE992E00E94EB12F9
:100220008AE192E090939202809391020E944E02A2
:10023000089580E090E06FEF7FEF0E94E000089566
:1002400081E090E06FEF7FEF0E94E0000895EF9271
:10025000FF920F931F93DF93CF93CDB7DEB728970D
:100260000FB6F894DEBF0FBECDBF26C081E992E085
:100270000E942104682F8D30C9F48CE194E061E084
:1002800071E00E9400118CE194E06AE071E00E944C
:1002900000118CE194E06DE972E00E941D108DE97F
:1002A00092E060E071E00E94D21206C08A3021F034
:1002B0008DE992E00E94731281E992E00E944B0462
:1002C000892BA1F686E492E00E945C05882309F45C
:1002D0009EC0682F772767FD7095872F972F0E9404
:1002E000CE0C86E492E08E010F5F1F4FB8010E9492
:1002F000D506882309F486C08CE194E06CE071E0B7
:100300000E9400118CE194E061E071E00E94001114
:100310008CE194E06AE071E00E94001149815A8109
:100320006B817C818CE194E022E030E00E94E71157
:100330008CE194E06AE071E00E94001186E492E0B2
:1003400063E00E942C05882309F457C0682F7727A3
:1003500067FD7095872F972F0E94CE0C86E492E060
:10036000BE016B5F7F4FA8010E94B705882309F487
:100370003FC04D815E816F8178858CE194E022E001
:1003800030E00E94E7118CE194E06AE071E00E94A5
:1003900000114D815E816F81788586E492E000E0F6
:1003A00010EE2EEC34E40E94D5047B018C018CE12C
:1003B00094E0B801A70122E030E00E94E7118CE14F
:1003C00094E06AE071E00E9400114D815E816F81CE
:1003D000788586E492E0980187010E94B604AB011B
:1003E000BC018CE194E020E030E00E94EA1115C0ED
:1003F0008CE194E066E371E00EC08CE194E06DE581
:1004000071E009C08CE194E062E871E004C08CE125
:1004100094E06CEA71E00E94FD1128960FB6F89402
:10042000DEBF0FBECDBFCF91DF911F910F91FF9027
:10043000EF9008958CE194E040E855E260E070E0D0
:1004400026E00E94F90D65E07DE080E090E00E94EA
:100450005B048CE194E064ED71E00E94FD118DE994
:1004600092E06FE770E00E942A1286E492E00E9418
:100470009807882339F08CE194E06BED71E00E94DD
:10048000FD1108958CE194E06FEE71E00E94FD1182
:10049000FFCF8091FE028823E1F7089580916F00DD
:1004A0008B7F80936F0080916F008F7D80936F00B2
:1004B0008091A3028093A4028091FE028823E1F739
:1004C00080916F008D7F80936F000895282F909109
:1004D00001039F5F943408F090E080910203891734
:1004E000E1F33FB7F8948091FE02882341F0E92FB1
:1004F000F0E0ED5FFC4F2083909301031DC081E08D
:100500008093FE022093FF021092000382E086BBDC
:1005100080916F00826080936F00809180008F7364
:10052000806880938000809184009091850040963F
:1005300090938900809388003FBF0895862F0E9482
:10054000660281E090E008951F920F920FB60F921D
:1005500011242F933F934F935F936F937F938F93C8
:100560009F93EF93FF934091FE025091FF022091E1
:100570008800309189006091FA027091FB028091AD
:1005800000031FC0260F371F952F917056954F5FA0
:100590009817B9F0992321F080918000806C04C0F5
:1005A000809180008F7380688093800030938900F1
:1005B00020938800909300035093FF024093FE0223
:1005C0003BC04930F8F2493039F48AE08093FE02AA
:1005D00080918000806C28C080910103E09102032B
:1005E0008E1769F41092FE02809180008F738093C1
:1005F000800080916F008D7F80936F001DC081E02F
:100600008093FE02EF5FE43408F0E0E0E093020341
:10061000F0E0ED5FFC4F80818093FF0210920003B9
:10062000809180008F73806880938000260F371F31
:100630003093890020938800FF91EF919F918F91D3
:100640007F916F915F914F913F912F910F900FBECE
:100650000F901F9018951F920F920FB60F921124B2
:100660001F932F933F934F935F936F937F938F933A
:100670009F93AF93BF93EF93FF93209186003091A8
:1006800087009091F602992341F0809181008F7B41
:10069000809381001092F60208C0809181008064EE
:1006A0008093810080E88093F6027091F5027723B1
:1006B00031F5992309F06CC08091F8029091F9020C
:1006C000820F931F90938B0080938A0084E086BBF7
:1006D00080916F00846080936F008091FA02909106
:1006E000FB02280F391F96958795280F391F3093E5
:1006F000FD022093FC0281E08093F50249C0409105
:10070000FC025091FD021091F602E091FA02F09184
:10071000FB026091F702AA27BB27AE1BBF0BC901E2
:10072000841B950B97FD2CC06695612B7F5F8A0F0C
:100730009B1F793018F44E0F5F1FF4CF6093F702C0
:1007400080916F008B7F80936F009091A4029F5FD8
:10075000903508F090E08091A302981739F0E92FC6
:10076000F0E0EB55FD4F60839093A40280918100EF
:100770008F7B809381001092F6021092F50208C0E0
:100780006093F7025093FD024093FC027093F502D0
:10079000FF91EF91BF91AF919F918F917F916F9159
:1007A0005F914F913F912F911F910F900FBE0F902E
:1007B0001F9018951F920F920FB60F9211242F932E
:1007C0008F939F93EF93FF9380916F008B7F809324
:1007D0006F00809181008F7B809381009091F50262
:1007E0008091F60280582091F70203C02695282BAD
:1007F0009F5F9930D8F32093F7029091A4029F5FF6
:10080000903508F090E08091A302981739F0E92F15
:10081000F0E0EB55FD4F20839093A4021092F50277
:10082000809181008F7B809381001092F602FF916E
:10083000EF919F918F912F910F900FBE0F901F906E
:1008400018958091A402E091A3028E1719F42FEF5E
:100850003FEF0EC02E2F2F5F203508F020E0E22F53
:10086000F0E0EB55FD4F80812093A302282F30E06C
:10087000C90108958091A402E091A3028E1719F492
:10088000EFEFFFEF06C0F0E0EB55FD4F8081E82F62
:10089000F0E0CF0108959091A4028091A302292F46
:1008A00030E0482F50E0981710F4205B3F4F241B96
:1008B000350BC90108959B01AC012D3A8BE1380736
:1008C00080E0480780E0580730F410926F001092E3
:1008D000800081E814C063E05695479537952795C9
:1008E0006A95D1F72D3A8BE1380780E0480780E020
:1008F0005807D0F510926F001092800082E8809324
:1009000081003093FB022093FA02CA01B90125E26B
:1009100030E040E050E00E948E1852E096958795B6
:10092000779567955A95D1F77093F9026093F8021D
:1009300088E062E00E94360D89E061E00E94750D5A
:1009400089E061E00E94360D1092F5021092A40237
:100950001092A3021092FE02109201031092020361
:1009600080E286BB80936F00089508950F931F93D4
:10097000CB01BA01A90198010E9471152EEA3CED44
:1009800042E45EE30E9423179B01AC0160E070E04B
:1009900080E89FE30E94081520E03AE24DE257E428
:1009A0000E94C0161F910F910895CF92DF92EF928F
:1009B000FF920F931F936A017B01C901B80120E0E8
:1009C0003AE24DE257EC0E94711520E030E040E839
:1009D0005FE30E94091526EF38E248EA50E40E94DE
:1009E00023179B01AC01C701B6010E9471151F912D
:1009F0000F91FF90EF90DF90CF900895CF92DF920C
:100A0000EF92FF920F931F937C016B01042F89E9F2
:100A100093E067E770E00E94FE08112707FD10953C
:100A200089E993E0B601A8010E944F0989E993E0A2
:100A30000E94C3092AE430E0E20EF31EF70180832E
:100A400090E0882309F491E0892F1F910F91FF9086
:100A5000EF90DF90CF9008951F93DF93CF9300D056
:100A6000CDB7DEB79C01613039F062308CF0623076
:100A700039F0633069F408C084E78A8318E00BC05A
:100A800084EB8A831EE007C084EF8A831AE103C0E7
:100A900084E38A8315E084EF8983C901BE016F5F17
:100AA0007F4F42E00E94FE048111812F0F900F9032
:100AB000CF91DF911F910895DF93CF9300D0CDB7F1
:100AC000DEB724EF29832EE22A83BE016F5F7F4FBA
:100AD00042E00E94FE04811185E00F900F90CF91BB
:100AE000DF910895FF920F931F93CF93DF938C01B3
:100AF000EB01F42E89E993E067E770E00E94FE08BD
:100B000089E993E068810E94800989E993E00E9465
:100B1000C309065B1F4FF8018083882311F080E032
:100B200020C00F2D112707FD109589E993E067E795
:100B300070E0A8010E94D40989E993E00E940809A5
:100B400080179107C9F71C2FCE01EC0105C089E978
:100B500093E00E94110989939E01211B2F15BCF37C
:100B600081E0DF91CF911F910F91FF9008952F9217
:100B70003F924F925F926F927F928F929F92AF922D
:100B8000BF92CF92DF92EF92FF920F931F93DF936A
:100B9000CF93CDB7DEB728970FB6F894DEBF0FBE60
:100BA000CDBF9E838D8378876F838A0186EF89838B
:100BB0008D819E81BE016F5F7F4F43E00E94720571
:100BC0008C83882309F4D7C0F80160817181828108
:100BD000938120E030E048EC51E40E9408153B018D
:100BE0004C01A40193010E94C0167B018C01698114
:100BF00070E0882777FD8095982F0E940C1620E0E2
:100C000030E040E853E40E94C0165B016C016A8149
:100C100070E0882777FD8095982F0E940C169B0125
:100C2000AC01C601B5010E9409155B016C016B8125
:100C300070E0882777FD8095982F0E940C1620E0A1
:100C400030E040E85BE30E94C0169B01AC01C601A6
:100C5000B5010E9409151B012C01C801B701ED81E6
:100C6000FE8126A537A540A951A90E94C0165B01A7
:100C70006C01C401B301ED81FE8122A533A544A519
:100C800055A50E94C0169B01AC01C601B5010E948A
:100C90000915ED81FE8126A137A140A551A50E942D
:100CA00009159B01AC01C201B1010E9408155B014D
:100CB0006C01C801B701ED81FE8122AD33AD44ADB9
:100CC00055AD0E94C0167B018C01C401B301ED81BA
:100CD000FE8126A937A940AD51AD0E94C0169B01E7
:100CE000AC01C801B7010E940915ED81FE8122A95E
:100CF00033A944A955A90E9409159B01AC01C6015D
:100D0000B5010E9471157B018C01A80197010E9419
:100D1000C0169B01AC01CA012D813E812A5B3F4F69
:100D20003E832D83F90120813181428153810E94CC
:100D3000C0165B016C01C801B701ED81FE815291C3
:100D4000429132912291FE83ED830E94C0169B0155
:100D5000AC01C601B5010E940915ED81FE815291D9
:100D60004291329122910E940915EF81F8856083AA
:100D70007183828393838C8128960FB6F894DEBFAB
:100D80000FBECDBFCF91DF911F910F91FF90EF90DC
:100D9000DF90CF90BF90AF909F908F907F906F909B
:100DA0005F904F903F902F9008959F92AF92BF9287
:100DB000CF92DF92EF92FF920F931F93DF93CF9327
:100DC00000D0CDB7DEB76C015B0186EF8983C60129
:100DD000BE016F5F7F4F42E00E947205982E88230C
:100DE00009F449C0698170E0882777FD8095982FC4
:100DF0000E940C1620E030E040E853E40E94C01648
:100E00007B018C016A8170E0882777FD8095982F9F
:100E10000E940C169B01AC01C801B7010E94091584
:100E2000F601228D338D448D558D0E940815F601F3
:100E300026893789408D518D0E94C0167B018C0117
:100E4000F60122A133A144A155A10E9409159B01DD
:100E5000AC01F601668D778D80A191A10E9471157C
:100E60009B01AC01C801B7010E940915F50160831F
:100E7000718382839383892D0F900F90CF91DF919F
:100E80001F910F91FF90EF90DF90CF90BF90AF90A8
:100E90009F9008950F931F93DF93CF9300D0CDB70A
:100EA000DEB78A016983BE016F5F7F4F42E00E9417
:100EB0007205882359F0998180E02A8130E0822BE5
:100EC000932BF8019183808381E004C0F8011182A3
:100ED000108280E00F900F90CF91DF911F910F91C2
:100EE00008950F931F93DF93CF9300D0CDB7DEB754
:100EF0008A016983BE016F5F7F4F42E00E947205E5
:100F0000882359F0998180E02A8130E0822B932B4D
:100F1000F8019183808381E004C0F801118210827E
:100F200080E00F900F90CF91DF911F910F91089566
:100F30006F927F928F929F92AF92BF92CF92DF92E9
:100F4000EF92FF920F931F93CF93DF93EC0189E908
:100F500093E00E94D809CE016AEAAE010E947107AF
:100F6000882309F43BC1AE014E5F5F4FCE016CEAAE
:100F70000E947107882309F431C1AE014C5F5F4FB5
:100F8000CE016EEA0E947107882309F427C1AE01E1
:100F9000405F5F4FCE0160EB0E944A07882309F44F
:100FA0001DC1AE014E5E5F4FCE0162EB0E944A074B
:100FB000882309F413C1AE014C5E5F4FCE0164EB90
:100FC0000E944A07882309F409C1AE014A5F5F4FB6
:100FD000CE0166EB0E947107882309F4FFC0AE01C1
:100FE000485F5F4FCE0168EB0E947107882309F4C8
:100FF000F5C0AE01465F5F4FCE016AEB0E947107FC
:10100000882309F4EBC0AE01445F5F4FCE016CEB67
:101010000E947107882309F4E1C0AE01425F5F4F6F
:10102000CE016EEB0E947107882309F4D7C06C8152
:101030007D81882777FD8095982F0E940C1620E0EF
:1010400030E040EA5BE30E94C0163B014C01688936
:10105000798980E090E00E940A162FE632E143E0B1
:1010600053E30E94C0167B018C016E817F8188272B
:1010700077FD8095982F0E940C1620E030E048EC18
:1010800057E30E94C0165B016C016A897B8980E08E
:1010900090E00E940A162DEC3CEC4CE454E30E94D4
:1010A000C0166E8B7F8B888F998F6C897D8980E0CD
:1010B00090E00E940A166A8F7B8F8C8F9D8F6C85C3
:1010C0007D85882777FD8095982F0E940C162AE051
:1010D00037ED43EA5DE30E94C0166E8F7F8F88A3D1
:1010E00099A36E857F85882777FD8095982F0E942C
:1010F0000C1620E030E040E253E40E9471156AA330
:101100007BA38CA39DA368817981882777FD809537
:10111000982F0E940C166EA37FA388A799A76A81B7
:101120007B81882777FD8095982F0E940C1620E000
:1011300030E040EA5CE30E94C0166AA77BA78CA758
:101140009DA768857985882777FD8095982F0E94CF
:101150000C1620E030E048E45AE30E94C0166EA767
:101160007FA788AB99ABC801B70120E030E040E031
:1011700057E40E94C0166AAB7BAB8CAB9DABC80139
:10118000B701A40193010E94C0166EAB7FAB88AF7C
:1011900099AFC801B701A60195010E94C0166AAFB8
:1011A0007BAF8CAF9DAFEE968CEE91E5A7E1B0E4FE
:1011B00089939993A993B99380E394E3AEE7BFE34E
:1011C00089939993A993B99380E097E5A4E9B6E34D
:1011D00088839983AA83BB8381E001C080E0DF918B
:1011E000CF911F910F91FF90EF90DF90CF90BF9024
:1011F000AF909F908F907F906F90089581E0809343
:1012000098036093750310929603109297030895C4
:101210002091740330E080917303281B3109C901C8
:1012200008954091730380917403481718F02FEFCD
:101230003FEF0AC0E42FF0E0ED5AFC4F8081282FE9
:1012400030E04F5F40937303C9010895E091730349
:1012500080917403E81718F0EFEFFFEF06C0F0E09D
:10126000ED5AFC4F8081E82FF0E0CF0108950895FA
:1012700010929C0310929B0388EE93E0A0E0B0E0F4
:1012800080939D0390939E03A0939F03B093A0032C
:101290008AE292E090939A03809399030895CF9203
:1012A000DF92EF92FF920F931F93CF93DF937C0116
:1012B0006B018A01809198038823A1F0C0E0D0E0FF
:1012C0000DC0D701ED91FC91D601AC0FBD1F01906F
:1012D000F081E02DC7016C9109952196C017D107C7
:1012E00080F304C0CB01642F0E94810AC801DF9102
:1012F000CF911F910F91FF90EF90DF90CF900895C5
:10130000DF93CF930F92CDB7DEB7FC016983809155
:1013100098038823C9F080919703803238F081E0E8
:1013200090E09383828320E030E015C080919603A3
:10133000E82FF0E0EA58FC4F998190838F5F80930B
:1013400096038093970305C0CE01019661E00E9449
:10135000810A21E030E0C9010F90CF91DF9108951B
:101360000F93062F8091750366E773E04091970312
:1013700021E00E942C0A109296031092970310927B
:1013800098030F91089561E00E94B00908954132D9
:1013900008F040E2862F63E573E00E94E3091092B3
:1013A000730380937403089521E00E94C709089590
:1013B0001092730310927403109296031092970385
:1013C0000E942D0C0895382F413210F040E042C0A9
:1013D0008091A5038823E1F791E09093A5032093E2
:1013E000A7038FEF809312041092CD0341504093D6
:1013F000CE034F5F9093A6038091A603330F832BF8
:101400008093A6038091A803813041F41092A80331
:101410008091A6038093BB0085EC01C085EE80938C
:10142000BC008091A5038130E1F38091CD03841746
:1014300010F44091CD0320E030E00AC0FB01E20F40
:10144000F31FD901A355BC4F8C9180832F5F3F4F71
:101450002417A0F3842F08950F931F93582F122F52
:10146000413210F081E04AC08091A5038823E1F762
:1014700082E08093A5030093A7038FEF809312046B
:101480001092CD034093CE03ADEAB3E0FB0102C05E
:1014900081918D938E2F861B8417D0F31092A60313
:1014A0008091A603550F852B8093A6038091A803F6
:1014B000813041F41092A8038091A6038093BB0071
:1014C00085EC01C085EE8093BC00112321F0809152
:1014D000A5038230E1F3809112048F3F11F480E084
:1014E0000DC080911204803211F482E007C0809117
:1014F0001204803311F084E001C083E01F910F914A
:101500000895482F613210F081E008958091A5037D
:10151000843011F082E008956093F003AFECB3E003
:10152000842F9C01F90102C081918D938E2F841B21
:101530008617D0F380E008951F920F920FB60F9296
:1015400011242F933F934F935F936F937F938F93C8
:101550009F93AF93BF93EF93FF938091B90090E077
:10156000887F90708036910509F4F2C0813691052C
:10157000CCF58832910509F47BC089329105B4F429
:101580008031910509F46FC0813191053CF40097D9
:1015900009F447C1089709F04FC165C0883191052A
:1015A00009F466C0809709F047C182C08034910574
:1015B00009F4A4C08134910544F48033910509F401
:1015C00082C0C89709F038C189C08035910509F4F7
:1015D00089C08835910509F496C08834910509F0D1
:1015E0002BC1AEC08839910509F413C18939910521
:1015F000ECF48837910509F4ABC0893791054CF4B8
:101600008836910509F4A4C08037910509F014C10A
:101610009FC08838910509F4FCC08039910509F410
:101620009DC08038910509F007C198C0803B9105A5
:1016300009F4C6C0813B91054CF4803A910509F448
:101640009FC0883A910509F0F7C0BAC0803C910567
:1016500009F4E3C0883C910509F4DFC0883B91059B
:1016600009F0EAC0C2C08091A6038093BB00CFC03E
:101670009091CD038091CE03981768F49091CD039B
:10168000E92FF0E0E355FC4F80818093BB009F5F22
:101690009093CD03BCC08091A703882309F44BC06D
:1016A00085ED8093BC008091BC0084FDFCCFC2C05E
:1016B00080E28093120485ED8093BC008091BC0091
:1016C00084FDFCCFB7C080E38093120485ED809346
:1016D000BC008091BC0084FDFCCFACC088E380934B
:1016E00012049BC08091CD039091BB00E82FF0E0E5
:1016F000E355FC4F90838F5F8093CD039091CD0392
:101700008091CE0382C08091CD039091BB00E82FE1
:10171000F0E0E355FC4F90838F5F8093CD03809181
:10172000A703882341F085ED8093BC008091BC0025
:1017300084FDFCCF7FC081E08093A80384EA6EC063
:1017400085ED8093BC008091BC0084FDFCCF72C00D
:1017500083E08093A5031092110459C08091110475
:10176000803208F056C0809111049091BB00E82FA0
:10177000F0E0EF50FC4F90838F5F8093110447C0DF
:1017800080911104803230F4E0911104F0E0EF50C8
:10179000FC4F108285ED8093BC008091BC0084FDDD
:1017A000FCCF1092A50360911104E091AB03F0917E
:1017B000AC0381EF93E070E00995109211042DC005
:1017C00084E08093A5031092EF031092F003E09160
:1017D000A903F091AA0309958091F003882329F4C5
:1017E00081E08093F0031092CF039091EF03E92FF3
:1017F000F0E0E153FC4F80818093BB009F5F9093AA
:10180000EF039091EF038091F003981710F485ECAB
:1018100001C085E88093BC000FC085EC8093BC00BC
:1018200009C01092120485ED8093BC008091BC0029
:1018300084FDFCCF1092A503FF91EF91BF91AF9172
:101840009F918F917F916F915F914F913F912F91D8
:101850000F900FBE0F901F9018951092A50381E076
:101860008093A7031092A80382E161E00E94750DA6
:1018700083E161E00E94750DE9EBF0E080818E7FED
:10188000808380818D7F808388E48093B80085E4A5
:101890008093BC0008951F920F920FB60F921124EF
:1018A0002F933F938F939F93AF93BF938091170490
:1018B00090911804A0911904B0911A0430911B045E
:1018C0000196A11DB11D232F2D5F2D3720F02D571F
:1018D0000196A11DB11D20931B04809317049093C2
:1018E0001804A0931904B0931A04809113049091E2
:1018F0001404A0911504B09116040196A11DB11D08
:101900008093130490931404A0931504B0931604C9
:10191000BF91AF919F918F913F912F910F900FBEEB
:101920000F901F901895789484B5826084BD84B51B
:10193000816084BD85B5826085BD85B5816085BDCA
:10194000EEE6F0E0808181608083E1E8F0E01082E3
:10195000808182608083808181608083E0E8F0E024
:10196000808181608083E1EBF0E08081846080830E
:10197000E0EBF0E0808181608083EAE7F0E0808145
:1019800084608083808182608083808181608083A5
:101990008081806880831092C1000895EF92FF9249
:1019A0000F931F93CF93DF937B018C013FB7F89484
:1019B0008091130490911404A0911504B091160421
:1019C00026B5A89B05C02F3F19F00196A11DB11D9A
:1019D0003FBFBA2FA92F982F8827820F911DA11DD5
:1019E000B11D52E0880F991FAA1FBB1F5A95D1F74E
:1019F000EC0130C00E94F1123FB7F89480911304BB
:101A000090911404A0911504B091160426B5A89BDA
:101A100005C02F3F19F00196A11DB11D3FBFBA2F80
:101A2000A92F982F8827820F911DA11DB11D32E08B
:101A3000880F991FAA1FBB1F3A95D1F78C1B9D0BCE
:101A4000885E9340B8F20894E108F1080109110991
:101A5000C851DC4FE114F1040105110559F6DF917D
:101A6000CF911F910F91FF90EF900895CF93DF9347
:101A7000482F50E0CA01845E9E4FFC013491485FBC
:101A80005E4FFA018491882369F190E0880F991FD5
:101A9000FC01E651FF4FA591B491FC01EC50FF4FC2
:101AA000C591D491662351F42FB7F8948C91932F5C
:101AB000909589238C93888189230BC0623061F4CF
:101AC0002FB7F8948C91932F909589238C938881CC
:101AD000832B88832FBF06C09FB7F8948C91832BEC
:101AE0008C939FBFDF91CF910895482F50E0CA019A
:101AF000805D9E4FFC012491CA01845E9E4FFC01D3
:101B00009491485F5E4FFA013491332309F440C049
:101B1000222351F1233071F0243028F42130A1F038
:101B2000223011F514C02630B1F02730C1F0243036
:101B3000D9F404C0809180008F7703C08091800029
:101B40008F7D8093800010C084B58F7702C084B5EC
:101B50008F7D84BD09C08091B0008F7703C08091D4
:101B6000B0008F7D8093B000E32FF0E0EE0FFF1FF9
:101B7000EC50FF4FA591B4912FB7F894662321F450
:101B80008C919095892302C08C91892B8C932FBFC7
:101B90000895DC015C968C915C97FD01E80FF11DC6
:101BA000E35AFF4F20815C968C915C9790E0019600
:101BB0008F7390705C968C935C975696ED91FC9128
:101BC000579720835096ED91FC91519780818064C6
:101BD00080835B969C915B975C968C915C97981741
:101BE00039F45296ED91FC91539780818F7D8083DB
:101BF0000895DF92EF92FF920F931F93CF93DF939D
:101C0000EC017A018B01D22EE889F98982E0808388
:101C1000403081EE580780E0680780E07807A1F047
:101C200060E079E08DE390E0A80197010E94AD1893
:101C30002150304040405040569547953795279564
:101C400080E12030380798F0E889F989108260E84F
:101C500074E88EE190E0A80197010E94AD18215030
:101C60003040404050405695479537952795EC8534
:101C7000FD853083EE85FF852083188EEC89FD89F4
:101C8000D082EA89FB89808180618083EA89FB892F
:101C9000808188608083EA89FB8980818068808375
:101CA000EA89FB8980818F7D8083DF91CF911F91AD
:101CB0000F91FF90EF90DF900895FC01218D828DB0
:101CC00030E0205C3F4F281B31092F733070C90171
:101CD0000895FC01918D828D981719F42FEF3FEF35
:101CE00006C0828DE80FF11D858D282F30E0C901D7
:101CF0000895DC0159969C9159975A968C915A9760
:101D0000981719F42FEF3FEF10C05A968C915A97FD
:101D1000FD01E80FF11D958D5A968C915A978F5FB2
:101D20008F735A968C93292F30E0C9010895CF9371
:101D3000DF93EC01888D882361F419C08C9185FFB5
:101D40000AC0E889F989808185FF05C0CE010E941B
:101D5000C90DAA89BB898C9185FD05C0E889F989DF
:101D6000808186FD04C00FB607FEE8CFF4CFDF9177
:101D7000CF9108950F931F93CF93DF93EC01062F1C
:101D80009B8D8C8D981791F5E889F989808185FF65
:101D90002DC0EE89FF896083E889F989808180649C
:101DA00080831DC00FB607FC08C0E889F9898081CF
:101DB00085FF03C0CE010E94C90D8C8D181791F3C9
:101DC0008B8DFE01E80FF11DE35AFF4F00831B8F3F
:101DD000EA89FB8980818062808381E0888F81E04D
:101DE00090E0DF91CF911F910F9108951B8D1F5FA0
:101DF0001F73E3CF82E89FE0892B51F080E090E0F1
:101E0000892B31F00E94820F882311F00E9400007C
:101E100008951F920F920FB60F9211242F938F9354
:101E20009F93EF93FF93E0912C04F0912D04808118
:101E300082FD16C0E0913204F0913304208190912C
:101E400035049F5F9F7380913604981771F0E0917D
:101E50003504F0E0E45EFB4F258F9093350405C018
:101E6000E0913204F0913304E081FF91EF919F9172
:101E70008F912F910F900FBE0F901F901895109279
:101E80001F0410921E0488EE93E0A0E0B0E080935F
:101E9000200490932104A0932204B09323048AE3A6
:101EA00092E090931D0480931C0485EC90E0909345
:101EB00029048093280484EC90E090932B04809371
:101EC0002A0480EC90E090932D0480932C0481EC04
:101ED00090E090932F0480932E0482EC90E09093F6
:101EE00031048093300486EC90E090933304809327
:101EF0003204109235041092360410923704109276
:101F0000380408958CE194E00E945D0E20E0892B56
:101F100009F021E0822F08951F920F920FB60F92C1
:101F200011242F933F934F935F936F937F938F93DE
:101F30009F93AF93BF93EF93FF938CE194E00E9444
:101F4000C90DFF91EF91BF91AF919F918F917F91BB
:101F50006F915F914F913F912F910F900FBE0F9016
:101F60001F901895CF93DF930E94930C0E941A0242
:101F7000CAEFDEE00E9427012097E1F30E94FA0EEB
:101F8000F9CFCF92DF92EF92FF920F931F93CF93EF
:101F9000DF937C016B018A01C0E0D0E00FC0D60165
:101FA0006D916D01D701ED91FC910190F081E02DD3
:101FB000C7010995C80FD91F01501040011511051F
:101FC00071F7CE01DF91CF911F910F91FF90EF90AC
:101FD000DF90CF900895CF93DF93FB01EC01A881B0
:101FE000B98160817181448155811296ED91FC9196
:101FF00013970995DF91CF910895EF92FF920F9378
:102000001F938C01DC01ED91FC910190F081E02D9A
:102010006DE009957C01D801ED91FC910190F08172
:10202000E02DC8016AE009959C012E0D3F1DC901F4
:102030001F910F91FF90EF900895EF92FF920F93F1
:102040001F937C010E94EB0F8C01C7010E94FD0FC2
:102050009C01200F311FC9011F910F91FF90EF903C
:102060000895CF93DF93EC016115710519F420E019
:1020700030E00FC0DB010D900020E9F71197A61B9F
:10208000B70BE881F9810280F381E02DAD0109955C
:102090009C01C901DF91CF9108954F925F927F9289
:1020A0008F929F92AF92BF92CF92DF92EF92FF9268
:1020B0000F931F93DF93CF93CDB7DEB7A1970FB6E2
:1020C000F894DEBF0FBECDBF2C01742ECB012230A1
:1020D00008F42AE019A231E2C32ED12CCC0EDD1E69
:1020E000822E9924AA24BB24672D752FA501940163
:1020F0000E94AD1879018A01C801B701A5019401B8
:102100000E948E18472D461B0894C108D1084A30FA
:1021100014F4405D01C0495CF6014083E114F10410
:102120000105110521F07E2C5F2DC801DDCFC20114
:10213000B6010E943110A1960FB6F894DEBF0FBE13
:10214000CDBFCF91DF911F910F91FF90EF90DF9066
:10215000CF90BF90AF909F908F907F905F904F9067
:102160000895DC012115310541F4ED91FC910190B8
:10217000F081E02D642F099508950E944D10089577
:10218000CF92DF92EF92FF920F931F93CF93DF9343
:10219000EC016A017B012115310541F4E881F981E7
:1021A0000190F081E02D642F09951FC02A30310580
:1021B000D1F477FF17C0E881F9810190F081E02D1B
:1021C0006DE209958C0144275527BA014C195D0928
:1021D0006E097F09CE012AE00E944D109801280F58
:1021E000391F04C02AE00E944D109C01C901DF91F3
:1021F000CF911F910F91FF90EF90DF90CF900895B6
:102200000E94311008957F928F929F92AF92BF9259
:10221000CF92DF92EF92FF920F931F93CF93DF93B2
:102220004C017A018B01722ECB01BA01A8019701F2
:102230000E946F17882321F0C40162E072E021C080
:10224000C0E0D0E057016801E894D7F8C601B501B5
:102250002FEF3FEF4FE75FE70E946F17882351F49E
:10226000C601B5012FEF3FEF4FE75FE70E946D1505
:10227000181614F0C1E0D0E0219739F0C40166E0EF
:1022800072E00E943110EC0193C0C801B7012FEF3A
:102290003FEF4FE75FE40E94BC16181654F0C801E8
:1022A000B7012FEF3FEF4FE75FEC0E946D158823DA
:1022B00024F4C4016AE072E0E4CFC801B70120E071
:1022C00030E040E050E00E946D1587FD03C0C0E0A3
:1022D000D0E00EC0D401ED91FC910190F081E02D91
:1022E000C4016DE20995EC0117FB109517F91095E3
:1022F00020E030E040E05FE3DD240BC0CA01B9011B
:1023000020E030E040E251E40E9471159B01AC01F5
:10231000D394D71498F3C801B7010E9409155B0143
:102320006C010E94DE157B018C01C401B801A7017C
:102330002AE030E00E94B110C80FD91F772039F091
:10234000C4016EE072E00E943110C80FD91FC801AD
:10235000B7010E940A169B01AC01C601B5010E949B
:10236000081524C020E030E040E251E40E94C0168D
:102370007B018C010E94D9155B016C01CC24B7FC58
:10238000C094DC2CC401B601A5012AE030E00E9413
:10239000C010C80FD91FC601B5010E940C169B01C1
:1023A000AC01C801B7010E9408157A947720D1F6D4
:1023B000CE01DF91CF911F910F91FF90EF90DF90B1
:1023C000CF90BF90AF909F908F907F9008950E9484
:1023D00003110895EF92FF920F931F937C010E94C7
:1023E00003118C01C7010E94FD0F080F191FC801BE
:1023F0001F910F91FF90EF900895EF92FF920F932E
:102400001F937C010E9431108C01C7010E94FD0FB7
:10241000080F191FC8011F910F91FF90EF900895A9
:102420000F931F93CF93DF93EC018B016F5F7F4F6F
:10243000888199810E942714009711F480E005C0DB
:10244000998388831B830A8381E0DF91CF911F9159
:102450000F910895CF93DF93EC0188819981892BA7
:1024600029F08A819B818617970760F4CE010E942C
:102470001012882341F08C819D81892B19F4E88109
:10248000F981108281E0DF91CF910895EF92FF9260
:102490000F931F93CF93DF93EC017B016C817D81C0
:1024A000E114F104C1F04115510599F08A01060FBC
:1024B000171FB8010E942A12882369F08881998128
:1024C0002C813D81820F931FB7010E94D9001D838B
:1024D0000C8381E001C080E0DF91CF911F910F91CB
:1024E000FF90EF900895DF93CF9300D0CDB7DEB784
:1024F00069831A82BE016F5F7F4F41E050E00E9406
:1025000046120F900F90CF91DF910895CF93DF93F4
:10251000EC0188819981009711F00E948F13198234
:1025200018821D821C821B821A82DF91CF9108952E
:10253000EF92FF920F931F93CF93DF93EC017B01F8
:102540008A01BA010E942A12882321F4CE010E9436
:10255000861207C01D830C8388819981B7010E9470
:10256000D900CE01DF91CF911F910F91FF90EF9095
:102570000895CF93DF93EC01198218821B821A828F
:102580001D821C826115710551F0DB010D90002048
:10259000E9F71197A61BB70BAD010E949812DF91C6
:1025A000CF9108950F931F93182F092F611571056F
:1025B00059F0DB010D900020E9F71197A61BB70B2E
:1025C000AD010E94981202C00E948612812F902FA6
:1025D0001F910F910895FC01808191810E948F13BA
:1025E000089508950F931F93CF93DF93BC0182301A
:1025F000910510F462E070E0E091BB04F091BC043E
:1026000040E050E0A0E0B0E024C0808191818617D6
:102610009707D0F08617970771F4828193811097FE
:1026200029F013969C938E9312972CC09093BC0420
:102630008093BB0427C04115510519F084179507F5
:1026400018F48D01AC01EF01DF01828193819C01BF
:10265000F9013097D1F641155105F9F0CA01861BF1
:10266000970B8430910580F48A819B8101151105B7
:1026700021F0F8019383828304C09093BC0480937B
:10268000BB04FE01329645C0FE01E80FF91F6193BD
:1026900071930297998388833CC08091B90490918B
:1026A000BA04892B41F48091120290911302909305
:1026B000BA048093B9044091140250911502411557
:1026C000510541F44DB75EB780911002909111020F
:1026D000481B590B2091B9043091BA0424173507CF
:1026E000B0F4CA01821B930B8617970780F0AB01E9
:1026F0004E5F5F4F8417950750F0420F531F509362
:10270000BA044093B904F9016193719302C0E0E007
:10271000F0E0CF01DF91CF911F910F910895CF93FA
:10272000DF939C01009709F48FC0EC0122971B8274
:102730001A826091BB047091BC046115710581F42B
:1027400088819981820F931F2091B9043091BA0436
:102750002817390739F5D093BA04C093B90474C067
:10276000DB0140E050E0AC17BD0708F1BB83AA8352
:10277000FE0121913191E20FF31FAE17BF0779F4EB
:102780008D919C911197280F391F2E5F3F4F3983F0
:10279000288312968D919C9113979B838A83411570
:1027A000510571F4D093BC04C093BB044DC0129684
:1027B0008D919C911397AD01009711F0DC01D3CF5F
:1027C000DA011396DC93CE931297FA01219131919D
:1027D000E20FF31FCE17DF0769F488819981280F74
:1027E000391F2E5F3F4FFA01318320838A819B81FD
:1027F00093838283E0E0F0E0DB0112968D919C915F
:102800001397009719F0BC01FD01F6CFAB014E5FA5
:102810005F4FDB018D919C91840F951F2091B9042E
:102820003091BA042817390779F4309729F41092B7
:10283000BC041092BB0402C013821282425050406A
:102840005093BA044093B904DF91CF9108956F92E9
:102850007F928F929F92AF92BF92CF92DF92EF9230
:10286000FF920F931F93CF93DF938C01009729F46E
:10287000CB010E94F2128C01BBC08EEFE82E8FEFCD
:10288000F82EE00EF11E4801860E971E8E149F044E
:1028900008F4ACC0D7014D915C91119746175707CA
:1028A000B8F04530510508F4A3C0CA010497861753
:1028B000970708F49DC042505040461B570BF40147
:1028C000419351936D937C93CF010E948F1390C0DD
:1028D0005B01A41AB50A3801640E751EA091BB04F1
:1028E000B091BC04E0E0F0E0CC24DD2447C0A615A4
:1028F000B705A9F5CD91DC911197CE0102968A1505
:102900009B0568F1CE018A199B09029612962C91BB
:10291000129713963C91059758F0F4012283338364
:10292000CA19DB09D183C083D7016D937C9309C099
:102930004E5F5F4F4C0F5D1FF70151834083C9010C
:10294000FC01C114D10431F0D6011396FC93EE932F
:1029500012974EC0F093BC04E093BB0449C08D9124
:102960009C911197E817F90708F4FC016D01129684
:102970008C91129713969C919C01D901109709F0A4
:10298000B6CF8091B9049091BA0486159705E9F401
:10299000E617F707D0F420911402309115022115A3
:1029A000310541F42DB73EB780911002909111028C
:1029B000281B390B82169306C8F49092BA048092B1
:1029C000B904F7017183608313C0CB010E94F21236
:1029D000EC01009759F0D7014D915C91B8010E942C
:1029E000D000C8010E948F138E0102C000E010E0E9
:1029F000C801DF91CF911F910F91FF90EF90DF9071
:102A0000CF90BF90AF909F908F907F906F900895E0
:102A10005058BB27AA270ED075C166D130F06BD1B4
:102A200020F031F49F3F11F41EF45BC10EF4E095E9
:102A3000E7FB51C1E92F77D180F3BA17620773071B
:102A40008407950718F071F49EF58FC10EF4E09598
:102A50000B2EBA2FA02D0B01B90190010C01CA0158
:102A6000A0011124FF27591B99F0593F50F4503E03
:102A700068F11A16F040A22F232F342F4427585FF5
:102A8000F3CF469537952795A795F0405395C9F70D
:102A90007EF41F16BA0B620B730B840BBAF09150C5
:102AA000A1F0FF0FBB1F661F771F881FC2F70EC064
:102AB000BA0F621F731F841F48F487957795679537
:102AC000B795F7959E3F08F0B3CF9395880F08F020
:102AD0009927EE0F979587950895D9D008F481E04E
:102AE00008950CD00FC107D140F0FED030F021F492
:102AF0005F3F19F0F0C0511139C1F3C014D198F300
:102B00009923C9F35523B1F3951B550BBB27AA276E
:102B100062177307840738F09F5F5F4F220F331FE0
:102B2000441FAA1FA9F333D00E2E3AF0E0E830D0AC
:102B300091505040E695001CCAF729D0FE2F27D0AF
:102B4000660F771F881FBB1F261737074807AB077D
:102B5000B0E809F0BB0B802DBF01FF2793585F4FF2
:102B60002AF09E3F510568F0B6C000C15F3FECF30C
:102B7000983EDCF3869577956795B795F7959F5FB7
:102B8000C9F7880F911D9695879597F90895E1E00B
:102B9000660F771F881FBB1F621773078407BA076A
:102BA00020F0621B730B840BBA0BEE1F88F7E095C5
:102BB000089504D06894B111D9C00895BCD088F0AC
:102BC0009F5790F0B92F9927B751A0F0D1F0660F19
:102BD000771F881F991F1AF0BA95C9F712C0B13034
:102BE00081F0C3D0B1E00895C0C0672F782F882747
:102BF000B85F39F0B93FCCF3869577956795B39573
:102C0000D9F73EF490958095709561957F4F8F4FE1
:102C10009F4F0895E89409C097FB3EF490958095E6
:102C2000709561957F4F8F4F9F4F9923A9F0F92F92
:102C300096E9BB279395F695879577956795B79510
:102C4000F111F8CFFAF4BB0F11F460FF1BC06F5FF6
:102C50007F4F8F4F9F4F16C0882311F096E911C008
:102C6000772321F09EE8872F762F05C0662371F029
:102C700096E8862F70E060E02AF09A95660F771F3D
:102C8000881FDAF7880F9695879597F90895990F19
:102C90000008550FAA0BE0E8FEEF16161706E80726
:102CA000F907C0F012161306E407F50798F0621B47
:102CB000730B840B950B39F40A2661F0232B242B1C
:102CC000252B21F408950A2609F4A140A6958FEF3B
:102CD000811D811D089597F99F6780E870E060E08D
:102CE00008959FEF80EC089500240A9416161706A5
:102CF00018060906089500240A94121613061406ED
:102D000005060895092E0394000C11F4882352F04F
:102D1000BB0F40F4BF2B11F460FF04C06F5F7F4F07
:102D20008F4F9F4F089557FD9058440F551F59F0EE
:102D30005F3F71F04795880F97FB991F61F09F3FA8
:102D400079F087950895121613061406551FF2CFD1
:102D50004695F1DF08C0161617061806991FF1CF21
:102D600086957105610508940895E894BB27662748
:102D70007727CB0197F908958ADF08F48FEF08953C
:102D80000BD0C0CFB1DF28F0B6DF18F0952309F0E3
:102D9000A2CFA7CF1124EACFC6DFA0F3959FD1F32E
:102DA000950F50E0551F629FF001729FBB27F00DF9
:102DB000B11D639FAA27F00DB11DAA1F649F66274E
:102DC000B00DA11D661F829F2227B00DA11D621F9D
:102DD000739FB00DA11D621F839FA00D611D221F57
:102DE000749F3327A00D611D231F849F600D211D3B
:102DF000822F762F6A2F11249F5750408AF0E1F0DE
:102E000088234AF0EE0FFF1FBB1F661F771F881F26
:102E100091505040A9F79E3F510570F05CCFA6CF6E
:102E20005F3FECF3983EDCF3869577956795B79511
:102E3000F795E7959F5FC1F7FE2B880F911D96953B
:102E4000879597F90895FA01EE0FFF1F3096210537
:102E5000310599F16115710561F48038BFE39B0775
:102E600049F168949038810561F08038BFEF9B0785
:102E700041F0992342F5FF3FE1053105210511F1AC
:102E8000E8940894E795D901AA2329F4AB2FBE2F23
:102E9000F85FD0F310C0FF5F70F4A695E0F7F73944
:102EA00050F019F0FF3A38F49F779F930CD00F90B1
:102EB00007FC905808953EF014CF60E070E080E881
:102EC0009FE308954FE79F775F934F933F932F932F
:102ED000A2D02F913F914F915F9152DF09C0D7DE71
:102EE000880B990B089519F40EF0F5CE3ECFF9CE6C
:102EF00022DFC8F39638C0F707F80F92E8942BE367
:102F00003AEA48EB5FE74ADF0F920F920F924DB714
:102F10005EB70F92C0D0E8E6F0E016D04F915F9117
:102F2000EF91FF91E595EE1FFF1F49F0FE57E06816
:102F30004427EE0F441FFA95E1F74195550B32D027
:102F40000F9007FE26C00895DF93CF931F930F9332
:102F5000FF92EF92DF927B018C01689405C0DA2E1C
:102F6000EF011ADFFE01E894A59125913591459175
:102F70005591AEF3EF015EDDFE019701A801DA94F1
:102F800079F7DF90EF90FF900F911F91CF91DF9134
:102F900008959B01AC0160E070E080E89FE3A1CD63
:102FA0009ACEACC0C8DEE8F39923D9F3940F511D33
:102FB000BBF39150504094F059F0882332F0660FE3
:102FC000771F881F91505040C1F79E3F510544F72D
:102FD000880F911D9695879597F908955F3FACF0FE
:102FE000983E9CF0BB27869577956795B79508F432
:102FF000B1609395C1F7BB0F58F711F460FFE8CFAC
:103000006F5F7F4F8F4F9F4FE3CFB0CE0EF076C0F4
:1030100068CE689460CE8FDEC8F39923D1F3C6F3EF
:10302000DF93CF931F930F93FF92C92FDD27882340
:103030002AF02197660F771F881FDAF720E030E02B
:1030400040E85FEB9FE3883920F0803E30F0219626
:103050008F77DFDCE0E9F0E003C0DBDCEDEBF0E0F4
:1030600073DF8B01BE01EC01FB2E6F577109759563
:10307000771F880B990BD0DD28E132E741E35FE34E
:103080008BDEAF2D9801AE01FF900F911F91CF9174
:10309000DF91D0DC37CEFA01DC01AA0FBB1F9B0108
:1030A000AC01BF5728F422273327442750781FC08C
:1030B000B75188F4AB2F0024469537952795011C0E
:1030C000A395D2F3002069F0220F331F441FB3955C
:1030D000DAF30DD09DCC61307105A0E88A07B946BE
:1030E00030F49B01AC0166277727882790783096CB
:1030F00021F0208331834283538308959F3F49F019
:10310000915028F4869577956795B7959F5F80389D
:103110009F4F880F9695879597F90895629FD001E4
:10312000739FF001829FE00DF11D649FE00DF11D82
:10313000929FF00D839FF00D749FF00D659FF00D31
:103140009927729FB00DE11DF91F639FB00DE11D1E
:10315000F91FBD01CF0111240895A1E21A2EAA1B67
:10316000BB1BFD010DC0AA1FBB1FEE1FFF1FA21737
:10317000B307E407F50720F0A21BB30BE40BF50B34
:10318000661F771F881F991F1A9469F760957095BD
:10319000809590959B01AC01BD01CF010895EE0F84
:1031A000FF1F0590F491E02D099411E0CAE4D1E0ED
:1031B00004C0FE010E94D1182296CC34D107C9F771
:0431C000F894FFCFB1
:1031C4000032313A32333A3435002C0074696D657B
:1031D400636F64652C74656D702C6162732070720A
:1031E40065732C72656C2873656129707265732C24
:1031F400616C743A20006572726F72207265747229
:10320400696576696E67207072657373757265207F
:103214006D6561737572656D656E740A00657272B1
:103224006F72207374617274696E67207072657353
:1032340073757265206D6561737572656D656E7405
:103244000A006572726F72207265747269657669BC
:103254006E672074656D7065726174757265206D3A
:103264006561737572656D656E740A006572726F5F
:1032740072207374617274696E672074656D706511
:10328400726174757265206D6561737572656D65C3
:103294006E740A005245424F4F5400424D5031382B
:1032A4003020696E697420737563636573730042BB
:1032B4004D5031383020696E6974206661696C0A3A
:1032C4000A006E616E00696E66006F7666002E00FD
:1032D4008000BD040000000000009E02C10F4B04EA
:1032E40021043A0449020000000080094F0908093A
:1032F40011092609370900000000BA0EC10F5D0E3E
:06330400790E690E970E20
:00000001FF
