:100000000C94EE060C94F52C0C94262D0C94572D84
:100010000C94882D0C94B92D0C94EA2D0C941B2E65
:100020000C944C2E0C941F070C941F070C941F0764
:100030000C941F070C941F070C941F070C941F07A8
:100040000C941F070C941F070C941F070C941F0798
:100050000C941F070C941F070C941F070C947D2E03
:100060000C941F070C94B7310C94ED310C941F07BE
:100070000C941F070C941F070C941F070C941F0768
:100080000C941F070C941F070C941F070C941F0758
:100090000C9464320C949A320C941F070C94532BDA
:1000A0000C941F070C941F070C941F070C941F0738
:1000B0000C941F070C941F070C941F070C941F0728
:1000C0000C941F070C941F070C941F070C941133FA
:1000D0000C9447330C941F070C941F070C941F07B4
:1000E0000C941F07CF2C992CA12CAD2CBA2CDB2CF7
:1000F000E82C992F9C2F8B2F8F2F952FD32FA02F4C
:10010000A42FAA2FAE2FB22FB82FBC2FC02FD32FC2
:10011000C62FCA2FCE2F07634236B79BD8A71A39EE
:10012000685618AEBAAB558C1D3CB7CC5763BD6D45
:10013000EDFD753EF6177231BF000000803F0800EC
:100140000000BE922449123EABAAAA2ABECDCCCC56
:100150004C3E00000080BEABAAAAAA3E00000000F0
:10016000BF000000803F0000000000084178D3BBC2
:100170004387D1133D190E3CC3BD4282AD2B3E686F
:10018000EC8276BED98FE1A93E4C80EFFFBE01C460
:10019000FF7F3F00000000000C94AE2F0C946B1406
:1001A0000C94C5290C948F2F0C94CE300C942107FD
:1001B0000C94BA2C0C94712A0C94992C0C944C1419
:1001C0000C9471330C941B140C94C02F0C9421329A
:1001D0000C94C6290C9443300C94C62F0C949B2984
:1001E0000C94992F0C9417320C9470300C94F909DC
:1001F0000C94390D0C94AD2C0C9497200C94D314C2
:100200000C9402150C94AA2F0C94A42F0C94E82C97
:100210000C94952F0C94CA2F0C94A3290C94C432DF
:100220000C945C300C94B22F0C94860A0C947514C8
:100230000C94CE320C947B330C94CF2C0C944E3017
:100240000C9431160C94D32F0C9477190C94311410
:100250000C94A02F0C94F0300C94CE330C949C2F63
:100260000C94B82F0C94CE2F0C94A12C0C94F32941
:100270000C948B2F0C94B6290C94DB2C0C94BC2F73
:100280002900444D5020496E697469616C697A6136
:1002900074696F6E206661696C65642028636F64A1
:1002A0006520002900444D5020496E697469616CD5
:1002B000697A6174696F6E206661696C6564202873
:1002C000636F64652000444D50207265616479213C
:1002D0002057616974696E6720666F722066697263
:1002E000737420696E746572727570742E2E2E0090
:1002F000444D5020726561647921205761697469A9
:100300006E6720666F7220666972737420696E74FE
:100310006572727570742E2E2E00456E61626C6966
:100320006E6720696E74657272757074206465748E
:10033000656374696F6E202841726475696E6F2001
:1003400065787465726E616C20696E746572727521
:1003500070742030292E2E2E00456E61626C696EFD
:100360006720696E74657272757074206465746557
:100370006374696F6E202841726475696E6F2065C1
:10038000787465726E616C20696E746572727570D6
:10039000742030292E2E2E00456E61626C696E67C6
:1003A00020444D502E2E2E00456E61626C696E67A2
:1003B00020444D502E2E2E00496E697469616C697F
:1003C0007A696E6720444D502E2E2E004D505536C2
:1003D00030353020636F6E6E656374696F6E2066B2
:1003E00061696C6564004D50553630353020636F5F
:1003F0006E6E656374696F6E207375636365737386
:1004000066756C0054657374696E672064657669FF
:10041000636520636F6E6E656374696F6E732E2EF5
:100420002E00496E697469616C697A696E6720494A
:10043000324320646576696365732E2E2E0001B207
:1004400002FFFF0190040923A135016A02060001A1
:100450006008000000000000000000600440000090
:1004600000016202000000600400400000037B0302
:100470004CCD6C03AB0336567600680402CB47A222
:1004800002180400058BC1010C0400000000037F6A
:10049000060CC92C979797038903264666006C02C1
:1004A000200002400400000000024404000000009C
:1004B00002480400000000024C040000000002504A
:1004C0000400000000025404000000000258040070
:1004D000000000025C040000000002BC04000000F8
:1004E0000001EC0400004000037F060CC92C979724
:1004F000970402030D355D040904872D353D00A3E3
:10050000010000000001078601FE074105F12028D7
:100510003038077E01300746019A074704F128303A
:1005200038076C04F12830380216020001FB000085
:100530003E000B00360001000200030000006500D1
:1005400054FFEF0000FA80000B128200010002004D
:100550000000000000000000000000000000280073
:1005600000FFFF4581FFFFFA72000000000000035A
:10057000E80000000100017FFFFFFE8001001B007A
:1005800000000000000000000000000000003E032A
:10059000304000000002CAE3093E80000020000055
:1005A0000000000000400000006000000041FF006B
:1005B0000000000B2A0000165500002182FD87264E
:1005C00050FD800000001F000000058000000000BA
:1005D00000000100000002000000030000400000D5
:1005E000000000046F0002653200005EC0400000A1
:1005F00000000000000000000000000000FB8C6F05
:100600005DFD5D08D9007C733B006C12CC32001399
:100610009D3200D0D632000800400001F4FFE68091
:1006200079020000000000D0D600002710FB000077
:10063000004000000000000000000000000000007A
:10064000010000000000000100010000000000FAAD
:1006500036FFBC308E0005FBF0FFD95BC8FFD09A97
:10066000BE000010A9FFF41EB200CEBBF7000000D0
:100670000100000004000200020200000CFFC28022
:10068000000001800000CF8000400000000000005A
:10069000010000000000000600000000140000003F
:1006A000000000000000000000000000000000004A
:1006B000000000000000000000000000000000003A
:1006C000000000000000000000000000000000002A
:1006D00000033F68B6793528BCC67ED16C80000027
:1006E00000400000000000B26A00000000000000AE
:1006F000000000000000003FF0000000300000009B
:1007000000000000000000000000000000000000E9
:1007100000000000000000000000000000000025B4
:100720004D002F706D000005AE000C02D0000000DF
:100730000000650054FFEF00000000000000000111
:10074000000044000000000C000000010000000058
:10075000000065000000540000FFEF0000000000F2
:100760000000000000000000000000000040000049
:100770000000000000000000000000000040000039
:100780000000000000000000000000000000000069
:100790000100000002000000000000000000000056
:1007A0000000000000000000000000000000000049
:1007B00000000000000000000000000000001B001E
:1007C0000000000000000000000000000000000029
:1007D0000000000000000000000000000000000019
:1007E00000000000000000000040000000001B00AE
:1007F00000000000000000000000000000000000F9
:1008000000000000000000000000000000000000E8
:1008100000000000000000000000000000000000D8
:1008200000000000000000000000000000D8DCBA5A
:10083000A2F1DEB2B8B4A88191F74A907F916AF331
:10084000F9DBA8F9B0BAA080F2CE81F3C2F1C1F20F
:10085000C3F3CCA2B280F1C6D880BAA7DFDFDFF243
:10086000A7C3CBC5B6F087A2942448703C954068D6
:1008700034589B78A2F183922D557DD8B1B4B8A19C
:10088000D09180F270F370F27C80A8F101B098876B
:10089000D943D886C988BAA1F20EB89780F1A9DFEA
:1008A000DFDFAADFDFDFF2AAC5CDC7A90CC92C970D
:1008B000979797F1A989264666B0B4BA80ACDEF264
:1008C000CAF1B28C02A9B69800890E161EB8A9B456
:1008D000992C547CB08AA896365676F1B9AFB4B04C
:1008E00083C0B8A89711B18F98B9AFF0240844100D
:1008F0006418F1A329557DAF83B593AFF00028505C
:10090000F1A3869F61A6DADEDFD9FAA38696DB31F2
:10091000A6D9F8DFBAA68FC2C5C7B28CC1B8A2DF0C
:10092000DFDFA3DFDFDFD8D8F1B8A8B286B4980D37
:10093000355DB8AA98B0872D353DB2B6BAAF8C9662
:10094000198F9FA70E161EB49AB8AA872C547CB98B
:10095000A3DEDFDFA3B180F2C4CDC9F1B8A9B49999
:10096000830D355D89B9A32D557DB593A30E161E54
:10097000A92C547CB8B4B0F19783A81184A5099828
:10098000A383F0DA240844106418D8F1A529557D12
:10099000A58595021A2E3A565A4048F9F3A3D9F87C
:1009A000F098832408441064189782A8F111F098F5
:1009B000A2240844106418DAF3DED883A59401D980
:1009C000A302F1A2C3C5C7D8F18492A24DDA2AD8F6
:1009D0004869D92AD86855DA32D85071D932D870D6
:1009E0005DDA3AD85879D93AD87893A34DDA2AD82B
:1009F0004869D92AD86855DA32D85071D932D870B6
:100A00005DDA3AD85879D93AD878A88A9AF0285035
:100A1000789EF38818F19F1D98A8D908D8C89F120E
:100A20009EF315A8DA1210D8F1AFC8978734B5B97C
:100A300094A421F3D922D8F22DF3D92AD8F235F390
:100A4000D932D881A4606061D961D86C6869D969EC
:100A5000D8747071D971D8B1A384193D5DA3831A7C
:100A60003E5E931030811011B8B0AF8F94F2DA3E31
:100A7000D8B49AA88729DAF8D8879A35DAF8D887C7
:100A80009A3DDAF8D8B1B9A49885022E56A581000E
:100A90000C14A397B08AF12DD928D84DD948D86D18
:100AA000D968D8B1840DDA0ED8A32983DA2C0ED8F0
:100AB000A3844983DA2C4C0ED8B8B0A88A9AF520C2
:100AC000AADADFD8A840AAD0DADED8A860AADAD09D
:100AD000DFD8F19786A8319B069907AB9728889BAA
:100AE000F00C201440B8B0B4A88C9CF004285179C4
:100AF0001D301438B282ABD0982C505078789BF1CE
:100B00001AB0F08A9CA82951798B2951798A2470CE
:100B1000598B2058718A4469388B3940688A6448F7
:100B2000318B304960A588200971584468113964B7
:100B3000493019F1AC002C547CF08CA80428507872
:100B4000F1889726A85998AC8C02264666F0899CB5
:100B5000A8295179247059446938644831A9880911
:100B6000205970AB11384069A8193148608CA83CF5
:100B7000415C207C00F187981986A86E767EA99941
:100B8000882D557D9EB9A38A228A6E8A568A5E9FD9
:100B9000B183062646660E2E4E6E9DB8AD002C54CF
:100BA0007CF2B18CB499B9A32D557D8191AC38AD4F
:100BB0003AB58391AC2DD928D84DD948D86DD9688C
:100BC000D88C9DAE29D904AED851D904AED879D9E4
:100BD00004D881F39DAD008DAE1981ADD901D8F255
:100BE000AEDA26D88E912983A7D9ADADADADF32A63
:100BF000D8D8F1B0AC89913E5E76F3AC2E2EF1B12F
:100C00008C5A9CAC2C2828289CAC3018A898812899
:100C1000343C9724A728343C9C24F2B089AC912C16
:100C20004C6C8A9B2DD9D8D851D9D8D879D9D8D855
:100C3000F19E88A331DAD8D8912DD928D84DD9483A
:100C4000D86DD968D8B18393353D8025DAD8D88559
:100C500069DAD8D8B49381A328343CF3AB8BF8A3DA
:100C600091B609B4D9ABDEFAB0879CB9A3DDF1A384
:100C7000A3A3A395F1A3A3A39DF1A3A3A3A3F2A36D
:100C8000B49080F2A3A3A3A3A3A3A3A3A3A3B2A3FB
:100C9000A3A3A3A3A3B087B599F1A3A3A398F1A39A
:100CA000A3A3A397A3A3A3A3F39BA3A3DCB9A7F137
:100CB000262626D8D8FF7C3C3E5E2B3D3F2F5B5D31
:100CC0003B2C2A225C0000000A0B02090C0D0E08C6
:100CD0000703040100000000000000000000000005
:100CE0000000000000000000000000000000000004
:100CF00000001211100000000000000000000000C1
:100D000000000000000000000000000001021020B0
:100D10002008081020401020408002010201080431
:100D200002010102040810204080804020100804C5
:100D3000020180040201804020100804020108041E
:100D40000201010204081020408001020408102062
:100D5000408005050505070508080808020202028B
:100D60000A0A080804040404010101010101010147
:100D70000303030303030303040707070C0C0C0C12
:100D80000C0C0C0C020202020606060606060606FB
:100D90000B0B0B0B0B0B0B0B00002200250028008C
:100DA0002B002E0031003400020100000501080173
:100DB0000B0100002100240027002A002D00300034
:100DC000330001010000040107010A01F90931168D
:100DD0007719712A2132CE327B33860A11241FBE45
:100DE000CFEFD1E2DEBFCDBF00E00CBF16E0A0E048
:100DF000B2E0E4EEFCE700E00BBF02C007900D920A
:100E0000A435B107D9F72CE0A4E5B6E001C01D92E6
:100E1000AE34B207E1F71DE0CAEDDDE000E006C048
:100E200022970109FE010BBF0E94C83BCC3CD107B1
:100E300080E00807A9F70E94BF330C94603E0C9431
:100E4000000081E080935A0608958F929F92AF929E
:100E5000BF92CF92EF920F931F93CF93DF93CDB7B3
:100E6000DEB7C059D1090FB6F894DEBF0FBECDBFB3
:100E70005C010E94A2106EE170E080E090E00E94B0
:100E8000F62E60E0C5010E94A91021E041E060E17A
:100E9000C5010E94D71166E0C5010E94E211C5019B
:100EA0000E94E81120E040E060E0C5010E94D711F7
:100EB000C5010E941E11C5010E943C11182FC501D9
:100EC0000E946311882EC5010E948A11982E4FE757
:100ED00060E0C5010E945B1060E0C5010E948D10BA
:100EE00048E660E0C5010E945B10C5010E949B10AE
:100EF00064E170E080E090E00E94F62EEE24E3943E
:100F000000E020E049E857E06DE275E0C5010E948D
:100F10004513882309F40EC240EC50E06DE674E0FE
:100F2000C5010E940C14882309F406C263E0C501C0
:100F30000E94B01062E1C5010E946E1064E0C5011C
:100F40000E94111061E0C5010E94171063E0C50105
:100F50000E94221063E0C5010E942D1063E0C501CC
:100F60000E940F1460E0C5010E94151460E0C501E5
:100F70000E943511612FC5010E945811682DC501CD
:100F80000E947F11692DC5010E94A611812C912C10
:100F9000F401E25CFB4FE491A1E8B0E0AC0FBD1FAF
:100FA000A80DB11DEC9381E0880D9FEF891A990A75
:100FB000E3E0E81568F7CD57DF4F4881C358D040CC
:100FC00050E09A012E5F3F4F90E02817390704F751
:100FD000C12CEE24E394CE57DF4F0881C258D04095
:100FE000CF57DF4F2881C158D04061E870E06C0FC7
:100FF0007D1F6D5F7F4FC5010E94641260E0F401A8
:10100000E25CFB4FE491A1E8B0E0AC0FBD1FA60F7E
:10101000B11DEC936F5FFFEF8F1A9F0A643078F376
:10102000CD57DF4F4881C358D04050E09A012E5F22
:101030003F4F862F90E0281739070CF7C12CEE247C
:10104000E394CE57DF4F0881C258D040CF57DF4FCF
:101050002881C158D04061E870E06C0F7D1F6D5F42
:101060007F4FC5010E946412C5010E949410C50102
:101070000E94CF10482FBE016F5F7F4FC5010E94B5
:10108000EB1062E0C5010E9443106CE9C5010E94AB
:101090004F1060E5C5010E94491060E0C5010E9443
:1010A0005510C5010E94941061E0C5010E94861090
:1010B00061E0C5010E94C911C5010E94D01160E024
:1010C000F401E25CFB4FE491A1E8B0E0AC0FBD1F7E
:1010D000A60FB11DEC936F5F8FEF881A980A6430EA
:1010E00078F3CD57DF4F4881C358D04050E09A0184
:1010F0002E5F3F4F862F90E0281739070CF7C12C41
:10110000EE24E394CE57DF4F0881C258D040CF572A
:10111000DF4F2881C158D04061E870E06C0F7D1F1F
:101120006D5F7F4FC5010E94641260E0F401E25CD4
:10113000FB4FE491A1E8B0E0AC0FBD1FA60FB11DBD
:10114000EC936F5F9FEF891A990A643078F3CD575B
:10115000DF4F4881C358D04050E09A012E5F3F4F87
:10116000862F90E0281739070CF7C12CEE24E39462
:10117000CE57DF4F0881C258D040CF57DF4F28816C
:10118000C158D04061E870E06C0F7D1F6D5F7F4FEC
:10119000C5010E94641260E0F401E25CFB4FE4913F
:1011A000A1E8B0E0AC0FBD1FA60FB11DEC936F5FBF
:1011B000EFEF8E1A9E0A643078F3CD57DF4F4881E7
:1011C000C358D04050E09A012E5F3F4F862F90E0E9
:1011D000281739070CF7C12CEE24E394CE57DF4FC4
:1011E0000881C258D040CF57DF4F2881C158D04026
:1011F00061E870E06C0F7D1F6D5F7F4FC5010E943D
:101200006412C5010E94CF1083309105D0F3482F9E
:10121000BE016F5F7F4FC5010E94EB10C5010E94A8
:10122000741060E0F401E25CFB4FE491A1E8B0E0EF
:10123000AC0FBD1FA60FB11DEC936F5FFFEF8F1AB0
:101240009F0A643078F3CD57DF4F4881C358D040B0
:1012500050E09A012E5F3F4F862F90E02817390704
:101260000CF7CE57DF4F0881C258D040CF57DF4F21
:101270002881C158D04061E870E06C0F7D1F6D5F20
:101280007F4FC5010E94FA11C5010E94CF10833023
:101290009105D0F3482FBE016F5F7F4FC5010E94BB
:1012A000EB10C5010E947410F401E25CFB4F60E09A
:1012B0008491A1E8B0E0AC0FBD1FA60FB11D8C93C7
:1012C0006F5F643010F43196F3CFCD57DF4F488114
:1012D000C358D04050E09A012E5F3F4F862F90E0D8
:1012E0002817390784F761E870E06C0F7D1F6D5F88
:1012F0007F4FC12CEE24E394CE57DF4F0881C258B4
:10130000D040CF57DF4F2881C158D040C5010E943F
:10131000641260E0C5010E94C9118AE290E0F50103
:1013200093838283C5010E949410C5010E947410AA
:1013300080E003C081E001C082E0C057DF4F0FB6FC
:10134000F894DEBF0FBECDBFDF91CF911F910F91FB
:10135000EF90CF90BF90AF909F908F900895089599
:10136000CF93DF93CDB7DEB728970FB6F894DEBFE3
:101370000FBECDBF86EF96E00E942229882351F14F
:10138000BE016B5F7F4F86EF96E00E947527882332
:10139000F1F063E086EF96E00E9439298823A1F0FE
:1013A000AE014B5F5F4FBE016F5F7F4F86EF96E0F0
:1013B0000E94E727882329F069817A818B819C81AB
:1013C0000FC069E772E008C060EA72E005C065EC32
:1013D00072E002C06FEE72E083E79AE00E94803410
:1013E00028960FB6F894DEBF0FBECDBFDF91CF9128
:1013F000089586EF96E00E94532587ED96E00E94BF
:10140000A0146EE672E081ED96E00E94A4366EE6CE
:1014100072E08BEC96E00E94A4366EE672E085ECFA
:1014200096E00E94A4368AEA96E00E94A01468E63C
:1014300086E996E00E940E108EE896E00E94870DE5
:1014400080E090E0A0E8BFE38093790690937A066D
:10145000A0937B06B0937C0610927D0610927E06C8
:1014600010927F06109280061092810610928206DA
:1014700010928306109284061092850610928606BA
:1014800010928706109288061092740610927306C6
:1014900010927606109275061092780610927706D2
:1014A00010926E0610926D061092700610926F06E2
:1014B00010927206109271061092680610926706DA
:1014C00010926A061092690610926C0610926B06D2
:1014D00010925B0610925C0610925D0610925E06FA
:1014E00010925F06109260061092610610926206DA
:1014F00010926306109264061092650610926606BA
:101500006EE672E084E596E00C94A43684E596E0FD
:101510000E94363685EC96E00E9436368BEC96E0DB
:101520000E94363681ED96E00C943636CF92DF92EB
:10153000EF92FF920F931F93CF93DF9300D000D0D1
:10154000CDB7DEB726E040E051EE60E070E080E12C
:101550009BE00E94553126E040E056E960E070E0F3
:101560008DEA9BE00E94553168E274E080E19BE0E7
:101570000E9480346AE974E080E19BE00E943F347D
:1015800069EA74E080E19BE00E94803426E040E05C
:1015900052EC61E070E083E79AE00E94553168E226
:1015A00074E083E79AE00E9480346AE974E083E79C
:1015B0009AE00E943F3469EA74E083E79AE00E946F
:1015C000803462EC74E083E79AE00E9480346FEF2D
:1015D00070E081ED96E00E94673686EF96E00E940B
:1015E0000B26882309F452C063ED74E083E79AE088
:1015F0000E9480340E94B0096093F2067093F30653
:101600008093F4069093F50667EE74E083E79AE022
:101610000E943F344091F2065091F3066091F40627
:101620007091F50622E030E083E79AE00E943436BC
:101630006BEF74E083E79AE00E9480340E94B00967
:10164000AB01BC010091F2061091F3062091F40663
:101650003091F50686EF96E00E9454256B017C01DF
:101660006FEF74E083E79AE00E943F3420E030E0BF
:10167000A901C701B6010E94EA3987FD0EC06FE2D9
:1016800072E083E79AE00E943F3407C063E175E0AF
:1016900083E79AE00E948034FFCF21E030E0B70179
:1016A000A60183E79AE00E94343666E375E083E79B
:1016B0009AE00E943F3420E030E0A901C701B60162
:1016C0000E94EA3987FD06C06FE272E083E79AE084
:1016D0000E943F3428E439EF41E550E4C701B601E8
:1016E0000E94F539AB01BC0120E030E083E79AE0CD
:1016F0000E94343660E475E083E79AE00E9480340B
:1017000066E475E083E79AE00E943F3466E475E0A2
:1017100080E19BE00E943F3461E08AE00E94D42F88
:1017200064E081E497E00E94F715811109C06EE53D
:1017300075E083E79AE00E9480346EE575E002C1AF
:1017400065E775E083E79AE00E94803465E775E01D
:1017500080E19BE00E9480348AE999E00E94322A6D
:1017600088E18093B80086E996E00E94BB1060E0B3
:1017700086E996E00E948D1061E086E996E00E947D
:1017800067108EE896E00E94C60D6AE875E080E179
:101790009BE00E9480348EE896E00E948B0D8823A7
:1017A00019F06EEE73E002C06DE074E080E19BE042
:1017B0000E94803461E08DE00E94D42F62E274E0E8
:1017C00080E19BE00E945C3464E074E080E19BE097
:1017D0000E945C3486E996E00E941611882319F075
:1017E00066EE73E002C06CEC73E080E19BE00E9467
:1017F0005C3483E79AE00E944330892B31F083E721
:101800009AE00E945C30892BA1F783E79AE00E945E
:101810004330892B31F083E79AE00E945C30892BBA
:10182000A1F768EB73E083E79AE00E945C3486E9F5
:1018300096E00E94250780938B066CED70E086E9A8
:1018400096E00E94B7116CE470E086E996E00E9491
:10185000BD116BEA7FEF86E996E00E94C3116CEF41
:1018600076E086E996E00E94B11180918B068111A5
:101870007CC068EA73E083E79AE00E945C3468E920
:1018800073E080E19BE00E945C3461E086E996E0D1
:101890000E94C91169E573E083E79AE00E945C3415
:1018A0006AE173E080E19BE00E945C3443E050E039
:1018B00061E277E080E00E94842C86E996E00E9455
:1018C000741080938C0660EF72E083E79AE00E94C8
:1018D0005C3466EC72E080E19BE00E945C3481E065
:1018E00080938D06809198069091990690938A0630
:1018F0008093890661E08DE00E94D42F01E010E022
:1019000066E072E081E497E00E942616811156C0DD
:101910006BEC76E085EC96E00E94BA366EEB75E0F3
:1019200083E79AE00E943F3466E072E083E79AE042
:101930000E9480346EEB75E080E19BE00E943F34B2
:1019400066E072E080E19BE00E94803426960FB64C
:10195000F894DEBF0FBECDBFDF91CF911F910F91E5
:10196000FF90EF90DF90CF90089565EA72E083E7F3
:101970009AE00E940C344AE050E060918B0683E7C5
:101980009AE00E94423563EA72E083E79AE00E949F
:101990005C3462E872E080E19BE00E940C344AE033
:1019A00050E060918B0680E19BE00E94423560E848
:1019B00072E080E19BE00E945C349CCF78018FEF65
:1019C000E81AF80A4AE0B801CE0101960E94E93609
:1019D000BE016F5F7F4F8BEC96E00E94BA36CE015E
:1019E00001960E9436368091CF069091D0068130C4
:1019F000910519F461EB75E004C00297A9F462EB5C
:101A000075E0CE0101960E94A4366BEC76E0CE0123
:101A100001960E945537BC018BEC96E00E94BA36C5
:101A2000CE0101960E94363664EB75E0CE01019638
:101A30000E94A4366BEC76E0CE0101960E945537E9
:101A400069EB75E00E946837BC018BEC96E00E9460
:101A5000BA36CE0101960E94363620E030E04CE0E6
:101A600050E066E072E08BEC96E00E94A1378701BF
:101A700047CF0F931F93CF93DF9300D000D0CDB704
:101A8000DEB711E08DEA9BE00E944330892BA1F183
:101A90008DEA9BE00E945C308D3031F51093A906F1
:101AA00026E030E040E050E061ED76E0CE010196C6
:101AB0000E94CB3768EC75E0CE0101960E94823718
:101AC000082FCE0101960E943636002331F061EDD9
:101AD00076E080E19BE00E946E346EE672E081ED7C
:101AE00096E00E94D136CECF8A3061F2682F81ED28
:101AF00096E00E944137C6CF26960FB6F894DEBF17
:101B00000FBECDBFDF91CF911F910F9108952EE1B0
:101B1000FC01208308950F931F93CF93DF93EC0173
:101B200000911202109113029C012F5F3F4F43E07E
:101B30006AE088810E94790E833051F4898188346B
:101B400039F48A81843321F481E09B81933309F055
:101B500080E0DF91CF911F910F910895462F42951C
:101B6000440F407E61E0FC0180810C94120E1F93B3
:101B7000CF93DF93EC01162F462F62E088810E94FD
:101B8000120E1F83DF91CF911F910895CF93DF93A2
:101B9000EC0140E760E088810E94120E61E0CE0116
:101BA0000E94AE0D61E0CE01DF91CF910C94B70D94
:101BB000EF92FF920F931F93CF93DF931F921F9289
:101BC000CDB7DEB7062F142F682F8AE999E0298355
:101BD0003A830E944F2A602F8AE999E00E94F329F4
:101BE0002981022FE22E3A81F32E8E2D801B811740
:101BF00040F4F70161917F018AE999E00E94F3299D
:101C0000F4CF8AE999E00E946E2A91E0811190E078
:101C1000892F0F900F90DF91CF911F910F91FF901F
:101C2000EF900895CF93DF931F92CDB7DEB749832E
:101C30009E012F5F3F4F41E00E94D80D0F90DF9132
:101C4000CF910895EF92FF920F931F93CF93DF935D
:101C5000D62FC42F8901682F8AE999E00E944F2A64
:101C60006D2F8AE999E00E94F329D0E0CC0FDD1FA7
:101C7000F12CEF2DF0E0EC17FD07CCF4EE24E3940B
:101C8000EF0CEE0FFF1FE00FF11F61818AE999E071
:101C90000E94F329F801EE0DF11DEE0DF11D60819A
:101CA0008AE999E00E94F329F394F394E2CF8AE958
:101CB00099E00E946E2A91E0811190E0892FDF91D6
:101CC000CF911F910F91FF90EF900895CF93DF93E5
:101CD0001F921F92CDB7DEB75A8349839E012F5FB3
:101CE0003F4F41E00E94220E0F900F90DF91CF9165
:101CF00008953F924F925F926F927F928F929F9240
:101D0000AF92BF92CF92DF92EF92FF920F931F9309
:101D1000CF93DF9300D000D0CDB7DEB7682E562E1C
:101D2000742E3A8329830E94C72E6B017C01312CCB
:101D3000412C872D90E09C838B834801A12CB12CF2
:101D40003714B0F5662D8AE999E00E944F2A652D77
:101D50008AE999E00E94F3298AE999E00E946E2AB3
:101D6000662D8AE999E00E944F2A4B815C814319D4
:101D700051094132510514F040E250E0662D8AE9E4
:101D800099E00E94492A8AE999E00E949B29892BBF
:101D900059F10115110599F10E94C72E6C197D09A1
:101DA0008E099F09681579058A059B0540F11CC0BD
:101DB00001151105A9F10E94C72E6C197D098E0924
:101DC0009F0920E030E0601771078207930740F118
:101DD000872D90E0242D332727FD309528173907CC
:101DE000FCF444244A941CC08AE999E00E946E2ABB
:101DF000872D90E2971508F480E2380EA1CFE98193
:101E0000FA81E40DF11D47FCFA95FE83ED838AE922
:101E100099E00E94A329ED81FE8180834394B3CF92
:101E2000842D26960FB6F894DEBF0FBECDBFDF918E
:101E3000CF911F910F91FF90EF90DF90CF90BF90C7
:101E4000AF909F908F907F906F905F904F903F905A
:101E500008950F931F9389019A0141E00E94790E22
:101E60001F910F910895DF92EF92FF920F931F93AE
:101E7000CF93DF931F92CDB7DEB7D42E79019801AF
:101E8000AE014F5F5F4F0E94290F61E070E001C01B
:101E9000660FDA94EAF799819623F70190830F9001
:101EA000DF91CF911F910F91FF90EF90DF900895F8
:101EB000CF92DF92EF92FF920F931F93CF93DF9316
:101EC0001F92CDB7DEB7C42ED22E9701AE014F5F61
:101ED0005F4F0E94290F8823F1F04C2D50E04D19DF
:101EE00051094F5F5F4F61E070E002C0660F771FDE
:101EF000DA94E2F761507109042E01C0660F0A946A
:101F0000EAF72981262330E002C0359527954A95C6
:101F1000E2F7F80120830F90DF91CF911F910F918D
:101F2000FF90EF90DF90CF900895EF92FF920F9384
:101F30001F93CF93DF931F92CDB7DEB7182F062FD5
:101F4000F42EE22E2091120230911302AE014F5F67
:101F50005F4F0E94290F898121E030E00F2C01C0E2
:101F6000220F0A94EAF7EE2019F0482F422B03C003
:101F7000422F409548234983602F812F0E94120EE3
:101F80000F90DF91CF911F910F91FF90EF900895E7
:101F9000DF92EF92FF920F931F93CF93DF931F92E5
:101FA000CDB7DEB7F82EE62ED42E122F20911202D6
:101FB00030911302AE014F5F5F4F0E94290F8823BB
:101FC00019F14D2D50E0411B51094F5F5F4FE1E08A
:101FD000F0E002C0EE0FFF1F1A95E2F73197042ED2
:101FE00001C0EE0F0A94EAF701C0000F4A95EAF724
:101FF0004E2F409589814823E0234E2B49836E2D37
:102000008F2D0E94120E01C080E00F90DF91CF91C2
:102010001F910F91FF90EF90DF900895FC01608376
:102020000895462F69E1FC0180810C94120E0F93F4
:10203000062F23E045E06AE1FC0180810E94C80F81
:102040000F9108950F93062F23E042E06AE1FC010F
:1020500080810E94C80F0F9108950F93062F22E0F0
:1020600044E06BE1FC0180810E94C80F0F9108954C
:102070000F93062F22E044E06CE1FC0180810E9476
:10208000C80F0F910895462F6FE1FC0180810C94D9
:10209000120E462F60E2FC0180810C94120E462F36
:1020A00061E2FC0180810C94120E462F62E2FC0179
:1020B00080810C94120E643048F4262F220F260FD4
:1020C0002B5D622FFC0180810C94120E0895262F47
:1020D00041E067E3FC0180810C94950F462F68E393
:1020E000FC0180810C94120ECF93DF93EC012091C0
:1020F000120230911302AC014F5F5F4F6AE3888197
:102100000E94290F8981DF91CF910895262F46E003
:102110006AE6FC0180810C94950F262F45E06AE663
:10212000FC0180810C94950F21E042E06AE6FC01FD
:1021300080810C94950F21E041E06AE6FC018081EA
:102140000C94950F21E047E06BE6FC0180810C9434
:10215000950F262F46E06BE6FC0180810C94950FCD
:102160000F93062F23E042E06BE6FC0180810E9482
:10217000C80F0F910895CF93DF93EC0161E00E94A7
:10218000B01060E0CE010E942D1060E0CE010E94F0
:10219000381060E0CE01DF91CF910C94A9100F931D
:1021A0001F93CF93DF93EC01009112021091130261
:1021B0009C012F5F3F4F42E062E788810E94790EC9
:1021C000898190E0982F88272A81822BDF91CF91F7
:1021D0001F910F9108950F931F939B01009112027D
:1021E0001091130264E7FC0180810E94790E1F9117
:1021F0000F910895EF92FF920F931F93CF93DF9368
:10220000EC01E0901202F09013028C010F5F1F4F5F
:1022100026E046E065E788810E94580F8981DF91BA
:10222000CF911F910F91FF90EF9008950E94FA10A7
:1022300091E0843309F090E0892F08950F931F9364
:10224000CF93DF93EC0100911202109113029C01D5
:102250002F5F3F4F40E060E088810E94330F89810B
:10226000DF91CF911F910F910895262F40E060E0FC
:10227000FC0180810C94950FEF92FF920F931F93B6
:10228000CF93DF93EC01E0901202F09013028C01E7
:102290000F5F1F4F26E046E060E088810E94580FE4
:1022A0008981DF91CF911F910F91FF90EF90089559
:1022B0000F93062F26E046E060E0FC0180810E943B
:1022C000C80F0F910895EF92FF920F931F93CF9332
:1022D000DF93EC01E0901202F09013028C010F5F8B
:1022E0001F4F26E046E061E088810E94580F8981F7
:1022F000DF91CF911F910F91FF90EF9008950F9371
:10230000062F26E046E061E0FC0180810E94C80FB4
:102310000F910895EF92FF920F931F93CF93DF9346
:10232000EC01E0901202F09013028C010F5F1F4F3E
:1023300026E046E062E088810E94580F8981DF91A3
:10234000CF911F910F91FF90EF9008950F93062F5B
:1023500026E046E062E0FC0180810E94C80F0F91F8
:102360000895AB016AE0FC0180810C94660EAB011C
:1023700063E1FC0180810C94660EAB0165E1FC0118
:1023800080810C94660EAB0167E1FC0180810C94A6
:10239000660E262F47E06AE6FC0180810C94950FBB
:1023A00021E043E06AE6FC0180810C94950F6F7197
:1023B0002111606241116064462F6DE6FC0180814D
:1023C0000C94120E462F6EE6FC0180810C94120EC6
:1023D000CF93DF93EC012091120230911302AC01F4
:1023E0004F5F5F4F6FE688810E94290F8981DF91DF
:1023F000CF9108955F926F927F928F929F92AF924A
:10240000BF92CF92DF92EF92FF920F931F93CF93E1
:10241000DF937C015B016A01622E702E20E040E0B8
:10242000662D0E94D711602FC7010E94E211C0E003
:10243000D0E0812C99249394CC15DD05A8F5CE012C
:102440004096C816D90618F45C2C5C1A02C0A0E1AC
:102450005A2E252D30E0C401871991098217930760
:1024600014F4572C5194009112021091130295010B
:102470002C0F3D1F452D6FE6F70180810E94790EDC
:10248000C50DD11D750CCC15DD05B0F6711001C060
:10249000639420E040E0662DC7010E94D711672DAC
:1024A000C7010E94E211C8CFDF91CF911F910F9118
:1024B000FF90EF90DF90CF90BF90AF909F908F9064
:1024C0007F906F905F9008952F923F924F925F920E
:1024D0006F927F928F929F92AF92BF92CF92DF9234
:1024E000EF92FF920F931F93CF93DF9300D01F9231
:1024F0001F92CDB7DEB79D838C837B836A834A01AD
:10250000322ED02EE98220E040E0632D0E94D711C8
:10251000602F8C819D810E94E211E980EE2029F0DC
:1025200080E190E00E94DB3B5C01CC2031F080E157
:1025300090E00E94DB3B582E492EE12CF12CE81450
:10254000F90408F07AC0C70140968816990618F475
:10255000282C2E1802C010E1212E222D30E080E020
:1025600091E08D1991098217930714F42D2C219471
:10257000EA81FB81EE0DFF1DCC2059F0852DA52DA4
:10258000B42D9A2F981B921530F494919D93319607
:10259000F8CF5E2E4F2E252D342D422D6FE6AC81C7
:1025A000BD818C910E94D80D622C712CB981BB2306
:1025B00069F1A114B10451F120E040E0632D8C8158
:1025C0009D810E94D7116D2D8C819D810E94E21109
:1025D00000911202109113029501422D6FE6EC81D9
:1025E000FD8180810E94790EA301B501852D942D76
:1025F0000E94EB3D892B51F0C5010E94733CCC2019
:1026000049F1852D942D0E94733C24C0E60CF71CE3
:10261000D20CE814F90408F092CFD11001C0339421
:1026200020E040E0632D8C819D810E94D7116D2DAB
:102630008C819D810E94E21182CFF981FF2319F0E4
:10264000C5010E94733CCC2039F0852D942D0E9449
:10265000733C02C080E001C081E00F900F900F90AA
:102660000F900F90DF91CF911F910F91FF90EF90FE
:10267000DF90CF90BF90AF909F908F907F906F90A2
:102680005F904F903F902F900895CF92EF920F93CD
:10269000CC24C3940E9464120F91EF90CF900895C0
:1026A0002F923F924F925F926F927F928F929F9262
:1026B000AF92BF92CF92DF92EF92FF920F931F9350
:1026C000CF93DF9300D0CDB7DEB74C017B836A8315
:1026D0003A01D22E222331F088E090E00E94DB3BC9
:1026E000182FF92E212C312C2614370408F051C054
:1026F000EA81FB81E20DF31DC10103965C01DD203F
:10270000C1F04491F10131968A819B81E80FF91F54
:102710000491F1013296E80FF91F5490511044C012
:10272000F4E02F0E311CEA81FB81EA0DFB1D849140
:102730000DC0408101815280EA81FB81E80FF91FC1
:1027400051100DC084E0280E311C80818130D1F4FD
:1027500042E368E3F40180810E94120EC5CF1E2F70
:10276000FF2E452C512CC12CEE24E394242FA201E2
:10277000612F7F2DC4010E94641212012A0C3B1CA0
:102780008111B2CFDD2061F0812F9F2D0E94733C1B
:1027900007C0DD2039F0812F9F2D0E94733C02C0BD
:1027A00080E024C081E022C0252C312CF2E0F51518
:1027B00048F4B101812F9F2D49830E94023D182FBB
:1027C000F92E4981812F9F2DA0E0B0E02A813B8125
:1027D0002A0D3B1DA215B30520F6F901EA0FFB1FD8
:1027E0005491FC015193CF011196F4CF0F900F90AB
:1027F0000F90DF91CF911F910F91FF90EF90DF909D
:10280000CF90BF90AF909F908F907F906F905F9090
:102810004F903F902F90089521E00C945013462F35
:1028200060E7FC0180810C94120E462F61E7FC01E9
:1028300080810C94120ECF93DF931F92CDB7DEB739
:102840006983DC01ED91FC910280F381E02D41E090
:1028500050E0BE016F5F7F4F19950F90DF91CF91D0
:102860000895CF93DF93EC01898D9A8D009759F0ED
:10287000FC01138212820E94F81EE98DFA8D2281DA
:102880003381232B31F081E090E09B838A8380E0C9
:1028900090E0DF91CF910895FC01818D928D00979A
:1028A00011F00C94981C0895CF93DF931F92CDB72D
:1028B000DEB741E050E0BE016F5F7F4F0E94A91A72
:1028C000019719F4898190E002C08FEF9FEF0F907C
:1028D000DF91CF910895FC01818D928D009711F0C9
:1028E0000C9454148FEF9FEF08950F931F93CF9381
:1028F000DF938C01FC01818D928D0097B9F00E94CD
:102900005414EC018F3FFFEF9F0799F0F801818D80
:10291000928DFC014285538564857585415051092E
:10292000610971090E94FC1BCE0105C080E090E0A6
:1029300002C08FEF9FEFDF91CF911F910F9108950C
:10294000FC011382128248EE53E060E070E04483A1
:1029500055836683778383E196E091838083128E2B
:10296000118E14860895DC015996ED91FC915A97C9
:10297000309729F0628573858485958508956FEF7A
:102980007FEFCB010895DC015996ED91FC915A97A8
:10299000309729F06389748985899689089560E064
:1029A00070E0CB010895CF92DF92EF92FF92CF9328
:1029B000DF93EC01898D9A8D892BD9F0CE010E948D
:1029C000C3146B017C01CE010E94B314A7019601D0
:1029D000261B370B480B590BDA01C901811530E86A
:1029E0009307A105B10538F08FEF9FE7A0E0B0E0B5
:1029F00002C080E090E0DF91CF91FF90EF90DF90F8
:102A0000CF9008951F93CF93DF93CDB7DEB76D9727
:102A10000FB6F894DEBF0FBECDBFAB011C821B8288
:102A200023E236E03A8329831E8221E0BC01CE01F5
:102A300001960E94131E11E0811102C010E004C033
:102A4000CE0101960E94DF1C812F6D960FB6F8947F
:102A5000DEBF0FBECDBFDF91CF911F910895CF9301
:102A6000DF93FB0120813181FC01E20FF31FE08144
:102A7000EF3211F42F5F3F4FDA01E0E0F0E0EC01BC
:102A8000C20FD31FC881CF3249F0CC2339F0319621
:102A90002F5F3F4FCD93EC30F10589F7E40FF51F21
:102AA0001082FC01E20FF31F40814F3211F42F5FBF
:102AB0003F4FFB0131832083FC01E20FF31F81E0D4
:102AC0009081911101C080E0DF91CF9108954F92E4
:102AD0005F926F927F928F929F92AF92BF92CF92AE
:102AE000DF92EF92FF920F931F93CF93DF93CDB7B7
:102AF000DEB7C954D1090FB6F894DEBF0FBECDBF03
:102B00005C016B013A01490119A218A283E296E027
:102B10009F8F8E8F1BA21C821B829A8389831E82A9
:102B20002A961FAE1EAE2A978B017E018EE1E80E1B
:102B3000F11C44244394AE01455C5F4FBE01685BC9
:102B40007F4FC5010E942F15582E482F4425940110
:102B5000BE01655C7F4FC801F3011995811108C062
:102B60000C151D0519F0C8010E94DF1C80E027C06C
:102B70005520B9F021E0AE01455C5F4FB801C701B7
:102B80000E94131E582E0C151D0599F0C8010E94B5
:102B9000DF1C552059F3902F812F8701E92EF82E45
:102BA000CACF0C151D0519F0C8010E94DF1C81E079
:102BB00006C08823D9F28E010F5F1F4FECCFC75B91
:102BC000DF4F0FB6F894DEBF0FBECDBFDF91CF91C0
:102BD0001F910F91FF90EF90DF90CF90BF90AF903B
:102BE0009F908F907F906F905F904F9008950F937C
:102BF0001F93CF93DF93EC01462F61E00E946E1785
:102C0000811102C080E01DC08E01045F1F4F41E0B2
:102C1000BE01C8010E943F24882359F0B801CE01AB
:102C20008A960E94591A91E0811101C090E0892F83
:102C300008C040E0BE01C8010E943F24882311F370
:102C4000EDCFDF91CF911F910F910895FB01BC0152
:102C5000665D7F4F20E030E042E055E1CF010C940B
:102C60006715109246071092470710924A07109274
:102C70004C0782E090E0A0E0B0E080934D07909395
:102C80004E07A0934F07B09350071092640710921D
:102C90006E0710926D0783E296E090936C07809325
:102CA0006B071092700708959FB7F89420919809C8
:102CB00080919609213019F48DBB9FBF08958FBF75
:102CC000089520919809222399F03FB7F894209114
:102CD0009809213059F42DB3209396094DB32091D2
:102CE0009709209524232DBB3FBF02C0309396093E
:102CF0008CBD9DBD08958EBD00000DB407FEFDCFB7
:102D00008EB508958FEF0C947B1661E0FC018481F1
:102D10000E940D3080918A07882339F010928A072B
:102D20008091980981110C9454160895CF93DF93E4
:102D3000EC0180918A07811109C081E080938A07A4
:102D400080918B0790918C070E94611660E08C81C6
:102D5000DF91CF910C940D30CF93DF93EC018E81F6
:102D6000882389F08F8198859C012F5F3F4F38879A
:102D70002F838230924018F40E948216F3CFCE0146
:102D80000E9485161E82DF91CF910895673028F04A
:102D900026E1FC01258380E00895623081F030F463
:102DA000662359F06130B1F480E515C0643059F004
:102DB00040F0653079F482E50EC080E505C081E51C
:102DC00003C081E508C082E580938B0781E0809392
:102DD0008C07089583E580938B0710928C0781E020
:102DE00008950F931F93CF93DF93EB010E94C72E9B
:102DF0008B010E9482168F3F49F00E94C72E601BF4
:102E0000710B6C177D07A8F380E001C081E0DF91B2
:102E1000CF911F910F910895CF92DF92FF920F9360
:102E20001F93CF93DF9300D01F92CDB7DEB76C0115
:102E3000F62E29833A834B835C830E94AC16C6012D
:102E40000E9496166CE271E0C6010E94F1168F2D69
:102E500080640E947B1608E110E05C814B813A811E
:102E60002981DA01C901002E04C0B695A79597956E
:102E700087950A94D2F729833A834B835C830E9417
:102E80007B160850110929813A814B815C81083FEA
:102E90008FEF180731F7FF2029F0E8E0FE1621F048
:102EA0008FEF03C085E901C087E80E947B1610E020
:102EB0000E948216F601828787FF04C01F3F11F02F
:102EC0001F5FF6CF0F900F900F900F90DF91CF9173
:102ED0001F910F91FF90DF90CF900895BF92CF92F6
:102EE000DF92EF92FF920F931F93CF93DF93EC014A
:102EF000B62E1B8619861E821D824C830E94C72E09
:102F00008B0161E08C810E94D42F61E08C810E9452
:102F10000D300E94652982E580938B0710928C0703
:102F200080918B0790918C070E9461162AE0F22E07
:102F30008FEF0E947B16FA94D9F78091980981113E
:102F40000E945416CE010E94961620E030E0A9019E
:102F500060E0CE010E940C17F82E8A8781E0F816F7
:102F600049F00E94C72E601B710B613D774068F3EA
:102F700081E04BC02AEA31E040E050E068E0CE0159
:102F80000E940C1782FF02C0FB860DC094E0F92E50
:102F90000E9482168A87FA94D9F78A3A11F082E061
:102FA00034C082E08B878B85823031F4C12CD12CE8
:102FB000E12C80E4F82E03C0C12CD12C760120E056
:102FC00030E0A90167E3CE010E940C17A70196012A
:102FD00069E2CE010E940C178A87882349F00E947B
:102FE000C72E601B710B613D774048F388E00DC030
:102FF0008B85823031F520E030E0A9016AE3CE0113
:103000000E940C17882381F086E08D83CE010E94F8
:10301000851680E0DF91CF911F910F91FF90EF9087
:10302000DF90CF90BF9008950E948216807C803CF4
:1030300011F483E08B870E9482160E9482160E9400
:103040008216CE010E9485166B2DCE01DF91CF91A5
:103050001F910F91FF90EF90DF90CF90BF900C9455
:10306000C6160F931F93CF93DF93EC010E94C72ED8
:103070008B010E9482168A878F3F49F40E94C72ED7
:10308000601B710B6D327140A0F38FE003C08E3F67
:1030900039F08DE08D83CE010E94851680E001C05D
:1030A00081E0DF91CF911F910F910895CF92DF9230
:1030B000EF92FF920F931F93CF93DF93EC0169017F
:1030C0000115110509F462C0C801820F931F8130F8
:1030D000924008F05DC08E81882371F088819981CB
:1030E000AA81BB81481759076A077B0729F48F819A
:1030F0009885C816D90610F5488359836A837B835F
:103100008B85833039F039E0440F551F661F771FD8
:103110003A95D1F79A01AB0161E1CE010E940C17FB
:10312000882319F083E08D8333C0CE010E943118CB
:10313000882371F118861F8281E08E838F819885A4
:103140008C159D0540F40E9482168F81988501960A
:1031500098878F83F3CF6701E00EF11ECE14DF0452
:1031600031F00E948216F60181936F01F7CF8F81B3
:103170009885800F911F98878F832985222319F0C6
:103180008115924018F0CE010E94AC1681E004C077
:10319000CE010E94851680E0DF91CF911F910F91A3
:1031A000FF90EF90DF90CF900895EF92FF920F93F2
:1031B0001F93790100E012E020E030E00E945618F1
:1031C0001F910F91FF90EF900895CF92DF92EF92B1
:1031D000FF920F931F93CF93DF931F921F92CDB750
:1031E000DEB78C01862F49835A830E947B16498162
:1031F000C42E5A81D52EE12CF12CF60181916F015C
:103200000E947B16FFEFEF1AFF0AE11482E0F80636
:10321000A1F78FEF0E947B168FEF0E947B160E9412
:103220008216F80182878F71853039F081E18583BC
:10323000C8010E94851680E001C081E00F900F90C8
:10324000DF91CF911F910F91FF90EF90DF90CF9082
:1032500008950F931F93CF93DF93EC0189014115DC
:1032600051056105710511F482E132C08B8583300F
:1032700039F089E0440F551F661F771F8A95D1F7F3
:103280009A01AB0168E1CE010E940C17882311F06E
:1032900084E01EC0A8016EEFCE010E94E5188823CD
:1032A000C1F068E572E0CE010E94F116811102C002
:1032B00085E10EC020E030E0A9016DE0CE010E9462
:1032C0000C17811104C00E948216882339F084E112
:1032D0008D83CE010E94851680E004C0CE010E943D
:1032E000851681E0DF91CF911F910F91089580E5C0
:1032F00080938B0710928C070895CF93DF93EC0196
:103300009C012A5F3F4F41E050E060E070E08B8D10
:103310009C8D0E94D4228823A1F04F89588D698DFD
:103320007A8D452B462B472B71F44E815F81688542
:1033300079854F8B588F698F7A8F8C8180688C83C9
:1033400002C080E001C081E0DF91CF910895CF926B
:10335000DF92EF92FF921F93CF93DF93EC010E94D5
:103360007D19811102C080E04BC0EB8DFC8DCE80B9
:10337000DF80E884F98482E0C81AD108E108F10806
:10338000058404C0CC0CDD1CEE1CFF1C0A94D2F793
:103390004685578560897189C40ED51EE61EF71EC5
:1033A000148181E0C81AD108E108F108112361F005
:1033B000C701B601610F711D811D911D0E941E2163
:1033C000882389F21150F2CFEB8DFC8DC12C82E065
:1033D000D82EE12CF12C058404C0CC0CDD1CEE1C95
:1033E000FF1C0A94D2F74B895C896D897E894C0D4C
:1033F0005D1D6E1D7F1D4B8B5C8B6D8B7E8B81E00D
:10340000DF91CF911F91FF90EF90DF90CF900895C3
:10341000CF93DF93EC01462F6E857F85888999894C
:103420000E94E320882341F08A8920E2829FC00124
:1034300011248A56984F02C080E090E0DF91CF912E
:103440000895282FFB018BE030E231938150E9F79A
:10345000A22FB92F20E037E09D91992319F19E32D8
:1034600019F0E6EBFCE008C03A3011F128E03AE050
:10347000F3CF31964917E1F044914111FACF321759
:10348000B8F04FED490F4E3598F441E0420FFB0183
:10349000E20FF11D2FE9290F2A3108F49052908391
:1034A000242FDACF81E0FB019081903209F480E093
:1034B00008950F931F93CF93DF93EC018B018D81C0
:1034C000882311F080E040C0FB0187898031B1F48E
:1034D00082E08D831F8A188E198E1A8E408D518D31
:1034E00060E070E095E0440F551F661F771F9A95C6
:1034F000D1F74B8B5C8B6D8B7E8B15C0803211F7B7
:1035000083E08D83FB01428D538D648D758D4F8BD0
:10351000588F698F7A8F9E012D5E3F4FC8010E94A0
:10352000C821882379F21C8F0B8F81E08C831E8247
:103530001F82188619861A861B861C861D861E8683
:103540001F86188A198A1A8ADF91CF911F910F91CD
:1035500008952F923F924F925F926F927F928F9237
:103560009F92AF92BF92CF92DF92EF92FF920F9312
:103570001F93CF93DF93EC016B015A018D81811171
:1035800003C08FEF9FEFDAC08C8180FFFACF4B89A9
:103590005C896D897E898A859B85AC85BD85250181
:1035A000612C712C8A019B01081B190B2A0B3B0B08
:1035B000041515052605370518F45A01A81AB90A85
:1035C00025011E0126E0220E311C4114510409F48C
:1035D0007BC04A855B856C857D854A0181E09822A8
:1035E000ED818A019B01F9E036952795179507959E
:1035F000FA95D1F78B8D9C8DE23051F4FC01628DF0
:10360000738D848D958D600F711F821F931F3EC037
:10361000FC0174807A94702281149104C9F47110B1
:1036200017C0452B462B472B49F48F89988DA98DC0
:10363000BA8D8E839F83A887B9870AC04E815F8128
:103640006885798591010E944421882309F499CFE6
:10365000EB8DFC8D6E817F81888599856250710923
:1036600081099109058404C0660F771F881F991F7F
:103670000A94D2F70685178520893189600F711F5A
:10368000821F931F670D711D811D911D20E032E087
:103690002819390932012415350508F439012C811E
:1036A00026FD04C06114F2E07F06A1F5009114022A
:1036B00010911502209116023091170260177107C0
:1036C0008207930719F426C0C50138C0760183012B
:1036D0009401AB01BC0180919407909195070E94E1
:1036E0005618882309F44DCFC60CD71C04C0E81B1C
:1036F000F90BCE0EDF1E8A859B85AC85BD85860DB8
:10370000971DA11DB11D8A879B87AC87BD87461871
:1037100057085BCF40E00E94E320882309F431CFB3
:10372000C4018A56984FD6019C01260D371DFC0115
:10373000E217F307E1F241914D93FACFDF91CF9178
:103740001F910F91FF90EF90DF90CF90BF90AF90BF
:103750009F908F907F906F905F904F903F902F90B1
:103760000895FF920F931F93CF93DF931F92CDB7CE
:10377000DEB78C01FC018581823018F480E090E096
:1037800034C0F8014285538564857585A5E076953A
:10379000679557954795AA95D1F7F42FFF70FF2E9F
:1037A00041E050E0BE016F5F7F4FC8010E94A91A3F
:1037B000019719F4298130E002C02FEF3FEF2F3F2E
:1037C0003F4FE1F2F8014285538564857585415E7E
:1037D0005F4F6F4F7F4F4287538764877587F0E253
:1037E000FF9EC00111248A56984F0F90DF91CF9110
:1037F0001F910F91FF9008954F925F926F927F9269
:10380000AF92BF92CF92DF92EF92FF920F931F93EE
:10381000CF93DF93EC016A017B012D81222309F410
:1038200057C08B899C89AD89BE8984179507A607E7
:10383000B70708F44DC04EC08A859B85AC85BD8511
:10384000EB8DFC8DE585F0E03996AC01BD01415072
:103850005109610971090E2E04C076956795579537
:1038600047950A94D2F79701860101501109210961
:10387000310904C03695279517950795EA95D2F733
:103880000417150726073707B0F58F89988DA98D7E
:10389000BA8D8E839F83A887B987280139015E017D
:1038A00086E0A80EB11C411451046104710461F159
:1038B0004E815F816885798595018B8D9C8D0E94F5
:1038C000442191E0491A5108610871088111EBCF38
:1038D00080E01FC02230C1F0C114D104E104F10422
:1038E00009F0AACF1E821F82188619861A861B86A7
:1038F0001C861D860DC0892B8A2B8B2B31F2041B55
:10390000150B260B370BC9CFCA86DB86EC86FD86E6
:1039100081E0DF91CF911F910F91FF90EF90DF90A9
:10392000CF90BF90AF907F906F905F904F90089531
:103930000F931F93CF93DF93EC018D818823C9F1FF
:103940008C8187FF30C061E0CE010E94081A8C0193
:10395000009779F18D81823048F44B895C896D89BB
:103960007E89F801448F558F668F778F4F89588DE8
:10397000698D7A8DF801538F428F758B648BE0913E
:103980008D07F0918E07309759F0B8016A5E7F4F2E
:10399000C80148961995F801808D918D938B828B83
:1039A0008C818F778C83DF91CF911F910F910C9435
:1039B000A82080E0DF91CF911F910F910895CF93C0
:1039C000DF93EC010E94981C882319F01D8281E08E
:1039D00001C080E0DF91CF9108954F925F926F9286
:1039E0007F92AF92BF92CF92DF92EF92FF920F93AE
:1039F0001F93CF93DF9300D01F92CDB7DEB75C014A
:103A00006A017B01FC0185818130F1F4848181FFB1
:103A10001BC0F50183899489A589B6898417950708
:103A2000A607B70788F0892B8A2B8B2B09F479C05E
:103A3000F5014284538464847584B701A601C501ED
:103A40000E94FC1B811102C080E06CC0F501838DD7
:103A5000948DC114D104E104F10471F44789508DAF
:103A6000618D728D0E94E923882371F3F501178A15
:103A7000108E118E128E3AC0F501468157816085F5
:103A800071859E012F5F3F4F0E9444218823E1F200
:103A900049815A816B817C81F501838D948DFC0174
:103AA0002789203129F408EF1FEF20E030E004C01F
:103AB00008EF1FEF2FEF3FE0401751076207730732
:103AC000A8F40E94E923882309F4BECFF5014681BA
:103AD0005781608571850FEF1FEF2FEF3FE0838DDA
:103AE000948D0E943322882309F4AECFF501C38A56
:103AF000D48AE58AF68A848180688483C5010E941D
:103B0000981C882309F4A0CFB701A6014C145D04CA
:103B10006E047F0410F4B301A201C5010E94FC1BD6
:103B200001C081E00F900F900F900F90DF91CF9127
:103B30001F910F91FF90EF90DF90CF90BF90AF90CB
:103B40007F906F905F904F900895FF920F931F9317
:103B5000CF93DF93EC01F42E80E2689FF0011124F3
:103B6000EA56F84F8385817129F0842F827411F011
:103B700080E053C06A8B8091140290911502A0914D
:103B80001602B09117028E879F87A88BB98B448944
:103B9000558960E070E0BA0155274427028D138DE6
:103BA00020E030E0402B512B622B732B4F8B588F32
:103BB000698F7A8F8385887151F4048D158D268DD8
:103BC000378D0B8B1C8B2D8B3E8B81E00CC0803195
:103BD00079F69E012D5E3F4F8B8D9C8D0E94C821F2
:103BE000882331F284E08D838F2D8F708C831E8229
:103BF0001F82188619861A861B861C861D86F6FE6D
:103C00000BC040E050E0BA01CE01DF91CF911F918F
:103C10000F91FF900C94ED1C81E0DF91CF911F91EB
:103C20000F91FF900895AF92BF92CF92DF92EF92E3
:103C3000FF920F931F93CF93DF93CDB7DEB72B97F0
:103C40000FB6F894DEBF0FBECDBF7C016B01CA0179
:103C5000B22EF70125812111B9C0BE016F5F7F4FE0
:103C60000E94211A882309F4B1C0F601838D948D36
:103C7000F701948F838FF6011682178210861186C2
:103C80001286138614861586A12CF60102851385EB
:103C90002485358583899489A589B68908171907EC
:103CA0002A073B07E8F545E03695279517950795D0
:103CB0004A95D1F70F70C6010E94B11B009709F415
:103CC00085C0FC012081222311F0253EB9F4A1100A
:103CD0000EC0F701028B40911402509115026091C1
:103CE00016027091170246875787608B718BFC0113
:103CF0008081AA24A3948111C8CF12C04BE050E068
:103D0000BC01CE0101960E94EB3D892B09F0BDCF8D
:103D10008B2D8073803309F459C04B2D602F52C016
:103D20008B2D8271823109F051C0AA2041F061E0EF
:103D3000C7010E94081A8C01009779F447C0F60168
:103D40008581823009F442C0C6010E94A7198823E8
:103D5000E9F1F701128A06E917E080E2F801119211
:103D60008A95E9F78BE0FE013196D80101900D921A
:103D70008A95E1F7E0918D07F0918E07309739F041
:103D8000B801625F7F4FC8014096199509C081E272
:103D900098E2F801918B808B80E098E09787868786
:103DA000F80180899189938B828B918F808F868592
:103DB0009785978B868B0E94A820882339F04B2DFE
:103DC000F7016289C7010E94A51D01C080E02B9602
:103DD0000FB6F894DEBF0FBECDBFDF91CF911F911C
:103DE0000F91FF90EF90DF90CF90BF90AF9008952C
:103DF0002F923F924F925F926F927F928F929F92FB
:103E0000AF92BF92CF92DF92EF92FF920F931F93E8
:103E1000CF93DF9300D01F921F92CDB7DEB78C01F6
:103E20007B013A01DC0115968C9115978130C9F41C
:103E300014968C9181FF15C082FF1BC0F801438945
:103E400054896589768982859385A485B58584178B
:103E50009507A607B70769F0C8010E94FC1B8111EE
:103E600008C081E090E0F8019383828380E090E0D5
:103E700046C1630180C0D8015B968D919C915C978F
:103E8000FC01F481F150B501A40129E07695679514
:103E9000579547952A95D1F7F423FD8321E0922287
:103EA000FF2309F474C080E092E088199909560153
:103EB0008C159D0508F45C01D8015B96ED91FC9191
:103EC0005C9716962D903D904D905C901997B2E0BE
:103ED0002B1A310841085108058404C0220C331CF8
:103EE000441C551C0A94D2F786859785A089B18910
:103EF000280E391E4A1E5B1EED812E0E311C411C00
:103F0000511CA114F2E0BF0609F088C08091140290
:103F100090911502A0911602B09117028215930597
:103F2000A405B50559F48FEF9FEFDC0180931402CF
:103F300090931502A0931602B09317029701B20155
:103F4000A10180919407909195070E9429198823D7
:103F500009F487CF9EEFF91ACA18DB08F8018285A9
:103F60009385A485B5858A0D9B1DA11DB11D8287F2
:103F70009387A487B587D8011A968D909D90AD90B0
:103F8000BC901D97C114D10409F075CF8AC081146B
:103F9000910409F088CF16964D915D916D917C91B9
:103FA0001997411551056105710559F457968D9181
:103FB0009D910D90BC91A02D0097A105B10541F5F3
:103FC00021C09E012F5F3F4F0E944421882309F4A6
:103FD0004ECF89819A81AB81BC81F801238D348DCC
:103FE000F9012789203129F448EF5FEF60E070E0A4
:103FF00004C048EF5FEF6FEF7FE084179507A607D7
:10400000B70730F0C8010E947D1981114CCF29CF2C
:10401000F80186839783A087B18745CF81149104E7
:1040200029F5D8011A964D915D916D917C911D975E
:1040300053968D919D910D90BC91A02D48175907D5
:104040006A077B0798F00E94A820882309F409CF0B
:1040500020921402309215024092160250921702DA
:104060008091930781608093930708C041E0C2016B
:10407000B1010E94E320882309F4F3CEC4018A56DB
:10408000984FD7019C012A0D3B1DFC01E217F30755
:1040900019F04D914193FACFE81BF90BEE0EFF1E7C
:1040A0005BCF53968D919D910D90BC91A02DF80101
:1040B000248188159905AA05BB0538F4838A948A5A
:1040C000A58AB68A206824830CC080918D079091C0
:1040D0008E07892B31F06114710419F02068F80102
:1040E0002483D80114968C9183FD02C0C30107C0BC
:1040F000C8010E94981C882309F4B3CEF7CF0F9013
:104100000F900F900F900F90DF91CF911F910F9113
:10411000FF90EF90DF90CF90BF90AF909F908F90E7
:104120007F906F905F904F903F902F900895CF9326
:10413000DF931F92CDB7DEB7698341E050E0BE0147
:104140006F5F7F4F0E94F81E0F90DF91CF9108950F
:1041500080919307882399F14091140250911502A0
:10416000609116027091170226E937E0809194075A
:10417000909195070E942919882319F140918F0782
:1041800050919007609191077091920741155105E8
:104190006105710591F026E937E0809194079091CF
:1041A00095070E942919882361F010928F071092B9
:1041B000900710929107109292071092930781E056
:1041C000089580E00895CF92DF92EF92FF92CF930F
:1041D0006B017C01C42F8091140290911502A09173
:1041E0001602B09117028C159D05AE05BF05D1F0E2
:1041F0000E94A820811102C080E01AC026E937E0A1
:10420000B701A60180919407909195070E94D51857
:10421000882391F3C0921402D0921502E092160204
:10422000F0921702809193078C2B8093930781E083
:10423000CF91FF90EF90DF90CF900895CF92DF92D3
:10424000EF92FF926B017C010E94A8208823B1F0BD
:10425000E6E9F7E0119289E0E639F807D9F7C0926C
:104260001402D0921502E0921602F0921702809189
:10427000930781608093930781E001C080E0FF9005
:10428000EF90DF90CF9008958F929F92AF92BF9260
:10429000CF92DF92EF92FF920F931F93CF93DF9312
:1042A0008C016A017B01E901FC0181859285A3856E
:1042B000B4850196A11DB11D84179507A607B70700
:1042C00010F480E058C0F8014389548965897689E3
:1042D0008789803129F4BB27AF2D9E2D8D2D09C0F4
:1042E000D701C60127E0B695A795979587952A959A
:1042F000D1F74C015D01840E951EA61EB71EC501A7
:10430000B4018090140290901502A0901602B09013
:104310001702681579058A059B0589F4F8018789D4
:10432000803199F4DD24EE24FF24F601EE0FFF1F07
:10433000EA56F84F80819181A0E0B0E017C040E0DC
:104340000E94E3208111EACFBCCFE894C7F8DD24B6
:10435000EE24FF24F601EE0FFF1FEE0FFF1FEA56BB
:10436000F84F80819181A281B381BF708883998346
:10437000AA83BB8381E0DF91CF911F910F91FF90C2
:10438000EF90DF90CF90BF90AF909F908F90089567
:104390004F925F926F927F92AF92BF92CF92DF92D5
:1043A000EF92FF920F931F93CF93DF9300D01F9252
:1043B000CDB7DEB78C0149835A836B837C83590167
:1043C000C12CD12C7601412C42E0542E612C712C51
:1043D00049815A816B817C819E012F5F3F4FC801CB
:1043E0000E944421882359F1D301C201F8010584B8
:1043F00004C0880F991FAA1FBB1F0A94D2F7C80ECA
:10440000D91EEA1EFB1E49815A816B817C818789F6
:10441000803129F488EF9FEFA0E0B0E004C088EF7E
:104420009FEFAFEFBFE0481759076A077B0780F29D
:10443000F501C082D182E282F38281E001C080E096
:104440000F900F900F900F90DF91CF911F910F91D0
:10445000FF90EF90DF90CF90BF90AF907F906F90E4
:104460005F904F9008954F925F926F927F928F92DC
:104470009F92AF92BF92CF92DF92EF92FF920F93F3
:104480001F93CF93DF93EC016A017B01280139016F
:10449000423051056105710508F474C049855A859B
:1044A0006B857C854F5F5F4F6F4F7F4F4C155D0570
:1044B0006E057F0508F466C08B889C88AD88BE8831
:1044C0008F89803129F477276F2D5E2D4D2D09C0FE
:1044D000B701A601E7E07695679557954795EA9568
:1044E000D1F7840E951EA61EB71E4091140250915E
:1044F0001502609116027091170284169506A606A1
:10450000B70671F48F89803199F4DD24EE24FF24FD
:10451000F601EE0FFF1FEA56F84F5182408218C095
:1045200040E0C501B4010E94E3208111EBCF2AC015
:10453000E894C7F8DD24EE24FF24F601EE0FFF1FF8
:10454000EE0FFF1FEA56F84F40825182628273825B
:10455000809193078160809393078A89823080F0ED
:104560008D819E81AF81B885880D991DAA1DBB1DC7
:1045700080938F0790939007A0939107B093920731
:1045800081E001C080E0DF91CF911F910F91FF90FA
:10459000EF90DF90CF90BF90AF909F908F907F90E3
:1045A0006F905F904F9008952F923F924F925F923D
:1045B0006F927F929F92AF92BF92CF92DF92EF92D3
:1045C000FF920F931F93CF93DF93CDB7DEB7609722
:1045D0000FB6F894DEBF0FBECDBF5C014D875E877E
:1045E0006F87788B1901D9014D905D906D907C900B
:1045F000411451046104710431F0BFEF4B1A5B0A9E
:104600006B0A7B0A10C0FC0140805180628073807D
:10461000992493940D851E852F85388901301105C5
:104620002105310509F0912CD50119962D913D9167
:104630004D915C911C972F5F3F4F4F4F5F4F2987E4
:104640003A874B875C87730162011D821E821F823D
:104650001886F50181859285A385B4850D811E811B
:104660002F813885081719072A073B0708F056C01D
:1046700029853A854B855C852C153D054E055F05E2
:1046800050F4A2E0CA2ED12CE12CF12CB2E04B2E3A
:10469000512C612C712C9E012F5F3F4FB701A60159
:1046A000C5010E9444218823C9F149815A816B8147
:1046B0007C81D701C6010196A11DB11D452B462B5A
:1046C000472B19F02C013D010FC0AC01BD0144196D
:1046D0005509660977090D851E852F85388940178C
:1046E00051076207730779F02D813E814F8158850C
:1046F0002F5F3F4F4F4F5F4F2D833E834F83588730
:104700006C017D01A6CF0FEF1FEF2FEF3FE0B70148
:10471000A601C5010E943322811118C080E041C06A
:10472000D701C6010197A109B1098D839E83AF838B
:10473000B88797018601AC01BD01C5010E943322F3
:10474000882361F3CD80DE80EF80F8844C145D0413
:104750006E047F0428F3D1014D915D916D917C91A0
:10476000411551056105710599F4F10140825182AD
:10477000628273829920A1F0FFEF4F1A5F0A6F0ADD
:104780007F0AD5014D925D926D927C92139708C07D
:1047900093018201C5010E9433228111E6CFBECF71
:1047A00081E060960FB6F894DEBF0FBECDBFDF91FB
:1047B000CF911F910F91FF90EF90DF90CF90BF901E
:1047C000AF909F907F906F905F904F903F902F9011
:1047D0000895AF92BF92CF92DF92EF92FF920F9324
:1047E0001F93CF93DF9300D01F92CDB7DEB75C014C
:1047F0006A017B0182E090E0A0E0B0E0F5018083F7
:104800009183A283B3839E012F5F3F4FB701A6011F
:10481000C5010E944421882311F100E010E09801B5
:10482000B701A601C5010E9433228823C1F0C980C7
:10483000DA80EB80FC80F5018789803129F488EFEC
:104840009FEFA0E0B0E004C088EF9FEFAFEFBFE0C4
:10485000C816D906EA06FB06B0F281E001C080E086
:104860000F900F900F900F90DF91CF911F910F91AC
:10487000FF90EF90DF90CF90BF90AF9008958F9210
:104880009F92AF92BF92CF92DF92EF92FF920F93DF
:104890001F93CF93DF93EC01142F709395076093D0
:1048A0009407442341F1453010F080E0EFC040E030
:1048B00060E070E0CB010E94E3208823B1F320E1A7
:1048C000129FF0011124EC5BF64F80818F7769F71E
:1048D00084859585A685B78584369105A105B105A2
:1048E00020F3C084D184E284F384C114D104E104B0
:1048F000F10421F4DACFC12CD12C760140E0C701BC
:10490000B6010E94E320882381F28091A107909153
:10491000A2078115924049F63091A607332329F268
:104920008091A4079091A507892B09F4BECF20910F
:10493000A307222309F4B9CF3A8B2C831D8630E0DC
:1049400041E050E06D85062FCA01062E02C0880F97
:10495000991F0A94E2F72817390731F081E0860F92
:104960008D87683078F3A1CF2091AC073091AD07E7
:104970002115310519F040E050E008C02091BA0738
:104980003091BB074091BC075091BD072D833E83FA
:104990004F8358878091A4079091A507460157013E
:1049A000880E991EA11CB11C8B8A9C8AAD8ABE8A76
:1049B000E091A707F091A807F98FE88FA091A607CB
:1049C000B0E00E94BD3B680D791D8A1D9B1D6A8F5A
:1049D0007B8F8C8F9D8F15E0EE0FFF1F1A95E1F7EF
:1049E000E150FE4FEF2FFF27E695DC01CB018E0F44
:1049F0009F1FA11DB11D8E879F87A88BB98B8090AB
:104A0000A9079090AA078114910419F0A12CB12C48
:104A100008C08090B6079090B707A090B807B090F4
:104A2000B907A7019601281B390B4A0B5B0BDA016A
:104A3000C901880D991DAA1DBB1D04C0B695A79577
:104A4000979587950A95D2F789879A87AB87BC8710
:104A5000853F3FE09307A105B10510F48CE014C039
:104A6000853F9F4FA105B10510F480E10DC08091F5
:104A7000C2079091C307A091C407B091C5078A8F60
:104A80009B8FAC8FBD8F80E28F8B81E0DF91CF91C8
:104A90001F910F91FF90EF90DF90CF90BF90AF905C
:104AA0009F908F90089508950F931F93CB01BA01A3
:104AB000A90198010E947A382EEA3CED42E45EE3B7
:104AC0000E94583A9B01AC0160E070E080E89FE3EF
:104AD0000E94113820E03AE24DE257E40E94F53995
:104AE0001F910F910895EF92FF920F931F93CF9311
:104AF000DF938C01EB01E42E67E770E08AE999E02F
:104B00000E94592A68818AE999E00E94F3298AE97A
:104B100099E00E946E2AF801E65BFF4F80838111C5
:104B200024C00E2D112707FD1095A80167E770E03E
:104B30008AE999E00E944C2A8AE999E00E949B291F
:104B400080179107C9F7F12CFE146CF48E010F0D3C
:104B5000111DF7FC1A958AE999E00E94A329F80132
:104B60008083F394F1CF81E001C080E0DF91CF91A9
:104B70001F910F91FF90EF9008950F931F93CF9384
:104B8000DF931F921F92CDB7DEB78A01698342E09F
:104B9000BE016F5F7F4F0E947325882359F0898182
:104BA00090E0982F88272A81822BF80191838083B7
:104BB00081E003C0F801118210820F900F90DF9105
:104BC000CF911F910F9108950F931F93CF93DF9370
:104BD0001F921F92CDB7DEB78A01698342E0BE0102
:104BE0006F5F7F4F0E947325882359F0898190E081
:104BF000982F88272A81822BF8019183808381E076
:104C000003C0F801118210820F900F90DF91CF91B5
:104C10001F910F9108954F925F926F927F928F92A2
:104C20009F92AF92BF92CF92DF92EF92FF92CF937B
:104C3000DF93EC018AE999E00E94322AAE016AEA28
:104C4000CE010E94BD25882309F43FC1AE014E5F0D
:104C50005F4F6CEACE010E94BD25882309F435C15F
:104C6000AE014C5F5F4F6EEACE010E94BD258823E6
:104C700009F42BC1AE01405F5F4F60EBCE010E9493
:104C8000E425882309F421C1AE014E5E5F4F62EB3B
:104C9000CE010E94E425882309F417C1AE014C5EC1
:104CA0005F4F64EBCE010E94E425882309F40DC117
:104CB000AE014A5F5F4F66EBCE010E94BD2588239F
:104CC00009F403C1AE01485F5F4F68EBCE010E945B
:104CD000BD25882309F4F9C0AE01465F5F4F6AEB3A
:104CE000CE010E94BD25882309F4EFC0AE01445FC8
:104CF0005F4F6CEBCE010E94BD25882309F4E5C00F
:104D0000AE01425F5F4F6EEBCE010E94BD2588234E
:104D100009F4DBC06C817D81882777FD8095982F11
:104D20000E94153920E030E040EA5BE30E94F5394B
:104D30002B013C016889798980E090E00E94133959
:104D40002FE632E143E053E30E94F5396B017C0129
:104D50006E817F81882777FD8095982F0E94153975
:104D600020E030E048EC57E30E94F5394B015C014C
:104D70006A897B8980E090E00E9413392DEC3CEC3D
:104D80004CE454E30E94F5396E8B7F8B888F998FAA
:104D90006C897D8980E090E00E9413396A8F7B8F57
:104DA0008C8F9D8F6C857D85882777FD8095982FCA
:104DB0000E9415392AE037ED43EA5DE30E94F53998
:104DC0006E8F7F8F88A399A36E857F85882777FD57
:104DD0008095982F0E94153920E030E040E253E49E
:104DE0000E947A386AA37BA38CA39DA368817981F2
:104DF000882777FD8095982F0E9415396EA37FA391
:104E000088A799A76A817B81882777FD8095982F4D
:104E10000E94153920E030E040EA5CE30E94F53959
:104E20006AA77BA78CA79DA768857985882777FDCA
:104E30008095982F0E94153920E030E048E45AE32D
:104E40000E94F5396EA77FA788AB99AB20E030E0D0
:104E500040E057E4C701B6010E94F5396AAB7BAB6D
:104E60008CAB9DABA3019201C701B6010E94F5393D
:104E70006EAB7FAB88AF99AFA5019401C701B601B6
:104E80000E94F5396AAF7BAF8CAF9DAFFE01FE96F5
:104E90008CEE91E5A7E1B0E480839183A283B38394
:104EA000349680E394E3AEE7BFE380839183A283EB
:104EB000B383CA5BDF4F80E097E5A4E9B6E388835C
:104EC0009983AA83BB8381E001C080E0DF91CF9109
:104ED000FF90EF90DF90CF90BF90AF909F908F901A
:104EE0007F906F905F904F9008959F92AF92BF9286
:104EF000CF92DF92EF92FF920F931F93CF93DF93A6
:104F00001F921F92CDB7DEB78C015B0186EF8983BC
:104F100042E0BE016F5F7F4FC8010E947325982E4B
:104F2000882309F445C0698170E080E090E00E9428
:104F3000153920E030E040E853E40E94F5396B0178
:104F40007C016A8170E080E090E00E9415399B014D
:104F5000AC01C701B6010E941238F801228D338DD1
:104F6000448D558D0E941138F80126893789408D6E
:104F7000518D0E94F5396B017C01F80122A133A10A
:104F800044A155A10E9412389B01AC01F801668D25
:104F9000778D80A191A10E947A389B01AC01C70155
:104FA000B6010E941238F501608371838283938376
:104FB000892D0F900F90DF91CF911F910F91FF904E
:104FC000EF90DF90CF90BF90AF909F9008953F9269
:104FD0004F925F926F927F928F929F92AF92BF9209
:104FE000CF92DF92EF92FF920F931F93CF93DF93B5
:104FF000CDB7DEB729970FB6F894DEBF0FBECDBF91
:105000008C017D836C837A0186EF898343E0BE0146
:105010006F5F7F4FC8010E947325382E882309F4E3
:10502000C9C020E030E048EC51E4F70160817181B3
:10503000828193810E9411386B017C019B01AC013C
:105040000E94F5394B015C01698170E080E090E0DD
:105050000E94153920E030E040E853E40E94F53921
:105060002B013C016A8170E080E090E00E941539DC
:105070009B01AC01C301B2010E9412382B013C011B
:105080006B8170E080E090E00E94153920E030E014
:1050900040E85BE30E94F5399B01AC01C301B2011A
:1050A0000E9412386E837F8388879987F80126A52E
:1050B00037A540A951A9C501B4010E94F5392B01BA
:1050C0003C01F80122A533A544A555A5C701B601A9
:1050D0000E94F5399B01AC01C301B2010E94123854
:1050E000F80126A137A140A551A50E9412389B01C5
:1050F000AC016E817F81888599850E9411382B01D2
:105100003C01F80122AD33AD44AD55ADC501B4014C
:105110000E94F5394B015C01F80126A937A940AD81
:1051200051ADC701B6010E94F5399B01AC01C50123
:10513000B4010E941238F80122A933A944A955A943
:105140000E9412389B01AC01C301B2010E947A385F
:105150004B015C017801F6E4EF0EF11C9B01AC0100
:105160000E94F539F70120813181428153810E94EB
:10517000F5396B017C01F801EE5BFF4F2081318135
:1051800042815381C501B4010E94F5399B01AC01F4
:10519000C701B6010E941238F801FE9620813181C4
:1051A000428153810E941238EC81FD8160837183BA
:1051B00082839383832D29960FB6F894DEBF0FBEAA
:1051C000CDBFDF91CF911F910F91FF90EF90DF90B6
:1051D000CF90BF90AF909F908F907F906F905F9097
:1051E0004F903F900895EF92FF920F931F93CF93AC
:1051F000DF931F92CDB7DEB77C018B0167E770E0CC
:105200008AE999E049830E94592A4981552747FD37
:105210005095B8018AE999E00E94C6298AE999E087
:105220000E946E2A982FF701E65BFF4F808381E092
:10523000911180E00F90DF91CF911F910F91FF901E
:10524000EF900895CF93DF931F921F92CDB7DEB7F3
:1052500024EF29832EE22A8342E0BE016F5F7F4F55
:105260000E94F328811185E00F900F90DF91CF917C
:1052700008951F93CF93DF931F921F92CDB7DEB790
:1052800024EF2983613041F07CF0623049F06330D3
:1052900059F42A831AE10BC024E72A8318E007C0D7
:1052A00024EB2A831EE003C024E32A8315E042E0B6
:1052B000BE016F5F7F4F0E94F3288111812F0F90F5
:1052C0000F90DF91CF911F910895CF93CFB7F894AE
:1052D00080919909811127C0E7E8FDE08491E1E41C
:1052E000FDE09491E82FF0E0EE0FFF1FEE54F24F37
:1052F000A591B4918C91892321F461E085E30E940A
:105300000D3061E085E30E94D42F8CB580618CBDA7
:105310008CB580648CBD61E084E30E94D42F61E091
:1053200083E30E94D42F809199098F5F809399091C
:10533000CFBFCF9108958091CA0990E02091CB0909
:10534000821B910908952091CB098091CA092817E1
:1053500050F4E22FF0E0E453F64F808190E02F5FAD
:105360002093CB0908958FEF9FEF0895E091CB092B
:105370008091CA09E81730F4F0E0E453F64F8081D9
:1053800090E008958FEF9FEF08950895CF92DF92F8
:10539000EF92FF920F931F93CF93DF937C01CB018A
:1053A0008A012091A609222389F0EB016B01C40E2A
:1053B000D51ECC15DD0569F06991D701ED91FC9101
:1053C0000190F081E02DC7011995F3CF642F0E9461
:1053D0002A2BC801DF91CF911F910F91FF90EF9081
:1053E000DF90CF900895CF93DF931F92CDB7DEB7B4
:1053F00069832091A6092223D1F02091A7092032A8
:1054000040F021E030E0FC013383228380E090E033
:1054100015C08091A809E82FF0E0E755F64F998173
:1054200090838F5F8093A8098093A70905C061E0EE
:10543000CE0101960E942A2B81E090E00F90DF912F
:10544000CF910895FC011382128248EE53E060E090
:1054500070E044835583668377838BE296E0918383
:10546000808308951092CB091092CA091092A8095E
:105470001092A7090C94752A862F413208F040E259
:105480006CEC79E00E94932A1092CB098093CA09B0
:10549000089521E00C943C2A21E00C943C2A81E000
:1054A0008093A6096093C9091092A8091092A709D0
:1054B00008950C944F2A0F93062F21E04091A709DD
:1054C00069EA79E08091C9090E94D72A1092A80957
:1054D0001092A7091092A6090F91089561E00C940B
:1054E0005B2A8AE999E00C94222A1092590A81E0F9
:1054F0008093570A1092560A61E084E10E940D30B1
:1055000061E085E10E940D30E9EBF0E080818E7F63
:10551000808380818D7F808388E48093B80085E4D8
:105520008093BC000895413208F03FC09091590A21
:105530009111FCCF91E09093590A2093570A2FEFD5
:105540002093EC091092310A240F2093300A909393
:10555000580A9091580A880F892B8093580A809195
:10556000560A813041F41092560A8091580A80936D
:10557000BB0085EC01C085EE8093BC008091590A88
:105580008130E1F38091310A841710F44091310A9F
:1055900022E33AE0FB01D9018A2F821B841718F419
:1055A0008D918193F9CF842F089580E008950F9312
:1055B000413208F046C09091590A9111FCCF92E017
:1055C0009093590A0093570A9FEF9093EC09109219
:1055D000310A4093300AFB0162E37AE0DB019A2F43
:1055E000961B941718F491919D93F9CF1092580A35
:1055F0009091580A880F892B8093580A8091560AF7
:10560000813041F41092560A8091580A8093BB0071
:1056100085EC01C085EE8093BC00222321F08091AF
:10562000590A8230E1F38091EC098F3F61F080915B
:10563000EC09803251F08091EC09803341F483E031
:1056400007C081E005C080E003C082E001C084E0C3
:105650000F910895613298F42091590A243089F409
:1056600060930E0AFC0180E19AE0DC012A2F281BDE
:10567000261718F421912D93F9CF80E0089581E049
:10568000089582E0089585ED8093BC008091BC0070
:1056900084FDFCCF1092590A089585EC8093BC00DC
:1056A0001092590A08951F920F920FB60F9211246B
:1056B0000BB60F922F933F934F935F936F937F930C
:1056C0008F939F93AF93BF93EF93FF938091B90014
:1056D000887F803609F49CC068F5883209F45BC085
:1056E00090F4803109F454C038F4882309F4F5C0EB
:1056F000883009F44DC0F5C0883109F44CC08032BF
:1057000009F45DC0EEC0803409F468C048F4803309
:1057100009F455C0883309F0E4C08093EC09A8C0AF
:10572000803509F44FC0883509F45DC0883409F02C
:10573000D8C0D5C0883909F4C6C0A8F4883709F4A0
:1057400067C038F4883609F463C0803709F460C054
:10575000C8C0883809F4B7C0803909F45FC0803800
:1057600009F0BFC05BC0803B09F485C038F4803AC3
:1057700009F466C0883A09F47EC0B3C0803C09F4DD
:10578000A6C0883C09F4A3C0883B09F489C0A9C01D
:105790008091580A10C09091310A8091300A981770
:1057A00070F5E091310A81E08E0F8093310AF0E0CC
:1057B000EE5CF54F80818093BB0085EC85C08093C3
:1057C000EC098DC0E091310A81E08E0F8093310A9F
:1057D0008091BB00F0E0EE5CF54F80839091310A40
:1057E0008091300A6DC0E091310A81E08E0F809384
:1057F000310A8091BB00F0E0EE5CF54F8083809130
:10580000570A81116CC081E08093560A84EA60C017
:1058100083E08093590A1092ED09CFCF8091ED0972
:10582000803208F050C0E091ED0981E08E0F809346
:10583000ED098091BB00F0E0E251F64F8083BDCFCF
:105840008091ED09803230F4E091ED09F0E0E25111
:10585000F64F10820E94432B6091ED0970E0E091B9
:10586000520AF091530A8EEE99E019951092ED09C3
:105870000E944D2B36C084E08093590A10920F0A83
:1058800010920E0AE091540AF091550A19958091F0
:105890000E0A811105C081E080930E0A1092100A51
:1058A000E0910F0A81E08E0F80930F0AF0E0E05F35
:1058B000F54F80818093BB0090910F0A80910E0A72
:1058C000981708F47ACF85E88093BC000AC085EC6D
:1058D0008093BC001092590A04C01092EC090E94F7
:1058E000432BFF91EF91BF91AF919F918F917F914A
:1058F0006F915F914F913F912F910F900BBE0F9041
:105900000FBE0F901F901895883008F06DC0E82FDB
:10591000F0E0EE0FFF1FE65AF54F7183608390E0D1
:10592000FC013197E730F10590F5EE58FF4F0C94EC
:10593000B73B809169008C7F842B80936900E89A43
:10594000089580916900440F551F440F551F837FB0
:10595000842B80936900E99A08958091690074E02E
:10596000440F551F7A95E1F78F7C842B8093690053
:10597000EA9A08958091690066E0440F551F6A9580
:10598000E1F78F73842B80936900EB9A08958091DF
:105990006A008C7F842B80936A00EC9A0895809132
:1059A0006A00440F551F440F551F837F842B80933B
:1059B0006A00ED9A089580916A0024E0440F551F13
:1059C0002A95E1F78F7C842B80936A00EE9A0895E4
:1059D00080916A0096E0440F551F9A95E1F78F7306
:1059E000842B80936A00EF9A08951F920F920FB64E
:1059F0000F9211240BB60F922F933F934F935F9307
:105A00006F937F938F939F93AF93BF93EF93FF9386
:105A100080915E0A90915F0A892B29F0E0915E0ADD
:105A2000F0915F0A1995FF91EF91BF91AF919F910E
:105A30008F917F916F915F914F913F912F910F9037
:105A40000BBE0F900FBE0F901F9018951F920F92D4
:105A50000FB60F9211240BB60F922F933F934F93D3
:105A60005F936F937F938F939F93AF93BF93EF93C6
:105A7000FF938091600A9091610A892B29F0E0914F
:105A8000600AF091610A1995FF91EF91BF91AF9172
:105A90009F918F917F916F915F914F913F912F9146
:105AA0000F900BBE0F900FBE0F901F9018951F9276
:105AB0000F920FB60F9211240BB60F922F933F93B4
:105AC0004F935F936F937F938F939F93AF93BF9306
:105AD000EF93FF938091620A9091630A892B29F0DA
