:100000000C9451010C947E010C947E010C947E01A1
:100010000C947E010C947E010C947E010C947E0164
:100020000C947E010C947E010C947E010C947E0154
:100030000C947E010C947E010C947E010C947E0144
:100040000C947E010C947E010C947E010C947E0134
:100050000C947E010C947E010C947E010C94392347
:100060000C947E010C94DE270C9465280C947E0180
:100070000C947E010C947E010C947E010C947E0104
:100080000C947E010C947E010C947E010C947E01F4
:100090000C947E010C947E010C947E010C94AF1B99
:1000A0000C947E010C947E010C947E010C947E01D4
:1000B0000C947E010C947E010C943B220C94B02194
:1000C0000C94EE220C947E010C947E010C948F28EB
:1000D0000C9416290C947E010C947E010C947E01E4
:1000E0000C947E0107634236B79BD8A71A3968562D
:1000F00018AEBAAB558C1D3CB7CC5763BD6DEDFD4A
:10010000753EF6177231BF000000803F0800000006
:10011000BE922449123EABAAAA2ABECDCCCC4C3EFC
:1001200000000080BEABAAAAAA3E00000000BF00EB
:100130000000803F0000000000084178D3BB4387E7
:10014000D1133D190E3CC3BD4282AD2B3E68EC82FB
:1001500076BED98FE1A93E4C80EFFFBE01C4FF7F80
:100160003F00000000007C3C3E5E2B3D3F2F5B5D6E
:100170003B2C2A225C0000002100240027002A00DA
:100180002D003000330001010000040107010A01C5
:1001900000002200250028002B002E003100340032
:1001A00002010000050108010B01000020002300EE
:1001B000260029002C002F0032000001000003015E
:1001C00006010901050505050705080808080202DA
:1001D00002020A0A080804040404010101010101E1
:1001E00001010303030303030303040707070C0CC4
:1001F0000C0C0C0C0C0C020202020606060606068B
:1002000006060B0B0B0B0B0B0B0B0102102020082F
:100210000810204010204080020102010804020161
:1002200001020408102040808040201008040201D0
:100230008004020180402010080402010804020129
:1002400001020408102040800102040810204080B0
:100250000000090A02080B0C0D0706030401000048
:10026000000000000000000000000000000000008E
:1002700000000000000000000000000011100F004E
:10028000000000000000000000000000000000006E
:100290000000000000002F0258074B1A1828C92838
:1002A000280211241FBECFEFD1E2DEBFCDBF00E098
:1002B0000CBF14E0A0E0B2E0E8EDF4E600E00BBF14
:1002C00002C007900D92AC32B107D9F71BBE19E0FE
:1002D000ACE2B4E001C01D92AD3DB107E1F712E020
:1002E000C0EAD2E004C02297FE010E944732C6391C
:1002F000D107C9F70E9440290C945F320C9400008A
:10030000FB01DC0104C08D910190801921F4415062
:100310005040C8F7881B990B0895FB01DC0102C00F
:1003200001900D9241505040D8F70895FC01819101
:10033000861721F08823D9F7992708953197CF019F
:100340000895FB01DC018D91019080190110D9F312
:10035000990B0895FB01DC0101900D920020E1F75B
:100360000895FB01DC014150504048F001900D928E
:100370000020C9F701C01D9241505040E0F7089598
:10038000FB019F01E8944230C4F04532B4F44A3096
:1003900029F497FB1EF4909581959F4F642F772742
:1003A0000E944B32805D8A330CF0895D8193CB01D2
:1003B0000097A1F716F45DE251931082C9010C94E5
:1003C000E101DC01FC01672F71917723E1F732979E
:1003D00004C07C916D9370836291AE17BF07C8F320
:1003E00008958130910511F56F5F7F4F81F58CE2A3
:1003F00094E00E94621D88E894E00E94020683EA6D
:1004000094E060E072E00E94B72C89EA94E060E03A
:1004100072E00E94B72C8FEA94E060E072E00E94E4
:10042000B72C85EB94E00E9402060895892B79F49D
:100430006F5F7F4F61F48FEA94E00E94902D89EA0C
:1004400094E00E94902D83EA94E00E94902D0895FC
:1004500080E090E06FEF7FEF0E94F101089581E06E
:1004600090E06FEF7FEF0E94F10108950F931F93CB
:100470008CE294E063E00E94D91D80937704882386
:1004800009F45CC1682F772767FD7095872F972F38
:100490000E94F1238CE294E06CE774E048E754E0BA
:1004A0000E94661E80937704882309F441C18FE976
:1004B00098E061E072E00E948E2A40917C045091A5
:1004C0007D0460917E0470917F048FE998E022E0C2
:1004D00030E00E94752B8FE998E065E172E00E94A0
:1004E0008E2A60917C0470917D0480917E049091AD
:1004F0007F0429EF3FEE41EF5CE30E943630AB0111
:10050000BC018FE998E022E030E00E94752B8FE972
:1005100098E06BE172E00E94782B85EB94E061E05B
:1005200072E00E948E2A40917C0450917D0460917B
:100530007E0470917F0485EB94E022E030E00E941D
:10054000752B85EB94E065E172E00E948E2A609144
:100550007C0470917D0480917E0490917F0429EF4A
:100560003FEE41EF5CE30E943630AB01BC0185EB0E
:1005700094E022E030E00E94752B85EB94E06BE183
:1005800072E00E94782B40917C0450917D04609130
:100590007E0470917F048CE294E000E010EE2EEC7B
:1005A00034E40E94821D60938004709381048093E0
:1005B0008204909383048FE998E061E272E00E94E4
:1005C0008E2A409180045091810460918204709140
:1005D00083048FE998E022E030E00E94752B8FE9D8
:1005E00098E065E172E00E948E2A6091800470912B
:1005F0008104809182049091830429EF3FEE41EFC2
:100600005CE30E943630AB01BC018FE998E022E048
:1006100030E00E94752B8FE998E06BE172E00E9458
:10062000782B40917C0450917D0460917E04709100
:100630007F04009180041091810420918204309104
:1006400083048CE294E00E94631D609384047093A1
:10065000850480938604909387048FE998E061E491
:1006600072E00E948E2A409184045091850460912A
:100670008604709187048FE998E020E030E00E94C2
:10068000752B8FE998E065E572E00E948E2A6091F3
:10069000840470918504809186049091870428E4F5
:1006A00039EF41E550E40E943630AB01BC018FE9DF
:1006B00098E020E030E00E94752B8FE998E06FE52C
:1006C00072E00E94782B85EB94E061E472E00E9476
:1006D0008E2A409184045091850460918604709123
:1006E000870485EB94E020E030E00E94752B85EBD9
:1006F00094E065E572E00E948E2A60918404709116
:100700008504809186049091870428E439EF41E5BF
:1007100050E40E943630AB01BC0185EB94E020E050
:1007200030E00E94752B85EB94E06FE572E004C029
:100730008FE998E065E672E00E94782B1F910F9197
:1007400008958CE294E00E940A1E80937704882327
:1007500009F446C0682F772767FD7095872F972F7C
:100760000E94F1238CE294E068E774E00E94841F09
:10077000809377048823A1F18FE998E06CE872E018
:100780000E948E2A409178045091790460917A04F5
:1007900070917B048FE998E022E030E00E94752B95
:1007A0008FE998E06AE972E00E94782B85EB94E08B
:1007B0006CE872E00E948E2A40917804509179048E
:1007C00060917A0470917B0485EB94E022E030E044
:1007D0000E94752B85EB94E06AE972E00E94782B09
:1007E0000895FF920F931F93DF93CF93CDB7DEB79A
:1007F000A1970FB6F894DEBF0FBECDBF8091D00495
:10080000882309F49DC0CE01079664ED74E04EED97
:1008100053E023E10E94640989859A859093B80486
:100820008093B7048B859C85AD85BE858093B90484
:100830009093BA04A093BB04B093BC048F859889AD
:10084000A989BA898093BD049093BE04A093BF0484
:10085000B093C004A1ECB4E0FE0173968DE001906A
:100860000D928150E1F788A199A19093CF048093D4
:10087000CE048E010F5F1F4FC80163EA74E040E0B1
:1008800050E026E030E00E94322DC80163EA72E0B9
:100890000E94B82BF82EC8010E94902DFF2009F469
:1008A00047C08FE998E06AEA72E00E948E2A8FE9D9
:1008B00098E066EB72E00E94782B8FE998E063EA9B
:1008C00074E00E94AB2985EB94E06AEA72E00E9432
:1008D0008E2A85EB94E066EB72E00E94782B85EB24
:1008E00094E063EA74E00E94AB298091D204909175
:1008F000D30401969093D3048093D204019783701C
:100900009070892B89F48091D104882319F00E947A
:10091000A10302C00E94360290E08091D104882396
:1009200009F491E09093D10485EB94E00E94510684
:1009300083EA94E060E072E00E94E92C1092D00417
:10094000A1960FB6F894DEBF0FBECDBFCF91DF9159
:100950001F910F91FF9008951F9311E010C08CE339
:1009600099E00E942427682F8D3019F41093D00449
:1009700006C08A3021F083EA94E00E943E2C8CE38A
:1009800099E00E940827892B51F71F9108958F92B3
:100990009F92AF92BF92CF92DF92EF92FF920F930E
:1009A0001F93DF93CF93CDB7DEB768970FB6F89458
:1009B000DEBF0FBECDBF8FE998E040E052EC61E0B2
:1009C00070E026E00E94A4268CE399E040E056E91E
:1009D00060E070E026E00E94A4268FE998E06FECCA
:1009E00072E00E94782B8FE998E06AE373E00E943E
:1009F0008E2A8FE998E066EB72E00E94782B83EAFA
:100A000094E06FEF70E00E94F52B8CE294E00E947E
:100A10004A208823C1F08FE998E069E473E00E94DE
:100A2000782B8FE998E06DE573E00E948E2A8AE0CA
:100A300061E00E94592484ED94E064E00E94890AF8
:100A4000882369F407C08FE998E065E773E00E94A6
:100A5000782BFFCF8FE998E068E873E096C08FE9C4
:100A600098E06FE973E00E94782B01E010E04E01FE
:100A70000894811C911C2DE0A22EB12CAC0EBD1E41
:100A800097E0C92ED12CCC0EDD1E83E1E82EF12C8F
:100A9000EC0EFD1E61C0C401B8014AE00E94022DA7
:100AA00089EA94E0B4010E94792DC4010E94902D3E
:100AB0008091AD049091AE048130910589F4C60116
:100AC00064EB73E00E94D02CC60169EA74E00E94D6
:100AD000802CBC0189EA94E00E94792DC60112C0E5
:100AE000029791F4C50167EB73E00E94D02CC50119
:100AF00069EA74E00E94802CBC0189EA94E00E94BB
:100B0000792DC5010E94962D0F5F1F4FC70169EB1C
:100B100073E00E94D02CC70169EA74E00E94802C27
:100B20006EEB73E00E94642CBC0189EA94E00E94A1
:100B3000792DC7010E94962D89EA94E06EED73E04D
:100B40004CE050E020E030E00E948B2B8FE998E0F1
:100B50006EED73E00E94782B84ED94E06EED73E00F
:100B60000E943B08882309F096CF8FEA94E069EA57
:100B700074E00E94792D8FE998E063EC73E00E94A5
:100B80008E2A8FE998E06EED73E00E94782B6896CC
:100B90000FB6F894DEBF0FBECDBFCF91DF911F918E
:100BA0000F91FF90EF90DF90CF90BF90AF909F900C
:100BB0008F9008952CB5382F33702C7F322B3CBD8D
:100BC0002DB590E0959587959595879581702E7FA9
:100BD000822B8DBD089585E361E00E940C2585E39D
:100BE00061E00E9459248CB580618CBD8CB5806415
:100BF0008CBD84E361E00E94592483E361E00E949C
:100C000059240895FC011382128288EE93E0A0E03B
:100C1000B0E084839583A683B78388EF93E09183C4
:100C20008083128E118E14860895DF93CF930F92D6
:100C3000CDB7DEB7FC016983A081B18112962D91F9
:100C40003C911397BE016F5F7F4F41E050E0F90187
:100C500019950F90CF91DF910895DC015996ED9190
:100C6000FC915A97309719F420E030E018C023899E
:100C700034894589568982859385A485B585281B45
:100C8000390B4A0B5B0B2030B0E83B07B0E04B0759
:100C9000B0E05B0720F02FEF3FE740E050E0C901F4
:100CA0000895CF93DF93EC01898D9A8D009741F0E1
:100CB0000E94FD0E898D9A8D0E94DC251A8E198E58
:100CC000DF91CF910895FC01818D928D009711F0F5
:100CD0000E94B30E0895DF93CF930F92CDB7DEB786
:100CE000FC01818D928D009749F0BE016F5F7F4FAF
:100CF00041E050E00E94D40F019719F02FEF3FEF31
:100D000003C08981282F30E0C9010F90CF91DF9176
:100D10000895EF92FF920F931F93DF93CF930F925B
:100D2000CDB7DEB77C01DC0159968D919C915A9725
:100D3000009719F400E010E01FC0BE016F5F7F4F05
:100D400041E050E00E94D40F019719F00FEF1FEF20
:100D500013C08981082F10E0D7015996ED91FC91BD
:100D60005A9742855385648575854150504060404F
:100D70007040CF010E94ED0DC8010F90CF91DF911F
:100D80001F910F91FF90EF900895CF93DF93EC01A7
:100D9000E98DFA8D309761F013821282CF010E94A3
:100DA00019129C01E98DFA8D82819381892B31F092
:100DB00081E090E09B838A8320E030E0C901DF91ED
:100DC000CF910895EF92FF920F931F93CF93DF93EC
:100DD000EC01F62EE72E8A011B821A8288EE93E040
:100DE000A0E0B0E08C839D83AE83BF8388EF93E067
:100DF000998388838DE190E00E943F259A8F898FA7
:100E0000009791F0DC018F2D9E2D9C01F9018DE161
:100E100001900D928150E1F7CE010C96B8014CE0A3
:100E200050E00E94B101188EDF91CF911F910F9178
:100E3000FF90EF9008950F931F93CF93DF938C0152
:100E4000FB01C081D181FC01EC0FFD1F80818F323D
:100E500009F4219698012C0F3D1FA0E0B0E00BC0D3
:100E6000FA01EA0FFB1F8083119621962F5F3F4FF7
:100E7000AC30B10531F0F90180818F3211F0882357
:100E800079F7A40FB51F1C92F801EC0FFD1F8081AC
:100E90008F3209F42196FB01D183C083C00FD11F8B
:100EA0008881811181E0DF91CF911F910F91089589
:100EB0001092D9041092DA041092DD041092DF042B
:100EC00082E090E0A0E0B0E08093E0049093E10441
:100ED000A093E204B093E3041092F704109201058A
:100EE0001092000588E094E09093FF048093FE0444
:100EF000109203050895EF92FF921F93DF93CF9313
:100F0000CDB7DEB76D970FB6F894DEBF0FBECDBF7D
:100F10009C01AB011C821B8288E094E09A83898348
:100F20001E827E010894E11CF11CC701B90121E079
:100F30000E944514182F882319F0C7010E94FD0E46
:100F4000812F6D960FB6F894DEBF0FBECDBFCF9147
:100F5000DF911F91FF90EF9008952F923F924F9253
:100F60005F926F927F928F929F92BF92CF92DF9209
:100F7000EF92FF920F931F93DF93CF93CDB7DEB71E
:100F8000C954D0400FB6F894DEBF0FBECDBF1C01D0
:100F90007B012A0139011B8A1A8A88E094E0998B27
:100FA000888B1D8A18AA1FA69EA78DA71AAA1A8227
:100FB00019828B0120E1C22ED12CCC0EDD1E93E0D4
:100FC000892E912C8C0E9D1E03C0C80186016C01D8
:100FD000C101BE016F5F7F4FA4010E941B07B82EA5
:100FE00040E0882309F441E0C801B4019301F20113
:100FF0001995882339F40E151F0519F1C8010E94AF
:10100000FD0E1FC0BB20A9F0C601B801A40121E05C
:101010000E944514B82E0E151F0519F0C8010E9434
:10102000FD0EBB2071F00E151F0579F6CE018D96D1
:10103000CDCF0E151F0519F0C8010E94FD0E81E0ED
:1010400001C080E0C75BDF4F0FB6F894DEBF0FBE74
:10105000CDBFCF91DF911F910F91FF90EF90DF9067
:10106000CF90BF909F908F907F906F905F904F90A8
:101070003F902F9008959B01BC01665D7F4FC90191
:101080004BE757E020E030E00E94AD0708952F9233
:101090003F924F925F926F927F928F929F92AF9208
:1010A000BF92CF92DF92EF92FF920F931F93DF9345
:1010B000CF93CDB7DEB7C754D0400FB6F894DEBF9C
:1010C0000FBECDBF582E492EFB013A01190184A550
:1010D00095A5998B888B28E034E03F872E8786A5DD
:1010E0008A8B87A58B8B80A991A9A2A9B3A98C8B88
:1010F0009D8BAE8BBF8B84A995A9A6A9B7A9888F14
:10110000998FAA8FBB8F80AD91ADA2ADB3AD8C8FFF
:101110009D8FAE8FBF8F84AD88A3FD9681919191F5
:10112000A191B19189A39AA3ABA3BCA38191919101
:10113000A191B1918DA39EA3AFA3B8A78081918106
:101140009AA789A71EA61DA63CA72BA718AA7A01B5
:101150008E01025F1F4F3BE2A32EB12CAC0EBD1ED1
:101160004E010894811C911C35C0D7018C918F329F
:1011700021F40894E11CF11C2DC0422F4E194D3072
:1011800008F04CE0C42EDD24C401B701A6010E9482
:10119000B101F401EC0DFD1D1082C5010E94FD0E90
:1011A000C501B801A40121E00E944514882351F42F
:1011B000E52DF42D1382128288E094E091838083E0
:1011C000158266C0EC0CFD1CC8010E94FD0EC50115
:1011D00058018C01C7016FE270E00E9496019C01EA
:1011E000009719F6E618F708F101F182E082E52D83
:1011F000F42DD80112968D919C911397938382833D
:1012000088E094E09183808314968C911497848372
:1012100015968C911597858316962D913D914D913C
:101220005C91199726833783408751871A962D91B1
:101230003D914D915C911D97228733874487558757
:101240001E962D913D914D915C9151972687378740
:10125000408B518B52968C915297828B53962D9145
:101260003D914D915C915697238B348B458B568BDA
:1012700057962D913D914D915C915A97278B308FC8
:10128000418F528F5B968D919C915C97948F838F49
:10129000852D942DC95BDF4F0FB6F894DEBF0FBECE
:1012A000CDBFCF91DF911F910F91FF90EF90DF9015
:1012B000CF90BF90AF909F908F907F906F905F90F6
:1012C0004F903F902F9008959F92AF92BF92CF92F0
:1012D000DF92EF92FF920F931F93DF93CF93CDB7DF
:1012E000DEB7C657D0400FB6F894DEBF0FBECDBFF5
:1012F000C82E992E8A01D22E43E0A42EB12CAC0E1A
:10130000BD1EC501A8019E012F5F3F4F0E944708E7
:10131000E980FA80E00EF11EF701808148E054E098
:101320002885882309F03FC08D819E819BA38AA3D5
:1013300059A348A38F818CA32DA389859A85AB855A
:10134000BC858EA39FA3A8A7B9A78D859E85AF85D1
:10135000B8898AA79BA7ACA7BDA789899A89AB89B9
:10136000BC898EA79FA7A8ABB9AB8D898AAB8E89A4
:101370009F89A88DB98D8BAB9CABADABBEAB8A8D75
:101380009B8DAC8DBD8D8FAB98AFA9AFBAAF8E8D55
:101390009F8D9CAF8BAF8C2D992DBE01605E7F4FD2
:1013A0004DEC53E09FC0FE01FF96118210825EAFAC
:1013B0004DAFFE01EE5BFF4F10822223A9F02250B9
:1013C000CE01CD96223048F46EEF74E0A7012D2DAA
:1013D0000E944514882381F407C0B501A7012D2D73
:1013E0000E944514882329F48C2D992D0E94020611
:1013F0007BC0C5010E94FD0EF6E0DF2259F0FE0120
:10140000E05BFF4F4081518162817381CE01CD96B7
:101410000E94ED0D9E01265A3F4FFE01FF968081EE
:101420009181F9019383828388E094E091838083A2
:10143000FE01EF5BFF4F8081F9018483FE01EE5BCB
:10144000FF4F8081F9018583FE01ED5BFF4F8081B5
:101450009181A281B381F90186839783A087B187A7
:10146000FE01E95BFF4F80819181A281B381F90187
:1014700082879387A487B587FE01E55BFF4F808154
:101480009181A281B381F90186879787A08BB18B67
:10149000FE01E15BFF4F8081F901828BFE01E05B81
:1014A000FF4F80819181A281B381F901838B948B5D
:1014B000A58BB68BFE01EC5AFF4F80819181A281F2
:1014C000B381F901878B908FA18FB28FFE01E85A0B
:1014D000FF4F80819181F901948F838F8C2D992DFD
:1014E000B901A7010E94E2068C2D992DCA58DF4F41
:1014F0000FB6F894DEBF0FBECDBFCF91DF911F9125
:101500000F91FF90EF90DF90CF90BF90AF909F90A2
:1015100008950F931F93CF93DF93EC01462F61E063
:101520000E94EC0C8823D1F08E01045F1F4FC8018C
:10153000BE0141E00E94E615882339F4C801BE01CE
:1015400040E00E94E615882349F0CE018A96B80152
:101550000E943311882319F081E001C080E0DF91FF
:10156000CF911F910F910895FF920F931F93CF93E7
:10157000DF938B010E948123EB01FF24FA94FEBCD0
:101580000DB407FEFDCF8EB58F3F11F481E008C08A
:101590000E9481236C1B7D0B6017710780F380E034
:1015A000DF91CF911F910F91FF900895FC0167305B
:1015B00020F086E1858380E008956330B9F06430DF
:1015C00028F4613069F0623070F407C06530A1F032
:1015D000653078F06630A9F412C084E090E011C064
:1015E00080E090E00EC085E090E00BC081E090E0EC
:1015F00008C086E090E005C082E090E002C083E091
:1016000090E00E94DA0581E00895FC01848160E0A9
:101610000E940C250895FC01848161E00E940C2544
:101620000895DC016EBD0DB407FEFDCF8EB520E040
:1016300030E0FA01E20FF31F80818EBD0DB407FE8A
:10164000FDCF8EB52F5F3F4F82E02030380789F7FE
:101650008FEF8EBD0DB407FEFDCF8EB58FEF8EBD23
:101660000DB407FEFDCF8EB58FEF8EBD0DB407FE16
:10167000FDCF8EB51A968C931A978F71853011F421
:1016800081E0089581E115968C931597CD010E9414
:101690000B0B80E00895FF920F931F93CF93DF937E
:1016A000EC010E9481238B01FF24FA9409C00E945F
:1016B0008123601B710B6D52714010F08FE00DC0E3
:1016C000FEBC0DB407FEFDCF8EB58A878F3F79F340
:1016D0008E3F11F481E006C08DE08D83CE010E9423
:1016E0000B0B80E0DF91CF911F910F91FF90089538
:1016F000CF93DF93EC018E818823B1F02F81388561
:101700004FEF05C04EBD0DB407FEFDCF8EB52F5F68
:101710003F4FC901019782509240A0F338872F8331
:10172000CE010E940B0B1E82DF91CF910895DF92B4
:10173000EF92FF920F931F93CF93DF93EC01D62E7E
:1017400079018A010E94780BCE010E94050BCE011F
:101750006CE271E00E94B40A8D2D80648EBD0DB4E0
:1017600007FEFDCF8EB528E130E0D801C701022E7B
:1017700004C0B695A795979587950A94D2F78EBD24
:101780000DB407FEFDCF8EB5285030408FEF283FB7
:10179000380759F7DD2011F485E906C088E0D8162E
:1017A00011F487E801C08FEF8EBD0DB407FEFDCFA9
:1017B0008EB590E02FEF2EBD0DB407FEFDCF8EB598
:1017C00087FF02C09150B9F78A87DF91CF911F91AF
:1017D0000F91FF90EF90DF900895CF92DF92EF92FC
:1017E000FF920F931F93CF93DF93EC017A018B014C
:1017F0006901411551056105710511F482E137C098
:101800008B85833039F099E0EE0CFF1C001F111F0F
:101810009A95D1F7CE0168E1A80197010E94970B34
:10182000882311F084E023C0CE016EEFA6010E9450
:10183000110B8823E9F0CE0168E572E00E94B40A3A
:10184000882311F485E113C0CE016DE020E030E083
:1018500040E050E00E94970B882341F48FEF8EBD4B
:101860000DB407FEFDCF8EB5882379F084E18D831A
:10187000CE010E940B0B80E0DF91CF911F910F9161
:10188000FF90EF90DF90CF900895CE010E940B0B58
:1018900081E0F2CF8F929F92AF92BF92CF92DF9270
:1018A000EF92FF920F931F93CF93DF93EC015A01B6
:1018B0006B0149010115110509F470C0C801820FBF
:1018C000931F8150924008F064C08E81882371F08C
:1018D00088819981AA81BB81481759076A077B07CC
:1018E00029F48F8198858816990610F5A882B98207
:1018F000CA82DB828B85833039F059E0AA0CBB1C8D
:10190000CC1CDD1C5A95D1F7CE0161E1A6019501F1
:101910000E94970B882319F083E08D833AC0CE0193
:101920000E944B0B8823A9F118861F8281E08E83C9
:101930008F8198852FEF06C02EBD0DB407FEFDCF19
:101940003EB5019688159905B8F398878F8320E0F6
:1019500030E09FEF0BC09EBD0DB407FEFDCF8EB5EE
:10196000F701E20FF31F80832F5F3F4F20173107EE
:1019700090F32F813885200F311F38872F83898579
:10198000882319F02050324048F0CE010E94780B95
:1019900005C0CE010E940B0B80E001C081E0DF9109
:1019A000CF911F910F91FF90EF90DF90CF90BF905C
:1019B000AF909F908F900895EF92FF920F931F9397
:1019C000790120E030E000E012E00E944A0C1F9113
:1019D0000F91FF90EF900895BF92CF92DF92EF9218
:1019E000FF920F931F93CF93DF93EC01B62E1B86CC
:1019F00019861E821D824C830E9481236B018C817B
:101A000061E00E945924CE010E940B0B0E94EB055D
:101A100083E00E94DA0580E09FEF9EBD0DB407FED3
:101A2000FDCF2EB58F5F8A30C1F7CE010E94050B26
:101A300009C00E9481236C197D09615D774010F017
:101A400081E05EC0CE0160E020E030E040E050E0A8
:101A50000E94970B182F8A87813059F7CE0168E0D2
:101A60002AEA31E040E050E00E94970B82FF02C07A
:101A70001B8711C080E02FEF2EBD0DB407FEFDCFF8
:101A80009EB58F5F8430C1F79A879A3A11F082E051
:101A900037C082E08B878B85823021F0EE24FF24D3
:101AA00087010FC0E12CF12C012D60E4162F09C035
:101AB0000E9481236C197D09615D774010F088E0F8
:101AC0001FC0CE0167E320E030E040E050E00E941C
:101AD000970BCE0169E2A80197010E94970B8A87B4
:101AE000882331F78B85823031F5CE016AE320E01F
:101AF00030E040E050E00E94970B882339F086E008
:101B00008D83CE010E940B0B80E01CC08FEF8EBD39
:101B10000DB407FEFDCF8EB5807C803C11F483E0D0
:101B20008B8780E09FEF9EBD0DB407FEFDCF2EB5E5
:101B30008F5F8330C1F7CE010E940B0BCE016B2D5E
:101B40000E94D60ADF91CF911F910F91FF90EF90E5
:101B5000DF90CF90BF900895CF93DF93EC01DB012E
:101B600080E090E020E2FD01E80FF91F208301965C
:101B70008B309105C1F757E040E021C02E3219F0BB
:101B800086E691E007C05A3019F15AE048E017C0E4
:101B90003217F1F0FC01019634913323C9F7541741
:101BA000B8F02132A8F02F3798F4822F81568A316D
:101BB00008F42052FD01E40FF11D20834F5F2991AD
:101BC0002223E1F690E08C91803219F091E001C07F
:101BD00090E0892FDF91CF9108956F927F928F923D
:101BE0009F92AF92BF92CF92DF92EF92FF920F93AC
:101BF0001F93CF93DF93EC017A018B012D81222378
:101C000009F480C08B899C89AD89BE8984179507AA
:101C1000A607B70708F476C085C0E114F1040105F2
:101C2000110549F41E821F82188619861A861B86A2
:101C30001C861D8665C02A853B854C855D85EB8DA0
:101C4000FC8D858590E00996215030404040504001
:101C500039014A01082E04C09694879477946794BA
:101C60000A94D2F72F5F3F4F4F4F5F4F0894E10820
:101C7000F108010911095701680104C0D694C794FD
:101C8000B794A7948A95D2F70894E11CF11C011D22
:101C9000111DA614B704C804D90428F02115310574
:101CA0004105510549F48F89988DA98DBA8D8E8390
:101CB0009F83A887B98716C0A618B708C808D9088F
:101CC00011C04E815F81688579858B8D9C8D9401D3
:101CD0000E94C7170894A108B108C108D108882339
:101CE00031F410C086E0882E912C8C0E9D1EA1141C
:101CF000B104C104D10429F7EA86FB860C871D874D
:101D000081E001C080E0DF91CF911F910F91FF90A2
:101D1000EF90DF90CF90BF90AF909F908F907F908B
:101D20006F900895223009F078CFE6CFCF93DF93FC
:101D3000EC01462F6E857F85888999890E94AB15B5
:101D4000882319F420E030E00AC08A89282F30E087
:101D500095E0220F331F9A95E1F7215E3A4FC901B2
:101D6000DF91CF9108950F931F93CF93DF938C0151
:101D7000FC0185818823D9F1848187FF35C0C801A2
:101D800061E00E94960EEC01009789F1F8018581CF
:101D9000823040F483899489A589B6898C8F9D8F80
:101DA000AE8FBF8FF8018789908D9B8F8A8F87892F
:101DB000908DA18DB28DCD01AA27BB279D8B8C8BD9
:101DC000E0911D05F0911E05309751F0BE016A5E4D
:101DD0007F4FCE0148961995888D998D9B8B8A8B64
:101DE000F80184818F7784830E944C1501C080E0C4
:101DF000DF91CF911F910F910895CF93DF93EC0165
:101E00000E94B30E882311F01D8281E0DF91CF91F3
:101E100008956F927F928F929F92AF92BF92CF92CE
:101E2000DF92EF92FF920F931F93DF93CF9300D037
:101E30000F92CDB7DEB77C015A016B01DC0115961C
:101E40008C911597813009F08FC014968C9181FF89
:101E50008BC09EC00097A105B10511F481E085C03B
:101E6000F7016284738484849584C701B601A50157
:101E70000E94ED0D882309F477C0D7015B968D9100
:101E80009C915C97A114B104C104D10489F45796C4
:101E90004D915D916D917C915A970E943A188823DB
:101EA00009F462C0F701178A108E118E128E3DC0A0
:101EB000D70116964D915D916D917C9119979E0178
:101EC0002F5F3F4F0E94C717882309F44DC0D701E9
:101ED0005B96ED91FC915C9749815A816B817C8185
:101EE0008789803129F088EF9FEFAFEFBFE004C012
:101EF00088EF9FEFA0E0B0E0481759076A077B071B
:101F0000A0F4CF010E943A18882371F1F7014681AD
:101F1000578160857185838D948D0FEF1FEF2FEFB3
:101F20003FE00E942B178823F9F0D7015396AD921A
:101F3000BD92CD92DC92569714968C91149780683E
:101F400014968C93C7010E94B30E882369F0B601E2
:101F5000A5016A147B048C049D0410F4B401A30150
:101F6000C7010E94ED0D01C080E00F900F900F900F
:101F70000F90CF91DF911F910F91FF90EF90DF9025
:101F8000CF90BF90AF909F908F907F906F9008956B
:101F9000F70183899489A589B68984179507A607CF
:101FA000B70708F057CFE0CF2F923F924F925F9242
:101FB0006F927F928F929F92AF92BF92CF92DF9259
:101FC000EF92FF920F931F93CF93DF93EC012A01BF
:101FD0008D81882309F4C6C08C8180FFC3C0D8C01E
:101FE00025014E185F084B0176E0272E312C2C0E70
:101FF0003D1E3201B1C02A853B854C855D856FEF62
:10200000A62E61E0B62EA222B3228D8179018A012B
:1020100099E016950795F794E7949A95D1F7EB8D8B
:10202000FC8D823049F4428D538D648D758D4E0D3B
:102030005F1D601F711F3FC0D480DA94DE20A114A1
:10204000B104D9F4DD20C9F421153105410551054C
:1020500049F48F89988DA98DBA8D8E839F83A88727
:10206000B9870BC04E815F8168857985CF01910169
:102070000E94C717882309F475C0EB8DFC8D4E8133
:102080005F8168857985425050406040704005848A
:1020900004C0440F551F661F771F0A94D2F7868528
:1020A0009785A089B189480F591F6A1F7B1F4D0D65
:1020B000511D611D711D80E092E08A199B09630129
:1020C0008615970508F46C018C8186FD06C080E0BA
:1020D000C81682E0D80609F073C08091EA03909197
:1020E000EB03A091EC03B091ED03481759076A0781
:1020F0007B0709F465C080911F0790912007950127
:10210000860174010E944A0C882361F18C0C9D1C8D
:1021100012C09501215E3A4FA9014C0D5D1DD401FD
:10212000F90102C081918D93E417F507D9F7E21BFD
:10213000F30B8E0E9F1E960140E050E08A859B8532
:10214000AC85BD85820F931FA41FB51F8A879B870F
:10215000AC87BD876C187D086114710409F04BCF02
:10216000A20102C04FEF5FEFCA01DF91CF911F9133
:102170000F91FF90EF90DF90CF90BF90AF909F9026
:102180008F907F906F905F904F903F902F90089529
:10219000AB88BC88CD88DE88EA84FB840C851D85ED
:1021A0009A0140E050E0D601C5018E199F09A00BAD
:1021B000B10B82179307A407B50708F411CF13CF0B
:1021C000CB01BA0140E00E94AB15882309F0A1CFF2
:1021D000C9CFCF92DF92EF92FF920F931F93DF93BD
:1021E000CF930F92CDB7DEB76C01FC0185818230B1
:1021F00070F0E284F38404851585C601BE016F5F2B
:102200007F4F41E050E00E94D40F019769F020E039
:1022100030E0C9010F90CF91DF911F910F91FF9096
:10222000EF90DF90CF900895F60182859385A48585
:10223000B5854F96A11DB11D82879387A487B58769
:10224000F5E016950795F794E794FA95D1F78E2D5A
:102250008F70282F30E0E5E0220F331FEA95E1F779
:10226000215E3A4FD6CF0F931F93CF93DF93EC01AC
:102270008B018D81882309F041C0FB018789803162
:10228000B1F482E08D831F8A188E198E1A8E808D8C
:10229000918DA0E0B0E045E0880F991FAA1FBB1FF9
:1022A0004A95D1F78B8B9C8BAD8BBE8B15C0803242
:1022B00029F583E08D83FB01428D538D648D758DEF
:1022C0004F8B588F698F7A8F9E012D5E3F4FC801CB
:1022D0000E949318882391F01C8F0B8F81E08C83D0
:1022E0001E821F82188619861A861B861C861D86EA
:1022F0001E861F86188A198A1A8A01C080E0DF911B
:10230000CF911F910F9108951F93CF93DF93EC010D
:10231000142FE62FF0E075E0EE0FFF1F7A95E1F73E
:10232000E15EFA4F8385817121F0842F827409F078
:1023300054C06A8B8091EA039091EB03A091EC0367
:10234000B091ED038E879F87A88BB98B848995897F
:10235000A0E0B0E0BC0155274427828D938DA0E01A
:10236000B0E0482B592B6A2B7B2B4F8B588F698FF2
:102370007A8F838590E088719070009751F4848DF6
:10238000958DA68DB78D8B8B9C8BAD8BBE8B81E095
:102390000CC0409711F59E012D5E3F4F8B8D9C8D9B
:1023A0000E9493188823C9F084E08D83812F8F7059
:1023B0008C831E821F82188619861A861B861C86AD
:1023C0001D8616FD02C081E009C0CE0140E050E04C
:1023D00060E070E00E94090F01C080E0DF91CF91C2
:1023E0001F910895CF93DF93EC019C012A5F3F4F2B
:1023F0008B8D9C8D41E050E060E070E00E940219FE
:102400008823A1F08F89988DA98DBA8D0097A10599
:10241000B10559F48E819F81A885B9858F8B988FDE
:10242000A98FBA8F8C8180688C8381E0DF91CF91F6
:1024300008952F923F924F925F927F928F929F9238
:10244000AF92BF92CF92DF92EF92FF920F931F93C2
:10245000DF93CF9300D000D0CDB7DEB76C01162F3D
:10246000072F5E834D83DC0115968C911597813083
:1024700009F070C114968C9181FF6CC18EC1F60178
:10248000438954896589768982859385A485B58534
:1024900084179507A607B70731F0C6010E94ED0D16
:1024A000882309F457C1812F902F9C0129012D8089
:1024B0003E8017C1D6015B96ED91FC915C97DA01E5
:1024C000C90119E0B695A795979587951A95D1F703
:1024D00074807A9478227FEF872E71E0972E822283
:1024E0009322772009F04EC08114910409F04AC06C
:1024F000D60116964D915D916D917C91199741157C
:1025000051056105710581F457968D919D910D904E
:10251000BC91A02D0097A105B10549F1F601868374
:102520009783A087B1872EC0CF019E012F5F3F4FB9
:102530000E94C717882309F414C129813A814B816D
:102540005C81D6015B96ED91FC915C978789803127
:1025500029F088EF9FEFAFEFBFE004C088EF9FEF57
:10256000A0E0B0E0281739074A075B0730F0C60142
:102570000E94F211882331F4EDC0F60126833783DF
:102580004087518780E092E08819990951018215AE
:10259000930508F45C01D6015B96ED91FC915C9784
:1025A0001696ED90FD900D911C9119978EEF9FEF6F
:1025B000AFEFBFEFE80EF91E0A1F1B1F058404C012
:1025C000EE0CFF1C001F111F0A94D2F78685978519
:1025D000A089B189E80EF91E0A1F1B1FE70CF11C28
:1025E000011D111D90E0A91692E0B90651F58091E8
:1025F000EA039091EB03A091EC03B091ED038E15EB
:102600009F05A007B10761F48FEF9FEFAFEFBFEF1A
:102610008093EA039093EB03A093EC03B093ED0354
:1026200080911F0790912007B801A70192010E9495
:10263000ED0B882309F48EC0A0E0B2E04A0E5B1EC9
:102640003EC08114910409F5F60122853385448545
:10265000558583899489A589B689281739074A073A
:102660005B0798F00E944C15882309F473C0E09230
:10267000EA03F092EB030093EC031093ED038091D7
:10268000210781608093210708C0C801B70141E09C
:102690000E94AB15882309F45DC09401215E3A4F76
:1026A000A9014A0D5B1DD201F90102C08D918193F0
:1026B000E417F507D9F7E21BF30B4E0E5F1E2A183D
:1026C0003B08950140E050E0F60182859385A485A2
:1026D000B585820F931FA41FB51F82879387A48798
:1026E000B587D6011A962D913D914D915C911D971C
:1026F0002114310409F0DECE53968D919D910D90F9
:10270000BC91A02D82179307A407B50748F4F601E2
:10271000238B348B458B568B84818068848311C0D6
:1027200080911D0590911E05892B59F08D819E8108
:10273000892B39F0D60114968C91149780681496E1
:102740008C93F601848183FF0EC0C6010E94B30EF4
:10275000882349F481E090E0D60113969C938E93F0
:1027600012971E821D828D819E8126960FB6F89447
:10277000DEBF0FBECDBFCF91DF911F910F91FF90B4
:10278000EF90DF90CF90BF90AF909F908F907F9011
:102790005F904F903F902F90089582FD70CE83CE32
:1027A000DF93CF930F92CDB7DEB76983BE016F5F22
:1027B0007F4F41E050E00E9419120F90CF91DF91BE
:1027C0000895DF92EF92FF920F931F93CF93DF93C1
:1027D000EC010E94F211882309F44EC0EB8DFC8DB0
:1027E000EE80FF80088519858EEF9FEFAFEFBFEF7A
:1027F000E80EF91E0A1F1B1F058404C0EE0CFF1C07
:10280000001F111F0A94D2F786859785A089B18988
:10281000E80EF91E0A1F1B1FD4800894E108F10876
:10282000010911090BC0C801B7016D0D711D811D92
:10283000911D0E9487158823F9F0DA94DD2099F71D
:10284000EB8DFC8D20E032E040E050E0058404C0D8
:10285000220F331F441F551F0A94D2F78B899C897E
:10286000AD89BE89820F931FA41FB51F8B8B9C8BD4
:10287000AD8BBE8B81E001C080E0DF91CF911F91D5
:102880000F91FF90EF90DF9008956F927F928F925B
:102890009F92AF92BF92CF92DF92EF92FF920F93EF
:1028A0001F93DF93CF93CDB7DEB72B970FB6F89476
:1028B000DEBF0FBECDBF5C016B01822EDC01159621
:1028C0008C91882309F0D2C0CA018E010F5F1F4F7F
:1028D000B8010E94AC0D882309F4C8C0F601838DAD
:1028E000948DD5015C969C938E935B97168217828C
:1028F00010861186D6011A961D921D921D921C9269
:102900001D979924380141C0C6010E94E910FC01BD
:10291000009709F4ABC085E016950795F794E79406
:102920008A95D1F71E2D1F708081882311F0853E76
:10293000D1F4992091F4D50152961C93529720918D
:10294000EA033091EB034091EC035091ED031E96A6
:102950002D933D934D935C9351978081882399F4F7
:102960009924939421C0C301BF014BE050E00E9421
:102970008001009751F4882D8073803309F476C06C
:10298000C501612F6FC099249394F601E284F3840A
:102990000485158583899489A589B689E816F90681
:1029A0000A071B0708F4B0CF882D8271823109F025
:1029B0005DC0992041F0C50161E00E94960E8C0136
:1029C000009789F453C0D60115968C91823009F492
:1029D0004DC0C6010E94E113882309F447C0F501E8
:1029E000128A0FE115E080E2D8011D928A95E9F77D
:1029F000D801FE0131968BE001900D928150E1F7F4
:102A0000E0911D05F0911E05309739F0B801625F25
:102A10007F4FC8014096199509C081E298E2F801FC
:102A2000918B808B80E098E097878687D8015096BD
:102A30008D919C91519753969C938E935297599652
:102A40009C938E9358971E968D919C911F975796A5
:102A50009C938E9356970E944C15882339F0C5019C
:102A6000F5016289482D0E94841101C080E02B96F7
:102A70000FB6F894DEBF0FBECDBFCF91DF911F918F
:102A80000F91FF90EF90DF90CF90BF90AF909F900D
:102A90008F907F906F90089580912107882399F1FE
:102AA0004091EA035091EB036091EC037091ED03C8
:102AB00080911F07909120072FE135E00E94ED0BD8
:102AC000882319F140912207509123076091240730
:102AD00070912507411551056105710591F08091AF
:102AE0001F07909120072FE135E00E94ED0B88230E
:102AF00061F010922207109223071092240710927F
:102B000025071092210781E0089580E00895EF9253
:102B1000FF920F931F937B018C010E944C15882319
:102B2000A9F0EFE1F5E0119287E0EF31F807D9F76E
:102B3000E092EA03F092EB030093EC031093ED03B1
:102B40008091210781608093210781E01F910F917F
:102B5000FF90EF900895DF92EF92FF920F931F93F3
:102B60007B018C01D42E8091EA039091EB03A0911C
:102B7000EC03B091ED038E159F05A007B107C1F0DE
:102B80000E944C158823D9F080911F07909120074F
:102B9000B801A7012FE135E00E94DC0C882379F011
:102BA000E092EA03F092EB030093EC031093ED0341
:102BB000809121078D298093210781E001C080E069
:102BC0001F910F91FF90EF90DF9008958F929F9249
:102BD000AF92BF92CF92DF92EF92FF920F931F932B
:102BE000CF93DF936C01142F7093200760931F071E
:102BF000442321F488249924540140C0453008F02E
:102C00001CC160E070E080E090E040E00E94AB1505
:102C1000882309F412C1C12FD0E02197FE0174E08E
:102C2000EE0FFF1F7A95E1F7E15EFA4FE254FE4F97
:102C30008081EE5BF14090E08F779070892B09F0F6
:102C4000FCC0E653FE4F80819181A281B38184361E
:102C50009105A105B10508F4F0C064E0CC0FDD1FBB
:102C60006A95E1F7CB51D94F88809980AA80BB80C3
:102C700081149104A104B10409F4DFC0C501B401B9
:102C800040E00E94AB15882309F4D7C080912A0543
:102C900090912B058050924009F0CFC020912F05D4
:102CA000222309F4CAC080912D0590912E05892B0D
:102CB00009F4C3C080912C05882309F4BEC0F60135
:102CC000228B80912C058483158661E070E007C01B
:102CD0004F5FF60145874150483008F0AEC0F6011D
:102CE0004585848190E09B01042E02C0220F331F92
:102CF0000A94E2F78217930759F72091350530912E
:102D000036052115310519F040E050E008C020914A
:102D10004305309144054091450550914605F60123
:102D20002583368347835087E0902D05F0902E054C
:102D300000E010E0E80CF91C0A1D1B1DE38AF48A70
:102D4000058B168B8091300590913105918F808F86
:102D500060912F0570E080E090E00E9404326E0DDB
:102D60007F1D801F911FF601628F738F848F958F57
:102D7000209130053091310555E0220F331F5A95CF
:102D8000E1F721503E4F232F3327269540E050E0B6
:102D9000260F371F481F591F26873787408B518BB7
:102DA0008091320590913305009719F0A0E0B0E0D2
:102DB00008C080913F0590914005A0914105B091D8
:102DC000420585017401E21AF30A040B150BA801F0
:102DD0009701280F391F4A1F5B1FF601058404C0A5
:102DE00056954795379527950A94D2F721873287CC
:102DF00043875487253FFFE03F07F0E04F07F0E0AF
:102E00005F0710F48CE006C0255F3F4F4040504004
:102E100028F480E1F601878B81E010C080914B059A
:102E200090914C05A0914D05B0914E05F601828F11
:102E3000938FA48FB58F80E2EECF80E0DF91CF91AA
:102E40001F910F91FF90EF90DF90CF90BF90AF90C8
:102E50009F908F9008954F925F926F927F928F9282
:102E60009F92AF92BF92CF92DF92EF92FF920F9319
:102E70001F93CF93DF93EC016A017B012801390195
:102E8000423051056105710508F46FC089859A8546
:102E9000AB85BC850196A11DB11D84179507A607BA
:102EA000B70708F462C02B893C894D895E898F89F8
:102EB000803129F499278F2D7E2D6D2D09C0C701F2
:102EC000B60117E096958795779567951A95D1F78E
:102ED0004B015C01820E931EA41EB51E8091EA0375
:102EE0009091EB03A091EC03B091ED038816990645
:102EF000AA06BB0639F0C501B40140E00E94AB153B
:102F0000882399F18F89803149F4F601F070EE0F32
:102F1000FF1FE15EFA4F518240820DC0F601EF774C
:102F2000F070EE0FFF1FEE0FFF1FE15EFA4F4082C1
:102F30005182628273828091210781608093210790
:102F40008A89823080F08D819E81AF81B885880E1C
:102F5000991EAA1EBB1E8092220790922307A09260
:102F60002407B092250781E001C080E0DF91CF9176
:102F70001F910F91FF90EF90DF90CF90BF90AF9097
:102F80009F908F907F906F905F904F900895CF9219
:102F9000DF92EF92FF920F931F93CF93DF93EC0199
:102FA0007A018B01690189859A85AB85BC8501967B
:102FB000A11DB11D84179507A607B70708F450C0D7
:102FC0002B893C894D895E898F89803129F4992725
:102FD000812F702F6F2D09C0C801B701E7E09695CA
:102FE000879577956795EA95D1F7260F371F481F84
:102FF000591F8091EA039091EB03A091EC03B091EB
:10300000ED03281739074A075B0739F0CA01B901F0
:1030100040E00E94AB15882319F18F89803159F463
:10302000F701F070EE0FFF1FE15EFA4F8081918192
:10303000A0E0B0E00EC0F701EF77F070EE0FFF1FD9
:10304000EE0FFF1FE15EFA4F80819181A281B38173
:10305000BF70F60180839183A283B38381E001C0B6
:1030600080E0DF91CF911F910F91FF90EF90DF9063
:10307000CF900895AF92BF92CF92DF92EF92FF92DE
:103080000F931F93DF93CF9300D00F92CDB7DEB78E
:103090006C017A018B0182E090E0A0E0B0E0F601E3
:1030A00080839183A283B3835E010894A11CB11C29
:1030B000C601B801A70195010E94C717882319F11D
:1030C000C601B801A70100E010E020E030E00E9456
:1030D0002B178823C1F0E980FA800B811C81F6014F
:1030E0008789803129F088EF9FEFAFEFBFE004C000
:1030F00088EF9FEFA0E0B0E0E816F9060A071B078B
:10310000B8F281E001C080E00F900F900F900F9017
:10311000CF91DF911F910F91FF90EF90DF90CF90B3
:10312000BF90AF9008954F925F926F927F928F926F
:103130009F92AF92BF92CF92DF92EF92FF920F9346
:103140001F93DF93CF9300D00F92CDB7DEB76C0102
:1031500049835A836B837C833901EE24FF248701E2
:103160002E010894411C511C812CA2E09A2EA12C06
:10317000B12C49815A816B817C81C60192010E94E8
:10318000C717882351F1D501C401F601058404C095
:10319000880F991FAA1FBB1F0A94D2F7E80EF91EC9
:1031A0000A1F1B1F29813A814B815C8187898031ED
:1031B00029F088EF9FEFAFEFBFE004C088EF9FEFEB
:1031C000A0E0B0E0281739074A075B0790F2F30147
:1031D000E082F1820283138381E00F900F900F90C1
:1031E0000F90CF91DF911F910F91FF90EF90DF90A3
:1031F000CF90BF90AF909F908F907F906F905F9097
:103200004F9008952F923F924F925F926F927F92CC
:103210008F929F92AF92BF92CF92DF92EF92FF92E6
:103220000F931F93DF93CF93CDB7DEB72F970FB6D2
:10323000F894DEBF0FBECDBF1C014A875B876C8749
:103240007D873F872E87D9010D911D912D913C914E
:10325000011511052105310549F04801590108946E
:10326000811C911CA11CB11C198610C0FC0180801E
:103270009180A280B38019868A859B85AC85BD85A7
:103280000197A105B10511F491E09987D101199633
:103290008D919D910D90BC91A02D0196A11DB11D08
:1032A0008D839E83AF83B8877501640144245524C0
:1032B00032018E010F5F1F4FF10181859285A38539
:1032C000B485481659066A067B0608F090C08D81C1
:1032D0009E81AF81B8858C159D05AE05BF0550F464
:1032E00082E0882E912CA12CB12CB2E0CB2ED12CD7
:1032F000E12CF12CC101B701A60198010E94C7176A
:10330000882309F474C089819A81AB81BC81A701AB
:1033100096012F5F3F4F4F4F5F4F0097A105B105BB
:1033200019F049015A010DC0281939094A095B09E8
:103330008A859B85AC85BD85281739074A075B07B9
:1033400059F00894411C511C611C711C0894C11C4B
:10335000D11CE11CF11CB0CFC101A601B7010FEFD8
:103360001FEF2FEF3FE00E942B17882399F43FC0F7
:103370002601370108944108510861087108C1010C
:10338000B301A201970186010E942B17882379F1CE
:10339000730162018C149D04AE04BF0448F3AE8532
:1033A000BF854D915D916D917C91411551056105F0
:1033B000710539F0C101950184010E942B17882302
:1033C000B1F0EE85FF8580829182A282B382F98579
:1033D000FF2359F00894811C911CA11CB11CD10140
:1033E0008D929D92AD92BC92139781E001C080E0D6
:1033F0002F960FB6F894DEBF0FBECDBFCF91DF91F1
:103400001F910F91FF90EF90DF90CF90BF90AF9002
:103410009F908F907F906F905F904F903F902F90F4
:10342000089581E080936B076093480710926907C5
:1034300010926A0708952091470730E0809146076F
:10344000281B3109C901089540914607809147071B
:10345000481718F02FEF3FEF0AC0E42FF0E0EA5DC5
:10346000F84F8081282F30E04F5F40934607C90115
:103470000895E091460780914707E81718F0EFEFAD
:10348000FFEF06C0F0E0EA5DF84F8081E82FF0E042
:10349000CF010895089510926F0710926E0788EE7D
:1034A00093E0A0E0B0E08093700790937107A09341
:1034B0007207B093730780E194E090936D07809357
:1034C0006C070895CF92DF92EF92FF920F931F93B4
:1034D000CF93DF937C016B018A0180916B07882376
:1034E000A1F0C0E0D0E00DC0D701ED91FC91D60174
:1034F000AC0FBD1F0190F081E02DC7016C911995B3
:103500002196C017D10780F304C0CB01642F0E941D
:10351000941BC801DF91CF911F910F91FF90EF9005
:10352000DF90CF900895DF93CF930F92CDB7DEB7A2
:10353000FC01698380916B078823C9F080916A0739
:10354000803238F081E090E09383828320E030E0A5
:1035500015C080916907E82FF0E0E75BF84F99818B
:1035600090838F5F8093690780936A0705C0CE01BF
:10357000019661E00E94941B21E030E0C9010F90A8
:10358000CF91DF9108950F93062F8091480769E44A
:1035900077E040916A0721E00E943F1B1092690783
:1035A00010926A0710926B070F91089561E00E94D4
:1035B000C31A0895413208F040E2862F66E277E0B0
:1035C0000E94F61A1092460780934707089521E05B
:1035D0000E94DA1A08951092460710924707109237
:1035E000690710926A070E94441D0895382F4132DE
:1035F00010F040E042C0809178078823E1F791E025
:103600009093780720937A078FEF8093E5071092C5
:10361000A00741504093A1074F5F90937907809195
:103620007907330F832B8093790780917B07813053
:1036300041F410927B07809179078093BB0085EC61
:1036400001C085EE8093BC00809178078130E1F362
:103650008091A007841710F44091A00720E030E08B
:103660000AC0FB01E20FF31FD901A058B84F8C919B
:1036700080832F5F3F4F2417A0F3842F08950F936B
:103680001F93582F122F413210F081E04AC08091D1
:1036900078078823E1F782E08093780700937A0720
:1036A0008FEF8093E5071092A0074093A107A0E851
:1036B000B7E0FB0102C081918D938E2F861B84178A
:1036C000D0F31092790780917907550F852B80935D
:1036D000790780917B07813041F410927B078091BC
:1036E00079078093BB0085EC01C085EE8093BC0018
:1036F000112321F0809178078230E1F38091E50772
:103700008F3F11F480E00DC08091E507803211F405
:1037100082E007C08091E507803311F084E001C0AA
:1037200083E01F910F910895482F613210F081E0DE
:10373000089580917807843011F082E008956093B5
:10374000C307A2EAB7E0842F9C01F90102C081916E
:103750008D938E2F841B8617D0F380E008951F92DF
:103760000F920FB60F920BB60F9211242F933F9327
:103770004F935F936F937F938F939F93AF93BF9379
:10378000EF93FF938091B90090E0887F907080362E
:10379000910509F4F2C081369105CCF58832910586
:1037A00009F47BC089329105B4F48031910509F4A4
:1037B0006FC0813191053CF4009709F447C1089727
:1037C00009F04FC165C08831910509F466C0809742
:1037D00009F047C182C08034910509F4A4C0813446
:1037E000910544F48033910509F482C0C89709F02B
:1037F00038C189C08035910509F489C088359105A3
:1038000009F496C08834910509F02BC1AEC08839FF
:10381000910509F413C189399105ECF488379105B4
:1038200009F4ABC0893791054CF48836910509F449
:10383000A4C08037910509F014C19FC08838910554
:1038400009F4FCC08039910509F49DC080389105C8
:1038500009F007C198C0803B910509F4C6C0813BBF
:1038600091054CF4803A910509F49FC0883A91057E
:1038700009F0F7C0BAC0803C910509F4E3C0883C68
:10388000910509F4DFC0883B910509F0EAC0C2C088
:10389000809179078093BB00CFC09091A007809161
:1038A000A107981768F49091A007E92FF0E0E0587D
:1038B000F84F80818093BB009F5F9093A007BCC0AE
:1038C00080917A07882309F44BC085ED8093BC0072
:1038D0008091BC0084FDFCCFC2C080E28093E507EC
:1038E00085ED8093BC008091BC0084FDFCCFB7C007
:1038F00080E38093E50785ED8093BC008091BC0058
:1039000084FDFCCFACC088E38093E5079BC0809129
:10391000A0079091BB00E82FF0E0E058F84F9083AB
:103920008F5F8093A0079091A0078091A10782C02C
:103930008091A0079091BB00E82FF0E0E058F84F8D
:1039400090838F5F8093A00780917A07882341F04E
:1039500085ED8093BC008091BC0084FDFCCF7FC0CE
:1039600081E080937B0784EA6EC085ED8093BC0084
:103970008091BC0084FDFCCF72C083E08093780707
:103980001092E40759C08091E407803208F056C0D5
:103990008091E4079091BB00E82FF0E0EC53F84FE2
:1039A00090838F5F8093E40747C08091E407803263
:1039B00030F4E091E407F0E0EC53F84F108285ED2D
:1039C0008093BC008091BC0084FDFCCF10927807EE
:1039D0006091E407E0917E07F0917F0784EC97E027
:1039E00070E019951092E4072DC084E08093780769
:1039F0001092C2071092C307E0917C07F0917D07F7
:103A000019958091C307882329F481E08093C30727
:103A10001092A2079091C207E92FF0E0EE55F84FFF
:103A200080818093BB009F5F9093C2079091C207F3
:103A30008091C307981710F485EC01C085E8809346
:103A4000BC000FC085EC8093BC0009C01092E50754
:103A500085ED8093BC008091BC0084FDFCCF10926A
:103A60007807FF91EF91BF91AF919F918F917F91D7
:103A70006F915F914F913F912F910F900BBE0F90DF
:103A80000FBE0F901F9018951092780781E08093D9
:103A90007A0710927B0784E161E00E940C2585E1A2
:103AA00061E00E940C25E9EBF0E080818E7F80834D
:103AB00080818D7F808388E48093B80085E4809343
:103AC000BC00089508950F931F93CB01BA01A9017B
:103AD00098010E94E72E2EEA3CED42E45EE30E944C
:103AE00099309B01AC0160E070E080E89FE30E94A8
:103AF0007E2E20E03AE24DE257E40E9436301F91DC
:103B00000F910895CF92DF92EF92FF920F931F9340
:103B10006A017B01C901B80120E03AE24DE257ECAD
:103B20000E94E72E20E030E040E85FE30E947F2E15
:103B300026EF38E248EA50E40E9499309B01AC013C
:103B4000C701B6010E94E72E1F910F91FF90EF90E1
:103B5000DF90CF900895CF92DF92EF92FF920F9374
:103B60001F937C016B01042F8CE697E067E770E000
:103B70000E94111A112707FD10958CE697E0B601F7
:103B8000A8010E94621A8CE697E00E94D61A2AE4E5
:103B900030E0E20EF31EF701808390E0882309F401
:103BA00091E0892F1F910F91FF90EF90DF90CF90C0
:103BB00008951F93DF93CF930F920F92CDB7DEB787
:103BC0009C01613039F062308CF0623039F0633042
:103BD00069F408C084E78A8318E00BC084EB8A8309
:103BE0001EE007C084EF8A831AE103C084E38A835E
:103BF00015E084EF8983C901BE016F5F7F4F42E00A
:103C00000E94AB1D8111812F0F900F90CF91DF91FA
:103C10001F910895DF93CF930F920F92CDB7DEB728
:103C200024EF29832EE22A83BE016F5F7F4F42E09B
:103C30000E94AB1D811185E00F900F90CF91DF9115
:103C40000895FF920F931F93CF93DF938C01EB01A5
:103C5000F42E8CE697E067E770E00E94111A8CE67C
:103C600097E068810E94931A8CE697E00E94D61A2A
:103C7000065B1F4FF8018083882311F080E020C08D
:103C80000F2D112707FD10958CE697E067E770E090
:103C9000A8010E94E71A8CE697E00E941B1A801781
:103CA0009107C9F71C2FCE01EC0105C08CE697E007
:103CB0000E94241A89939E01211B2F15BCF381E0D9
:103CC000DF91CF911F910F91FF9008952F923F9216
:103CD0004F925F926F927F928F929F92AF92BF921C
:103CE000CF92DF92EF92FF920F931F93DF93CF93C8
:103CF000CDB7DEB728970FB6F894DEBF0FBECDBFA5
:103D00009E838D8378876F838A0186EF89838D8177
:103D10009E81BE016F5F7F4F43E00E94211E8C8316
:103D2000882309F4D7C0F801608171818281938171
:103D300020E030E048EC51E40E947E2E3B014C0133
:103D4000A40193010E9436307B018C01698170E0EF
:103D5000882777FD8095982F0E94822F20E030E001
:103D600040E853E40E9436305B016C016A8170E0E8
:103D7000882777FD8095982F0E94822F9B01AC01A8
:103D8000C601B5010E947F2E5B016C016B8170E062
:103D9000882777FD8095982F0E94822F20E030E0C1
:103DA00040E85BE30E9436309B01AC01C601B501DF
:103DB0000E947F2E1B012C01C801B701ED81FE81FD
:103DC00026A537A540A951A90E9436305B016C0198
:103DD000C401B301ED81FE8122A533A544A555A5FB
:103DE0000E9436309B01AC01C601B5010E947F2EB6
:103DF000ED81FE8126A137A140A551A50E947F2E0D
:103E00009B01AC01C201B1010E947E2E5B016C01DD
:103E1000C801B701ED81FE8122AD33AD44AD55AD92
:103E20000E9436307B018C01C401B301ED81FE811B
:103E300026A937A940AD51AD0E9436309B01AC0197
:103E4000C801B7010E947F2EED81FE8122A933A90E
:103E500044A955A90E947F2E9B01AC01C601B50162
:103E60000E94E72E7B018C01A80197010E94363049
:103E70009B01AC01CA012D813E812A5B3F4F3E83ED
:103E80002D83F90120813181428153810E94363096
:103E90005B016C01C801B701ED81FE815291429135
:103EA00032912291FE83ED830E9436309B01AC015A
:103EB000C601B5010E947F2EED81FE815291429193
:103EC000329122910E947F2EEF81F8856083718369
:103ED000828393838C8128960FB6F894DEBF0FBE41
:103EE000CDBFCF91DF911F910F91FF90EF90DF90A9
:103EF000CF90BF90AF909F908F907F906F905F908A
:103F00004F903F902F9008959F92AF92BF92CF9283
:103F1000DF92EF92FF920F931F93DF93CF930F9255
:103F20000F92CDB7DEB76C015B0186EF8983C601C6
:103F3000BE016F5F7F4F42E00E94211E982E8823B2
:103F400009F449C0698170E0882777FD8095982F32
:103F50000E94822F20E030E040E853E40E94363097
:103F60007B018C016A8170E0882777FD8095982F0E
:103F70000E94822F9B01AC01C801B7010E947F2ED5
:103F8000F601228D338D448D558D0E947E2EF601D3
:103F900026893789408D518D0E9436307B018C01F6
:103FA000F60122A133A144A155A10E947F2E9B01BD
:103FB000AC01F601668D778D80A191A10E94E72E5C
:103FC0009B01AC01C801B7010E947F2EF5016083FF
:103FD000718382839383892D0F900F90CF91DF910E
:103FE0001F910F91FF90EF90DF90CF90BF90AF9017
:103FF0009F9008950F931F93DF93CF930F920F928B
:10400000CDB7DEB78A016983BE016F5F7F4F42E0A3
:104010000E94211E882359F0998180E02A8130E096
:10402000822B932BF8019183808381E004C0F801F7
:104030001182108280E00F900F90CF91DF911F913D
:104040000F9108950F931F93DF93CF930F920F92C9
:10405000CDB7DEB78A016983BE016F5F7F4F42E053
:104060000E94211E882359F0998180E02A8130E046
:10407000822B932BF8019183808381E004C0F801A7
:104080001182108280E00F900F90CF91DF911F91ED
:104090000F9108956F927F928F929F92AF92BF92ED
:1040A000CF92DF92EF92FF920F931F93CF93DF9304
:1040B000EC018CE697E00E94EB1ACE016AEAAE01B1
:1040C0000E942220882309F43BC1AE014E5F5F4F5E
:1040D000CE016CEA0E942220882309F431C1AE018E
:1040E0004C5F5F4FCE016EEA0E942220882309F4C4
:1040F00027C1AE01405F5F4FCE0160EB0E94FA1F07
:10410000882309F41DC1AE014E5E5F4FCE0162EB04
:104110000E94FA1F882309F413C1AE014C5E5F4F61
:10412000CE0164EB0E94FA1F882309F409C1AE0195
:104130004A5F5F4FCE0166EB0E942220882309F47C
:10414000FFC0AE01485F5F4FCE0168EB0E942220A6
:10415000882309F4F5C0AE01465F5F4FCE016AEBDC
:104160000E942220882309F4EBC0AE01445F5F4F18
:10417000CE016CEB0E942220882309F4E1C0AE013D
:10418000425F5F4FCE016EEB0E942220882309F42C
:10419000D7C06C817D81882777FD8095982F0E94FC
:1041A000822F20E030E040EA5BE30E9436303B01A2
:1041B0004C016889798980E090E00E94802F2FE689
:1041C00032E143E053E30E9436307B018C016E8183
:1041D0007F81882777FD8095982F0E94822F20E08D
:1041E00030E048EC57E30E9436305B016C016A898D
:1041F0007B8980E090E00E94802F2DEC3CEC4CE429
:1042000054E30E9436306E8B7F8B888F998F6C8938
:104210007D8980E090E00E94802F6A8F7B8F8C8F59
:104220009D8F6C857D85882777FD8095982F0E94CE
:10423000822F2AE037ED43EA5DE30E9436306E8F2D
:104240007F8F88A399A36E857F85882777FD8095CA
:10425000982F0E94822F20E030E040E253E40E9439
:10426000E72E6AA37BA38CA39DA36881798188270D
:1042700077FD8095982F0E94822F6EA37FA388A739
:1042800099A76A817B81882777FD8095982F0E9466
:10429000822F20E030E040EA5CE30E9436306AA7DB
:1042A0007BA78CA79DA768857985882777FD809552
:1042B000982F0E94822F20E030E048E45AE30E94C9
:1042C00036306EA77FA788AB99ABC801B70120E055
:1042D00030E040E057E40E9436306AAB7BAB8CABF9
:1042E0009DABC801B701A40193010E9436306EABAB
:1042F0007FAB88AF99AFC801B701A60195010E94B5
:1043000036306AAF7BAF8CAF9DAFEE968CEE91E509
:10431000A7E1B0E489939993A993B99380E394E3D7
:10432000AEE7BFE389939993A993B99380E097E5AA
:10433000A4E9B6E388839983AA83BB8381E001C0A3
:1043400080E0DF91CF911F910F91FF90EF90DF9070
:10435000CF90BF90AF909F908F907F906F90089577
:104360001F920F920FB60F920BB60F9211242F933C
:104370003F934F935F936F937F938F939F93EF93AD
:10438000FF934091410850914208209128013091BB
:10439000290160913D0870913E08809143081FC03B
:1043A000260F371F952F917056954F5F9817B9F0CC
:1043B000992321F080912001806C04C0809120011C
:1043C0008F73806880932001309329012093280106
:1043D0009093430850934208409341083BC04930B2
:1043E000F8F2493039F48AE0809341088091200145
:1043F000806C28C080914408E09145088E1769F4CC
:1044000010924108809120018F7380932001809148
:1044100073008D7F809373001DC081E080934108FD
:10442000EF5FE43408F0E0E0E0934508F0E0EA5B99
:10443000F74F8081809342081092430880912001B9
:104440008F73806880932001260F371F30932901D6
:1044500020932801FF91EF919F918F917F916F9110
:104460005F914F913F912F910F900BBE0F900FBE18
:104470000F901F9018951F920F920FB60F920BB6C8
:104480000F9211241F932F933F934F935F936F933A
:104490007F938F939F93AF93BF93EF93FF9320915D
:1044A00026013091270190913908992341F080919C
:1044B00021018F7B809321011092390808C08091DF
:1044C000210180648093210180E8809339087091F4
:1044D0003808772331F5992309F06CC080913B08A7
:1044E00090913C08820F931F90932B0180932A0197
:1044F00084E08ABB80917300846080937300809114
:104500003D0890913E08280F391F96958795280FF2
:10451000391F3093400820933F0881E0809338088A
:1045200049C040913F085091400810913908E091EE
:104530003D08F0913E0860913A08AA27BB27AE1BC0
:10454000BF0BC901841B950B97FD2CC06695612B91
:104550007F5F8A0F9B1F793018F44E0F5F1FF4CFD7
:1045600060933A08809173008B7F809373009091E1
:10457000E7079F5F903508F090E08091E607981775
:1045800039F0E92FF0E0E851F84F60839093E707A6
:10459000809121018F7B8093210110923908109224
:1045A000380808C060933A085093400840933F0889
:1045B00070933808FF91EF91BF91AF919F918F91C8
:1045C0007F916F915F914F913F912F911F910F902C
:1045D0000BBE0F900FBE0F901F9018951F920F9259
:1045E0000FB60F920BB60F9211242F938F939F93B8
:1045F000EF93FF93809173008B7F80937300809182
:1046000021018F7B80932101909138088091390896
:10461000805820913A0803C02695282B9F5F993037
:10462000D8F320933A089091E7079F5F903508F000
:1046300090E08091E607981739F0E92FF0E0E85113
:10464000F84F20839093E70710923808809121015A
:104650008F7B8093210110923908FF91EF919F91F8
:104660008F912F910F900BBE0F900FBE0F901F9048
:1046700018951F920F920FB60F9211242F933F930C
:104680008F939F93AF93BF9380919A0890919B08CB
:10469000A0919C08B0919D0830919E080196A11DA3
:1046A000B11D232F2D5F2D3720F02D570196A11D11
:1046B000B11D20939E0880939A0890939B08A09325
:1046C0009C08B0939D088091960890919708A091BE
:1046D0009808B09199080196A11DB11D8093960884
:1046E00090939708A0939808B0939908BF91AF91C1
:1046F0009F918F913F912F910F900FBE0F901F9020
:1047000018958FB7F89420919A0830919B084091A2
:104710009C0850919D088FBFB901CA0108957894F3
:1047200084B5826084BD84B5816084BD85B58260B6
:1047300085BD85B5816085BDEEE6F0E08081816054
:104740008083E1E8F0E01082808182608083808154
:1047500081608083E0E8F0E0808181608083E1EB2C
:10476000F0E0808184608083E0EBF0E08081816014
:104770008083E1E9F0E080818260808380818160D4
:104780008083E0E9F0E0808181608083E1EAF0E00D
:10479000808182608083808181608083E0EAF0E0B4
:1047A000808181608083E1E2F1E0808182608083AA
:1047B000808181608083E0E2F1E08081816080839C
:1047C000EAE7F0E08081846080838081826080837A
:1047D0008081816080838081806880831092C100A5
:1047E0000895EF92FF920F931F93CF93DF937B0176
:1047F0008C013FB7F8948091960890919708A0910A
:104800009808B091990826B5A89B05C02F3F19F0CC
:104810000196A11DB11D3FBFBA2FA92F982F882740
:10482000820F911DA11DB11D52E0880F991FAA1F73
:10483000BB1F5A95D1F7EC0130C00E949C2D3FB7A9
:10484000F8948091960890919708A0919808B0915B
:10485000990826B5A89B05C02F3F19F00196A11D08
:10486000B11D3FBFBA2FA92F982F8827820F911D06
:10487000A11DB11D32E0880F991FAA1FBB1F3A95D9
:10488000D1F78C1B9D0B885E9340B8F20894E10829
:10489000F10801091109C851DC4FE114F1040105C7
:1048A000110559F6DF91CF911F910F91FF90EF9075
:1048B0000895CF93DF93482F50E0CA01865F9D4F44
:1048C000FC0134914C535E4FFA018491882369F1C5
:1048D00090E0880F991FFC01EA58FE4FA591B49112
:1048E000FC01E057FE4FC591D491662351F42FB7D8
:1048F000F8948C91932F909589238C9388818923A8
:104900000BC0623061F42FB7F8948C91932F90957F
:1049100089238C938881832B88832FBF06C09FB700
:10492000F8948C91832B8C939FBFDF91CF91089546
:10493000893009F449C08A30A0F4843051F18530BF
:1049400040F4823079F1833000F5813009F063C0A2
:1049500026C0873079F1883098F5863009F05BC041
:1049600025C08D3009F442C08E3028F48B30B1F16F
:104970008C30C0F52DC0803109F442C0813109F47A
:1049800045C08F3009F047C037C0809180008F77D5
:1049900003C0809180008F7D80938000089584B54E
:1049A0008F7702C084B58F7D84BD08958091B0005B
:1049B0008F7703C08091B0008F7D8093B000089501
:1049C000809190008F7707C0809190008F7D03C009
:1049D00080919000877F8093900008958091A0003F
:1049E0008F7707C08091A0008F7D03C08091A000C9
:1049F000877F8093A0000895809120018F7703C066
:104A0000809120018F7D8093200108958091200165
:104A1000877F809320010895FF920F931F93F62EB6
:104A2000482F50E0CA01805B9D4FFC012491CA01D0
:104A3000865F9D4FFC0114914C535E4FFA01049127
:104A40000023C9F0222319F0822F0E949824E02F1E
:104A5000F0E0EE0FFF1FE057FE4FA591B4919FB716
:104A6000F894FF2021F48C911095812302C08C9141
:104A7000812B8C939FBF1F910F91FF9008950F93EF
:104A80001F93CF93DF93BC018230910510F462E055
:104A900070E0E091DB09F091DC0940E050E0A0E03B
:104AA000B0E024C08081918186179707D0F08617E7
:104AB000970771F482819381109729F013969C9344
:104AC0008E9312972CC09093DC098093DB0927C04A
:104AD0004115510519F08417950718F48D01AC01A3
:104AE000EF01DF01828193819C01F9013097D1F6BA
:104AF00041155105F9F0CA01861B970B84309105C9
:104B000080F48A819B810115110521F0F8019383BE
:104B1000828304C09093DC098093DB09FE01329606
:104B200045C0FE01E80FF91F6193719302979983C5
:104B300088833CC08091D9099091DA09892B41F48E
:104B40008091F0039091F1039093DA098093D90951
:104B50004091F2035091F3034115510541F44DB7D3
:104B60005EB78091EE039091EF03481B590B2091A3
:104B7000D9093091DA0924173507B0F4CA01821B2C
:104B8000930B8617970780F0AB014E5F5F4F84173A
:104B9000950750F0420F531F5093DA094093D909FB
:104BA000F9016193719302C0E0E0F0E0CF01DF9181
:104BB000CF911F910F910895CF93DF939C010097A0
:104BC00009F48FC0EC0122971B821A826091DB09E5
:104BD0007091DC096115710581F488819981820FDA
:104BE000931F2091D9093091DA092817390739F52F
:104BF000D093DA09C093D90974C0DB0140E050E0DA
:104C0000AC17BD0708F1BB83AA83FE012191319146
:104C1000E20FF31FAE17BF0779F48D919C911197A6
:104C2000280F391F2E5F3F4F3983288312968D91AD
:104C30009C9113979B838A834115510571F4D093FE
:104C4000DC09C093DB094DC012968D919C9113979E
:104C5000AD01009711F0DC01D3CFDA011396DC939C
:104C6000CE931297FA0121913191E20FF31FCE17E3
:104C7000DF0769F488819981280F391F2E5F3F4F24
:104C8000FA01318320838A819B8193838283E0E0D0
:104C9000F0E0DB0112968D919C911397009719F02B
:104CA000BC01FD01F6CFAB014E5F5F4FDB018D9183
:104CB0009C91840F951F2091D9093091DA0928170A
:104CC000390779F4309729F41092DC091092DB0946
:104CD00002C013821282425050405093DA0940932E
:104CE000D909DF91CF910895DC015C968C915C9796
:104CF000FD01E80FF11DE35AFF4F20815C968C9176
:104D00005C9790E001968F7390705C968C935C97A3
:104D10005696ED91FC91579720835096ED91FC911A
:104D200051978081806480835B969C915B975C96B1
:104D30008C915C97981739F45296ED91FC915397AA
:104D400080818F7D80830895DF92EF92FF920F9391
:104D50001F93CF93DF93EC017A018B01D22EE88968
:104D6000F98982E08083403081EE580780E068074F
:104D700080E07807A1F060E079E08DE390E0A801A1
:104D800097010E94233221503040404050405695B8
:104D900047953795279580E12030380798F0E889C6
:104DA000F989108260E874E88EE190E0A80197012B
:104DB0000E94233221503040404050405695479544
:104DC00037952795EC85FD853083EE85FF8520831B
:104DD000188EEC89FD89D082EA89FB898081806107
:104DE0008083EA89FB89808188608083EA89FB89E6
:104DF000808180688083EA89FB8980818F7D8083C0
:104E0000DF91CF911F910F91FF90EF90DF90089568
:104E1000FC01218D828D30E0205C3F4F281B310941
:104E20002F733070C9010895FC01918D828D981700
:104E300019F42FEF3FEF06C0828DE80FF11D858D2D
:104E4000282F30E0C9010895DC0159969C915997AB
:104E50005A968C915A97981719F42FEF3FEF10C07C
:104E60005A968C915A97FD01E80FF11D958D5A962F
:104E70008C915A978F5F8F735A968C93292F30E0BD
:104E8000C9010895CF93DF93EC01888D882361F4E5
:104E900019C08C9185FF0AC0E889F989808185FF56
:104EA00005C0CE010E947426AA89BB898C9185FD1C
:104EB00005C0E889F989808186FD04C00FB607FE28
:104EC000E8CFF4CFDF91CF9108950F931F93CF9345
:104ED000DF93EC01062F9B8D8C8D981791F5E88957
:104EE000F989808185FF2DC0EE89FF896083E8897B
:104EF000F9898081806480831DC00FB607FC08C0DB
:104F0000E889F989808185FF03C0CE010E9474265B
:104F10008C8D181791F38B8DFE01E80FF11DE35A6C
:104F2000FF4F00831B8FEA89FB8980818062808329
:104F300081E0888F81E090E0DF91CF911F910F9108
:104F400008951B8D1F5F1F73E3CF8BE598E2892BBC
:104F500051F080E090E0892B31F00E945B2888239B
:104F600011F00E94000080E090E0892B51F080E079
:104F700090E0892B31F00E940000882311F00E94FC
:104F800000008CE099E2892B51F08CEA94E0892BA7
:104F900031F00E940C29882311F00E94AC0480E0BB
:104FA00090E0892B51F08CEA94E0892B31F00E943B
:104FB0000000882311F00E94000008951F920F92B4
:104FC0000FB60F920BB60F9211242F938F939F93CE
:104FD000EF93FF93E091AF08F091B008808182FDDC
:104FE00016C0E091B508F091B60820819091B808FC
:104FF0009F5F9F738091B908981771F0E091B8088E
:10500000F0E0E156F74F258F9093B80805C0E09186
:10501000B508F091B608E081FF91EF919F918F91D3
:105020002F910F900BBE0F900FBE0F901F901895F1
:105030001092A2081092A10888EE93E0A0E0B0E0E0
:105040008093A3089093A408A093A508B093A60802
:1050500080E294E09093A00880939F0885EC90E014
:105060009093AC088093AB0884EC90E09093AE08EA
:105070008093AD0880EC90E09093B0088093AF08E7
:1050800081EC90E09093B2088093B10882EC90E0BC
:105090009093B4088093B30886EC90E09093B608A0
:1050A0008093B5081092B8081092B9081092BA0807
:1050B0001092BB0808958FE998E00E94082720E02D
:1050C000892B09F021E0822F08951F920F920FB6CD
:1050D0000F920BB60F9211242F933F934F935F9330
:1050E0006F937F938F939F93AF93BF93EF93FF93B0
:1050F0008FE998E00E947426FF91EF91BF91AF91E4
:105100009F918F917F916F915F914F913F912F91DF
:105110000F900BBE0F900FBE0F901F9018951F920F
:105120000F920FB60F920BB60F9211242F938F93FD
:105130009F93EF93FF93E0914C09F0914D0980818B
:1051400082FD16C0E0915209F0915309208190919F
:1051500055099F5F9F7380915609981771F0E091F0
:105160005509F0E0E45CF64F258F9093550905C092
:10517000E0915209F0915309E081FF91EF919F91E5
:105180008F912F910F900BBE0F900FBE0F901F901D
:10519000189510923F0910923E0988EE93E0A0E026
:1051A000B0E08093400990934109A0934209B093E5
:1051B000430980E294E090933D0980933C0985ED9A
:1051C00090E0909349098093480984ED90E0909392
:1051D0004B0980934A0980ED90E090934D098093AC
:1051E0004C0981ED90E090934F0980934E0982ED38
:1051F00090E0909351098093500986ED90E0909350
:105200005309809352091092550910925609109231
:1052100057091092580908958CE399E00E940827D5
:1052200020E0892B09F021E0822F08951F920F9230
:105230000FB60F920BB60F9211242F933F934F93FB
:105240005F936F937F938F939F93AF93BF93EF93EE
:10525000FF938CE399E00E947426FF91EF91BF9138
:10526000AF919F918F917F916F915F914F913F91FE
:105270002F910F900BBE0F900FBE0F901F9018959F
:10528000CF93DF930E948F230E94C704C5EAD7E221
:105290000E94F1032097E1F30E94A527F9CFCF9256
:1052A000DF92EF92FF920F931F93CF93DF937C01D6
:1052B0006B018A01C0E0D0E00FC0D6016D916D0195
:1052C000D701ED91FC910190F081E02DC701199576
:1052D000C80FD91F015010400115110571F7CE01FB
:1052E000DF91CF911F910F91FF90EF90DF90CF90C2
:1052F0000895CF93DF93FB01EC01A881B981608110
:105300007181448155811296ED91FC911397199505
:10531000DF91CF910895EF92FF920F931F938C012D
:10532000DC01ED91FC910190F081E02D6DE019958B
:105330007C01D801ED91FC910190F081E02DC80134
:105340006AE019959C012E0D3F1DC9011F910F9117
:10535000FF90EF900895EF92FF920F931F937C01BF
:105360000E9479298C01C7010E948B299C01200F82
:10537000311FC9011F910F91FF90EF900895CF93B6
:10538000DF93EC016115710519F420E030E00FC0E6
:10539000DB010D900020E9F71197A61BB70BE88100
:1053A000F9810280F381E02DAD0119959C01C901BD
:1053B000DF91CF9108954F925F927F928F929F924B
:1053C000AF92BF92CF92DF92EF92FF920F931F9313
:1053D000DF93CF93CDB7DEB7A1970FB6F894DEBFBA
:1053E0000FBECDBF2C01742ECB01223008F42AE071
:1053F00019A231E2C32ED12CCC0EDD1E822E9924AF
:10540000AA24BB24672D752FA50194010E94233285
:1054100079018A01C801B701A50194010E940432F3
:10542000472D461B0894C108D1084A3014F4405D4A
:1054300001C0495CF6014083E114F1040105110546
:1054400021F07E2C5F2DC801DDCFC201B6010E9484
:10545000BF29A1960FB6F894DEBF0FBECDBFCF9186
:10546000DF911F910F91FF90EF90DF90CF90BF9051
:10547000AF909F908F907F905F904F900895DC0148
:105480002115310541F4ED91FC910190F081E02D61
:10549000642F199508950E94DB290895CF92DF9219
:1054A000EF92FF920F931F93CF93DF93EC016A016A
:1054B0007B012115310541F4E881F9810190F081EA
:1054C000E02D642F19951FC02A303105D1F477FFE4
:1054D00017C0E881F9810190F081E02D6DE2199506
:1054E0008C0144275527BA014C195D096E097F09C3
:1054F000CE012AE00E94DB299801280F391F04C041
:105500002AE00E94DB299C01C901DF91CF911F9104
:105510000F91FF90EF90DF90CF9008950E94BF29E8
:1055200008957F928F929F92AF92BF92CF92DF9217
:10553000EF92FF920F931F93CF93DF934C017A0169
:105540008B01722ECB01BA01A80197010E94E530B0
:10555000882321F0C4016FEC73E021C0C0E0D0E0EB
:1055600057016801E894D7F8C601B5012FEF3FEF66
:105570004FE75FE70E94E530882351F4C601B5018B
:105580002FEF3FEF4FE75FE70E94E32E181614F06E
:10559000C1E0D0E0219739F0C40163ED73E00E94CF
:1055A000BF29EC0193C0C801B7012FEF3FEF4FE7D0
:1055B0005FE40E943230181654F0C801B7012FEF93
:1055C0003FEF4FE75FEC0E94E32E882324F4C401F1
:1055D00067ED73E0E4CFC801B70120E030E040E0C0
:1055E00050E00E94E32E87FD03C0C0E0D0E00EC073
:1055F000D401ED91FC910190F081E02DC4016DE2A8
:105600001995EC0117FB109517F9109520E030E083
:1056100040E05FE3DD240BC0CA01B90120E030E0C7
:1056200040E251E40E94E72E9B01AC01D394D714D1
:1056300098F3C801B7010E947F2E5B016C010E94A4
:10564000542F7B018C01C401B801A7012AE030E08E
:105650000E943F2AC80FD91F772039F0C4016BED93
:1056600073E00E94BF29C80FD91FC801B7010E946B
:10567000802F9B01AC01C601B5010E947E2E24C083
:1056800020E030E040E251E40E9436307B018C01A2
:105690000E944F2F5B016C01CC24B7FCC094DC2C22
:1056A000C401B601A5012AE030E00E944E2AC80FCD
:1056B000D91FC601B5010E94822F9B01AC01C80110
:1056C000B7010E947E2E7A947720D1F6CE01DF9129
:1056D000CF911F910F91FF90EF90DF90CF90BF90EF
:1056E000AF909F908F907F9008950E94912A089587
:1056F000EF92FF920F931F937C010E94BF298C01B0
:10570000C7010E948B29080F191FC8011F910F9113
:10571000FF90EF9008950F931F93CF93DF93FC01B9
:105720008B0141155105F9F061157105E1F0848196
:1057300095812817390718F0FB01108214C04150D9
:105740005040EC01C21BD30B4C175D0708F4EA0173
:1057500060817181620F731FC801AE010E94B101A7
:10576000C00FD11F1882DF91CF911F910F91089523
:10577000DC01FB0114968D919C911597892B31F4D6
:1057800061157105A9F090E0808108C00D90BC9171
:10579000A02D6115710529F490E08C91882349F4BE
:1057A00007C0CD010E94A1019C0190E0232B09F4C8
:1057B00091E0892F08950F931F93CF93DF93EC010E
:1057C0008B016F5F7F4F888199810E949D2D00978B
:1057D00011F480E005C0998388831B830A8381E0EC
:1057E000DF91CF911F910F910895CF93DF93EC013B
:1057F00088819981892B29F08A819B818617970757
:1058000060F4CE010E94DB2B882341F08C819D81C6
:10581000892B19F4E881F981108281E0DF91CF9121
:105820000895EF92FF920F931F93CF93DF93EC01B4
:105830007B016C817D81E114F104C1F041155105BA
:1058400099F08A01060F171FB8010E94F52B8823D3
:1058500069F0888199812C813D81820F931FB70166
:105860000E94AA011D830C8381E001C080E0DF91CA
:10587000CF911F910F91FF90EF900895DF93CF93F9
:105880000F920F92CDB7DEB769831A82BE016F5FA8
:105890007F4F41E050E00E94112C0F900F90CF916C
:1058A000DF910895CF93DF93EC0188819981009770
:1058B00011F00E94DC25198218821D821C821B8235
:1058C0001A82DF91CF9108950F931F93182F092FFC
:1058D0006115710561F0DB010D900020E9F711976A
:1058E000A61BB70BAD010E94112C882321F4812F38
:1058F000902F0E94522C812F902F1F910F9108956D
:105900000F931F93182F092FFB0160817181448130
:1059100055810E94112C882321F4812F902F0E9401
:10592000522C812F902F1F910F910895EF92FF928B
:105930000F931F93CF93DF93EC017B018A01BA0190
:105940000E94F52B882321F4CE010E94522C07C01F
:105950001D830C8388819981B7010E94AA01CE0121
:10596000DF91CF911F910F91FF90EF900895CF930A
:10597000DF93EC01198218821B821A821D821C821D
:105980006115710551F0DB010D900020E9F71197C9
:10599000A61BB70BAD010E94962CDF91CF91089505
:1059A000CF93DF93EC01198218821B821A821D8229
:1059B0001C826115710551F0DB010D900020E9F7A3
:1059C0001197A61BB70BAD010E94962CDF91CF91CA
:1059D00008950F931F93182F092F6115710559F022
:1059E000DB010D900020E9F71197A61BB70BAD0165
:1059F0000E94962C02C00E94522C812F902F1F9142
:105A00000F910895EF92FF920F931F93DF93CF931F
:105A1000CDB7DEB762970FB6F894DEBF0FBECDBF2D
:105A20008C01CB01F801118210821382128215823F
:105A300014827E010894E11CF11CB70150E00E9421
:105A4000C001C801B7010E94E92C62960FB6F89414
:105A5000DEBF0FBECDBFCF91DF911F910F91FF90A1
:105A6000EF900895BF92CF92DF92EF92FF920F9343
:105A70001F93CF93DF93082FB92E6B017A01E901B1
:105A80002417350710F4EA017901802F9B2D6DED65
:105A900073E00E94B72CD60114968D919C911597B6
:105AA0008E159F05D0F08C179D0708F4EC01D601E8
:105AB000ED91FC911197EC0FFD1F108110826D91FB
:105AC0007C916E0D7F1D802F9B2D0E94E92CD601AD
:105AD000ED91FC91EC0FFD1F1083802F9B2DDF912A
