:100000000C94C3060C9468380C9499380C94CA3834
:100010000C94FB380C942C390C945D390C948E396B
:100020000C94BF390C94F0060C94F0060C94F00676
:100030000C94F0060C94F0060C94F0060C94F00668
:100040000C94F0060C94F0060C94F0060C94F00658
:100050000C94F0060C94F0060C94F0060C94F03915
:100060000C94F0060C94763F0C94FD3F0C94F00633
:100070000C94F0060C94F0060C94F0060C94F00628
:100080000C94F0060C94F0060C94F0060C94F00618
:100090000C94F0060C94F0060C94F0060C94DD2AF7
:1000A0000C94F0060C94F0060C94F0060C94F006F8
:1000B0000C94F0060C94F0060C94F0060C94F006E8
:1000C0000C94F0060C94F0060C94F0060C94274067
:1000D0000C94AE400C94F0060C94F0060C94F006D0
:1000E0000C94F006084AD73B3BCE016E84BCBFFDA2
:1000F000C12F3D6C74319ABD56833DDA3D00C77FF8
:1001000011BED9E4BB4C3E916BAAAABE0000008090
:100110003F07634236B79BD8A71A39685618AEBA5C
:10012000AB558C1D3CB7CC5763BD6DEDFD753EF6F0
:10013000177231BF000000803F08000000BE92240B
:1001400049123EABAAAA2ABECDCCCC4C3E00000040
:1001500080BEABAAAAAA3E00000000BF000000803B
:100160003F0000000000084178D3BB4387D1133D16
:10017000190E3CC3BD4282AD2B3E68EC8276BED9DF
:100180008FE1A93E4C80EFFFBE01C4FF7F3F00001E
:100190000000004649464F206F766572666C6F77A7
:1001A0002120286779726F29002900444D50204989
:1001B0006E697469616C697A6174696F6E206661D9
:1001C000696C65642028636F64652000444D50208D
:1001D0007265616479212057616974696E67206670
:1001E0006F7220666972737420696E7465727275BD
:1001F00070742E2E2E00456E61626C696E672069E8
:100200006E74657272757074206465746563746968
:100210006F6E202841726475696E6F206578746511
:10022000726E616C20696E746572727570742030C4
:10023000292E2E2E00456E61626C696E6720444D3A
:10024000502E2E2E00496E697469616C697A696E50
:100250006720444D502E2E2E004D505536303530EF
:1002600020636F6E6E656374696F6E206661696C82
:100270006564004D50553630353020636F6E6E65C5
:100280006374696F6E207375636365737366756CF1
:100290000054657374696E672064657669636520D0
:1002A000636F6E6E656374696F6E732E2E2E0029F8
:1002B00000444D5020496E697469616C697A6174BB
:1002C000696F6E206661696C65642028636F646580
:1002D0002000444D50207265616479212057616986
:1002E00074696E6720666F72206669727374206924
:1002F0006E746572727570742E2E2E00456E61627A
:100300006C696E6720696E746572727570742064B2
:100310006574656374696F6E202841726475696ED7
:100320006F2065787465726E616C20696E74657299
:10033000727570742030292E2E2E00456E61626C0D
:10034000696E6720444D502E2E2E00496E697469E7
:10035000616C697A696E6720444D502E2E2E004DD7
:1003600050553630353020636F6E6E656374696F3B
:100370006E206661696C6564004D505536303530CD
:1003800020636F6E6E656374696F6E20737563634F
:1003900065737366756C0054657374696E67206469
:1003A000657669636520636F6E6E656374696F6EF1
:1003B000732E2E2E00496E697469616C697A696EBC
:1003C000672049324320646576696365732E2E2E5B
:1003D00000FB00003E000B0036000100020003009D
:1003E0000000650054FFEF0000FA80000B1282004D
:1003F00001000200000000000000000000000000FA
:100400000000280000FFFF4581FFFFFA7200000096
:1004100000000003E80000000100017FFFFFFE80F4
:1004200001001B00000000000000000000000000B0
:1004300000003E03304000000002CAE3093E800095
:1004400000200000000000000040000000600000EC
:100450000041FF000000000B2A000016550000219B
:1004600082FD872650FD800000001F0000000580EF
:100470000000000000000100000002000000030076
:1004800000400000000000046F0002653200005EC2
:10049000C04000000000000000000000000000005C
:1004A00000FB8C6F5DFD5D08D9007C733B006C1216
:1004B000CC3200139D3200D0D6320008004000013B
:1004C000F4FFE68079020000000000D0D60000278B
:1004D00010FB0000004000000000000000000000D1
:1004E0000000000001000000000000010001000009
:1004F000000000FA36FFBC308E0005FBF0FFD95B30
:10050000C8FFD09ABE000010A9FFF41EB200CEBBF7
:10051000F7000000010000000400020002020000D9
:100520000CFFC280000001800000CF80004000006E
:1005300000000000010000000000000600000000B4
:100540001400000000000000000000000000000097
:10055000000000000000000000000000000000009B
:10056000000000000000000000000000000000008B
:100570000000000000033F68B6793528BCC67ED174
:100580006C80000000400000000000B26A00000023
:1005900000000000000000000000003FF00000002C
:1005A000300000000000000000000000000000001B
:1005B000000000000000000000000000000000003B
:1005C000000000254D002F706D000005AE000C02EC
:1005D000D00000000000650054FFEF0000000000A4
:1005E00000000001000044000000000C00000001B9
:1005F00000000000000065000000540000FFEF0054
:1006000000000000000000000000000000000000EA
:10061000004000000000000000000000000000009A
:10062000004000000000000000000000000000008A
:1006300000000000010000000200000000000000B7
:1006400000000000000000000000000000000000AA
:10065000000000000000000000000000000000009A
:1006600000001B000000000000000000000000006F
:10067000000000000000000000000000000000007A
:10068000000000000000000000000000004000002A
:1006900000001B000000000000000000000000003F
:1006A000000000000000000000000000000000004A
:1006B000000000000000000000000000000000003A
:1006C000000000000000000000000000000000002A
:1006D00000D8DCBAA2F1DEB2B8B4A88191F74A9092
:1006E0007F916AF3F9DBA8F9B0BAA080F2CE81F36A
:1006F000C2F1C1F2C3F3CCA2B280F1C6D880BAA7CE
:10070000DFDFDFF2A7C3CBC5B6F087A29424487021
:100710003C95406834589B78A2F183922D557DD842
:10072000B1B4B8A1D09180F270F370F27C80A8F1DE
:1007300001B09887D943D886C988BAA1F20EB89774
:1007400080F1A9DFDFDFAADFDFDFF2AAC5CDC7A90D
:100750000CC92C97979797F1A989264666B0B4BA29
:1007600080ACDEF2CAF1B28C02A9B69800890E16EE
:100770001EB8A9B4992C547CB08AA896365676F146
:10078000B9AFB4B083C0B8A89711B18F98B9AFF022
:10079000240844106418F1A329557DAF83B593AFA5
:1007A000F0002850F1A3869F61A6DADEDFD9FAA314
:1007B0008696DB31A6D9F8DFBAA68FC2C5C7B28C40
:1007C000C1B8A2DFDFDFA3DFDFDFD8D8F1B8A8B27E
:1007D00086B4980D355DB8AA98B0872D353DB2B670
:1007E000BAAF8C96198F9FA70E161EB49AB8AA8717
:1007F0002C547CB9A3DEDFDFA3B180F2C4CDC9F1F4
:10080000B8A9B499830D355D89B9A32D557DB593EC
:10081000A30E161EA92C547CB8B4B0F19783A8116E
:1008200084A50998A383F0DA240844106418D8F149
:10083000A529557DA58595021A2E3A565A4048F9A4
:10084000F3A3D9F8F098832408441064189782A879
:10085000F111F098A2240844106418DAF3DED8836A
:10086000A59401D9A302F1A2C3C5C7D8F18492A26D
:100870004DDA2AD84869D92AD86855DA32D8507161
:10088000D932D8705DDA3AD85879D93AD87893A362
:100890004DDA2AD84869D92AD86855DA32D8507141
:1008A000D932D8705DDA3AD85879D93AD878A88A46
:1008B0009AF02850789EF38818F19F1D98A8D908BF
:1008C000D8C89F129EF315A8DA1210D8F1AFC897B6
:1008D0008734B5B994A421F3D922D8F22DF3D92ABB
:1008E000D8F235F3D932D881A4606061D961D86C6F
:1008F0006869D969D8747071D971D8B1A384193D68
:100900005DA3831A3E5E931030811011B8B0AF8F93
:1009100094F2DA3ED8B49AA88729DAF8D8879A35BB
:10092000DAF8D8879A3DDAF8D8B1B9A49885022EBA
:1009300056A581000C14A397B08AF12DD928D84D63
:10094000D948D86DD968D8B1840DDA0ED8A32983D7
:10095000DA2C0ED8A3844983DA2C4C0ED8B8B0A870
:100960008A9AF520AADADFD8A840AAD0DADED8A879
:1009700060AADAD0DFD8F19786A8319B069907AB39
:100980009728889BF00C201440B8B0B4A88C9CF039
:10099000042851791D301438B282ABD0982C5050B5
:1009A00078789BF11AB0F08A9CA82951798B29514B
:1009B000798A2470598B2058718A4469388B394060
:1009C000688A6448318B304960A588200971584491
:1009D00068113964493019F1AC002C547CF08CA8B2
:1009E00004285078F1889726A85998AC8C0226469E
:1009F00066F0899CA8295179247059446938644863
:100A000031A98809205970AB11384069A8193148BB
:100A1000608CA83C415C207C00F187981986A86E08
:100A2000767EA999882D557D9EB9A38A228A6E8AE1
:100A3000568A5E9FB183062646660E2E4E6E9DB880
:100A4000AD002C547CF2B18CB499B9A32D557D81A5
:100A500091AC38AD3AB58391AC2DD928D84DD94851
:100A6000D86DD968D88C9DAE29D904AED851D90497
:100A7000AED879D904D881F39DAD008DAE1981AD82
:100A8000D901D8F2AEDA26D88E912983A7D9ADAD97
:100A9000ADADF32AD8D8F1B0AC89913E5E76F3AC17
:100AA0002E2EF1B18C5A9CAC2C2828289CAC3018E6
:100AB000A8988128343C9724A728343C9C24F2B081
:100AC00089AC912C4C6C8A9B2DD9D8D851D9D8D8C7
:100AD00079D9D8D8F19E88A331DAD8D8912DD928E0
:100AE000D84DD948D86DD968D8B18393353D802584
:100AF000DAD8D88569DAD8D8B49381A328343CF3FE
:100B0000AB8BF8A391B609B4D9ABDEFAB0879CB928
:100B1000A3DDF1A3A3A3A395F1A3A3A39DF1A3A395
:100B2000A3A3F2A3B49080F2A3A3A3A3A3A3A3A31C
:100B3000A3A3B2A3A3A3A3A3A3B087B599F1A3A32F
:100B4000A398F1A3A3A3A397A3A3A3A3F39BA3A3F6
:100B5000DCB9A7F1262626D8D8FF037B034CCD6C41
:100B600003AB0336567600680402CB47A202180492
:100B700000058BC1010C0400000000037F060CC9B6
:100B80002C979797038903264666006C0220000283
:100B90004004000000000244040000000002480479
:100BA00000000000024C040000000002500400009D
:100BB000000002540400000000025804000000007D
:100BC000025C040000000002BC040000000001EC14
:100BD0000400004000037F060CC92C97979704027D
:100BE000030D355D040904872D353D00A301000088
:100BF000000001078601FE074105F1202830380773
:100C00007E01300746019A074704F1283038076C07
:100C100004F1283038021602000101B202FFFF0180
:100C200090040923A135016A020600016008000052
:100C300000000000000000600440000000016202AB
:100C40000000006004004000007C3C3E5E2B3D3F05
:100C50002F5B5D3B2C2A225C000000210024002732
:100C6000002A002D003000330001010000040107BC
:100C7000010A0100002200250028002B002E00316F
:100C800000340002010000050108010B01000020F2
:100C9000002300260029002C002F00320000010054
:100CA00000030106010901050505050705080808F7
:100CB00008020202020A0A080804040404010101ED
:100CC00001010101010303030303030303040707F5
:100CD000070C0C0C0C0C0C0C0C0202020206060693
:100CE00006060606060B0B0B0B0B0B0B0B0102107B
:100CF0002020080810204010204080020102010836
:100D000004020101020408102040808040201008E5
:100D1000040201800402018040201008040201083E
:100D2000040201010204081020408001020408109E
:100D30002040800000090A02080B0C0D070603047E
:100D400001000000000000000000000000000000A2
:100D50000000000000000000000000000000001182
:100D6000100F000000000000000000000000000064
:100D700000000000000000000000AE097816752990
:100D8000B03F6140A70911241FBECFEFD1E2DEBF03
:100D9000CDBF00E00CBF15E0A0E0B2E0E6EDF4E965
:100DA00000E00BBF02C007900D92AA3BB107D9F734
:100DB0001BBE1BE0AAEBB5E001C01D92A637B10730
:100DC000E1F71DE0C4E8DDE004C02297FE010E94C7
:100DD000464ACA37D107C9F70E94D8400C945E4AE8
:100DE0000C940000FB01DC0104C08D91019080197E
:100DF00021F441505040C8F7881B990B0895FB011E
:100E0000DC0102C001900D9241505040D8F7089586
:100E1000FC018191861721F08823D9F7992708953D
:100E20003197CF010895FB01DC018D91019080196C
:100E30000110D9F3990B0895FB01DC0101900D928B
:100E40000020E1F70895FB01DC014150504048F0DB
:100E500001900D920020C9F701C01D9241505040F1
:100E6000E0F70895FB019F01E8944230C4F0453259
:100E7000B4F44A3029F497FB1EF4909581959F4F66
:100E8000642F77270E944A4A805D8A330CF0895D7F
:100E90008193CB010097A1F716F45DE25193108284
:100EA000C9010C945307DC01FC01672F7191772372
:100EB000E1F7329704C07C916D9370836291AE1715
:100EC000BF07C8F30895CF93DF93EC01DB01FA016C
:100ED0004115510511F4E881F981948D80E0258D4B
:100EE000820F911D11969C938E9390A180E021A179
:100EF000820F911D13969C938E93129794A180E07C
:100F000025A1820F911D15969C938E93149780E0D6
:100F1000DF91CF910895CF93DF93EC01DB01FA01CC
:100F20004115510511F4E881F9812181908180E01A
:100F3000820F911D11969C938E93948180E0258160
:100F4000820F911D13969C938E931297908580E04B
:100F50002185820F911D15969C938E9314979485ED
:100F600080E02585820F911D17969C938E9316978E
:100F700080E0DF91CF910895FF920F931F93DF934D
:100F8000CF93CDB7DEB728970FB6F894DEBF0FBE6C
:100F9000CDBF8B01BE016F5F7F4F0E948B07F82E84
:100FA000882309F04CC069817A81882777FD809574
:100FB000982F0E94294720E030E040E858E30E9443
:100FC0000948F80160837183828393836B817C81FC
:100FD000882777FD8095982F0E94294720E030E0F0
:100FE00040E858E30E940948F801648375838683CA
:100FF00097836D817E81882777FD8095982F0E9449
:10100000294720E030E040E858E30E940948F80111
:1010100060877187828793876F817885882777FDBE
:101020008095982F0E94294720E030E040E858E35F
:101030000E940948F80164877587868797878F2DF6
:1010400028960FB6F894DEBF0FBECDBFCF91DF91CB
:101050001F910F91FF9008952F923F924F925F92B0
:101060006F927F928F929F92AF92BF92CF92DF92B8
:10107000EF92FF920F931F93DF93CF9300D000D096
:10108000CDB7DEB77E836D83DA0114966D907D90C7
:101090008D909C9017971C968D919D910D90BC9171
:1010A000A02D89839A83AB83BC83FA01A080B18091
:1010B000C280D3802084318442845384C401B3012C
:1010C00029813A814B815C810E9409487B018C0116
:1010D000C601B501A20191010E9409489B01AC0122
:1010E000C801B7010E94C3459B01AC010E94C445E1
:1010F000AD81BE816D937D938D939C931397C601B3
:10110000B501A40193010E9409487B018C01C20131
:10111000B10129813A814B815C810E9409489B0180
:10112000AC01C801B7010E94C4459B01AC010E94FB
:10113000C445ED81FE816483758386839783C601F0
:10114000B501A60195010E9409487B018C01C401EB
:10115000B301A40193010E9409489B01AC01C8019D
:10116000B7010E94C3457B018C01C201B101A201FC
:1011700091010E9409489B01AC01C801B7010E947E
:10118000C3457B018C0169817A818B819C819B01A4
:10119000AC010E9409489B01AC01C801B7010E9443
:1011A000C445AD81BE8118966D937D938D939C93BC
:1011B0001B9780E026960FB6F894DEBF0FBECDBF1A
:1011C000CF91DF911F910F91FF90EF90DF90CF9023
:1011D000BF90AF909F908F907F906F905F904F9057
:1011E0003F902F90089581E0809302070895813009
:1011F000910509F096C06F5F7F4F09F0A7C08AEB99
:1012000095E00E94902C86E196E00E94221581E3F1
:1012100096E060E072E00E94DD4487E396E060E0E3
:1012200072E00E94DD448DE396E060E072E00E948F
:10123000DD4483E496E00E94221580E696E068E6AD
:101240000E94C13383E796E00E94203380E090E063
:10125000A0E8BFE38093C8069093C906A093CA068E
:10126000B093CB0680E090E0A0E0B0E08093CC06A5
:101270009093CD06A093CE06B093CF068093D00670
:101280009093D106A093D206B093D3068093D40650
:101290009093D506A093D606B093D7061092D906A0
:1012A0001092D8061092DB061092DA061092DD0634
:1012B0001092DC061092DF061092DE061092E10614
:1012C0001092E0061092E3061092E2061092E506F4
:1012D0001092E4061092E7061092E6061092E906D4
:1012E0001092E8068093EA069093EB06A093EC0632
:1012F000B093ED068093EE069093EF06A093F00670
:10130000B093F1068093F2069093F306A093F4064F
:10131000B093F50684E097E060E072E00E94DD445F
:101320000895892B99F46F5F7F4F81F484E097E0F3
:101330000E94B6458DE396E00E94B64587E396E0AD
:101340000E94B64581E396E00E94B645089580E08C
:1013500090E06FEF7FEF0E94F708089581E090E042
:101360006FEF7FEF0E94F7080895EF92FF920F93BF
:101370001F9380E696E060E00E94B23680E696E039
:1013800061E00E94C23683E796E06BE776E04DE7C6
:1013900056E02FE736E00E944A3388E39AE061E0A6
:1013A00072E00E94A14260917B0670917C0688E306
:1013B0009AE04AE050E00E946F4288E39AE067E0DA
:1013C00072E00E94A14260917D0670917E0688E3E2
:1013D0009AE04AE050E00E946F4288E39AE067E0BA
:1013E00072E00E94A14260917F067091800688E3BE
:1013F0009AE04AE050E00E946F4288E39AE067E09A
:1014000072E00E949E4360917D0670917E0688275F
:1014100077FD8095982F0E9429477B018C01609170
:101420007B0670917C06882777FD8095982F0E9417
:1014300029479B01AC01C801B7010E9437467B01D7
:101440008C0120E030E040E050E00E948A46882392
:1014500054F4C801B7012BED3FE049EC50E40E9481
:10146000C4457B018C0188E39AE069E072E00E9448
:10147000A142C801B70120E030E044E353E40E94F8
:1014800009482BED3FE049E450E40E948E46AB0151
:10149000BC0188E39AE022E030E00E948B43609137
:1014A000030781E06827609303078DE00E94C33B38
:1014B0001F910F91FF90EF9008950F931F938AEB68
:1014C00095E063E00E94072D80930506882309F4C8
:1014D00008C1682F772767FD7095872F972F0E9487
:1014E000A83A8AEB95E06AE076E046E056E00E9492
:1014F000942D80930506882309F4EDC088E39AE0D3
:1015000063E172E00E94A14240910A0650910B06ED
:1015100060910C0670910D0688E39AE022E030E0BD
:101520000E948B4388E39AE06DE272E00E94A14240
:1015300060910A0670910B0680910C0690910D0641
:1015400029EF3FEE41EF5CE30E940948AB01BC018B
:1015500088E39AE022E030E00E948B4383E496E047
:1015600069E472E00E94A14240910A0650910B0684
:1015700060910C0670910D0683E496E022E030E065
:101580000E948B4383E496E062E672E00E94A142EF
:1015900060910A0670910B0680910C0690910D06E1
:1015A00029EF3FEE41EF5CE30E940948AB01BC012B
:1015B00083E496E022E030E00E948B4340910A06EB
:1015C00050910B0660910C0670910D068AEB95E028
:1015D00000E010EE2EEC34E40E94B02C60930E0676
:1015E00070930F06809310069093110688E39AE09B
:1015F0006DE772E00E94A14240910E0650910F06E5
:10160000609110067091110688E39AE022E030E0C4
:101610000E948B4388E39AE064EA72E00E94A14250
:1016200060910E0670910F06809110069091110640
:1016300029EF3FEE41EF5CE30E940948AB01BC019A
:1016400088E39AE022E030E00E948B4340910A0652
:1016500050910B0660910C0670910D0600910E06DC
:1016600010910F0620911006309111068AEB95E03B
:101670000E94912C609312067093130680931406B7
:101680009093150688E39AE06DEC72E00E94A14207
:101690004091120650911306609114067091150640
:1016A00088E39AE020E030E00E948B4383E496E0F8
:1016B0006DEC72E00E94A142409112065091130617
:1016C000609114067091150683E496E020E030E006
:1016D0000E948B4306C088E39AE06AEE72E00E94A3
:1016E0009E431F910F9108958AEB95E00E94382D3B
:1016F000809305068823D1F1682F772767FD7095C1
:10170000872F972F0E94A83A8AEB95E066E076E053
:101710000E94B22E80930506882341F188E39AE067
:1017200061E173E00E94A1424091060650910706D4
:10173000609108067091090688E39AE022E030E0A3
:101740000E948B4383E496E06AE273E00E94A14228
:1017500040910606509107066091080670910906AF
:1017600083E496E022E030E00E948B4308951F93CB
:1017700011E010C085ED9AE00E94BC3E682F8D30CC
:1017800019F410935F0606C08A3021F081E396E0D9
:101790000E94644485ED9AE00E94A03E892B51F797
:1017A0001F9108952F923F924F925F926F927F9276
:1017B0008F929F92AF92BF92CF92DF92EF92FF9261
:1017C0000F931F93DF93CF9300D000D0CDB7DEB738
:1017D0007E836D836A011901FA0184809580A68059
:1017E000B780C501B401A50194010E94C445698375
:1017F0007A838B839C83F601E080F18002811381E0
:1018000020853185428553850E9409482B013C0182
:10181000C801B70120E030E040E050EC0E940948E8
:10182000F60124853585468557850E9409489B0128
:10183000AC01C301B2010E94C4452B013C01C801A7
:10184000B701A80197010E94C445A80197010E9411
:1018500009487B018C0169817A818B819C81A5017A
:1018600094010E9409489B01AC01C801B7010E9484
:10187000C44520E030E040E85FE30E94C3459B019F
:10188000AC01C301B2010E943746ED81FE81608345
:10189000718382839383F10124813581468157814D
:1018A000E084F18402851385CA01B9010E940948C8
:1018B0005B016C01C801B701A80197010E940948AA
:1018C0009B01AC01C601B5010E94C4450E94BC4801
:1018D0009B01AC01F10160817181828193810E9441
:1018E0008E460E946246ED81FE8164837583868305
:1018F0009783F1012081318142815381E084F18419
:1019000002851385CA01B9010E9409485B016C0177
:10191000C801B701A80197010E9409489B01AC01C9
:10192000C601B5010E94C4450E94BC489B01AC01A0
:10193000F10164817581868197810E948E460E94A3
:101940006246ED81FE81608771878287938780E0A0
:1019500026960FB6F894DEBF0FBECDBFCF91DF91B4
:101960001F910F91FF90EF90DF90CF90BF90AF90BD
:101970009F908F907F906F905F904F903F902F90AF
:101980000895EF92FF920F931F931092020780E643
:1019900096E00E9431348093820680E696E00E94B1
:1019A000BE349C01909387068093860680918206C0
:1019B00084FD03C02050344059F480E696E00E9434
:1019C000AA3688E39AE063E971E00E94664177C134
:1019D00081FD09C074C180E696E00E94BE349093F8
:1019E00087068093860640918406509185068091F3
:1019F0008606909187068417950768F380E696E03F
:101A000068E876E00E94AF34809186069091870660
:101A10002091840630918506821B930B9093870654
:101A20008093860680916605882309F480C080E64D
:101A300096E068EC76E048E856E00E94BC0780E655
:101A400096E06AEE76E048EC56E00E942C0880E6CC
:101A500096E066EF76E048EC56E02AEE36E00E942B
:101A6000D20B88E39AE061E473E00E94A1426091A6
:101A7000F6067091F7068091F8069091F90620E03D
:101A800030E044E353E40E9409482BED3FE049E491
:101A900050E40E948E46AB01BC0188E39AE022E04C
:101AA00030E00E94884388E39AE067E072E00E9499
:101AB000A1426091FA067091FB068091FC0690911C
:101AC000FD0620E030E044E353E40E9409482BED9A
:101AD0003FE049E450E40E948E46AB01BC0188E33C
:101AE0009AE022E030E00E94884388E39AE067E0D1
:101AF00072E00E94A1426091FE067091FF06809103
:101B000000079091010720E030E044E353E40E9495
:101B100009482BED3FE049E450E40E948E46AB01BA
:101B2000BC0188E39AE022E030E00E948B43809180
:101B30006505882309F4BAC080E696E068EC76E093
:101B400048E856E00E94BC0780E696E068ED76E043
:101B500048E856E00E94630780E696E06AEE76E089
:101B600048EC56E00E942C086091D8067091D90686
:101B7000882777FD8095982F0E9429477B018C014B
:101B80006091EA067091EB068091EC069091ED066B
:101B900020E030E040E056EC0E9409489B01AC0197
:101BA000C801B7010E94C4450E94F6467093DF0643
:101BB0006093DE066091DA067091DB06882777FD78
:101BC0008095982F0E9429477B018C016091EE0639
:101BD0007091EF068091F0069091F10620E030E0E0
:101BE00040E056EC0E9409489B01AC01C801B701D6
:101BF0000E94C4450E94F6467093E1066093E00699
:101C00006091DC067091DD06882777FD8095982F1E
:101C10000E9429477B018C016091F2067091F306C6
:101C20008091F4069091F50620E030E040E056EC1B
:101C30000E9409489B01AC01C801B7010E94C4453C
:101C40000E94F6467093E3066093E20688E39AE00A
:101C500066E473E00E94A1426091DE067091DF06A7
:101C600088E39AE04AE050E00E946F4288E39AE0FD
:101C700067E072E00E94A1426091E0067091E10687
:101C800088E39AE04AE050E00E946F4288E39AE0DD
:101C900067E072E00E94A1426091E2067091E30663
:101CA00088E39AE04AE050E00E9482426091030794
:101CB00081E06827609303078DE00E94C33B1F917A
:101CC0000F91FF90EF900895FF920F931F93DF9372
:101CD000CF93CDB7DEB7EC970FB6F894DEBF0FBE4B
:101CE000CDBF01E0A6C088E39AE00E94BC3E682F09
:101CF00080935E068D3009F096C088E39AE06DE42B
:101D000073E00E94A14288E39AE064E077E00E94D9
:101D10007A4184E097E068E573E00E94DE4388231F
:101D200019F00093640578C084E097E06DE573E0F6
:101D30000E94DE43882319F0109264056DC084E090
:101D400097E063E673E00E94DE43882319F0009376
:101D5000650562C084E097E068E673E00E94DE43B8
:101D6000882319F01092650557C084E097E06EE66D
:101D700073E00E94DE43882319F0009366054CC08F
:101D800084E097E064E773E00E94DE43882319F063
:101D90001092660541C084E097E06BE773E00E9413
:101DA000DE43882319F00093670536C084E097E08E
:101DB00061E873E00E94DE43882319F01092670502
:101DC0002BC084E097E068E873E00E94DE4388233C
:101DD00019F00093680520C084E097E06FE873E095
:101DE0000E94DE43882319F01092680515C084E034
:101DF00097E067E973E00E94DE43882319F00093BF
:101E000069050AC084E097E06DE973E00E94DE4353
:101E1000882311F01092690584E097E060E072E099
:101E20000E940F4506C08A3021F084E097E00E94AE
:101E3000644488E39AE00E94A03E892B09F053CFC6
:101E400080915F06882309F4BEC0809164058823D1
:101E500009F4B9C0CE0107966DE077E04AE655E097
:101E600023E10E94841889859A8590934606809381
:101E700045068B859C85AD85BE85809347069093EE
:101E80004806A0934906B0934A068F859889A98988
:101E9000BA8980934B0690934C06A0934D06B0935D
:101EA0004E06AFE4B6E0FE0173968DE001900D9210
:101EB0008150E1F788A199A190935D0680935C061B
:101EC0008E010F5F1F4FC80161E376E040E050E0F4
:101ED00026E030E00E945845C80164EA73E00E94A1
:101EE000DE43F82EC8010E94B645FF2009F45FC00A
:101EF00088E39AE06BEA73E00E94A14288E39AE0EB
:101F000067EB73E00E949E4388E39AE061E376E02A
:101F10000E947A4183E496E06BEA73E00E94A1425A
:101F200083E496E067EB73E00E949E4383E496E0CF
:101F300061E376E00E947A4180916605882321F46E
:101F400080916505882311F00E94C10C809169057C
:101F5000882341F064E670E080E090E00E94A83AB7
:101F60000E94B50980916705882309F18091680571
:101F70008823E9F080910B0790910C0701969093CC
:101F80000C0780930B07019780FD11C080910A0711
:101F9000882319F00E94740B02C00E945D0A90E031
:101FA00080910A07882309F491E090930A0781E35E
:101FB00096E060E072E00E940F4510925F0683E4B5
:101FC00096E00E94711580916405882309F07AC01B
:101FD000CE0182966DE077E04AE655E023E10E946B
:101FE00084188CA19DA190934606809345068EA1EE
:101FF0009FA1A8A5B9A58093470690934806A093F2
:102000004906B0934A068AA59BA5ACA5BDA58093B9
:102010004B0690934C06A0934D06B0934E06AFE44A
:10202000B6E0FE01BE968DE001900D928150E1F781
:102030008BAD9CAD90935D0680935C0688E39AE03F
:102040006BEA73E00E94A14288E39AE067EB73E0D9
:102050000E949E4383E496E06BEA73E00E94A142F3
:1020600083E496E067EB73E00E949E4380916605EF
:10207000882321F480916505882311F00E94C10C0A
:1020800080916905882311F00E94B5098091660549
:10209000882311F00E94C10C80916905882311F0FA
:1020A0000E94B50980916705882311F00E94740B86
:1020B00080916805882311F00E945D0A83E496E010
:1020C0000E947115EC960FB6F894DEBF0FBECDBF1F
:1020D000CF91DF911F910F91FF9008958F929F9262
:1020E000AF92BF92CF92EF920F93DF93CF93CDB782
:1020F000DEB7C059D0400FB6F894DEBF0FBECDBFDB
:102100005C010E949A366EE170E080E090E00E94EF
:10211000A83AC50160E00E949236C50160E141E045
:1021200021E00E94D933C50166E00E94D233C50187
:102130000E941D34C50160E040E020E00E94D933D8
:10214000C5010E94CA36C5010E94A837882EC50164
:102150000E948A37982EC5010E946C37C82EC5018F
:1021600060E04FE70E94ED33C50160E00E94B236A7
:10217000C50160E048E60E94ED33C5010E94A23629
:1021800064E170E080E090E00E94A83AC50161ED52
:1021900073E049E857E020E000E0EE24E3940E9479
:1021A0006F36882311F481E0A6C1C5016AE57BE0A2
:1021B00040EC50E00E946B36882311F482E09BC112
:1021C000C50163E00E942037C50162E10E94E63349
:1021D000C50164E00E941634C50161E00E946137C8
:1021E000C50163E00E945637C50163E00E9436379F
:1021F000C50163E00E94CB33C50160E00E94C43397
:10220000C50160E00E948A36C501682D0E9415371D
:10221000C501692D0E940A37C5016C2D0E94FF3649
:1022200088249924BE016F5F7F4FF401E65EF34F6F
:10223000E491DB01A80DB11DEC93282D2F5F0894CC
:10224000811C911C83E0881580F74B81842F90E0DE
:10225000029630E08217930744F7C501BE016C5F18
:102260007F4F50E029810A81EE24E394CC240E9420
:10227000DD3450E0BE016F5F7F4FF401E65EF34F47
:10228000E491DB01A50FB11DEC935F5F0894811C05
:10229000911C543090F34B81842F90E00296252FAF
:1022A00030E0821793074CF7C501BE016C5F7F4F8A
:1022B00050E029810A81EE24E394CC240E94DD348D
:1022C000C5010E94AA36C5010E94BE34482FC5012F
:1022D000BE016F5E7F4F0E94AF34C50162E00E9475
:1022E0000F34C5016CE90E940134C50160E50E940C
:1022F0000834C50160E00E94FA33C5010E94AA3685
:10230000C50161E00E94BA36C50161E00E948236D3
:10231000C5010E947A3650E0BE016F5F7F4FF40125
:10232000E65EF34FE491DB01A50FB11DEC935F5F17
:102330000894811C911C543090F34B81842F90E0C1
:102340000296252F30E0821793074CF7C501BE0196
:102350006C5F7F4F50E029810A81EE24E394CC2406
:102360000E94DD3450E0BE016F5F7F4FF401E65EF6
:10237000F34FE491DB01A50FB11DEC935F5F08946F
:10238000811C911C543090F34B81842F90E0029675
:10239000252F30E0821793074CF7C501BE016C5F13
:1023A0007F4F50E029810A81EE24E394CC240E94DF
:1023B000DD3450E0BE016F5F7F4FF401E65EF34F06
:1023C000E491DB01A50FB11DEC935F5F0894811CC4
:1023D000911C543090F34B81842F90E00296252F6E
:1023E00030E0821793074CF7C501BE016C5F7F4F49
:1023F00050E029810A81EE24E394CC240E94DD344C
:10240000C5010E94BE34AC0183309105C8F3C501FB
:10241000BE016F5E7F4F0E94AF34C5010E94313410
:1024200050E0BE016F5F7F4FF401E65EF34FE49131
:10243000DB01A50FB11DEC935F5F0894811C911C1B
:10244000543090F34B81842F90E00296252F30E09A
:10245000821793074CF7C501BE016C5F7F4F50E0B8
:1024600029810A810E944534C5010E94BE34AC0115
:1024700083309105C8F3C501BE016F5E7F4F0E9496
:10248000AF34C5010E94313450E0BE016F5F7F4F11
:10249000F401E65EF34FE491DB01A50FB11DEC936F
:1024A0005F5F0894811C911C543090F34B81842F02
:1024B00090E00296252F30E0821793074CF7C50174
:1024C000BE016C5F7F4F50E029810A81EE24E394C6
:1024D000CC240E94DD34C50160E00E9482368AE28D
:1024E00090E0F50193838283C5010E94AA36C5015D
:1024F0000E94313480E0C057DF4F0FB6F894DEBF42
:102500000FBECDBFCF91DF910F91EF90CF90BF90D5
:10251000AF909F908F9008958F929F92AF92BF92AD
:10252000CF92DF92EF92FF920F931F93DF93CF939F
:10253000CDB7DEB768970FB6F894DEBF0FBECDBF3C
:1025400088E39AE040E052EC61E070E026E00E940F
:102550003C3E85ED9AE040E056E960E070E026E020
:102560000E943C3E88E39AE060ED73E00E949E4347
:1025700088E39AE061E474E00E94A14288E39AE073
:1025800067EB73E00E949E4381E396E06FEF70E09B
:102590000E941B448AEB95E00E94782F8823C1F0AB
:1025A00088E39AE060E574E00E949E4388E39AE045
:1025B00064E674E00E94A1428AE061E00E94103B60
:1025C0008DE097E064E00E94A919882369F407C0B0
:1025D00088E39AE06CE774E00E949E43FFCF88E3B3
:1025E0009AE06FE874E0F1C188E39AE066EA74E08B
:1025F0000E949E4385EA99E00E94192A88E180930F
:10260000B80083E796E00E94AD3388E39AE06BEB75
:1026100074E00E949E4383E796E00E94243388235F
:1026200019F462EE74E002C06DEF74E088E39AE0A2
:102630000E949E438DE061E00E94103B88E39AE097
:1026400065EB73E00E94664180E696E00E944137A8
:1026500080E696E060E00E94B23680E696E061E0B7
:102660000E94C23688E39AE067E973E00E946641FF
:1026700080E696E00E94E437882319F069E773E06A
:1026800002C06FE573E088E39AE00E94664188E348
:102690009AE06BE473E00E94664180E696E00E9457
:1026A0006E108093830680E696E06CED70E00E94E9
:1026B000F13680E696E06CE470E00E94EA3680E64F
:1026C00096E06BEA7FEF0E94E33680E696E06CEFDF
:1026D00076E00E94F83680918306882381F588E3AE
:1026E0009AE06BE373E00E94664180E696E061E069
:1026F0000E94823688E39AE06CEF72E00E946641A5
:1027000080E063EF78E043E050E00E94EC3780E641
:1027100096E00E9431348093820688E39AE062ED6D
:1027200072E00E94664181E080938106809162069A
:1027300090916306909385068093840614C088E385
:102740009AE061EB72E00E94114188E39AE06091A7
:1027500083064AE050E00E941D4288E39AE06FEA57
:1027600072E00E94664188E39AE061E972E00E94AB
:10277000664180E696E00E94E437882319F063E71B
:1027800072E002C069E572E088E39AE00E94664167
:1027900088E39AE065E472E00E94664180E696E094
:1027A0000E946E108093830680E696E06CED70E0E8
:1027B0000E94F13680E696E06CE470E00E94EA3612
:1027C00080E696E06BEA7FEF0E94E33680E696E0D3
:1027D0006CEF76E00E94F83680918306882381F5BD
:1027E00088E39AE065E372E00E94664180E696E045
:1027F00061E00E94823688E39AE066EF71E00E9411
:10280000664180E063EF78E043E050E00E94EC37FF
:1028100080E696E00E9431348093820688E39AE055
:102820006CEC71E00E94664181E0809381068091AA
:10283000620690916306909385068093840614C087
:1028400088E39AE06BEA71E00E94114188E39AE024
:10285000609183064AE050E00E941D4288E39AE0BE
:1028600069EA71E00E9466418DE061E00E94103BE0
:1028700083E796E00E94AD3388E39AE06CE175E06F
:102880000E949E4383E796E00E942433882319F434
:1028900062EE74E002C06DEF74E088E39AE00E949B
:1028A0009E438DE061E00E94103B01E010E04E018C
:1028B0000894811C911C2DE0A22EB12CAC0EBD1EE3
:1028C00097E0C92ED12CCC0EDD1E83E1E82EF12C31
:1028D000EC0EFD1E61C0C401B8014AE00E9428450B
:1028E00087E396E0B4010E949F45C4010E94B6456B
:1028F00080913B0690913C068130910589F4C60198
:102900006AE375E00E94F644C60167E376E00E9440
:10291000A644BC0187E396E00E949F45C60112C011
:10292000029791F4C5016DE375E00E94F644C5017C
:1029300067E376E00E94A644BC0187E396E00E942C
:102940009F45C5010E94BC450F5F1F4FC7016FE344
:1029500075E00E94F644C70167E376E00E94A64452
:1029600064E475E00E948A44BC0187E396E00E941B
:102970009F45C7010E94BC4587E396E06AE675E083
:102980004CE050E020E030E00E94B14388E39AE060
:102990006AE675E00E949E438DE097E06AE675E086
:1029A0000E945B17882309F096CF8DE396E067E3DA
:1029B00076E00E949F4588E39AE069E475E00E9412
:1029C000A14288E39AE06AE675E00E949E43689619
:1029D0000FB6F894DEBF0FBECDBFCF91DF911F9130
:1029E0000F91FF90EF90DF90CF90BF90AF909F90AE
:1029F0008F9008952CB5382F33702C7F322B3CBD2F
:102A00002DB590E0959587959595879581702E7F4A
:102A1000822B8DBD089585E361E00E94C33B85E371
:102A200061E00E94103B8CB580618CBD8CB58064E8
:102A30008CBD84E361E00E94103B83E361E00E946F
:102A4000103B0895FC011382128288EE93E0A0E00F
:102A5000B0E084839583A683B78386E895E091836D
:102A60008083128E118E14860895DF93CF930F9278
:102A7000CDB7DEB7FC016983A081B18112962D919B
:102A80003C911397BE016F5F7F4F41E050E0F90129
:102A900019950F90CF91DF910895DC015996ED9132
:102AA000FC915A97309719F420E030E018C0238940
:102AB00034894589568982859385A485B585281BE7
:102AC000390B4A0B5B0B2030B0E83B07B0E04B07FB
:102AD000B0E05B0720F02FEF3FE740E050E0C90196
:102AE0000895CF93DF93EC01898D9A8D009741F083
:102AF0000E941D1E898D9A8D0E94933C1A8E198EFC
:102B0000DF91CF910895FC01818D928D009711F096
:102B10000E94D31D0895DF93CF930F92CDB7DEB7F8
:102B2000FC01818D928D009749F0BE016F5F7F4F50
:102B300041E050E00E94F41E019719F02FEF3FEFA3
:102B400003C08981282F30E0C9010F90CF91DF9118
:102B50000895EF92FF920F931F93DF93CF930F92FD
:102B6000CDB7DEB77C01DC0159968D919C915A97C7
:102B7000009719F400E010E01FC0BE016F5F7F4FA7
:102B800041E050E00E94F41E019719F00FEF1FEF93
:102B900013C08981082F10E0D7015996ED91FC915F
:102BA0005A974285538564857585415050406040F1
:102BB0007040CF010E940D1DC8010F90CF91DF9191
:102BC0001F910F91FF90EF900895CF93DF93EC0149
:102BD000E98DFA8D309761F013821282CF010E9445
:102BE00039219C01E98DFA8D82819381892B31F005
:102BF00081E090E09B838A8320E030E0C901DF918F
:102C0000CF910895EF92FF920F931F93CF93DF938D
:102C1000EC01F62EE72E8A011B821A8288EE93E0E1
:102C2000A0E0B0E08C839D83AE83BF8386E895E00F
:102C3000998388838DE190E00E94F63B9A8F898F7B
:102C4000009791F0DC018F2D9E2D9C01F9018DE103
:102C500001900D928150E1F7CE010C96B8014CE045
:102C600050E00E942307188EDF91CF911F910F91A2
:102C7000FF90EF9008950F931F93CF93DF938C01F4
:102C8000FB01C081D181FC01EC0FFD1F80818F32DF
:102C900009F4219698012C0F3D1FA0E0B0E00BC075
:102CA000FA01EA0FFB1F8083119621962F5F3F4F99
:102CB000AC30B10531F0F90180818F3211F08823F9
:102CC00079F7A40FB51F1C92F801EC0FFD1F80814E
:102CD0008F3209F42196FB01D183C083C00FD11F2D
:102CE0008881811181E0DF91CF911F910F9108952B
:102CF00010921207109213071092160710921807DD
:102D000082E090E0A0E0B0E08093190790931A076A
:102D1000A0931B07B0931C071092300710923A073C
:102D20001092390786E995E090933807809337072A
:102D300010923C070895EF92FF921F93DF93CF9379
:102D4000CDB7DEB76D970FB6F894DEBF0FBECDBF1F
:102D50009C01AB011C821B8286E995E09A838983E2
:102D60001E827E010894E11CF11CC701B90121E01B
:102D70000E946523182F882319F0C7010E941D1E89
:102D8000812F6D960FB6F894DEBF0FBECDBFCF91E9
:102D9000DF911F91FF90EF9008952F923F924F92F5
:102DA0005F926F927F928F929F92BF92CF92DF92AB
:102DB000EF92FF920F931F93DF93CF93CDB7DEB7C0
:102DC000C954D0400FB6F894DEBF0FBECDBF1C0172
:102DD0007B012A0139011B8A1A8A86E995E0998BC1
:102DE000888B1D8A18AA1FA69EA78DA71AAA1A82C9
:102DF00019828B0120E1C22ED12CCC0EDD1E93E076
:102E0000892E912C8C0E9D1E03C0C80186016C0179
:102E1000C101BE016F5F7F4FA4010E943B16B82E17
:102E200040E0882309F441E0C801B4019301F201B4
:102E30001995882339F40E151F0519F1C8010E9450
:102E40001D1E1FC0BB20A9F0C601B801A40121E0CE
:102E50000E946523B82E0E151F0519F0C8010E94A7
:102E60001D1EBB2071F00E151F0579F6CE018D9643
:102E7000CDCF0E151F0519F0C8010E941D1E81E05F
:102E800001C080E0C75BDF4F0FB6F894DEBF0FBE16
:102E9000CDBFCF91DF911F910F91FF90EF90DF9009
:102EA000CF90BF909F908F907F906F905F904F904A
:102EB0003F902F9008959B01BC01665D7F4FC90133
:102EC0004BE956E120E030E00E94CD1608952F92A4
:102ED0003F924F925F926F927F928F929F92AF92AA
:102EE000BF92CF92DF92EF92FF920F931F93DF93E7
:102EF000CF93CDB7DEB7C754D0400FB6F894DEBF3E
:102F00000FBECDBF582E492EFB013A01190184A5F1
:102F100095A5998B888B26E935E03F872E8786A576
:102F20008A8B87A58B8B80A991A9A2A9B3A98C8B29
:102F30009D8BAE8BBF8B84A995A9A6A9B7A9888FB5
:102F4000998FAA8FBB8F80AD91ADA2ADB3AD8C8FA1
:102F50009D8FAE8FBF8F84AD88A3FD968191919197
:102F6000A191B19189A39AA3ABA3BCA381919191A3
:102F7000A191B1918DA39EA3AFA3B8A780819181A8
:102F80009AA789A71EA61DA63CA72BA718AA7A0157
:102F90008E01025F1F4F3BE2A32EB12CAC0EBD1E73
:102FA0004E010894811C911C35C0D7018C918F3241
:102FB00021F40894E11CF11C2DC0422F4E194D3014
:102FC00008F04CE0C42EDD24C401B701A6010E9424
:102FD0002307F401EC0DFD1D1082C5010E941D1E8A
:102FE000C501B801A40121E00E946523882351F4A2
:102FF000E52DF42D1382128286E995E0918380837A
:10300000158266C0EC0CFD1CC8010E941D1EC50186
:1030100058018C01C7016FE270E00E9408079C0113
:10302000009719F6E618F708F101F182E082E52D24
:10303000F42DD80112968D919C91139793838283DE
:1030400086E995E09183808314968C91149784830C
:1030500015968C911597858316962D913D914D91DE
:103060005C91199726833783408751871A962D9153
:103070003D914D915C911D972287338744875587F9
:103080001E962D913D914D915C91519726873787E2
:10309000408B518B52968C915297828B53962D91E7
:1030A0003D914D915C915697238B348B458B568B7C
:1030B00057962D913D914D915C915A97278B308F6A
:1030C000418F528F5B968D919C915C97948F838FEB
:1030D000852D942DC95BDF4F0FB6F894DEBF0FBE70
:1030E000CDBFCF91DF911F910F91FF90EF90DF90B7
:1030F000CF90BF90AF909F908F907F906F905F9098
:103100004F903F902F9008959F92AF92BF92CF9291
:10311000DF92EF92FF920F931F93DF93CF93CDB780
:10312000DEB7C657D0400FB6F894DEBF0FBECDBF96
:10313000C82E992E8A01D22E43E0A42EB12CAC0EBB
:10314000BD1EC501A8019E012F5F3F4F0E9467175A
:10315000E980FA80E00EF11EF701808146E955E032
:103160002885882309F03FC08D819E819BA38AA377
:1031700059A348A38F818CA32DA389859A85AB85FC
:10318000BC858EA39FA3A8A7B9A78D859E85AF8573
:10319000B8898AA79BA7ACA7BDA789899A89AB895B
:1031A000BC898EA79FA7A8ABB9AB8D898AAB8E8946
:1031B0009F89A88DB98D8BAB9CABADABBEAB8A8D17
:1031C0009B8DAC8DBD8D8FAB98AFA9AFBAAF8E8DF7
:1031D0009F8D9CAF8BAF8C2D992DBE01605E7F4F74
:1031E00043E555E09FC0FE01FF96118210825EAF5D
:1031F0004DAFFE01EE5BFF4F10822223A9F022505B
:10320000CE01CD96223048F467E377E0A7012D2D5B
:103210000E946523882381F407C0B501A7012D2DE5
:103220000E946523882329F48C2D992D0E94221554
:103230007BC0C5010E941D1EF6E0DF2259F0FE0191
:10324000E05BFF4F4081518162817381CE01CD9659
:103250000E940D1D9E01265A3F4FFE01FF96808160
:103260009181F9019383828386E995E0918380833C
:10327000FE01EF5BFF4F8081F9018483FE01EE5B6D
:10328000FF4F8081F9018583FE01ED5BFF4F808157
:103290009181A281B381F90186839783A087B18749
:1032A000FE01E95BFF4F80819181A281B381F90129
:1032B00082879387A487B587FE01E55BFF4F8081F6
:1032C0009181A281B381F90186879787A08BB18B09
:1032D000FE01E15BFF4F8081F901828BFE01E05B23
:1032E000FF4F80819181A281B381F901838B948BFF
:1032F000A58BB68BFE01EC5AFF4F80819181A28194
:10330000B381F901878B908FA18FB28FFE01E85AAC
:10331000FF4F80819181F901948F838F8C2D992D9E
:10332000B901A7010E9402168C2D992DCA58DF4FB2
:103330000FB6F894DEBF0FBECDBFCF91DF911F91C6
:103340000F91FF90EF90DF90CF90BF90AF909F9044
:1033500008950F931F93CF93DF93EC01462F61E005
:103360000E940C1C8823D1F08E01045F1F4FC801FE
:10337000BE0141E00E940625882339F4C801BE0140
:1033800040E00E940625882349F0CE018A96B801C4
:103390000E945320882319F081E001C080E0DF9172
:1033A000CF911F910F910895FF920F931F93CF9389
:1033B000DF938B010E94383AEB01FF24FA94FEBCA4
:1033C0000DB407FEFDCF8EB58F3F11F481E008C02C
:1033D0000E94383A6C1B7D0B6017710780F380E008
:1033E000DF91CF911F910F91FF900895FC016730FD
:1033F00020F086E1858380E008956330B9F0643081
:1034000028F4613069F0623070F407C06530A1F0D3
:10341000653078F06630A9F412C084E090E011C005
:1034200080E090E00EC085E090E00BC081E090E08D
:1034300008C086E090E005C082E090E002C083E032
:1034400090E00E94FA1481E00895FC01848160E01C
:103450000E94C33B0895FC01848161E00E94C33B4C
:103460000895DC016EBD0DB407FEFDCF8EB520E0E2
:1034700030E0FA01E20FF31F80818EBD0DB407FE2C
:10348000FDCF8EB52F5F3F4F82E02030380789F7A0
:103490008FEF8EBD0DB407FEFDCF8EB58FEF8EBDC5
:1034A0000DB407FEFDCF8EB58FEF8EBD0DB407FEB8
:1034B000FDCF8EB51A968C931A978F71853011F4C3
:1034C00081E0089581E115968C931597CD010E94B6
:1034D0002B1A80E00895FF920F931F93CF93DF93F1
:1034E000EC010E94383A8B01FF24FA9409C00E9433
:1034F000383A601B710B6D52714010F08FE00DC0B7
:10350000FEBC0DB407FEFDCF8EB58A878F3F79F3E1
:103510008E3F11F481E006C08DE08D83CE010E94C4
:103520002B1A80E0DF91CF911F910F91FF900895AA
:10353000CF93DF93EC018E818823B1F02F81388502
:103540004FEF05C04EBD0DB407FEFDCF8EB52F5F0A
:103550003F4FC901019782509240A0F338872F83D3
:10356000CE010E942B1A1E82DF91CF910895DF9227
:10357000EF92FF920F931F93CF93DF93EC01D62E20
:1035800079018A010E94981ACE010E94251ACE0163
:103590006CE271E00E94D4198D2D80648EBD0DB453
:1035A00007FEFDCF8EB528E130E0D801C701022E1D
:1035B00004C0B695A795979587950A94D2F78EBDC6
:1035C0000DB407FEFDCF8EB5285030408FEF283F59
:1035D000380759F7DD2011F485E906C088E0D816D0
:1035E00011F487E801C08FEF8EBD0DB407FEFDCF4B
:1035F0008EB590E02FEF2EBD0DB407FEFDCF8EB53A
:1036000087FF02C09150B9F78A87DF91CF911F9150
:103610000F91FF90EF90DF900895CF92DF92EF929D
:10362000FF920F931F93CF93DF93EC017A018B01ED
:103630006901411551056105710511F482E137C039
:103640008B85833039F099E0EE0CFF1C001F111FB1
:103650009A95D1F7CE0168E1A80197010E94B71AA7
:10366000882311F084E023C0CE016EEFA6010E94F2
:10367000311A8823E9F0CE0168E572E00E94D4197E
:10368000882311F485E113C0CE016DE020E030E025
:1036900040E050E00E94B71A882341F48FEF8EBDBE
:1036A0000DB407FEFDCF8EB5882379F084E18D83BC
:1036B000CE010E942B1A80E0DF91CF911F910F91D4
:1036C000FF90EF90DF90CF900895CE010E942B1ACB
:1036D00081E0F2CF8F929F92AF92BF92CF92DF9212
:1036E000EF92FF920F931F93CF93DF93EC015A0158
:1036F0006B0149010115110509F470C0C801820F61
:10370000931F8150924008F064C08E81882371F02D
:1037100088819981AA81BB81481759076A077B076D
:1037200029F48F8198858816990610F5A882B982A8
:10373000CA82DB828B85833039F059E0AA0CBB1C2E
:10374000CC1CDD1C5A95D1F7CE0161E1A601950193
:103750000E94B71A882319F083E08D833AC0CE0106
:103760000E946B1A8823A9F118861F8281E08E833C
:103770008F8198852FEF06C02EBD0DB407FEFDCFBB
:103780003EB5019688159905B8F398878F8320E098
:1037900030E09FEF0BC09EBD0DB407FEFDCF8EB590
:1037A000F701E20FF31F80832F5F3F4F2017310790
:1037B00090F32F813885200F311F38872F8389851B
:1037C000882319F02050324048F0CE010E94981A08
:1037D00005C0CE010E942B1A80E001C081E0DF917C
:1037E000CF911F910F91FF90EF90DF90CF90BF90FE
:1037F000AF909F908F900895EF92FF920F931F9339
:10380000790120E030E000E012E00E946A1B1F9185
:103810000F91FF90EF900895BF92CF92DF92EF92B9
:10382000FF920F931F93CF93DF93EC01B62E1B866D
:1038300019861E821D824C830E94383A6B018C814E
:1038400061E00E94103BCE010E942B1A0E940B15D2
:1038500083E00E94FA1480E09FEF9EBD0DB407FE46
:10386000FDCF2EB58F5F8A30C1F7CE010E94251A99
:1038700009C00E94383A6C197D09615D774010F0EB
:1038800081E05EC0CE0160E020E030E040E050E04A
:103890000E94B71A182F8A87813059F7CE0168E045
:1038A0002AEA31E040E050E00E94B71A82FF02C0ED
:1038B0001B8711C080E02FEF2EBD0DB407FEFDCF9A
:1038C0009EB58F5F8430C1F79A879A3A11F082E0F3
:1038D00037C082E08B878B85823021F0EE24FF2475
:1038E00087010FC0E12CF12C012D60E4162F09C0D7
:1038F0000E94383A6C197D09615D774010F088E0CC
:103900001FC0CE0167E320E030E040E050E00E94BD
:10391000B71ACE0169E2A80197010E94B71A8A87F7
:10392000882331F78B85823031F5CE016AE320E0C0
:1039300030E040E050E00E94B71A882339F086E07A
:103940008D83CE010E942B1A80E01CC08FEF8EBDAC
:103950000DB407FEFDCF8EB5807C803C11F483E072
:103960008B8780E09FEF9EBD0DB407FEFDCF2EB587
:103970008F5F8330C1F7CE010E942B1ACE016B2DD1
:103980000E94F619DF91CF911F910F91FF90EF9058
:10399000DF90CF90BF900895CF93DF93EC01DB01D0
:1039A00080E090E020E2FD01E80FF91F20830196FE
:1039B0008B309105C1F757E040E021C02E3219F05D
:1039C00089E49CE007C05A3019F15AE048E017C07A
:1039D0003217F1F0FC01019634913323C9F75417E3
:1039E000B8F02132A8F02F3798F4822F81568A310F
:1039F00008F42052FD01E40FF11D20834F5F29914F
:103A00002223E1F690E08C91803219F091E001C020
:103A100090E0892FDF91CF9108956F927F928F92DE
:103A20009F92AF92BF92CF92DF92EF92FF920F934D
:103A30001F93CF93DF93EC017A018B012D81222319
:103A400009F480C08B899C89AD89BE89841795074C
:103A5000A607B70708F476C085C0E114F104010594
:103A6000110549F41E821F82188619861A861B8644
:103A70001C861D8665C02A853B854C855D85EB8D42
:103A8000FC8D858590E009962150304040405040A3
:103A900039014A01082E04C096948794779467945C
:103AA0000A94D2F72F5F3F4F4F4F5F4F0894E108C2
:103AB000F108010911095701680104C0D694C7949F
:103AC000B794A7948A95D2F70894E11CF11C011DC4
:103AD000111DA614B704C804D90428F02115310516
:103AE0004105510549F48F89988DA98DBA8D8E8332
:103AF0009F83A887B98716C0A618B708C808D90831
:103B000011C04E815F81688579858B8D9C8D940174
:103B10000E94E7260894A108B108C108D1088823AB
:103B200031F410C086E0882E912C8C0E9D1EA114BD
:103B3000B104C104D10429F7EA86FB860C871D87EE
:103B400081E001C080E0DF91CF911F910F91FF9044
:103B5000EF90DF90CF90BF90AF909F908F907F902D
:103B60006F900895223009F078CFE6CFCF93DF939E
:103B7000EC01462F6E857F85888999890E94CB2428
:103B8000882319F420E030E00AC08A89282F30E029
:103B900095E0220F331F9A95E1F7285A384FC90153
:103BA000DF91CF9108950F931F93CF93DF938C01F3
:103BB000FC0185818823D9F1848187FF35C0C80144
:103BC00061E00E94B61DEC01009789F1F801858142
:103BD000823040F483899489A589B6898C8F9D8F22
:103BE000AE8FBF8FF8018789908D9B8F8A8F8789D1
:103BF000908DA18DB28DCD01AA27BB279D8B8C8B7B
:103C0000E0915607F0915707309751F0BE016A5E78
:103C10007F4FCE0148961995888D998D9B8B8A8B05
:103C2000F80184818F7784830E946C2401C080E036
:103C3000DF91CF911F910F910895CF93DF93EC0106
:103C40000E94D31D882311F01D8281E0DF91CF9166
:103C500008956F927F928F929F92AF92BF92CF9270
:103C6000DF92EF92FF920F931F93DF93CF9300D0D9
:103C70000F92CDB7DEB77C015A016B01DC011596BE
:103C80008C911597813009F08FC014968C9181FF2B
:103C90008BC09EC00097A105B10511F481E085C0DD
:103CA000F7016284738484849584C701B601A501F9
:103CB0000E940D1D882309F477C0D7015B968D9172
:103CC0009C915C97A114B104C104D10489F4579666
:103CD0004D915D916D917C915A970E945A2788234E
:103CE00009F462C0F701178A108E118E128E3DC042
:103CF000D70116964D915D916D917C9119979E011A
:103D00002F5F3F4F0E94E726882309F44DC0D7015B
:103D10005B96ED91FC915C9749815A816B817C8126
:103D20008789803129F088EF9FEFAFEFBFE004C0B3
:103D300088EF9FEFA0E0B0E0481759076A077B07BC
:103D4000A0F4CF010E945A27882371F1F701468120
:103D5000578160857185838D948D0FEF1FEF2FEF55
:103D60003FE00E944B268823F9F0D7015396AD928D
:103D7000BD92CD92DC92569714968C9114978068E0
:103D800014968C93C7010E94D31D882369F0B60155
:103D9000A5016A147B048C049D0410F4B401A301F2
:103DA000C7010E940D1D01C080E00F900F900F9081
:103DB0000F90CF91DF911F910F91FF90EF90DF90C7
:103DC000CF90BF90AF909F908F907F906F9008950D
:103DD000F70183899489A589B68984179507A60771
:103DE000B70708F057CFE0CF2F923F924F925F92E4
:103DF0006F927F928F929F92AF92BF92CF92DF92FB
:103E0000EF92FF920F931F93CF93DF93EC012A0160
:103E10008D81882309F4C6C08C8180FFC3C0D8C0BF
:103E200025014E185F084B0176E0272E312C2C0E11
:103E30003D1E3201B1C02A853B854C855D856FEF03
:103E4000A62E61E0B62EA222B3228D8179018A01CD
:103E500099E016950795F794E7949A95D1F7EB8D2D
:103E6000FC8D823049F4428D538D648D758D4E0DDD
:103E70005F1D601F711F3FC0D480DA94DE20A11443
:103E8000B104D9F4DD20C9F42115310541055105EE
:103E900049F48F89988DA98DBA8D8E839F83A887C9
:103EA000B9870BC04E815F8168857985CF0191010B
:103EB0000E94E726882309F475C0EB8DFC8D4E81A6
:103EC0005F8168857985425050406040704005842C
:103ED00004C0440F551F661F771F0A94D2F78685CA
:103EE0009785A089B189480F591F6A1F7B1F4D0D07
:103EF000511D611D711D80E092E08A199B096301CB
:103F00008615970508F46C018C8186FD06C080E05B
:103F1000C81682E0D80609F073C0809176059091AA
:103F20007705A0917805B0917905481759076A0778
:103F30007B0709F465C08091580990915909950152
:103F4000860174010E946A1B882361F18C0C9D1C00
:103F500012C09501285A384FA9014C0D5D1DD4019E
:103F6000F90102C081918D93E417F507D9F7E21B9F
:103F7000F30B8E0E9F1E960140E050E08A859B85D4
:103F8000AC85BD85820F931FA41FB51F8A879B87B1
:103F9000AC87BD876C187D086114710409F04BCFA4
:103FA000A20102C04FEF5FEFCA01DF91CF911F91D5
:103FB0000F91FF90EF90DF90CF90BF90AF909F90C8
:103FC0008F907F906F905F904F903F902F900895CB
:103FD000AB88BC88CD88DE88EA84FB840C851D858F
:103FE0009A0140E050E0D601C5018E199F09A00B4F
:103FF000B10B82179307A407B50708F411CF13CFAD
:10400000CB01BA0140E00E94CB24882309F0A1CF64
:10401000C9CFCF92DF92EF92FF920F931F93DF935E
:10402000CF930F92CDB7DEB76C01FC018581823052
:1040300070F0E284F38404851585C601BE016F5FCC
:104040007F4F41E050E00E94F41E019769F020E0AC
:1040500030E0C9010F90CF91DF911F910F91FF9038
:10406000EF90DF90CF900895F60182859385A48527
:10407000B5854F96A11DB11D82879387A487B5870B
:10408000F5E016950795F794E794FA95D1F78E2DFC
:104090008F70282F30E0E5E0220F331FEA95E1F71B
:1040A000285A384FD6CF0F931F93CF93DF93EC014D
:1040B0008B018D81882309F041C0FB018789803104
:1040C000B1F482E08D831F8A188E198E1A8E808D2E
:1040D000918DA0E0B0E045E0880F991FAA1FBB1F9B
:1040E0004A95D1F78B8B9C8BAD8BBE8B15C08032E4
:1040F00029F583E08D83FB01428D538D648D758D91
:104100004F8B588F698F7A8F9E012D5E3F4FC8016C
:104110000E94B327882391F01C8F0B8F81E08C8342
:104120001E821F82188619861A861B861C861D868B
:104130001E861F86188A198A1A8A01C080E0DF91BC
:10414000CF911F910F9108951F93CF93DF93EC01AF
:10415000142FE62FF0E075E0EE0FFF1F7A95E1F7E0
:10416000E85AF84F8385817121F0842F827409F019
:1041700054C06A8B8091760590917705A09178055F
:10418000B09179058E879F87A88BB98B8489958993
:10419000A0E0B0E0BC0155274427828D938DA0E0BC
:1041A000B0E0482B592B6A2B7B2B4F8B588F698F94
:1041B0007A8F838590E088719070009751F4848D98
:1041C000958DA68DB78D8B8B9C8BAD8BBE8B81E037
:1041D0000CC0409711F59E012D5E3F4F8B8D9C8D3D
:1041E0000E94B3278823C9F084E08D83812F8F70CC
:1041F0008C831E821F82188619861A861B861C864F
:104200001D8616FD02C081E009C0CE0140E050E0ED
:1042100060E070E00E94291E01C080E0DF91CF9134
:104220001F910895CF93DF93EC019C012A5F3F4FCC
:104230008B8D9C8D41E050E060E070E00E94222870
:104240008823A1F08F89988DA98DBA8D0097A1053B
:10425000B10559F48E819F81A885B9858F8B988F80
:10426000A98FBA8F8C8180688C8381E0DF91CF9198
:1042700008952F923F924F925F927F928F929F92DA
:10428000AF92BF92CF92DF92EF92FF920F931F9364
:10429000DF93CF9300D000D0CDB7DEB76C01162FDF
:1042A000072F5E834D83DC0115968C911597813025
:1042B00009F070C114968C9181FF6CC18EC1F6011A
:1042C000438954896589768982859385A485B585D6
:1042D00084179507A607B70731F0C6010E940D1D88
:1042E000882309F457C1812F902F9C0129012D802B
:1042F0003E8017C1D6015B96ED91FC915C97DA0187
:10430000C90119E0B695A795979587951A95D1F7A4
:1043100074807A9478227FEF872E71E0972E822224
:104320009322772009F04EC08114910409F04AC00D
:10433000D60116964D915D916D917C91199741151D
:1043400051056105710581F457968D919D910D90F0
:10435000BC91A02D0097A105B10549F1F601868316
:104360009783A087B1872EC0CF019E012F5F3F4F5B
:104370000E94E726882309F414C129813A814B81E0
:104380005C81D6015B96ED91FC915C9787898031C9
:1043900029F088EF9FEFAFEFBFE004C088EF9FEFF9
:1043A000A0E0B0E0281739074A075B0730F0C601E4
:1043B0000E941221882331F4EDC0F6012683378351
:1043C0004087518780E092E0881999095101821550
:1043D000930508F45C01D6015B96ED91FC915C9726
:1043E0001696ED90FD900D911C9119978EEF9FEF11
:1043F000AFEFBFEFE80EF91E0A1F1B1F058404C0B4
:10440000EE0CFF1C001F111F0A94D2F786859785BA
:10441000A089B189E80EF91E0A1F1B1FE70CF11CC9
:10442000011D111D90E0A91692E0B90651F5809189
:10443000760590917705A0917805B09179058E1554
:104440009F05A007B10761F48FEF9FEFAFEFBFEFBC
:104450008093760590937705A0937805B0937905BE
:104460008091580990915909B801A70192010E94C1
:104470000D1B882309F48EC0A0E0B2E04A0E5B1E3B
:104480003EC08114910409F5F601228533854485E7
:10449000558583899489A589B689281739074A07DC
:1044A0005B0798F00E946C24882309F473C0E092A3
:1044B0007605F09277050093780510937905809141
:1044C0005A09816080935A0908C0C801B70141E0C8
:1044D0000E94CB24882309F45DC09401285A384FE8
:1044E000A9014A0D5B1DD201F90102C08D91819392
:1044F000E417F507D9F7E21BF30B4E0E5F1E2A18DF
:104500003B08950140E050E0F60182859385A48543
:10451000B585820F931FA41FB51F82879387A48739
:10452000B587D6011A962D913D914D915C911D97BD
:104530002114310409F0DECE53968D919D910D909A
:10454000BC91A02D82179307A407B50748F4F60184
:10455000238B348B458B568B84818068848311C078
:104560008091560790915707892B59F08D819E8134
:10457000892B39F0D60114968C9114978068149683
:104580008C93F601848183FF0EC0C6010E94D31D67
:10459000882349F481E090E0D60113969C938E9392
:1045A00012971E821D828D819E8126960FB6F894E9
:1045B000DEBF0FBECDBFCF91DF911F910F91FF9056
:1045C000EF90DF90CF90BF90AF909F908F907F90B3
:1045D0005F904F903F902F90089582FD70CE83CED4
:1045E000DF93CF930F92CDB7DEB76983BE016F5FC4
:1045F0007F4F41E050E00E9439210F90CF91DF9131
:104600000895DF92EF92FF920F931F93CF93DF9362
:10461000EC010E941221882309F44EC0EB8DFC8D21
:10462000EE80FF80088519858EEF9FEFAFEFBFEF1B
:10463000E80EF91E0A1F1B1F058404C0EE0CFF1CA8
:10464000001F111F0A94D2F786859785A089B1892A
:10465000E80EF91E0A1F1B1FD4800894E108F10818
:10466000010911090BC0C801B7016D0D711D811D34
:10467000911D0E94A7248823F9F0DA94DD2099F790
:10468000EB8DFC8D20E032E040E050E0058404C07A
:10469000220F331F441F551F0A94D2F78B899C8920
:1046A000AD89BE89820F931FA41FB51F8B8B9C8B76
:1046B000AD8BBE8B81E001C080E0DF91CF911F9177
:1046C0000F91FF90EF90DF9008956F927F928F92FD
:1046D0009F92AF92BF92CF92DF92EF92FF920F9391
:1046E0001F93DF93CF93CDB7DEB72B970FB6F89418
:1046F000DEBF0FBECDBF5C016B01822EDC011596C3
:104700008C91882309F0D2C0CA018E010F5F1F4F20
:10471000B8010E94CC1C882309F4C8C0F601838D1F
:10472000948DD5015C969C938E935B97168217822D
:1047300010861186D6011A961D921D921D921C920A
:104740001D979924380141C0C6010E940920FC012F
:10475000009709F4ABC085E016950795F794E794A8
:104760008A95D1F71E2D1F708081882311F0853E18
:10477000D1F4992091F4D50152961C93529720912F
:1047800076053091770540917805509179051E9610
:104790002D933D934D935C9351978081882399F499
:1047A0009924939421C0C301BF014BE050E00E94C3
:1047B000F206009751F4882D8073803309F476C097
:1047C000C501612F6FC099249394F601E284F384AC
:1047D0000485158583899489A589B689E816F90623
:1047E0000A071B0708F4B0CF882D8271823109F0C7
:1047F0005DC0992041F0C50161E00E94B61D8C01A9
:10480000009789F453C0D60115968C91823009F433
:104810004DC0C6010E940123882309F447C0F50159
:10482000128A08E517E080E2D8011D928A95E9F71F
:10483000D801FE0131968BE001900D928150E1F795
:10484000E0915607F0915707309739F0B801625F51
:104850007F4FC8014096199509C081E298E2F8019E
:10486000918B808B80E098E097878687D80150965F
:104870008D919C91519753969C938E9352975996F4
:104880009C938E9358971E968D919C911F97579647
:104890009C938E9356970E946C24882339F0C5010F
:1048A000F5016289482D0E94A42001C080E02B966A
:1048B0000FB6F894DEBF0FBECDBFCF91DF911F9131
:1048C0000F91FF90EF90DF90CF90BF90AF909F90AF
:1048D0008F907F906F90089580915A09882399F165
:1048E0004091760550917705609178057091790532
:1048F000809158099091590928E537E00E940D1BD5
:10490000882319F140915B0950915C0960915D0920
:1049100070915E09411551056105710591F0809115
:1049200058099091590928E537E00E940D1B88230A
:1049300061F010925B0910925C0910925D0910926F
:104940005E0910925A0981E0089580E00895EF927F
:10495000FF920F931F937B018C010E946C2488238C
:10496000A9F0E8E5F7E0119289E0E835F807D9F712
:10497000E0927605F092770500937805109379051B
:1049800080915A09816080935A0981E01F910F91AB
:10499000FF90EF900895DF92EF92FF920F931F9395
:1049A0007B018C01D42E8091760590917705A091A2
:1049B0007805B09179058E159F05A007B107C1F064
:1049C0000E946C248823D9F080915809909159094C
:1049D000B801A70128E537E00E94FC1B882379F085
:1049E000E0927605F09277050093780510937905AB
:1049F00080915A098D2980935A0981E001C080E095
:104A00001F910F91FF90EF90DF9008958F929F92EA
:104A1000AF92BF92CF92DF92EF92FF920F931F93CC
:104A2000CF93DF936C01142F709359096093580949
:104A3000442321F488249924540140C0453008F0CF
:104A40001CC160E070E080E090E040E00E94CB2478
:104A5000882309F412C1C12FD0E02197FE0174E030
:104A6000EE0FFF1F7A95E1F7E85AF84FE254FE4F38
:104A70008081EE5BF14090E08F779070892B09F098
:104A8000FCC0E653FE4F80819181A281B3818436C0
:104A90009105A105B10508F4F0C064E0CC0FDD1F5D
:104AA0006A95E1F7C25ED64F88809980AA80BB8064
:104AB00081149104A104B10409F4DFC0C501B4015B
:104AC00040E00E94CB24882309F4D7C0809163077B
:104AD000909164078050924009F0CFC02091680700
:104AE000222309F4CAC08091660790916707892B39
:104AF00009F4C3C080916507882309F4BEC0F6019C
:104B0000228B809165078483158661E070E007C081
:104B10004F5FF60145874150483008F0AEC0F601BE
:104B20004585848190E09B01042E02C0220F331F33
:104B30000A94E2F78217930759F720916E07309194
:104B40006F072115310519F040E050E008C02091B1
:104B50007C0730917D0740917E0750917F07F601D9
:104B60002583368347835087E0906607F090670778
:104B700000E010E0E80CF91C0A1D1B1DE38AF48A12
:104B8000058B168B8091690790916A07918F808FB2
:104B90006091680770E080E090E00E94034A6E0D2B
:104BA0007F1D801F911FF601628F738F848F958FF9
:104BB0002091690730916A0755E0220F331F5A95FB
:104BC000E1F721503E4F232F3327269540E050E058
:104BD000260F371F481F591F26873787408B518B59
:104BE00080916B0790916C07009719F0A0E0B0E0FE
:104BF00008C08091780790917907A0917A07B091C9
:104C00007B0785017401E21AF30A040B150BA80156
:104C10009701280F391F4A1F5B1FF601058404C046
:104C200056954795379527950A94D2F7218732876D
:104C300043875487253FFFE03F07F0E04F07F0E050
:104C40005F0710F48CE006C0255F3F4F40405040A6
:104C500028F480E1F601878B81E010C08091840701
:104C600090918507A0918607B0918707F601828F02
:104C7000938FA48FB58F80E2EECF80E0DF91CF914C
:104C80001F910F91FF90EF90DF90CF90BF90AF906A
:104C90009F908F9008954F925F926F927F928F9224
:104CA0009F92AF92BF92CF92DF92EF92FF920F93BB
:104CB0001F93CF93DF93EC016A017B012801390137
:104CC000423051056105710508F46FC089859A85E8
:104CD000AB85BC850196A11DB11D84179507A6075C
:104CE000B70708F462C02B893C894D895E898F899A
:104CF000803129F499278F2D7E2D6D2D09C0C70194
:104D0000B60117E096958795779567951A95D1F72F
:104D10004B015C01820E931EA41EB51E8091760588
:104D200090917705A0917805B0917905881699063C
:104D3000AA06BB0639F0C501B40140E00E94CB24AD
:104D4000882399F18F89803149F4F601F070EE0FD4
:104D5000FF1FE85AF84F518240820DC0F601EF77ED
:104D6000F070EE0FFF1FEE0FFF1FE85AF84F408262
:104D700051826282738280915A09816080935A09BC
:104D80008A89823080F08D819E81AF81B885880EBE
:104D9000991EAA1EBB1E80925B0990925C09A0928C
:104DA0005D09B0925E0981E001C080E0DF91CF91A2
:104DB0001F910F91FF90EF90DF90CF90BF90AF9039
:104DC0009F908F907F906F905F904F900895CF92BB
:104DD000DF92EF92FF920F931F93CF93DF93EC013B
:104DE0007A018B01690189859A85AB85BC8501961D
:104DF000A11DB11D84179507A607B70708F450C079
:104E00002B893C894D895E898F89803129F49927C6
:104E1000812F702F6F2D09C0C801B701E7E096956B
:104E2000879577956795EA95D1F7260F371F481F25
:104E3000591F8091760590917705A0917805B091E2
:104E40007905281739074A075B0739F0CA01B90104
:104E500040E00E94CB24882319F18F89803159F4D6
:104E6000F701F070EE0FFF1FE85AF84F8081918133
:104E7000A0E0B0E00EC0F701EF77F070EE0FFF1F7B
:104E8000EE0FFF1FE85AF84F80819181A281B38114
:104E9000BF70F60180839183A283B38381E001C058
:104EA00080E0DF91CF911F910F91FF90EF90DF9005
:104EB000CF900895AF92BF92CF92DF92EF92FF9280
:104EC0000F931F93DF93CF9300D00F92CDB7DEB730
:104ED0006C017A018B0182E090E0A0E0B0E0F60185
:104EE00080839183A283B3835E010894A11CB11CCB
:104EF000C601B801A70195010E94E726882319F190
:104F0000C601B801A70100E010E020E030E00E94F7
:104F10004B268823C1F0E980FA800B811C81F601C1
:104F20008789803129F088EF9FEFAFEFBFE004C0A1
:104F300088EF9FEFA0E0B0E0E816F9060A071B072C
:104F4000B8F281E001C080E00F900F900F900F90B9
:104F5000CF91DF911F910F91FF90EF90DF90CF9055
:104F6000BF90AF9008954F925F926F927F928F9211
:104F70009F92AF92BF92CF92DF92EF92FF920F93E8
:104F80001F93DF93CF9300D00F92CDB7DEB76C01A4
:104F900049835A836B837C833901EE24FF24870184
:104FA0002E010894411C511C812CA2E09A2EA12CA8
:104FB000B12C49815A816B817C81C60192010E948A
:104FC000E726882351F1D501C401F601058404C008
:104FD000880F991FAA1FBB1F0A94D2F7E80EF91E6B
:104FE0000A1F1B1F29813A814B815C81878980318F
:104FF00029F088EF9FEFAFEFBFE004C088EF9FEF8D
:10500000A0E0B0E0281739074A075B0790F2F301E8
:10501000E082F1820283138381E00F900F900F9062
:105020000F90CF91DF911F910F91FF90EF90DF9044
:10503000CF90BF90AF909F908F907F906F905F9038
:105040004F9008952F923F924F925F926F927F926E
:105050008F929F92AF92BF92CF92DF92EF92FF9288
:105060000F931F93DF93CF93CDB7DEB72F970FB674
:10507000F894DEBF0FBECDBF1C014A875B876C87EB
:105080007D873F872E87D9010D911D912D913C91F0
:10509000011511052105310549F048015901089410
:1050A000811C911CA11CB11C198610C0FC018080C0
:1050B0009180A280B38019868A859B85AC85BD8549
:1050C0000197A105B10511F491E09987D1011996D5
:1050D0008D919D910D90BC91A02D0196A11DB11DAA
:1050E0008D839E83AF83B887750164014424552462
:1050F00032018E010F5F1F4FF10181859285A385DB
:10510000B485481659066A067B0608F090C08D8162
:105110009E81AF81B8858C159D05AE05BF0550F405
:1051200082E0882E912CA12CB12CB2E0CB2ED12C78
:10513000E12CF12CC101B701A60198010E94E726DC
:10514000882309F474C089819A81AB81BC81A7014D
:1051500096012F5F3F4F4F4F5F4F0097A105B1055D
:1051600019F049015A010DC0281939094A095B098A
:105170008A859B85AC85BD85281739074A075B075B
:1051800059F00894411C511C611C711C0894C11CED
:10519000D11CE11CF11CB0CFC101A601B7010FEF7A
:1051A0001FEF2FEF3FE00E944B26882399F43FC06A
:1051B0002601370108944108510861087108C101AE
:1051C000B301A201970186010E944B26882379F141
:1051D000730162018C149D04AE04BF0448F3AE85D4
:1051E000BF854D915D916D917C9141155105610592
:1051F000710539F0C101950184010E944B26882375
:10520000B1F0EE85FF8580829182A282B382F9851A
:10521000FF2359F00894811C911CA11CB11CD101E1
:105220008D929D92AD92BC92139781E001C080E077
:105230002F960FB6F894DEBF0FBECDBFCF91DF9192
:105240001F910F91FF90EF90DF90CF90BF90AF90A4
:105250009F908F907F906F905F904F903F902F9096
:10526000089581E08093A409609381091092A209B6
:105270001092A309089581E08093A40960938109A5
:105280001092A2091092A30908952091800930E09C
:1052900080917F09281B3109C901089540917F0938
:1052A00080918009481718F02FEF3FEF0AC0E42FD4
:1052B000F0E0E15AF64F8081282F30E04F5F4093B5
:1052C0007F09C9010895E0917F0980918009E8175D
:1052D00018F0EFEFFFEF06C0F0E0E15AF64F8081E3
:1052E000E82FF0E0CF01089508951092A8091092D8
:1052F000A70988EE93E0A0E0B0E08093A90990931D
:10530000AA09A093AB09B093AC098EE995E09093FC
:10531000A6098093A5090895CF92DF92EF92FF929C
:105320000F931F93CF93DF937C016B018A018091D0
:10533000A4098823A1F0C0E0D0E00DC0D701ED9111
:10534000FC91D601AC0FBD1F0190F081E02DC7018B
:105350006C9119952196C017D10780F304C0CB0139
:10536000642F0E94C22AC801DF91CF911F910F9133
:10537000FF90EF90DF90CF900895DF93CF930F923F
:10538000CDB7DEB7FC0169838091A4098823C9F0F9
:105390008091A309803238F081E090E0938382838A
:1053A00020E030E015C08091A209E82FF0E0EE5730
:1053B000F64F998190838F5F8093A2098093A30910
:1053C00005C0CE01019661E00E94C22A21E030E0D2
:1053D000C9010F90CF91DF9108950F93062F80910F
:1053E000810962E879E04091A30921E00E946D2AD9
:1053F0001092A2091092A3091092A4090F91089586
:1054000061E00E94ED290895413208F040E2862FC4
:105410006FE579E00E94242A10927F098093800929
:10542000089521E00E94042A089521E00E94042AA0
:10543000089510927F09109280091092A20910928B
:10544000A3090E94722C0895382F413210F040E0D9
:1054500042C08091B1098823E1F791E09093B109AE
:105460002093B3098FEF80931E0A1092D9094150FF
:105470004093DA094F5F9093B2098091B209330FDC
:10548000832B8093B2098091B409813041F410924A
:10549000B4098091B2098093BB0085EC01C085EE10
:1054A0008093BC008091B1098130E1F38091D909EA
:1054B000841710F44091D90920E030E00AC0FB01C4
:1054C000E20FF31FD901A754B64F8C9180832F5F51
:1054D0003F4F2417A0F3842F08950F931F93582F45
:1054E000122F413210F081E04AC08091B109882327
:1054F000E1F782E08093B1090093B3098FEF8093C5
:105500001E0A1092D9094093DA09A9EBB9E0FB0110
:1055100002C081918D938E2F861B8417D0F3109239
:10552000B2098091B209550F852B8093B209809101
:10553000B409813041F41092B4098091B20980938A
:10554000BB0085EC01C085EE8093BC00112321F0E7
:105550008091B1098230E1F380911E0A8F3F11F4EE
:1055600080E00DC080911E0A803211F482E007C0F5
:1055700080911E0A803311F084E001C083E01F9106
:105580000F910895482F613210F081E008958091C5
:10559000B109843011F082E008956093FC09ABED0D
:1055A000B9E0842F9C01F90102C081918D938E2F67
:1055B000841B8617D0F380E008951F920F920FB6D8
:1055C0000F920BB60F9211242F933F934F935F933B
:1055D0006F937F938F939F93AF93BF93EF93FF93BB
:1055E0008091B90090E0887F90708036910509F431
:1055F000F2C081369105CCF58832910509F47BC063
:1056000089329105B4F48031910509F46FC081317C
:1056100091053CF4009709F447C1089709F04FC180
:1056200065C08831910509F466C0809709F047C1CB
:1056300082C08034910509F4A4C08134910544F4FA
:105640008033910509F482C0C89709F038C189C038
:105650008035910509F489C08835910509F496C013
:105660008834910509F02BC1AEC08839910509F441
:1056700013C189399105ECF48837910509F4ABC061
:10568000893791054CF48836910509F4A4C0803718
:10569000910509F014C19FC08838910509F4FCC038
:1056A0008039910509F49DC08038910509F007C142
:1056B00098C0803B910509F4C6C0813B91054CF42C
:1056C000803A910509F49FC0883A910509F0F7C026
:1056D000BAC0803C910509F4E3C0883C910509F407
:1056E000DFC0883B910509F0EAC0C2C08091B209D1
:1056F0008093BB00CFC09091D9098091DA099817A7
:1057000068F49091D909E92FF0E0E754F64F8081D1
:105710008093BB009F5F9093D909BCC08091B3096F
:10572000882309F44BC085ED8093BC008091BC00B8
:1057300084FDFCCFC2C080E280931E0A85ED809379
:10574000BC008091BC0084FDFCCFB7C080E3809397
:105750001E0A85ED8093BC008091BC0084FDFCCFC7
:10576000ACC088E380931E0A9BC08091D9099091B8
:10577000BB00E82FF0E0E754F64F90838F5F8093F3
:10578000D9099091D9098091DA0982C08091D9090B
:105790009091BB00E82FF0E0E754F64F90838F5FC5
:1057A0008093D9098091B309882341F085ED8093D6
:1057B000BC008091BC0084FDFCCF7FC081E0809361
:1057C000B40984EA6EC085ED8093BC008091BC0072
:1057D00084FDFCCF72C083E08093B10910921D0A52
:1057E00059C080911D0A803208F056C080911D0A70
:1057F0009091BB00E82FF0E0E350F64F90838F5F6D
:1058000080931D0A47C080911D0A803230F4E091D8
:105810001D0AF0E0E350F64F108285ED8093BC0046
:105820008091BC0084FDFCCF1092B10960911D0AEB
:10583000E091B709F091B8098DEF99E070E0199502
:1058400010921D0A2DC084E08093B1091092FB09CB
:105850001092FC09E091B509F091B6091995809173
:10586000FC09882329F481E08093FC091092DB096C
:105870009091FB09E92FF0E0E552F64F808180938B
:10588000BB009F5F9093FB099091FB098091FC09FD
:10589000981710F485EC01C085E88093BC000FC018
:1058A00085EC8093BC0009C010921E0A85ED8093A0
:1058B000BC008091BC0084FDFCCF1092B109FF9127
:1058C000EF91BF91AF919F918F917F916F915F9178
:1058D0004F913F912F910F900BBE0F900FBE0F90E5
:1058E0001F9018951092B10981E08093B30910922E
:1058F000B40984E161E00E94C33B85E161E00E945C
:10590000C33BE9EBF0E080818E7F808380818D7FD7
:10591000808388E48093B80085E48093BC00089578
:1059200008950F931F93CB01BA01A90198010E941A
:105930008E462EEA3CED42E45EE30E946C489B01F9
:10594000AC0160E070E080E89FE30E94C34520E086
:105950003AE24DE257E40E9409481F910F910895E1
:10596000CF92DF92EF92FF920F931F936A017B0118
:10597000C901B80120E03AE24DE257EC0E948E46A0
:1059800020E030E040E85FE30E94C44526EF38E2C3
:1059900048EA50E40E946C489B01AC01C701B60183
:1059A0000E948E461F910F91FF90EF90DF90CF9055
:1059B0000895CF92DF92EF92FF920F931F937C0195
:1059C0006B01042F85EA99E067E770E00E943B29AC
:1059D000112707FD109585EA99E0B601A8010E94FC
:1059E0008C2985EA99E00E94002A2AE430E0E20E40
:1059F000F31EF701808390E0882309F491E0892F5A
:105A00001F910F91FF90EF90DF90CF9008951F931B
:105A1000DF93CF930F920F92CDB7DEB79C01613029
:105A200039F062308CF0623039F0633069F408C0CC
:105A300084E78A8318E00BC084EB8A831EE007C0EA
:105A400084EF8A831AE103C084E38A8315E084EF3C
:105A50008983C901BE016F5F7F4F42E00E94D92C4C
:105A60008111812F0F900F90CF91DF911F91089599
:105A7000DF93CF930F920F92CDB7DEB724EF298338
:105A80002EE22A83BE016F5F7F4F42E00E94D92C35
:105A9000811185E00F900F90CF91DF910895FF92D3
:105AA0000F931F93CF93DF938C01EB01F42E85EAC4
:105AB00099E067E770E00E943B2985EA99E06881F8
:105AC0000E94BD2985EA99E00E94002A065B1F4FCB
:105AD000F8018083882311F080E020C00F2D11276A
