:100000000C9410010C943D010C943D010C943D01A5
:100010000C943D010C943D010C943D010C943D0168
:100020000C943D010C943D010C943D010C943D0158
:100030000C943D010C943D010C943D010C943D0148
:100040000C943D010C943D010C943D010C943D0138
:100050000C943D010C943D010C943D010C94B41C96
:100060000C943D010C94F1200C9478210C943D01EA
:100070000C943D010C943D010C943D010C943D0108
:100080000C943D010C943D010C943D010C943D01F8
:100090000C943D010C943D010C943D010C94421ACA
:1000A0000C943D010C943D010C943D010C943D01D8
:1000B0000C943D010C943D010C943D010C943D01C8
:1000C0000C943D010C943D010C943D010C94A22133
:1000D0000C9429220C943D010C943D010C943D019B
:1000E0000C943D017C3C3E5E2B3D3F2F5B5D3B2CE9
:1000F0002A225C0000002100240027002A002D0095
:100100003000330001010000040107010A01000072
:100110002200250028002B002E00310034000201AF
:100120000000050108010B0100002000230026004B
:1001300029002C002F0032000001000003010601FD
:10014000090105050505070508080808020202025D
:100150000A0A080804040404010101010101010163
:100160000303030303030303040707070C0C0C0C2E
:100170000C0C0C0C02020202060606060606060617
:100180000B0B0B0B0B0B0B0B0102102020080810A4
:1001900020401020408002010201080402010102F7
:1001A00004081020408080402010080402018004D0
:1001B000020180402010080402010804020101022B
:1001C0000408102040800102040810204080000034
:1001D000090A02080B0C0D070603040100000000C9
:1001E000000000000000000000000000000000000F
:1001F0000000000000000000000011100F000000CF
:1002000000000000000000000000000000000000EE
:1002100000000000E501EB05DE182B21DC21DE01EA
:1002200011241FBECFEFD1E2DEBFCDBF00E00CBF77
:1002300014E0A0E0B2E0ECEAFBE400E00BBF02C097
:1002400007900D92AE34B107D9F71BBE19E0AEE4AA
:10025000B4E001C01D92A830B107E1F712E0CEE191
:10026000D2E004C02297FE010E94B125C431D1071B
:10027000C9F70E9453220C94C9250C940000FB017D
:10028000DC0104C08D910190801921F4415050404F
:10029000C8F7881B990B0895FB01DC0102C001908F
:1002A0000D9241505040D8F70895FC018191861776
:1002B00021F08823D9F7992708953197CF01089520
:1002C000FB01DC0101900D920020E1F70895FB0194
:1002D000DC014150504048F001900D920020C9F7D8
:1002E00001C01D9241505040E0F70895FB019F016D
:1002F000E8944230C4F04532B4F44A3029F497FB14
:100300001EF4909581959F4F642F77270E94B52505
:10031000805D8A330CF0895D8193CB010097A1F752
:1003200016F45DE251931082C9010C949701DC012F
:10033000FC01672F71917723E1F7329704C07C911C
:100340006D9370836291AE17BF07C8F30895813033
:10035000910511F56F5F7F4F81F58EE494E00E9467
:10036000F51B85E694E00E94880480E894E060E054
:1003700072E00E94EF2386E894E060E072E00E9461
:10038000EF238CE894E060E072E00E94EF2382E9C2
:1003900094E00E9488040895892B79F46F5F7F4F61
:1003A00061F48CE894E00E94812486E894E00E9445
:1003B000812480E894E00E948124089580E090E008
:1003C0006FEF7FEF0E94A701089581E090E06FEF4B
:1003D0007FEF0E94A70108958091AE04882341F029
:1003E00080E894E060E072E00E9421241092AE0464
:1003F00008951F9311E018C087E698E00E94372007
:10040000682F8093AD048AEC97E00E948C22609163
:10041000AD046D3019F41093AE0406C06A3021F0BB
:1004200080E894E00E94762387E698E00E941B20F3
:10043000892B11F71F9108958F929F92AF92BF92CF
:10044000CF92DF92EF92FF920F931F93DF93CF93A0
:10045000CDB7DEB7C458D0400FB6F894DEBF0FBE9C
:10046000CDBF8AEC97E040E052EC61E070E026E01E
:100470000E94B71F87E698E040E056E960E070E030
:1004800026E00E94B71F8AEC97E06EE672E00E94B9
:10049000D3228AEC97E069ED72E00E94D0228AECC8
:1004A00097E069EE72E00E94D32280E894E064E66F
:1004B00070E00E942D238EE494E063E00E945B1CB8
:1004C000882339F48AEC97E062E073E00E94D3223B
:1004D000FFCF8AEC97E066E373E00E94D0228AE0C7
:1004E00061E00E946C1D8FEA94E064E00E941C09A8
:1004F000882339F48AEC97E06EE473E00E94D322FB
:10050000CBC18AEC97E065E673E00E94D322CE016E
:1005100049966FEA74E04AE753E023E10E94F70747
:100520008B8D9C8D90936804809367048D8D9E8D38
:10053000AF8DB8A18093690490936A04A0936B0473
:10054000B0936C0489A19AA1ABA1BCA180936D0466
:1005500090936E04A0936F04B0937004A1E7B4E08D
:10056000FE01B5968DE001900D928150E1F78AA9C8
:100570009BA990937F0480937E0485E694E00E947B
:10058000D7048823A9F08AEC97E063E873E00E941F
:10059000D02285E694E06AE973E00E94D32285E6E2
:1005A00094E00E94E4048AEC97E06BEA73E004C0F4
:1005B0008AEC97E061EB73E00E94D32201E010E047
:1005C0004E010894811C911C5DE0A52EB12CAC0E4F
:1005D000BD1E47E0C42ED12CCC0EDD1E33E1E32E30
:1005E000F12CEC0EFD1E61C0C401B8014AE00E946E
:1005F0003A2486E894E0B4010E946A24C4010E946F
:10060000812480918A0490918B048130910589F432
:10061000C60168EC73E00E940824C60166E874E035
:100620000E94B823BC0186E894E00E946A24C601B7
:1006300012C0029791F4C5016BEC73E00E9408248C
:10064000C50166E874E00E94B823BC0186E894E026
:100650000E946A24C5010E9487240F5F1F4FC701B3
:100660006DEC73E00E940824C70166E874E00E9404
:10067000B82362ED73E00E949C23BC0186E894E0FD
:100680000E946A24C7010E94872486E894E060E003
:1006900074E04CE050E020E030E00E94E6228AEC7A
:1006A00097E060E074E00E94D3228FEA94E060E07B
:1006B00074E00E94CE06882309F096CF8CE894E07F
:1006C00066E874E00E946A248AEC97E067ED73E0C4
:1006D0000E94D0228AEC97E060E074E00E94D3226E
:1006E000CE01C4966FEA74E04AE753E023E10E942A
:1006F000F7078EA99FA9909395048093940488ADE1
:1007000099ADAAADBBAD8093960490939704A09346
:100710009804B09399048CAD9DADAEADBFAD809300
:100720009A0490939B04A0939C04B0939D04AEE91B
:10073000B4E0FE01E05CFF4F8DE001900D9281502E
:10074000E1F7FE01E35BFF4F808191819093AC0460
:100750008093AB0482E994E00E94D7048823B1F02F
:100760008AEC97E061EE73E00E94D32282E994E084
:1007700060EF73E00E94D32282E994E067EF73E0B8
:100780000E94D32282E994E00E94E4048E01015B7E
:100790001F4FC8016FEA74E04AE753E021E00E946E
:1007A000F707F801828193819093950480939404D4
:1007B00084819581A681B781809396049093970454
:1007C000A0939804B093990480859185A285B38500
:1007D00080939A0490939B04A0939C04B0939D04EF
:1007E000AEE9B4E03C968DE001900D928150E1F7C6
:1007F000FE01E15BFF4F818D928D9093AC0480935D
:10080000AB0409C082E994E00E94FE04682F8AECE0
:1008100097E00E948C2282E994E00E94B304892B25
:1008200089F78E0106591F4FC8016FEA74E040E056
:1008300054E023E10E94F707F801828193819093AD
:1008400095048093940484819581A681B7818093D7
:10085000960490939704A0939804B093990480858C
:100860009185A285B38580939A0490939B04A0936D
:100870009C04B0939D04AEE9B4E03C968DE00190F9
:100880000D928150E1F7FE01E659FF4F818D928D67
:100890009093AC048093AB04CC57DF4F0FB6F89421
:1008A000DEBF0FBECDBFCF91DF911F910F91FF90A3
:1008B000EF90DF90CF90BF90AF909F908F90089572
:1008C0002CB5382F33702C7F322B3CBD2DB590E0EA
:1008D000959587959595879581702E7F822B8DBDF7
:1008E000089585E361E00E941F1E85E361E00E9498
:1008F0006C1D8CB580618CBD8CB580648CBD84E32F
:1009000061E00E946C1D83E361E00E946C1D08950C
:10091000FC011382128288EE93E0A0E0B0E08483B1
:100920009583A683B7838AE194E091838083128EB6
:10093000118E14860895DF93CF930F92CDB7DEB753
:10094000FC016983A081B18112962D913C9113978E
:10095000BE016F5F7F4F41E050E0F90119950F90A4
:10096000CF91DF910895DC015996ED91FC915A9752
:10097000309719F420E030E018C023893489458984
:10098000568982859385A485B585281B390B4A0B2A
:100990005B0B2030B0E83B07B0E04B07B0E05B07F3
:1009A00020F02FEF3FE740E050E0C9010895DC015F
:1009B0005996ED91FC915A97309711F480E0089583
:1009C0008581811181E00895CF93DF93EC01898DBA
:1009D0009A8D009741F00E94900D898D9A8D0E940A
:1009E000EF1E1A8E198EDF91CF910895FC01818D33
:1009F000928D009711F00E94460D0895DF93CF93DA
:100A00000F92CDB7DEB7FC01818D928D009749F032
:100A1000BE016F5F7F4F41E050E00E94670E01977B
:100A200019F02FEF3FEF03C08981282F30E0C90173
:100A30000F90CF91DF910895EF92FF920F931F9344
:100A4000DF93CF930F92CDB7DEB77C01DC015996CF
:100A50008D919C915A97009719F400E010E01FC007
:100A6000BE016F5F7F4F41E050E00E94670E01972B
:100A700019F00FEF1FEF13C08981082F10E0D70185
:100A80005996ED91FC915A974285538564857585F9
:100A90004150504060407040CF010E94800CC8011E
:100AA0000F90CF91DF911F910F91FF90EF900895DC
:100AB000CF93DF93EC01E98DFA8D309761F01382CB
:100AC0001282CF010E94AC109C01E98DFA8D8281C7
:100AD0009381892B31F081E090E09B838A8320E031
:100AE00030E0C901DF91CF910895EF92FF920F930B
:100AF0001F93CF93DF93EC01F62EE72E8A011B8222
:100B00001A8288EE93E0A0E0B0E08C839D83AE83F0
:100B1000BF838AE194E0998388838DE190E00E940D
:100B2000521E9A8F898F009791F0DC018F2D9E2D98
:100B30009C01F9018DE101900D928150E1F7CE0108
:100B40000C96B8014CE050E00E946701188EDF91CE
:100B5000CF911F910F91FF90EF9008950F931F93E6
:100B6000CF93DF938C01FB01C081D181FC01EC0F9D
:100B7000FD1F80818F3209F4219698012C0F3D1FB3
:100B8000A0E0B0E00BC0FA01EA0FFB1F80831196D2
:100B900021962F5F3F4FAC30B10531F0F9018081D4
:100BA0008F3211F0882379F7A40FB51F1C92F8013A
:100BB000EC0FFD1F80818F3209F42196FB01D18358
:100BC000C083C00FD11F8881811181E0DF91CF9157
:100BD0001F910F9108951092B4041092B5041092D1
:100BE000B8041092BA0482E090E0A0E0B0E08093F4
:100BF000BB049093BC04A093BD04B093BE041092B8
:100C0000D2041092DC041092DB048AE294E0909308
:100C1000DA048093D9041092DE040895EF92FF92D3
:100C20001F93DF93CF93CDB7DEB76D970FB6F894D0
:100C3000DEBF0FBECDBF9C01AB011C821B828AE2CE
:100C400094E09A8389831E827E010894E11CF11C42
:100C5000C701B90121E00E94D812182F882319F08A
:100C6000C7010E94900D812F6D960FB6F894DEBFDC
:100C70000FBECDBFCF91DF911F91FF90EF900895F0
:100C80002F923F924F925F926F927F928F929F929C
:100C9000BF92CF92DF92EF92FF920F931F93DF9359
:100CA000CF93CDB7DEB7C954D0400FB6F894DEBFAE
:100CB0000FBECDBF1C017B012A0139011B8A1A8A94
:100CC0008AE294E0998B888B1D8A18AA1FA69EA79A
:100CD0008DA71AAA1A8219828B0120E1C22ED12C6B
:100CE000CC0EDD1E93E0892E912C8C0E9D1E03C030
:100CF000C80186016C01C101BE016F5F7F4FA40175
:100D00000E94AE05B82E40E0882309F441E0C801F6
:100D1000B4019301F2011995882339F40E151F05CA
:100D200019F1C8010E94900D1FC0BB20A9F0C60197
:100D3000B801A40121E00E94D812B82E0E151F059B
:100D400019F0C8010E94900DBB2071F00E151F050F
:100D500079F6CE018D96CDCF0E151F0519F0C8017D
:100D60000E94900D81E001C080E0C75BDF4F0FB6AD
:100D7000F894DEBF0FBECDBFCF91DF911F910F91D1
:100D8000FF90EF90DF90CF90BF909F908F907F90DB
:100D90006F905F904F903F902F9008959B01BC0102
:100DA000665D7F4FC9014EE056E020E030E00E94D2
:100DB000400608952F923F924F925F926F927F92DA
:100DC0008F929F92AF92BF92CF92DF92EF92FF925B
:100DD0000F931F93DF93CF93CDB7DEB7C754D040A7
:100DE0000FB6F894DEBF0FBECDBF582E492EFB01C3
:100DF0003A01190184A595A5998B888B2AE234E0E4
:100E00003F872E8786A58A8B87A58B8B80A991A982
:100E1000A2A9B3A98C8B9D8BAE8BBF8B84A995A9FE
:100E2000A6A9B7A9888F998FAA8FBB8F80AD91ADE6
:100E3000A2ADB3AD8C8F9D8FAE8FBF8F84AD88A3D5
:100E4000FD9681919191A191B19189A39AA3ABA3B0
:100E5000BCA381919191A191B1918DA39EA3AFA3C8
:100E6000B8A7808191819AA789A71EA61DA63CA735
:100E70002BA718AA7A018E01025F1F4F3BE2A32E17
:100E8000B12CAC0EBD1E4E010894811C911C35C0C6
:100E9000D7018C918F3221F40894E11CF11C2DC0F4
:100EA000422F4E194D3008F04CE0C42EDD24C40111
:100EB000B701A6010E946701F401EC0DFD1D10822F
:100EC000C5010E94900DC501B801A40121E00E9456
:100ED000D812882351F4E52DF42D138212828AE270
:100EE00094E091838083158266C0EC0CFD1CC801E0
:100EF0000E94900DC50158018C01C7016FE270E09E
:100F00000E9455019C01009719F6E618F708F101B7
:100F1000F182E082E52DF42DD80112968D919C91FD
:100F20001397938382838AE294E09183808314965B
:100F30008C911497848315968C91159785831696BA
:100F40002D913D914D915C91199726833783408770
:100F500051871A962D913D914D915C911D97228755
:100F60003387448755871E962D913D914D915C9115
:100F7000519726873787408B518B52968C91529789
:100F8000828B53962D913D914D915C915697238B79
:100F9000348B458B568B57962D913D914D915C919D
:100FA0005A97278B308F418F528F5B968D919C91F2
:100FB0005C97948F838F852D942DC95BDF4F0FB67F
:100FC000F894DEBF0FBECDBFCF91DF911F910F917F
:100FD000FF90EF90DF90CF90BF90AF909F908F9059
:100FE0007F906F905F904F903F902F9008959F92C9
:100FF000AF92BF92CF92DF92EF92FF920F931F9327
:10100000DF93CF93CDB7DEB7C657D0400FB6F89475
:10101000DEBF0FBECDBFC82E992E8A01D22E43E06F
:10102000A42EB12CAC0EBD1EC501A8019E012F5FE0
:101030003F4F0E94DA06E980FA80E00EF11EF701C8
:1010400080814AE254E02885882309F03FC08D81E1
:101050009E819BA38AA359A348A38F818CA32DA310
:1010600089859A85AB85BC858EA39FA3A8A7B9A7C0
:101070008D859E85AF85B8898AA79BA7ACA7BDA79C
:1010800089899A89AB89BC898EA79FA7A8ABB9AB80
:101090008D898AAB8E899F89A88DB98D8BAB9CABCE
:1010A000ADABBEAB8A8D9B8DAC8DBD8D8FAB98AF3C
:1010B000A9AFBAAF8E8D9F8D9CAF8BAF8C2D992D24
:1010C000BE01605E7F4F4EEF53E09FC0FE01FF9672
:1010D000118210825EAF4DAFFE01EE5BFF4F1082BA
:1010E0002223A9F02250CE01CD96223048F469ED9A
:1010F00074E0A7012D2D0E94D812882381F407C027
:10110000B501A7012D2D0E94D812882329F48C2D1A
:10111000992D0E9488047BC0C5010E94900DF6E0C5
:10112000DF2259F0FE01E05BFF4F40815181628177
:101130007381CE01CD960E94800C9E01265A3F4FAE
:10114000FE01FF9680819181F901938382838AE277
:1011500094E091838083FE01EF5BFF4F8081F90172
:101160008483FE01EE5BFF4F8081F9018583FE01E0
:10117000ED5BFF4F80819181A281B381F90186836C
:101180009783A087B187FE01E95BFF4F8081918142
:10119000A281B381F90182879387A487B587FE0175
:1011A000E55BFF4F80819181A281B381F901868740
:1011B0009787A08BB18BFE01E15BFF4F8081F90126
:1011C000828BFE01E05BFF4F80819181A281B38120
:1011D000F901838B948BA58BB68BFE01EC5AFF4FE4
:1011E00080819181A281B381F901878B908FA18F3A
:1011F000B28FFE01E85AFF4F80819181F901948FEF
:10120000838F8C2D992DB901A7010E9475058C2D16
:10121000992DCA58DF4F0FB6F894DEBF0FBECDBF71
:10122000CF91DF911F910F91FF90EF90DF90CF90C2
:10123000BF90AF909F9008950F931F93CF93DF932C
:10124000EC01462F61E00E947F0B8823D1F08E01D4
:10125000045F1F4FC801BE0141E00E94791488233A
:1012600039F4C801BE0140E00E947914882349F096
:10127000CE018A96B8010E94C60F882319F081E03A
:1012800001C080E0DF91CF911F910F910895FF92EF
:101290000F931F93CF93DF938B010E94FC1CEB01F4
:1012A000FF24FA94FEBC0DB407FEFDCF8EB58F3F30
:1012B00011F481E008C00E94FC1C6C1B7D0B6017C0
:1012C000710780F380E0DF91CF911F910F91FF9024
:1012D0000895FC01673020F086E1858380E0089561
:1012E0006330B9F0643028F4613069F0623070F432
:1012F00007C06530A1F0653078F06630A9F412C0FF
:1013000084E090E011C080E090E00EC085E090E0C5
:101310000BC081E090E008C086E090E005C082E06C
:1013200090E002C083E090E00E94600481E00895B4
:10133000FC01848160E00E941F1E0895FC018481ED
:1013400061E00E941F1E0895DC016EBD0DB407FE12
:10135000FDCF8EB520E030E0FA01E20FF31F80816F
:101360008EBD0DB407FEFDCF8EB52F5F3F4F82E0DF
:101370002030380789F78FEF8EBD0DB407FEFDCF03
:101380008EB58FEF8EBD0DB407FEFDCF8EB58FEFFE
:101390008EBD0DB407FEFDCF8EB51A968C931A97AD
:1013A0008F71853011F481E0089581E115968C9359
:1013B0001597CD010E949E0980E00895FF920F933A
:1013C0001F93CF93DF93EC010E94FC1C8B01FF2441
:1013D000FA9409C00E94FC1C601B710B6D52714095
:1013E00010F08FE00DC0FEBC0DB407FEFDCF8EB532
:1013F0008A878F3F79F38E3F11F481E006C08DE03C
:101400008D83CE010E949E0980E0DF91CF911F91D4
:101410000F91FF900895CF93DF93EC018E81882385
:10142000B1F02F8138854FEF05C04EBD0DB407FEDA
:10143000FDCF8EB52F5F3F4FC9010197825092407B
:10144000A0F338872F83CE010E949E091E82DF9170
:10145000CF910895DF92EF92FF920F931F93CF9356
:10146000DF93EC01D62E79018A010E940B0ACE018E
:101470000E949809CE016CE271E00E9447098D2D0F
:1014800080648EBD0DB407FEFDCF8EB528E130E03F
:10149000D801C701022E04C0B695A79597958795E8
:1014A0000A94D2F78EBD0DB407FEFDCF8EB528503D
:1014B00030408FEF283F380759F7DD2011F485E9D8
:1014C00006C088E0D81611F487E801C08FEF8EBD02
:1014D0000DB407FEFDCF8EB590E02FEF2EBD0DB4FD
:1014E00007FEFDCF8EB587FF02C09150B9F78A87FE
:1014F000DF91CF911F910F91FF90EF90DF900895B2
:10150000CF92DF92EF92FF920F931F93CF93DF93CF
:10151000EC017A018B0169014115510561057105E5
:1015200011F482E137C08B85833039F099E0EE0CFD
:10153000FF1C001F111F9A95D1F7CE0168E1A80189
:1015400097010E942A0A882311F084E023C0CE016B
:101550006EEFA6010E94A4098823E9F0CE0168E598
:1015600072E00E944709882311F485E113C0CE017F
:101570006DE020E030E040E050E00E942A0A88233D
:1015800041F48FEF8EBD0DB407FEFDCF8EB58823DD
:1015900079F084E18D83CE010E949E0980E0DF9185
:1015A000CF911F910F91FF90EF90DF90CF90089512
:1015B000CE010E949E0981E0F2CF8F929F92AF925E
:1015C000BF92CF92DF92EF92FF920F931F93CF9330
:1015D000DF93EC015A016B0149010115110509F472
:1015E00070C0C801820F931F8150924008F064C000
:1015F0008E81882371F088819981AA81BB814817E7
:1016000059076A077B0729F48F8198858816990600
:1016100010F5A882B982CA82DB828B85833039F0CB
:1016200059E0AA0CBB1CCC1CDD1C5A95D1F7CE018D
:1016300061E1A60195010E942A0A882319F083E03E
:101640008D833AC0CE010E94DE098823A9F1188655
:101650001F8281E08E838F8198852FEF06C02EBD7B
:101660000DB407FEFDCF3EB5019688159905B8F378
:1016700098878F8320E030E09FEF0BC09EBD0DB4B4
:1016800007FEFDCF8EB5F701E20FF31F80832F5FBA
:101690003F4F2017310790F32F813885200F311FDE
:1016A00038872F838985882319F02050324048F0ED
:1016B000CE010E940B0A05C0CE010E949E0980E067
:1016C00001C081E0DF91CF911F910F91FF90EF90CA
:1016D000DF90CF90BF90AF909F908F900895EF9242
:1016E000FF920F931F93790120E030E000E012E0B9
:1016F0000E94DD0A1F910F91FF90EF900895BF9215
:10170000CF92DF92EF92FF920F931F93CF93DF93CD
:10171000EC01B62E1B8619861E821D824C830E9408
:10172000FC1C6B018C8161E00E946C1DCE010E944B
:101730009E090E94710483E00E94600480E09FEF94
:101740009EBD0DB407FEFDCF2EB58F5F8A30C1F769
:10175000CE010E94980909C00E94FC1C6C197D09E9
:10176000615D774010F081E05EC0CE0160E020E076
:1017700030E040E050E00E942A0A182F8A8781302A
:1017800059F7CE0168E02AEA31E040E050E00E94DB
:101790002A0A82FF02C01B8711C080E02FEF2EBDF6
:1017A0000DB407FEFDCF9EB58F5F8430C1F79A87D9
:1017B0009A3A11F082E037C082E08B878B858230C5
:1017C00021F0EE24FF2487010FC0E12CF12C012D24
:1017D00060E4162F09C00E94FC1C6C197D09615D34
:1017E000774010F088E01FC0CE0167E320E030E0D2
:1017F00040E050E00E942A0ACE0169E2A801970168
:101800000E942A0A8A87882331F78B85823031F536
:10181000CE016AE320E030E040E050E00E942A0A76
:10182000882339F086E08D83CE010E949E0980E0F6
:101830001CC08FEF8EBD0DB407FEFDCF8EB5807C32
:10184000803C11F483E08B8780E09FEF9EBD0DB458
:1018500007FEFDCF2EB58F5F8330C1F7CE010E940A
:101860009E09CE016B2D0E946909DF91CF911F91D6
:101870000F91FF90EF90DF90CF90BF900895CF939E
:10188000DF93EC01DB0180E090E020E2FD01E80F56
:10189000F91F208301968B309105C1F757E040E096
:1018A00021C02E3219F084EE90E007C05A3019F1B1
:1018B0005AE048E017C03217F1F0FC01019634916C
:1018C0003323C9F75417B8F02132A8F02F3798F412
:1018D000822F81568A3108F42052FD01E40FF11D58
:1018E00020834F5F29912223E1F690E08C91803292
:1018F00019F091E001C090E0892FDF91CF91089518
:101900006F927F928F929F92AF92BF92CF92DF920F
:10191000EF92FF920F931F93CF93DF93EC017A0125
:101920008B012D81222309F480C08B899C89AD898C
:10193000BE8984179507A607B70708F476C085C047
:10194000E114F1040105110549F41E821F82188675
:1019500019861A861B861C861D8665C02A853B85CE
:101960004C855D85EB8DFC8D858590E00996215039
:1019700030404040504039014A01082E04C096943E
:101980008794779467940A94D2F72F5F3F4F4F4F15
:101990005F4F0894E108F108010911095701680136
:1019A00004C0D694C794B794A7948A95D2F70894A4
:1019B000E11CF11C011D111DA614B704C804D904B3
:1019C00028F0211531054105510549F48F89988D7D
:1019D000A98DBA8D8E839F83A887B98716C0A61854
:1019E000B708C808D90811C04E815F81688579851C
:1019F0008B8D9C8D94010E945A160894A108B10801
:101A0000C108D108882331F410C086E0882E912CBB
:101A10008C0E9D1EA114B104C104D10429F7EA86DD
:101A2000FB860C871D8781E001C080E0DF91CF91AC
:101A30001F910F91FF90EF90DF90CF90BF90AF90EC
:101A40009F908F907F906F900895223009F078CF0B
:101A5000E6CFCF93DF93EC01462F6E857F85888993
:101A600099890E943E14882319F420E030E00AC0CE
:101A70008A89282F30E095E0220F331F9A95E1F7ED
:101A800026503B4FC901DF91CF9108950F931F93CB
:101A9000CF93DF938C01FC0185818823D9F1848168
:101AA00087FF35C0C80161E00E94290DEC01009755
:101AB00089F1F8018581823040F483899489A58970
:101AC000B6898C8F9D8FAE8FBF8FF8018789908DDF
:101AD0009B8F8A8F8789908DA18DB28DCD01AA278A
:101AE000BB279D8B8C8BE091F804F091F904309723
:101AF00051F0BE016A5E7F4FCE0148961995888DE0
:101B0000998D9B8B8A8BF80184818F7784830E94C7
:101B1000DF1301C080E0DF91CF911F910F910895F5
:101B2000CF93DF93EC010E94460D882311F01D82B4
:101B300081E0DF91CF9108956F927F928F929F9273
:101B4000AF92BF92CF92DF92EF92FF920F931F93CB
:101B5000DF93CF9300D00F92CDB7DEB77C015A014F
:101B60006B01DC0115968C911597813009F08FC0BF
:101B700014968C9181FF8BC09EC00097A105B10582
:101B800011F481E085C0F7016284738484849584B4
:101B9000C701B601A5010E94800C882309F477C013
:101BA000D7015B968D919C915C97A114B104C104FF
:101BB000D10489F457964D915D916D917C915A971E
:101BC0000E94CD16882309F462C0F701178A108E8F
:101BD000118E128E3DC0D70116964D915D916D917B
:101BE0007C9119979E012F5F3F4F0E945A168823C0
:101BF00009F44DC0D7015B96ED91FC915C9749814A
:101C00005A816B817C818789803129F088EF9FEF31
:101C1000AFEFBFE004C088EF9FEFA0E0B0E048174F
:101C200059076A077B07A0F4CF010E94CD168823CD
:101C300071F1F7014681578160857185838D948D9F
:101C40000FEF1FEF2FEF3FE00E94BE158823F9F042
:101C5000D7015396AD92BD92CD92DC9256971496D1
:101C60008C911497806814968C93C7010E94460D3E
:101C7000882369F0B601A5016A147B048C049D04D5
:101C800010F4B401A301C7010E94800C01C080E0E0
:101C90000F900F900F900F90CF91DF911F910F91A8
:101CA000FF90EF90DF90CF90BF90AF909F908F907C
:101CB0007F906F900895F70183899489A589B689EB
:101CC00084179507A607B70708F057CFE0CF2F92E4
:101CD0003F924F925F926F927F928F929F92AF92BC
:101CE000BF92CF92DF92EF92FF920F931F93CF9309
:101CF000DF93EC012A018D81882309F4C6C08C8111
:101D000080FFC3C0D8C025014E185F084B0176E0A4
:101D1000272E312C2C0E3D1E3201B1C02A853B8569
:101D20004C855D856FEFA62E61E0B62EA222B32210
:101D30008D8179018A0199E016950795F794E794CA
:101D40009A95D1F7EB8DFC8D823049F4428D538DFD
:101D5000648D758D4E0D5F1D601F711F3FC0D48057
:101D6000DA94DE20A114B104D9F4DD20C9F42115E0
:101D700031054105510549F48F89988DA98DBA8D9A
:101D80008E839F83A887B9870BC04E815F8168854A
:101D90007985CF0191010E945A16882309F475C0F4
:101DA000EB8DFC8D4E815F81688579854250504076
:101DB00060407040058404C0440F551F661F771FA4
:101DC0000A94D2F786859785A089B189480F591F53
:101DD0006A1F7B1F4D0D511D611D711D80E092E03A
:101DE0008A199B0963018615970508F46C018C819B
:101DF00086FD06C080E0C81682E0D80609F073C0F0
:101E000080910C0490910D04A0910E04B0910F04E8
:101E1000481759076A077B0709F465C08091FA06DD
:101E20009091FB069501860174010E94DD0A8823CA
:101E300061F18C0C9D1C12C0950126503B4FA901ED
:101E40004C0D5D1DD401F90102C081918D93E41701
:101E5000F507D9F7E21BF30B8E0E9F1E960140E0AB
:101E600050E08A859B85AC85BD85820F931FA41F9A
:101E7000B51F8A879B87AC87BD876C187D08611466
:101E8000710409F04BCFA20102C04FEF5FEFCA010E
:101E9000DF91CF911F910F91FF90EF90DF90CF9046
:101EA000BF90AF909F908F907F906F905F904F907A
:101EB0003F902F900895AB88BC88CD88DE88EA8457
:101EC000FB840C851D859A0140E050E0D601C501D8
:101ED0008E199F09A00BB10B82179307A407B507B2
:101EE00008F411CF13CFCB01BA0140E00E943E1499
:101EF000882309F0A1CFC9CFCF92DF92EF92FF9252
:101F00000F931F93DF93CF930F92CDB7DEB76C0182
:101F1000FC018581823070F0E284F38404851585AC
:101F2000C601BE016F5F7F4F41E050E00E94670E27
:101F3000019769F020E030E0C9010F90CF91DF9167
:101F40001F910F91FF90EF90DF90CF900895F601D1
:101F500082859385A485B5854F96A11DB11D828785
:101F60009387A487B587F5E016950795F794E794CE
:101F7000FA95D1F78E2D8F70282F30E0E5E0220FF3
:101F8000331FEA95E1F726503B4FD6CF0F931F93AF
:101F9000CF93DF93EC018B018D81882309F041C041
:101FA000FB0187898031B1F482E08D831F8A188E0E
:101FB000198E1A8E808D918DA0E0B0E045E0880FDB
:101FC000991FAA1FBB1F4A95D1F78B8B9C8BAD8B9A
:101FD000BE8B15C0803229F583E08D83FB01428DD5
:101FE000538D648D758D4F8B588F698F7A8F9E01BD
:101FF0002D5E3F4FC8010E942617882391F01C8F49
:102000000B8F81E08C831E821F82188619861A86A8
:102010001B861C861D861E861F86188A198A1A8AA8
:1020200001C080E0DF91CF911F910F9108951F9320
:10203000CF93DF93EC01142FE62FF0E075E0EE0F65
:10204000FF1F7A95E1F7E650FB4F8385817121F000
:10205000842F827409F054C06A8B80910C04909193
:102060000D04A0910E04B0910F048E879F87A88B5A
:10207000B98B84899589A0E0B0E0BC01552744273D
:10208000828D938DA0E0B0E0482B592B6A2B7B2BDF
:102090004F8B588F698F7A8F838590E0887190700D
:1020A000009751F4848D958DA68DB78D8B8B9C8B6D
:1020B000AD8BBE8B81E00CC0409711F59E012D5E6B
:1020C0003F4F8B8D9C8D0E9426178823C9F084E09A
:1020D0008D83812F8F708C831E821F8218861986B4
:1020E0001A861B861C861D8616FD02C081E009C06B
:1020F000CE0140E050E060E070E00E949C0D01C025
:1021000080E0DF91CF911F910895CF93DF93EC0191
:102110009C012A5F3F4F8B8D9C8D41E050E060E039
:1021200070E00E9495178823A1F08F89988DA98D62
:10213000BA8D0097A105B10559F48E819F81A885BC
:10214000B9858F8B988FA98FBA8F8C8180688C838B
:1021500081E0DF91CF9108952F923F924F925F924D
:102160007F928F929F92AF92BF92CF92DF92EF9227
:10217000FF920F931F93DF93CF9300D000D0CDB782
:10218000DEB76C01162F072F5E834D83DC01159699
:102190008C911597813009F070C114968C9181FF54
:1021A0006CC18EC1F601438954896589768982851F
:1021B0009385A485B58584179507A607B70731F0E1
:1021C000C6010E94800C882309F457C1812F902FEB
:1021D0009C0129012D803E8017C1D6015B96ED91AF
:1021E000FC915C97DA01C90119E0B695A79597951E
:1021F00087951A95D1F774807A9478227FEF872E8D
:1022000071E0972E82229322772009F04EC081142C
:10221000910409F04AC0D60116964D915D916D91D9
:102220007C911997411551056105710581F4579607
:102230008D919D910D90BC91A02D0097A105B105A8
:1022400049F1F60186839783A087B1872EC0CF011D
:102250009E012F5F3F4F0E945A16882309F414C134
:1022600029813A814B815C81D6015B96ED91FC918D
:102270005C978789803129F088EF9FEFAFEFBFE04F
:1022800004C088EF9FEFA0E0B0E0281739074A07A5
:102290005B0730F0C6010E948510882331F4EDC041
:1022A000F601268337834087518780E092E08819C2
:1022B000990951018215930508F45C01D6015B96DA
:1022C000ED91FC915C971696ED90FD900D911C910F
:1022D00019978EEF9FEFAFEFBFEFE80EF91E0A1FC1
:1022E0001B1F058404C0EE0CFF1C001F111F0A9465
:1022F000D2F786859785A089B189E80EF91E0A1F55
:102300001B1FE70CF11C011D111D90E0A91692E0A6
:10231000B90651F580910C0490910D04A0910E0422
:10232000B0910F048E159F05A007B10761F48FEFE0
:102330009FEFAFEFBFEF80930C0490930D04A09339
:102340000E04B0930F048091FA069091FB06B80139
:10235000A70192010E94800A882309F48EC0A0E0A0
:10236000B2E04A0E5B1E3EC08114910409F5F601ED
:10237000228533854485558583899489A589B689C5
:10238000281739074A075B0798F00E94DF13882354
:1023900009F473C0E0920C04F0920D0400930E0453
:1023A00010930F048091FC0681608093FC0608C0A6
:1023B000C801B70141E00E943E14882309F45DC0C2
:1023C000940126503B4FA9014A0D5B1DD201F90132
:1023D00002C08D918193E417F507D9F7E21BF30B47
:1023E0004E0E5F1E2A183B08950140E050E0F601B2
:1023F00082859385A485B585820F931FA41FB51F81
:1024000082879387A487B587D6011A962D913D912F
:102410004D915C911D972114310409F0DECE539645
:102420008D919D910D90BC91A02D82179307A407CB
:10243000B50748F4F601238B348B458B568B84818A
:102440008068848311C08091F8049091F904892BED
:1024500059F08D819E81892B39F0D60114968C918B
:102460001497806814968C93F601848183FF0EC0C4
:10247000C6010E94460D882349F481E090E0D60110
:1024800013969C938E9312971E821D828D819E813E
:1024900026960FB6F894DEBF0FBECDBFCF91DF9169
:1024A0001F910F91FF90EF90DF90CF90BF90AF9072
:1024B0009F908F907F905F904F903F902F900895C6
:1024C00082FD70CE83CEDF93CF930F92CDB7DEB770
:1024D0006983BE016F5F7F4F41E050E00E94AC1006
:1024E0000F90CF91DF910895DF92EF92FF920F93BB
:1024F0001F93CF93DF93EC010E948510882309F48A
:102500004EC0EB8DFC8DEE80FF80088519858EEF27
:102510009FEFAFEFBFEFE80EF91E0A1F1B1F0584E8
:1025200004C0EE0CFF1C001F111F0A94D2F7868511
:102530009785A089B189E80EF91E0A1F1B1FD48058
:102540000894E108F108010911090BC0C801B7019D
:102550006D0D711D811D911D0E941A148823F9F0C3
:10256000DA94DD2099F7EB8DFC8D20E032E040E03D
:1025700050E0058404C0220F331F441F551F0A94E6
:10258000D2F78B899C89AD89BE89820F931FA41FC6
:10259000B51F8B8B9C8BAD8BBE8B81E001C080E027
:1025A000DF91CF911F910F91FF90EF90DF900895F1
:1025B0006F927F928F929F92AF92BF92CF92DF9253
:1025C000EF92FF920F931F93DF93CF93CDB7DEB7B8
:1025D0002B970FB6F894DEBF0FBECDBF5C016B0129
:1025E000822EDC0115968C91882309F0D2C0CA0195
:1025F0008E010F5F1F4FB8010E943F0C882309F422
:10260000C8C0F601838D948DD5015C969C938E9302
:102610005B971682178210861186D6011A961D9234
:102620001D921D921C921D979924380141C0C6012C
:102630000E947C0FFC01009709F4ABC085E0169561
:102640000795F794E7948A95D1F71E2D1F70808126
:10265000882311F0853ED1F4992091F4D50152964A
:102660001C93529720910C0430910D0440910E045C
:1026700050910F041E962D933D934D935C9351976B
:102680008081882399F49924939421C0C301BF01C8
:102690004BE050E00E943F01009751F4882D807379
:1026A000803309F476C0C501612F6FC099249394DB
:1026B000F601E284F3840485158583899489A589CC
:1026C000B689E816F9060A071B0708F4B0CF882D6B
:1026D0008271823109F05DC0992041F0C50161E04D
:1026E0000E94290D8C01009789F453C0D6011596DC
:1026F0008C91823009F44DC0C6010E947412882367
:1027000009F447C0F501128A0AEF14E080E2D8010B
:102710001D928A95E9F7D801FE0131968BE0019070
:102720000D928150E1F7E091F804F091F9043097AF
:1027300039F0B801625F7F4FC8014096199509C012
:1027400081E298E2F801918B808B80E098E0978796
:102750008687D80150968D919C91519753969C9362
:102760008E93529759969C938E9358971E968D915F
:102770009C911F9757969C938E9356970E94DF13B8
:10278000882339F0C501F5016289482D0E94171090
:1027900001C080E02B960FB6F894DEBF0FBECDBF10
:1027A000CF91DF911F910F91FF90EF90DF90CF902D
:1027B000BF90AF909F908F907F906F900895809181
:1027C000FC06882399F140910C0450910D0460910E
:1027D0000E0470910F048091FA069091FB062AEF87
:1027E00034E00E94800A882319F14091FD0650913F
:1027F000FE066091FF0670910007411551056105C5
:10280000710591F08091FA069091FB062AEF34E071
:102810000E94800A882361F01092FD061092FE0645
:102820001092FF06109200071092FC0681E00895B6
:1028300080E00895EF92FF920F931F937B018C012C
:102840000E94DF138823A9F0EAEFF4E0119286E0FA
:10285000EA3FF807D9F7E0920C04F0920D040093D8
:102860000E0410930F048091FC0681608093FC0697
:1028700081E01F910F91FF90EF900895DF92EF920A
:10288000FF920F931F937B018C01D42E80910C0437
:1028900090910D04A0910E04B0910F048E159F0528
:1028A000A007B107C1F00E94DF138823D9F08091FF
:1028B000FA069091FB06B801A7012AEF34E00E94C6
:1028C0006F0B882379F0E0920C04F0920D040093D2
:1028D0000E0410930F048091FC068D298093FC0652
:1028E00081E001C080E01F910F91FF90EF90DF9099
:1028F00008958F929F92AF92BF92CF92DF92EF9204
:10290000FF920F931F93CF93DF936C01142F70935B
:10291000FB066093FA06442321F488249924540189
:1029200040C0453008F01CC160E070E080E090E0FD
:1029300040E00E943E14882309F412C1C12FD0E068
:102940002197FE0174E0EE0FFF1F7A95E1F7E65044
:10295000FB4FE254FE4F8081EE5BF14090E08F77B9
:102960009070892B09F0FCC0E653FE4F8081918165
:10297000A281B38184369105A105B10508F4F0C0A8
:1029800064E0CC0FDD1F6A95E1F7C054D94F888011
:102990009980AA80BB8081149104A104B10409F438
:1029A000DFC0C501B40140E00E943E14882309F451
:1029B000D7C080910505909106058050924009F09E
:1029C000CFC020910A05222309F4CAC080910805CE
:1029D00090910905892B09F4C3C0809107058823CC
:1029E00009F4BEC0F601228B809107058483158609
:1029F00061E070E007C04F5FF60145874150483005
:102A000008F0AEC0F6014585848190E09B01042E5C
:102A100002C0220F331F0A94E2F78217930759F777
:102A200020911005309111052115310519F040E074
:102A300050E008C020911E0530911F0540912005EF
:102A400050912105F6012583368347835087E09016
:102A50000805F090090500E010E0E80CF91C0A1DDB
:102A60001B1DE38AF48A058B168B80910B059091D0
:102A70000C05918F808F60910A0570E080E090E0F6
:102A80000E946E256E0D7F1D801F911FF601628FC3
:102A9000738F848F958F20910B0530910C0555E035
:102AA000220F331F5A95E1F721503E4F232F332732
:102AB000269540E050E0260F371F481F591F2687F4
:102AC0003787408B518B80910D0590910E050097B3
:102AD00019F0A0E0B0E008C080911A0590911B05A4
:102AE000A0911C05B0911D0585017401E21AF30A3D
:102AF000040B150BA8019701280F391F4A1F5B1FF4
:102B0000F601058404C056954795379527950A9494
:102B1000D2F72187328743875487253FFFE03F075D
:102B2000F0E04F07F0E05F0710F48CE006C0255F8F
:102B30003F4F4040504028F480E1F601878B81E010
:102B400010C08091260590912705A0912805B0918D
:102B50002905F601828F938FA48FB58F80E2EECF87
:102B600080E0DF91CF911F910F91FF90EF90DF9068
:102B7000CF90BF90AF909F908F9008954F925F92AB
:102B80006F927F928F929F92AF92BF92CF92DF927D
:102B9000EF92FF920F931F93CF93DF93EC016A01A3
:102BA0007B0128013901423051056105710508F4A6
:102BB0006FC089859A85AB85BC850196A11DB11D25
:102BC00084179507A607B70708F462C02B893C89CC
:102BD0004D895E898F89803129F499278F2D7E2D2B
:102BE0006D2D09C0C701B60117E0969587957795B9
:102BF00067951A95D1F74B015C01820E931EA41EB6
:102C0000B51E80910C0490910D04A0910E04B0911A
:102C10000F0488169906AA06BB0639F0C501B4014F
:102C200040E00E943E14882399F18F89803149F455
:102C3000F601F070EE0FFF1FE650FB4F518240820D
:102C40000DC0F601EF77F070EE0FFF1FEE0FFF1FC4
:102C5000E650FB4F40825182628273828091FC0673
:102C600081608093FC068A89823080F08D819E810C
:102C7000AF81B885880E991EAA1EBB1E8092FD06E4
:102C80009092FE06A092FF06B092000781E001C07C
:102C900080E0DF91CF911F910F91FF90EF90DF9037
:102CA000CF90BF90AF909F908F907F906F905F90EC
:102CB0004F900895CF92DF92EF92FF920F931F9360
:102CC000CF93DF93EC017A018B01690189859A85A5
:102CD000AB85BC850196A11DB11D84179507A6077C
:102CE000B70708F450C02B893C894D895E898F89CC
:102CF000803129F49927812F702F6F2D09C0C801C9
:102D0000B701E7E09695879577956795EA95D1F7AE
:102D1000260F371F481F591F80910C0490910D04F6
:102D2000A0910E04B0910F04281739074A075B07DA
:102D300039F0CA01B90140E00E943E14882319F11C
:102D40008F89803159F4F701F070EE0FFF1FE650C4
:102D5000FB4F80819181A0E0B0E00EC0F701EF77DA
:102D6000F070EE0FFF1FEE0FFF1FE650FB4F80814C
:102D70009181A281B381BF70F60180839183A28388
:102D8000B38381E001C080E0DF91CF911F910F916B
:102D9000FF90EF90DF90CF900895AF92BF92CF92C7
:102DA000DF92EF92FF920F931F93DF93CF9300D0A8
:102DB0000F92CDB7DEB76C017A018B0182E090E013
:102DC000A0E0B0E0F60180839183A283B3835E012B
:102DD0000894A11CB11CC601B801A70195010E946D
:102DE0005A16882319F1C601B801A70100E010E0C6
:102DF00020E030E00E94BE158823C1F0E980FA800F
:102E00000B811C81F6018789803129F088EF9FEFC3
:102E1000AFEFBFE004C088EF9FEFA0E0B0E0E8169E
:102E2000F9060A071B07B8F281E001C080E00F90A5
:102E30000F900F900F90CF91DF911F910F91FF9006
:102E4000EF90DF90CF90BF90AF9008954F925F9238
:102E50006F927F928F929F92AF92BF92CF92DF92AA
:102E6000EF92FF920F931F93DF93CF9300D00F92B7
:102E7000CDB7DEB76C0149835A836B837C833901FC
:102E8000EE24FF2487012E010894411C511C812C43
:102E9000A2E09A2EA12CB12C49815A816B817C81B0
:102EA000C60192010E945A16882351F1D501C4012E
:102EB000F601058404C0880F991FAA1FBB1F0A943E
:102EC000D2F7E80EF91E0A1F1B1F29813A814B8198
:102ED0005C818789803129F088EF9FEFAFEFBFE0F9
:102EE00004C088EF9FEFA0E0B0E0281739074A0739
:102EF0005B0790F2F301E082F1820283138381E0A9
:102F00000F900F900F900F90CF91DF911F910F9125
:102F1000FF90EF90DF90CF90BF90AF909F908F90F9
:102F20007F906F905F904F9008952F923F924F92B5
:102F30005F926F927F928F929F92AF92BF92CF9249
:102F4000DF92EF92FF920F931F93DF93CF93CDB752
:102F5000DEB72F970FB6F894DEBF0FBECDBF1C01B2
:102F60004A875B876C877D873F872E87D9010D91C4
:102F70001D912D913C91011511052105310549F057
:102F8000480159010894811C911CA11CB11C19868F
:102F900010C0FC0180809180A280B38019868A8550
:102FA0009B85AC85BD850197A105B10511F491E024
:102FB0009987D10119968D919D910D90BC91A02D6D
:102FC0000196A11DB11D8D839E83AF83B8877501C6
:102FD00064014424552432018E010F5F1F4FF1011B
:102FE00081859285A385B485481659066A067B06B5
:102FF00008F090C08D819E81AF81B8858C159D05AC
:10300000AE05BF0550F482E0882E912CA12CB12C86
:10301000B2E0CB2ED12CE12CF12CC101B701A601DD
:1030200098010E945A16882309F474C089819A81F4
:10303000AB81BC81A70196012F5F3F4F4F4F5F4F80
:103040000097A105B10519F049015A010DC02819D1
:1030500039094A095B098A859B85AC85BD85281796
:1030600039074A075B0759F00894411C511C611C41
:10307000711C0894C11CD11CE11CF11CB0CFC10112
:10308000A601B7010FEF1FEF2FEF3FE00E94BE1523
:10309000882399F43FC0260137010894410851085C
:1030A00061087108C101B301A201970186010E9464
:1030B000BE15882379F1730162018C149D04AE045E
:1030C000BF0448F3AE85BF854D915D916D917C91B4
:1030D000411551056105710539F0C1019501840162
:1030E0000E94BE158823B1F0EE85FF858082918213
:1030F000A282B382F985FF2359F00894811C911CA8
:10310000A11CB11CD1018D929D92AD92BC921397DE
:1031100081E001C080E02F960FB6F894DEBF0FBEAD
:10312000CDBFCF91DF911F910F91FF90EF90DF9076
:10313000CF90BF90AF909F908F907F906F905F9057
:103140004F903F902F90089581E0809346076093C1
:1031500023071092440710924507089520912207F3
:1031600030E080912107281B3109C9010895409161
:10317000210780912207481718F02FEF3FEF0AC070
:10318000E42FF0E0EF5FF84F8081282F30E04F5FB1
:1031900040932107C9010895E091210780912207FA
:1031A000E81718F0EFEFFFEF06C0F0E0EF5FF84F21
:1031B0008081E82FF0E0CF010895089510924A072A
:1031C0001092490788EE93E0A0E0B0E080934B07AF
:1031D00090934C07A0934D07B0934E0782E394E081
:1031E00090934807809347070895CF92DF92EF921C
:1031F000FF920F931F93CF93DF937C016B018A01A2
:10320000809146078823A1F0C0E0D0E00DC0D7012F
:10321000ED91FC91D601AC0FBD1F0190F081E02D26
:10322000C7016C9119952196C017D10780F304C08E
:10323000CB01642F0E94271AC801DF91CF911F9103
:103240000F91FF90EF90DF90CF900895DF93CF9391
:103250000F92CDB7DEB7FC016983809146078823C2
:10326000C9F080914507803238F081E090E0938387
:10327000828320E030E015C080914407E82FF0E021
:10328000EC5DF84F998190838F5F80934407809322
:10329000450705C0CE01019661E00E94271A21E092
:1032A00030E0C9010F90CF91DF9108950F93062F61
:1032B0008091230764E277E04091450721E00E9476
:1032C000D2191092440710924507109246070F91A9
:1032D000089561E00E9456190895413208F040E2D5
:1032E000862F61E077E00E94891910922107809370
:1032F0002207089521E00E946D1908951092210778
:103300001092220710924407109245070E94D71B83
:103310000895382F413210F040E042C080915307A9
:103320008823E1F791E090935307209355078FEF9F
:103330008093C00710927B07415040937C074F5FFA
:103340009093540780915407330F832B8093540735
:1033500080915607813041F41092560780915407AE
:103360008093BB0085EC01C085EE8093BC0080910A
:1033700053078130E1F380917B07841710F440916B
:103380007B0720E030E00AC0FB01E20FF31FD90108
:10339000A55AB84F8C9180832F5F3F4F2417A0F31D
:1033A000842F08950F931F93582F122F413210F03E
:1033B00081E04AC0809153078823E1F782E080933F
:1033C0005307009355078FEF8093C00710927B0738
:1033D00040937C07ABE5B7E0FB0102C081918D9380
:1033E0008E2F861B8417D0F31092540780915407B8
:1033F000550F852B8093540780915607813041F4F7
:1034000010925607809154078093BB0085EC01C051
:1034100085EE8093BC00112321F080915307823008
:10342000E1F38091C0078F3F11F480E00DC08091DF
:10343000C007803211F482E007C08091C00780335A
:1034400011F084E001C083E01F910F910895482F8F
:10345000613210F081E0089580915307843011F0BB
:1034600082E0089560939E07ADE7B7E0842F9C014A
:10347000F90102C081918D938E2F841B8617D0F3A2
:1034800080E008951F920F920FB60F920BB60F9225
:1034900011242F933F934F935F936F937F938F9359
:1034A0009F93AF93BF93EF93FF938091B90090E008
:1034B000887F90708036910509F4F2C081369105BD
:1034C000CCF58832910509F47BC089329105B4F4BA
:1034D0008031910509F46FC0813191053CF400976A
:1034E00009F447C1089709F04FC165C088319105BB
:1034F00009F466C0809709F047C182C08034910505
:1035000009F4A4C08134910544F48033910509F491
:1035100082C0C89709F038C189C08035910509F487
:1035200089C08835910509F496C08834910509F061
:103530002BC1AEC08839910509F413C189399105B1
:10354000ECF48837910509F4ABC0893791054CF448
:103550008836910509F4A4C08037910509F014C19B
:103560009FC08838910509F4FCC08039910509F4A1
:103570009DC08038910509F007C198C0803B910536
:1035800009F4C6C0813B91054CF4803A910509F4D9
:103590009FC0883A910509F0F7C0BAC0803C9105F8
:1035A00009F4E3C0883C910509F4DFC0883B91052C
:1035B00009F0EAC0C2C0809154078093BB00CFC01D
:1035C00090917B0780917C07981768F490917B0716
:1035D000E92FF0E0E55AF84F80818093BB009F5FB0
:1035E00090937B07BCC080915507882309F44BC09A
:1035F00085ED8093BC008091BC0084FDFCCFC2C0EF
:1036000080E28093C00785ED8093BC008091BC0070
:1036100084FDFCCFB7C080E38093C00785ED809325
:10362000BC008091BC0084FDFCCFACC088E38093DB
:10363000C0079BC080917B079091BB00E82FF0E012
:10364000E55AF84F90838F5F80937B0790917B07BB
:1036500080917C0782C080917B079091BB00E82F0E
:10366000F0E0E55AF84F90838F5F80937B0780915D
:103670005507882341F085ED8093BC008091BC0004
:1036800084FDFCCF7FC081E08093560784EA6EC042
:1036900085ED8093BC008091BC0084FDFCCF72C09E
:1036A00083E0809353071092BF0759C08091BF07F2
:1036B000803208F056C08091BF079091BB00E82F80
:1036C000F0E0E156F84F90838F5F8093BF0747C0CB
:1036D0008091BF07803230F4E091BF07F0E0E156FF
:1036E000F84F108285ED8093BC008091BC0084FD72
:1036F000FCCF109253076091BF07E0915907F091FA
:103700005A078FE997E070E019951092BF072DC016
:1037100084E08093530710929D0710929E07E091DA
:103720005707F0915807199580919E07882329F42F
:1037300081E080939E0710927D0790919D07E92F6D
:10374000F0E0E358F84F80818093BB009F5F909337
:103750009D0790919D0780919E07981710F485EC26
:1037600001C085E88093BC000FC085EC8093BC004D
:1037700009C01092C00785ED8093BC008091BC0009
:1037800084FDFCCF10925307FF91EF91BF91AF9151
:103790009F918F917F916F915F914F913F912F9169
:1037A0000F900BBE0F900FBE0F901F9018951092A8
:1037B000530781E0809355071092560784E161E03A
:1037C0000E941F1E85E161E00E941F1EE9EBF0E0F0
:1037D00080818E7F808380818D7F808388E4809349
:1037E000B80085E48093BC0008950895CF92DF92DD
:1037F000EF92FF920F931F93162F57E4E52E57E099
:10380000F52EC70167E770E00E94A418C701612F79
:103810000E942619C7010E946919C70167E770E075
:103820000E94A418C70167E770E042E050E00E94E0
:103830007A19C7010E94B718182F00E0C7010E942B
:10384000B7186C01C7010E9469190C291D29C8010C
:103850001F910F91FF90EF90DF90CF900895EF921E
:10386000FF921F93162F67E4E62E67E0F62EC7013E
:1038700067E770E00E94A418C701612F0E94261913
:10388000C7010E946919C70167E770E00E94A41888
:10389000C70167E770E041E050E00E947A19C70174
:1038A0000E94B718182FC7010E946919812F1F9114
:1038B000FF90EF900895CF93DF93EC01643008F010
:1038C00063E0688387E497E00E947E19CE0160ED93
:1038D0000E942F1C853511F080E043C0CE016AEABA
:1038E0000E94F61B9A838983CE016CEA0E94F61B24
:1038F0009C838B83CE016EEA0E94F61B9E838D8390
:10390000CE0160EB0E94F61B9A8B898BCE0162EB95
:103910000E94F61B9C8B8B8BCE0164EB0E94F61BE6
:103920009E8B8D8BCE0166EB0E94F61B98878F8352
:10393000CE0168EB0E94F61B9A878987CE016AEB5D
:103940000E94F61B9C878B87CE016CEB0E94F61BB6
:103950009E878D87CE016EEB0E94F61B988B8F871A
:1039600081E0DF91CF9108951F920F920FB60F92D1
:1039700011242F933F938F939F93AF93BF93809185
:10398000C5079091C607A091C707B091C8073091AD
:10399000C9070196A11DB11D232F2D5F2D3720F0E2
:1039A0002D570196A11DB11D2093C9078093C5070E
:1039B0009093C607A093C707B093C8078091C1072B
:1039C0009091C207A091C307B091C4070196A11DB1
:1039D000B11D8093C1079093C207A093C307B09312
:1039E000C407BF91AF919F918F913F912F910F90FD
:1039F0000FBE0F901F9018958FB7F8942091C507B0
:103A00003091C6074091C7075091C8078FBFB901D1
:103A1000CA010895789484B5826084BD84B58160BC
:103A200084BD85B5826085BD85B5816085BDEEE6C6
:103A3000F0E0808181608083E1E8F0E010828081A5
:103A400082608083808181608083E0E8F0E0808113
:103A500081608083E1EBF0E0808184608083E0EB33
:103A6000F0E0808181608083E1E9F0E08081826024
:103A70008083808181608083E0E9F0E080818160E3
:103A80008083E1EAF0E080818260808380818160D0
:103A90008083E0EAF0E0808181608083E1E2F1E010
:103AA000808182608083808181608083E0E2F1E0B8
:103AB000808181608083EAE7F0E080818460808398
:103AC0008081826080838081816080838081806842
:103AD00080831092C1000895CF93DF93482F50E068
:103AE000CA0188579E4FFC0134914E5B5E4FFA012C
:103AF0008491882369F190E0880F991FFC01EC50B4
:103B0000FF4FA591B491FC01E25FFE4FC591D491A6
:103B1000662351F42FB7F8948C91932F90958923B5
:103B20008C93888189230BC0623061F42FB7F8949D
:103B30008C91932F909589238C938881832B8883F4
:103B40002FBF06C09FB7F8948C91832B8C939FBF97
:103B5000DF91CF910895893009F449C08A30A0F4EB
:103B6000843051F1853040F4823079F1833000F5B2
:103B7000813009F063C026C0873079F1883098F52C
:103B8000863009F05BC025C08D3009F442C08E300C
:103B900028F48B30B1F18C30C0F52DC0803109F4A0
:103BA00042C0813109F445C08F3009F047C037C0A9
:103BB000809180008F7703C0809180008F7D8093FB
:103BC0008000089584B58F7702C084B58F7D84BD51
:103BD00008958091B0008F7703C08091B0008F7DF1
:103BE0008093B0000895809190008F7707C08091F6
:103BF00090008F7D03C080919000877F809390001C
:103C000008958091A0008F7707C08091A0008F7DDC
:103C100003C08091A000877F8093A00008958091C9
:103C200020018F7703C0809120018F7D8093200138
:103C3000089580912001877F809320010895FF924D
:103C40000F931F93F62E482F50E0CA0182539E4FC8
:103C5000FC012491CA0188579E4FFC0114914E5BD0
:103C60005E4FFA0104910023C9F0222319F0822F3C
:103C70000E94AB1DE02FF0E0EE0FFF1FE25FFE4F52
:103C8000A591B4919FB7F894FF2021F48C911095E1
:103C9000812302C08C91812B8C939FBF1F910F9128
:103CA000FF9008950F931F93CF93DF93BC01823051
:103CB000910510F462E070E0E0910609F0910709C7
:103CC00040E050E0A0E0B0E024C080819181861700
:103CD0009707D0F08617970771F482819381109728
:103CE00029F013969C938E9312972CC090930709FA
:103CF0008093060927C04115510519F084179507CF
:103D000018F48D01AC01EF01DF01828193819C01E8
:103D1000F9013097D1F641155105F9F0CA01861B1A
:103D2000970B8430910580F48A819B8101151105E0
:103D300021F0F8019383828304C090930709809354
:103D40000609FE01329645C0FE01E80FF91F619396
:103D500071930297998388833CC080910409909164
:103D60000509892B41F480911204909113049093DA
:103D700005098093040940911404509115044115DC
:103D8000510541F44DB75EB7809110049091110434
:103D9000481B590B20910409309105092417350758
:103DA000B0F4CA01821B930B8617970780F0AB0112
:103DB0004E5F5F4F8417950750F0420F531F50938B
:103DC000050940930409F9016193719302C0E0E091
:103DD000F0E0CF01DF91CF911F910F910895CF9324
:103DE000DF939C01009709F48FC0EC0122971B829E
:103DF0001A8260910609709107096115710581F4B5
:103E000088819981820F931F2091040930910509BF
:103E10002817390739F5D0930509C093040974C0F0
:103E2000DB0140E050E0AC17BD0708F1BB83AA837B
:103E3000FE0121913191E20FF31FAE17BF0779F414
:103E40008D919C911197280F391F2E5F3F4F398319
:103E5000288312968D919C9113979B838A83411599
:103E6000510571F4D0930709C09306094DC012960D
:103E70008D919C911397AD01009711F0DC01D3CF88
:103E8000DA011396DC93CE931297FA0121913191C6
:103E9000E20FF31FCE17DF0769F488819981280F9D
:103EA000391F2E5F3F4FFA01318320838A819B8126
:103EB00093838283E0E0F0E0DB0112968D919C9188
:103EC0001397009719F0BC01FD01F6CFAB014E5FCF
:103ED0005F4FDB018D919C91840F951F2091040908
:103EE000309105092817390779F4309729F4109291
:103EF00007091092060902C01382128242505040F4
:103F00005093050940930409DF91CF910895DC0196
:103F10005C968C915C97FD01E80FF11DE35AFF4F11
:103F200020815C968C915C9790E001968F739070E5
:103F30005C968C935C975696ED91FC9157972083F5
:103F40005096ED91FC9151978081806480835B96BF
:103F50009C915B975C968C915C97981739F452967C
:103F6000ED91FC91539780818F7D80830895DF923E
:103F7000EF92FF920F931F93CF93DF93EC017A019F
:103F80008B01D22EE889F98982E08083403081EE6E
:103F9000580780E0680780E07807A1F060E079E0EA
:103FA0008DE390E0A80197010E948D2521503040BB
:103FB00040405040569547953795279580E12030F1
:103FC000380798F0E889F989108260E874E88EE192
:103FD00090E0A80197010E948D252150304040407B
:103FE00050405695479537952795EC85FD8530834C
:103FF000EE85FF852083188EEC89FD89D082EA89C1
:10400000FB89808180618083EA89FB898081886067
:104010008083EA89FB89808180688083EA89FB89C3
:1040200080818F7D8083DF91CF911F910F91FF90D1
:10403000EF90DF900895FC01218D828D30E0205CAF
:104040003F4F281B31092F733070C9010895FC01BF
:10405000918D828D981719F42FEF3FEF06C0828D56
:10406000E80FF11D858D282F30E0C9010895DC018E
:1040700059969C9159975A968C915A97981719F47A
:104080002FEF3FEF10C05A968C915A97FD01E80F21
:10409000F11D958D5A968C915A978F5F8F735A9612
:1040A0008C93292F30E0C9010895CF93DF93EC0161
:1040B000888D882361F419C08C9185FF0AC0E88936
:1040C000F989808185FF05C0CE010E94871FAA89DA
:1040D000BB898C9185FD05C0E889F989808186FDC1
:1040E00004C00FB607FEE8CFF4CFDF91CF9108955B
:1040F0000F931F93CF93DF93EC01062F9B8D8C8D35
:10410000981791F5E889F989808185FF2DC0EE899E
:10411000FF896083E889F9898081806480831DC07C
:104120000FB607FC08C0E889F989808185FF03C0C4
:10413000CE010E94871F8C8D181791F38B8DFE0185
:10414000E80FF11DE35AFF4F00831B8FEA89FB89BB
:1041500080818062808381E0888F81E090E0DF91C0
:10416000CF911F910F9108951B8D1F5F1F73E3CF98
:104170008EE691E2892B51F080E090E0892B31F0BE
:104180000E946E21882311F00E94000080E090E0E0
:10419000892B51F080E090E0892B31F00E940000E3
:1041A000882311F00E9400008FE192E2892B51F0E8
:1041B00089EF91E0892B31F00E941F22882311F0B2
:1041C0000E94F90180E090E0892B51F089EF91E0A5
:1041D000892B31F00E940000882311F00E9400001A
:1041E00008951F920F920FB60F920BB60F921124E3
:1041F0002F938F939F93EF93FF93E091DA07F091C2
:10420000DB07808182FD16C0E091E007F091E107B5
:1042100020819091E3079F5F9F738091E407981737
:1042200071F0E091E307F0E0E653F84F258F9093AB
:10423000E30705C0E091E007F091E107E081FF911D
:10424000EF919F918F912F910F900BBE0F900FBE0A
:104250000F901F9018951092CD071092CC0788EE02
:1042600093E0A0E0B0E08093CE079093CF07A093B7
:10427000D007B093D10782E494E09093CB0780936A
:10428000CA0785EC90E09093D7078093D60784EC1B
:1042900090E09093D9078093D80780EC90E09093BA
:1042A000DB078093DA0781EC90E09093DD07809341
:1042B000DC0782EC90E09093DF078093DE0786ECCA
:1042C00090E09093E1078093E0071092E30710924B
:1042D000E4071092E5071092E60708958AEC97E04C
:1042E0000E941B2020E0892B09F021E0822F0895F5
:1042F0001F920F920FB60F920BB60F9211242F93AD
:104300003F934F935F936F937F938F939F93AF935D
:10431000BF93EF93FF938AEC97E00E94871FFF9172
:10432000EF91BF91AF919F918F917F916F915F912D
:104330004F913F912F910F900BBE0F900FBE0F909A
:104340001F9018951F920F920FB60F920BB60F92F7
:1043500011242F938F939F93EF93FF93E09177080E
:10436000F0917808808182FD16C0E0917D08F0917F
:104370007E082081909180089F5F9F7380918108C3
:10438000981771F0E0918008F0E0E959F74F258F18
:104390009093800805C0E0917D08F0917E08E0814F
:1043A000FF91EF919F918F912F910F900BBE0F90E6
:1043B0000FBE0F901F90189510926A08109269080E
:1043C00088EE93E0A0E0B0E080936B0890936C08D7
:1043D000A0936D08B0936E0882E494E0909368080F
:1043E0008093670885ED90E090937408809373083C
:1043F00084ED90E0909376088093750880ED90E0CE
:10440000909378088093770881ED90E090937A08F4
:104410008093790882ED90E090937C0880937B08EC
:1044200086ED90E090937E0880937D08109280083E
:10443000109281081092820810928308089587E6EE
:1044400098E00E941B2020E0892B09F021E0822FB8
:1044500008951F920F920FB60F920BB60F92112470
:104460002F933F934F935F936F937F938F939F937C
:10447000AF93BF93EF93FF9387E698E00E94871F67
:10448000FF91EF91BF91AF919F918F917F916F912C
:104490005F914F913F912F910F900BBE0F900FBEE8
:1044A0000F901F901895CF93DF930E940A1D0E94D2
:1044B0001C02C8EBD0E20E94EC012097E1F30E94BD
:1044C000B820F9CFCF92DF92EF92FF920F931F9314
:1044D000CF93DF937C016B018A01C0E0D0E00FC075
:1044E000D6016D916D01D701ED91FC910190F081A4
:1044F000E02DC7011995C80FD91F015010400115B3
:10450000110571F7CE01DF91CF911F910F91FF90AF
:10451000EF90DF90CF900895DC01ED91FC91019038
:10452000F081E02D19950895EF92FF920F931F935C
:104530008C01DC01ED91FC910190F081E02D6DE0AA
:1045400019957C01D801ED91FC910190F081E02D4D
:10455000C8016AE019959C012E0D3F1DC9011F91EC
:104560000F91FF90EF900895CF93DF93EC016115C9
:10457000710519F420E030E00FC0DB010D90002040
:10458000E9F71197A61BB70BE881F9810280F38147
:10459000E02DAD0119959C01C901DF91CF910895DE
:1045A0000E94B4220895EF92FF920F931F937C0113
:1045B0000E94B4228C01C7010E949422080F191F87
:1045C000C8011F910F91FF90EF9008950F931F93D3
:1045D000CF93DF93FC018B0141155105F9F0611573
:1045E0007105E1F0848195812817390718F0FB01E6
:1045F000108214C041505040EC01C21BD30B4C1729
:104600005D0708F4EA0160817181620F731FC801C0
:10461000AE010E946701C00FD11F1882DF91CF91B8
:104620001F910F9108950F931F93CF93DF93EC0188
:104630008B016F5F7F4F888199810E948D24009745
:1046400011F480E005C0998388831B830A8381E08D
:10465000DF91CF911F910F910895CF93DF93EC01DC
:1046600088819981892B29F08A819B8186179707F8
:1046700060F4CE010E941323882341F08C819D8138
:10468000892B19F4E881F981108281E0DF91CF91C3
:104690000895EF92FF920F931F93CF93DF93EC0156
:1046A0007B016C817D81E114F104C1F0411551055C
:1046B00099F08A01060F171FB8010E942D23882345
:1046C00069F0888199812C813D81820F931FB70108
:1046D0000E9460011D830C8381E001C080E0DF91B6
:1046E000CF911F910F91FF90EF900895DF93CF939B
:1046F0000F920F92CDB7DEB769831A82BE016F5F4A
:104700007F4F41E050E00E9449230F900F90CF91DE
:10471000DF910895CF93DF93EC0188819981009711
:1047200011F00E94EF1E198218821D821C821B82CA
:104730001A82DF91CF9108950F931F93182F092F9D
:104740006115710561F0DB010D900020E9F711970B
:10475000A61BB70BAD010E944923882321F4812FAA
:10476000902F0E948A23812F902F1F910F910895DF
:104770000F931F93182F092FFB01608171814481D2
:1047800055810E944923882321F4812F902F0E9474
:104790008A23812F902F1F910F910895EF92FF92FE
:1047A0000F931F93CF93DF93EC017B018A01BA0132
:1047B0000E942D23882321F4CE010E948A2307C062
:1047C0001D830C8388819981B7010E946001CE010D
:1047D000DF91CF911F910F91FF90EF900895CF93AC
:1047E000DF93EC01198218821B821A821D821C82BF
:1047F0006115710551F0DB010D900020E9F711976B
:10480000A61BB70BAD010E94CE23DF91CF91089577
:10481000CF93DF93EC01198218821B821A821D82CA
:104820001C826115710551F0DB010D900020E9F744
:104830001197A61BB70BAD010E94CE23DF91CF913C
:1048400008950F931F93182F092F6115710559F0C3
:10485000DB010D900020E9F71197A61BB70BAD0106
:104860000E94CE2302C00E948A23812F902F1F9185
:104870000F910895EF92FF920F931F93DF93CF93C1
:10488000CDB7DEB762970FB6F894DEBF0FBECDBFCF
:104890008C01CB01F80111821082138212821582E1
:1048A00014827E010894E11CF11CB70150E00E94C3
:1048B0007601C801B7010E94212462960FB6F894D0
:1048C000DEBF0FBECDBFCF91DF911F910F91FF9043
:1048D000EF900895CF93DF93EC01FB0186179707C4
:1048E00061F0608171816115710529F04481558104
:1048F0000E94CE2302C00E948A23CE01DF91CF9175
:104900000895FC01808191810E94EF1E0895FC01B1
:10491000808191810E94EF1E08956F927F928F9205
:104920009F92AF92BF92CF92DF92EF92FF920F933E
:104930001F93CF93DF938C01009729F4CB010E9442
:10494000521E8C01BBC08EEFE82E8FEFF82EE00ECA
:10495000F11E4801860E971E8E149F0408F4ACC009
:10496000D7014D915C91119746175707B8F0453024
:10497000510508F4A3C0CA0104978617970708F4E5
:104980009DC042505040461B570BF4014193519338
:104990006D937C93CF010E94EF1E90C05B01A41A1F
:1049A000B50A3801640E751EA0910609B091070979
:1049B000E0E0F0E0CC24DD2447C0A615B705A9F55A
:1049C000CD91DC911197CE0102968A159B0568F175
:1049D000CE018A199B09029612962C911297139672
:1049E0003C91059758F0F40122833383CA19DB09FF
:1049F000D183C083D7016D937C9309C04E5F5F4F15
:104A00004C0F5D1FF70151834083C901FC01C114A4
:104A1000D10431F0D6011396FC93EE9312974EC059
:104A2000F0930709E093060949C08D919C91119775
:104A3000E817F90708F4FC016D0112968C911297A2
:104A400013969C919C01D901109709F0B6CF8091E3
:104A500004099091050986159705E9F4E617F7070B
:104A6000D0F420911404309115042115310541F43E
:104A70002DB73EB78091100490911104281B390B7B
:104A800082169306C8F49092050980920409F701F2
:104A90007183608313C0CB010E94521EEC0100970A
:104AA00059F0D7014D915C91B8010E944C01C801A9
:104AB0000E94EF1E8E0102C000E010E0C801DF91ED
:104AC000CF911F910F91FF90EF90DF90CF90BF900B
:104AD000AF909F908F907F906F900895629FD001CC
:104AE000739FF001829FE00DF11D649FE00DF11DA9
:104AF000929FF00D839FF00D749FF00D659FF00D58
:104B00009927729FB00DE11DF91F639FB00DE11D44
:104B1000F91FBD01CF0111240895A1E21A2EAA1B8D
:104B2000BB1BFD010DC0AA1FBB1FEE1FFF1FA2175D
:104B3000B307E407F50720F0A21BB30BE40BF50B5A
:104B4000661F771F881F991F1A9469F760957095E3
:104B5000809590959B01AC01BD01CF010895EE0FAA
:104B6000FF1F0590F491E02D1994AA1BBB1B51E186
:104B700007C0AA1FBB1FA617B70710F0A61BB70BCD
:104B8000881F991F5A95A9F780959095BC01CD0172
:104B9000089512E0CEE1D2E004C0FE010E94B125EA
:0C4BA0002296C032D107C9F7F894FFCF6D
:104BAC000054656D7065726174757265203D2000EE
:104BBC00202A43005072657373757265203D200086
:104BCC0020506100416C746974756465203D20004F
:104BDC00206D6574657273005072657373757265C0
:104BEC00206174207365616C6576656C2028636147
:104BFC006C63756C6174656429203D20005265619D
:104C0C006C20616C746974756465203D2000433AB6
:104C1C005C55736572735C536B756C655C4170703D
:104C2C00446174615C4C6F63616C5C564D6963727A
:104C3C006F5C41726475696E6F5C4275696C64730C
:104C4C005C43616E5361745F6D6567615F62617334
:104C5C0069635C6D6567615F61746D656761323551
:104C6C0036305C43616E5361745F6D6567615F6282
:104C7C00617369632E637070004B6F6D70696C7437
:104C8C006572742064656E20004D6F6E20466562FF
:104C9C002030322031363A30323A30332032303113
:104CAC003500436F756C64206E6F742066696E649A
:104CBC0020612076616C696420424D50303835207B
:104CCC0073656E736F722C20636865636B207769F4
:104CDC0072696E672100496E697469616C697A69E1
:104CEC006E6720534420636172642E2E2E00696E11
:104CFC00697469616C697A6174696F6E2066616947
:104D0C006C65642100696E697469616C697A61749F
:104D1C00696F6E20646F6E652E00746573742E74EB
:104D2C0078740057726974696E6720746F207465AB
:104D3C0073742E7478742E2E2E0074657374696ED1
:104D4C006720312C20322C20332E00646F6E652EA0
:104D5C00006572726F72206F70656E696E67207479
:104D6C006573742E7478740030300030006C6F678B
:104D7C0067002E7478740046696C6E61766E3A200A
:104D8C0000536B72697665722074696C20736400D1
:104D9C006C696E6A6531006C696E6A6532002F0051
:104DAC006C6F67673030312E74787400FFFFFFFF33
:104DBC00800008090000000000009B045805B304A3
:104DCC00FE041C05F60400000000631262220000C1
:104DDC0000002619F518AE18B718CC18DD1800000D
:0E4DEC000000782062221B203720272055204F
:00000001FF
