:100000000C94CE010C94FB010C94FB010C94FB01AD
:100010000C94FB010C94FB010C94FB010C94FB0170
:100020000C94FB010C94FB010C94FB010C94FB0160
:100030000C94FB010C94FB010C94FB010C94FB0150
:100040000C94FB010C94FB010C94FB010C94FB0140
:100050000C94FB010C94BD230C94FB010C94342BE9
:100060000C94FB010C94D92F0C9460300C94FB0180
:100070000C94FB010C94FB010C94FB010C94FB0110
:100080000C94FB010C94FB010C94FB010C94FB0100
:100090000C94FB010C94FB010C94FB010C94E31CED
:1000A0000C94FB010C94FB010C94FB010C94FB01E0
:1000B0000C94FB010C94FB010C94FB010C94FB01D0
:1000C0000C94FB010C94FB010C94FB010C948A3002
:1000D0000C9411310C94FB010C94FB010C94FB016A
:1000E0000C94FB0107634236B79BD8A71A396856B0
:1000F00018AEBAAB558C1D3CB7CC5763BD6DEDFD4A
:10010000753EF6177231BF000000803F0800000006
:10011000BE922449123EABAAAA2ABECDCCCC4C3EFC
:1001200000000080BEABAAAAAA3E00000000BF00EB
:100130000000803F0000000000084178D3BB4387E7
:10014000D1133D190E3CC3BD4282AD2B3E68EC82FB
:1001500076BED98FE1A93E4C80EFFFBE01C4FF7F80
:100160003F00000000007C3C3E5E2B3D3F2F5B5D6E
:100170003B2C2A225C0000002100240027002A00DA
:100180002D003000330001010000040107010A01C5
:1001900000002200250028002B002E003100340032
:1001A00002010000050108010B01000020002300EE
:1001B000260029002C002F0032000001000003015E
:1001C00006010901050505050705080808080202DA
:1001D00002020A0A080804040404010101010101E1
:1001E00001010303030303030303040707070C0CC4
:1001F0000C0C0C0C0C0C020202020606060606068B
:1002000006060B0B0B0B0B0B0B0B0102102020082F
:100210000810204010204080020102010804020161
:1002200001020408102040808040201008040201D0
:100230008004020180402010080402010804020129
:1002400001020408102040800102040810204080B0
:100250000000090A02080B0C0D0706030401000048
:10026000000000000000000000000000000000008E
:1002700000000000000000000000000011100F004E
:10028000000000000000000000000000000000006E
:1002900000000000000000407A10F35A00A0724EE7
:1002A00018090010A5D4E80000E87648170000E41B
:1002B0000B54020000CA9A3B000000E1F505000063
:1002C00080969800000040420F000000A0860100C8
:1002D0000000102700000000E80300000000640098
:1002E000000000000A000000000001000000000003
:1002F0002C76D888DC674F0823DFC1DFAE59E1B127
:10030000B796E5E3E453C63AE651997696E8E6C235
:100310008426EB898C9B62ED407C6FFCEFBC9C9F3C
:1003200040F2BAA56FA5F490055A2AF75C936B6C5E
:10033000F9676DC11BFCE0E40D47FEF520E6B50052
:10034000D0ED902E0300943577050080841E0800C0
:1003500000204E0A000000C80C333333330F986E70
:1003600012831141EF8D2114893BE65516CFFEE62D
:10037000DB18D1844B381BF77C1D901DA4BBE424F3
:10038000203284725E228100C9F124ECA1E53D2770
:100390007D0579097F1B1330C430760511241FBEFB
:1003A000CFEFD1E2DEBFCDBF00E00CBF13E0A0E095
:1003B000B2E0ECECF1E700E00BBF02C007900D9259
:1003C000A03EB107D9F71BBE19E0A0EEB3E001C013
:1003D0001D92AA30B107E1F713E0CAE9D3E004C0E7
:1003E0002297FE010E949E38C039D107C9F70E94AA
:1003F0003B310C94D9380C940000EF92FF920F938C
:100400001F93F22FF02E47FD02C0E4E001C0E4E1AB
:10041000242F332727FD309537FF03C030952195D2
:100420003F4F4F2D512F0F2FEE2E0E94A6028F2DE2
:10043000912F1F910F91FF90EF900895FB01DC0128
:1004400004C08D910190801921F441505040C8F7AB
:10045000881B990B0895FB01DC0102C001900D92ED
:1004600041505040D8F70895DC0101C06D934150D0
:100470005040E0F70895FB01DC0101900D9200204F
:10048000E1F70895FB01DC014150504048F0019034
:100490000D920020C9F701C01D9241505040E0F775
:1004A0000895FB019F01E8944230C4F04532B4F452
:1004B0004A3029F497FB1EF4909581959F4F642F45
:1004C00077270E944B38805D8A330CF0895D8193D9
:1004D000CB010097A1F716F45DE251931082C90198
:1004E0000C94E004FA01CF93FF93EF93223044F190
:1004F000253234F5C22FE894CA3049F497FB3EF414
:1005000090958095709561957F4F8F4F9F4F2C2FC1
:10051000332744275527FF93EF930E945F38EF91CD
:10052000FF91605D6A330CF0695D6193B901CA01A6
:10053000605070408040904051F716F4CDE2C19376
:1005400010828F919F91CF910C94E004A9E0B0E0CC
:10055000ECEAF2E00C94A6386A01122FA02EBE2C11
:100560002BE3201718F42CE3922E02C0902E9394C4
:10057000AE014F5F5F4F27E0092D0E940804BC01C8
:100580008981E82EFF24C70189709070019711F4CA
:10059000ADE209C0B1FE02C0ABE205C0B0FC02C0D2
:1005A000A0E001C0A0E2E3FE3BC0AA2311F423E0D7
:1005B00001C024E0211710F020E002C0121B212FFF
:1005C000EB2CB4FE02C0322F0AC0F601322F80E2BB
:1005D00002C0819331503323E1F7C20ED11CAA230C
:1005E00019F0F601A1936F01F6013196E2FE05C004
:1005F0009EE4D6019C9381E404C09EE6D6019C93C0
:1006000081E611968C9391833296DF01832F90E2DD
:1006100002C09D9381508823E1F7E30FF11D40C094
:10062000E2FE42C0AA2311F423E001C024E0211716
:1006300010F020E002C0121B212FEB2CB4FE02C0F0
:10064000922F0AC0F601922F80E202C0819391504E
:100650009923E1F7C20ED11CAA2319F0F601A19348
:100660006F01F6013196E2FE08C089E4D6018C9351
:100670008EE411968C9386E407C089E6D6018C93AC
:100680008EE611968C9386E681833296DF01892F60
:1006900020E202C02D9381508823E1F7E90FF11D7C
:1006A00010822EEF3FEFAFC0161617061CF041E088
:1006B00050E003C0AB014F5F5F4FAA2019F480E008
:1006C00090E003C08A2D90E0019620E030E0AA235C
:1006D00011F021E030E0240F351F280F391F812F42
:1006E00090E02817390714F020E002C0121B212FD8
:1006F0004B2D50E0CA0180719070B4FC0DC0B3FC6A
:100700000BC0F601322F40E202C041933150332337
:10071000E1F7C20ED11C01C0322FAA2319F0F60155
:10072000A1936F01892B11F0132F0AC0F601132F2B
:1007300080E302C0819311501123E1F7C30ED11C55
:10074000092D060FBA8090E1892E912C8E209F20D2
:10075000E4FE04C0F1E3BF1609F40150101614F0D2
:1007600001E003C0093008F008E09B0177FF02C0F8
:1007700020E030E0CB010196821B930BFE01319605
:10078000E80FF91F8EE2F82E3B01601A71088A2DDE
:1007900090E044275527481B590B8FEF2F3F380710
:1007A00019F4D601FD926D01621773072CF06216E1
:1007B000730614F4808101C080E3215030403196EB
:1007C0002417350724F0D6018D936D01E6CF261747
:1007D000370749F4B5E3BB1528F0BB1621F48114A3
:1007E000910409F481E3F6018193D601812F90E20F
:1007F00002C09C93815011968823D9F7E10FF11D17
:10080000108220E030E0C9012996EEE00C94C23855
:10081000283008F027E03327DA01990F311D87FDD2
:10082000916000966105710539F432602E5F3D9349
:1008300030E32A95E1F708959F3F30F08038710545
:10084000610509F03C5F3C5F3D93913008F08068A2
:10085000911DDF93CF931F930F93FF92EF92192F68
:10086000987F9695E92F96959695E90FFF27E05189
:10087000FD4F99273327EE24FF24A701E7010590B8
:100880000894079428F4360FE71EF81E491F511DDF
:10089000660F771F881F991F0694A1F7059007948C
:1008A00028F4E70EF81E491F561FC11D770F881F39
:1008B000991F661F0694A1F70590079428F4F80E77
:1008C000491F561FC71FD11D880F991F661F771F0D
:1008D0000694A1F70590079420F4490F561FC71FEF
:1008E000D81F990F661F771F881F0694A9F7849158
:1008F0001095177041F0D695C79557954795F79481
:10090000E7941A95C1F7E6E9F2E06894159015911D
:1009100035916591959105907FE27395E118F10A03
:10092000430B560BC90BD009C0F7E10CF11E431F56
:10093000561FC91FD01D7EF4703311F48A95E6CF7F
:10094000E894015030F0080F0AF40027021708F469
:10095000202F2395022F7A3328F079E37D932A956F
:10096000E9F710C07D932A9589F6069497956795C7
:10097000379517951794E118F10A430B560BC90BDD
:10098000D00998F023957E9173957A3308F070E33F
:100990007C932013B8F77E9170617D9330F083953E
:1009A00071E37D9370E32A95E1F71124EF90FF90B6
:1009B0000F911F91CF91DF91992787FD9095089511
:1009C000DC01FC01672F71917723E1F7329704C0B6
:1009D0007C916D9370836291AE17BF07C8F3089541
:1009E000FC01268D378D40A151A186899789A08D64
:1009F000B18D281B390B4A0B5B0B203080E8380780
:100A000080E0480780E0580720F02FEF3FE740E004
:100A100050E0C901089508958130910509F04CC056
:100A20006F5F7F4F09F061C080EE93E00E94961ED9
:100A300087EF93E060E072E00E94F5328DEF93E083
:100A400060E072E00E94F53283E094E060E072E0E2
:100A50000E94F532109215041092170410920C04A3
:100A600010920B0488EE93E0A0E0B0E080930D04B8
:100A700090930E04A0930F04B09310048CEA93E0BB
:100A800090930A048093090484E494E060E072E0A7
:100A90000E94F5328AE494E060E072E00E94F53250
:100AA00089E18093510410925404109268041092CA
:100AB0006F04109271040895892BB9F46F5F7F4F12
:100AC000A1F48AE494E00E94E83384E494E00E9474
:100AD000E83383E094E00E94E8338DEF93E00E94D6
:100AE000E83387EF93E00E94E833089580E090E0D8
:100AF0006FEF7FEF0E940C05089581E090E06FEFAB
:100B00007FEF0E940C0508950C960E94950E0895A3
:100B10000C960E94DA1108950C960E94C111089556
:100B20000C960E942D120895DF93CF930F92CDB7AC
:100B3000DEB769830C96BE016F5F7F4F41E050E0E6
:100B40000E942D1220E030E0019711F421E030E006
:100B5000C9010F90CF91DF9108958F929F92AF922C
:100B6000BF92CF92DF92EF92FF920F931F93DF938A
:100B7000CF93CDB7DEB7CB54D0400FB6F894DEBFDD
:100B80000FBECDBF8CEC97E040E052EC61E070E02E
:100B900026E00E949F2E89E698E040E056E960E05A
:100BA00070E026E00E949F2E84E494E064E670E00A
:100BB0000E9433328AE494E064E670E00E943332AB
:100BC0008CEC97E061E072E00E94D9318CEC97E008
:100BD00062E772E00E94D6318CEC97E061E872E047
:100BE0000E94D93187EF93E064E670E00E943332CF
:100BF00080EE93E063E00E94CD21882339F48CECF1
:100C000097E06AE972E00E94D931FFCF8CEC97E05F
:100C10006EEC72E00E94D6318AE061E00E94542CB2
:100C200080E594E064E042E00E94A916882339F44C
:100C30008CEC97E066EE72E00E94D93143C18CECF7
:100C400097E06DEF72E00E94D93101E010E04E01B3
:100C50000894811C911C2DE0A22EB12CAC0EBD1E5F
:100C600097E0C92ED12CCC0EDD1E83E1E82EF12CAD
:100C7000EC0EFD1E61C0C401B8014AE00E94A13320
:100C80008DEF93E0B4010E94D133C4010E94E83398
:100C900080910104909102048130910589F4C6018C
:100CA00062E173E00E940E33C6016DEF73E00E94B3
:100CB000BE32BC018DEF93E00E94D133C60112C059
:100CC000029791F4C50165E173E00E940E33C501FE
:100CD0006DEF73E00E94BE32BC018DEF93E00E9485
:100CE000D133C5010E94EE330F5F1F4FC70167E18B
:100CF00073E00E940E33C7016DEF73E00E94BE32B5
:100D00006CE173E00E94A232BC018DEF93E00E947F
:100D1000D133C7010E94EE338DEF93E064E973E0B5
:100D20004CE050E020E030E00E94EC318CEC97E0A9
:100D300064E973E00E94D93180E594E064E973E0EE
:100D40000E948A16882309F096CF83E094E06DEF25
:100D500073E00E94D1338CEC97E061E273E00E9473
:100D6000D6318CEC97E064E973E00E94D9318AE4D3
:100D700094E06BE273E00E9427331DA21FA21C8E39
:100D80001B8E88EE93E0A0E0B0E08D8F9E8FAF8F3A
:100D9000B8A38CEA93E09A8F898F8E010B5D1F4F69
:100DA000C8016FE674E044E953E023E60E949E1513
:100DB000A5E1B4E0F8018AE101900D928150E1F7DC
:100DC0008B8D9C8D90930C0480930B048D8D9E8D48
:100DD000AF8DB8A180930D0490930E04A0930F04DF
:100DE000B093100489A19AA1ABA1BCA18093110476
:100DF00090931204A0931304B0931404AFE2B4E0F0
:100E0000FE01FF968DE001900D928150E1F78091F7
:100E10001704882389F089E094E061E872E00E9479
:100E2000D93189E094E06AE474E00E94A63185E15A
:100E300094E00E94341006C08CEC97E060E373E00D
:100E40000E94D9318AE064E640E00E9470269093C7
:100E50004104809340048AE064E640E00E947026EA
:100E600090934304809342048FE399E060E070E044
:100E700041E851E020E030E002E0EE24FF24CC2401
:100E8000DD24AA24BB240E94DD2980933D048AE14D
:100E900098E060E070E04DE151E020E030E00E9439
:100EA000DD2980933E0486E797E060E070E04DE343
:100EB00054E020E030E003E00E94DD2980933F040D
:100EC0000E94072BC55BDF4F0FB6F894DEBF0FBE45
:100ED000CDBFCF91DF911F910F91FF90EF90DF90E9
:100EE000CF90BF90AF909F908F9008958F929F92D8
:100EF000AF92BF92CF92DF92EF92FF920F931F9328
:100F0000DF93CF93CDB7DEB7E3970FB6F894DEBF8C
:100F10000FBECDBF68EEE62E63E0F62E012D112D3B
:100F20005CEA852E53E0952E4DE0C42ED12CCC0EDC
:100F3000DD1E37E2A32EB12CAC0EBD1E8091400405
:100F4000909141046AE474E042E350E020E00E94A2
:100F5000A524882309F469C08CEC97E06AE474E066
:100F60000E94A6318CEC97E064E973E00E94D931CD
:100F7000F8941D861F861C821B82ED82FE820F83E1
:100F800018879A828982C6016FE674E044E953E0CB
:100F900023E60E949E15A5E1B4E0F6018AE10190E6
:100FA0000D928150E1F78B819C8190930C0480938A
:100FB0000B048D819E81AF81B88580930D04909341
:100FC0000E04A0930F04B093100489859A85AB8515
:100FD000BC858093110490931204A0931304B093E2
:100FE0001404AFE2B4E0F5018DE001900D92815060
:100FF000E1F780911704882389F089E094E061E8A3
:1010000072E00E94D93189E094E06AE474E00E94C1
:10101000A63185E194E00E94341006C08CEC97E084
:101020006AE373E00E94D93178948AE090E00E94EC
:101030007A2984CF2F923F924F925F926F927F9244
:101040008F929F92AF92BF92CF92DF92EF92FF92D8
:101050000F931F93DF93CF93CDB7DEB7EC970FB607
:10106000F894DEBF0FBECDBF03E1202E312C2C0E35
:101070003D1E1DE0412E512C4C0E5D1EBFE16B2E1E
:10108000712C6C0E7D1EA9E18A2E912C8C0E9D1E5A
:10109000FBE2AF2EB12CAC0EBD1EE5E2CE2ED12C64
:1010A000CC0EDD1E77E3E72EF12CEC0EFD1E8E013B
:1010B0000F5C1F4FCE01079662E473E00E940E336F
:1010C00080EE93E00E94CF1FAB01BC01CE010196E0
:1010D00022E00E944033CE010796BE016F5F7F4F32
:1010E0000E94BE32BC0184E494E00E94D133CE0160
:1010F00001960E94E833CE0107960E94EE3380915C
:1011000040049091410464E474E042E350E020E044
:101110000E948A25C10161E573E00E940E3380EED2
:1011200093E00E94F01FAB01BC01C2012AE00E94C3
:101130007033C101B2010E94BE32BC0184E494E06C
:101140000E94D133C2010E94E833C1010E94EE33F4
:10115000809140049091410464E474E042E350E0E3
:1011600020E00E948A25C3016DE573E00E940E33E2
:1011700080EE93E040E856EE65EC77E40E946C2147
:10118000AB01BC01C40122E00E944033C301B401A1
:101190000E94BE32BC0184E494E00E94D133C401B9
:1011A0000E94E833C3010E94EE3380914004909185
:1011B000410464E474E042E350E020E00E948A25A8
:1011C000C50169E673E00E940E3380EE93E040E0D3
:1011D00050E060E070E00E949321AB01BC01C601C9
:1011E0002AE00E947033C501B6010E94BE32BC01E4
:1011F00084E494E00E94D133C6010E94E833C50123
:101200000E94EE33809140049091410464E474E0C4
:1012100042E350E020E00E948A25C7016EE773E0B8
:101220000E940E3380EE93E040E05EE366EC77E4EC
:101230000E946C21AB01BC01C80122E00E94403336
:10124000C701B8010E94BE32BC0184E494E00E9450
:10125000D133C8010E94E833C7010E94EE33809168
:1012600040049091410464E474E042E350E020E0E3
:101270000E948A2588EC90E00E947A291BCF21C029
:1012800089E698E00E941F2F682F80933C048D30E0
:1012900091F4809140049091410467EF73E042E340
:1012A00050E020E00E948A2587EF93E060E072E042
:1012B0000E94273306C08A3021F087EF93E00E9416
:1012C0007C3289E698E00E94032F892BC9F68AE0D8
:1012D00090E00E947A29F5CF8091C10085FDFCCF76
:1012E0008091C00085FFF8CF6093C60081E090E058
:1012F000089510928C0410928B048CEB93E09093E1
:101300008A04809389040895FF920F931F93CF93CB
:10131000DF938B010E947C2BEB01FF24FA9409C020
:101320000E947C2B6C1B7D0B6017710710F080E016
:1013300008C0FEBC0DB407FEFDCF8EB58F3F81F710
:1013400081E0DF91CF911F910F91FF9008950F934E
:101350001F938C018DE894E0F80162810E94D11600
:10136000F801808160E00E94072D1F910F91089580
:10137000FF920F931F93DF93CF9300D00F92CDB7BF
:10138000DEB78C01F62E29833A834B835C830E945F
:10139000A709C80168E572E00E9484098F2D806466
:1013A0008EBD0DB407FEFDCFFE0131969E01235088
:1013B000304083818EBD0DB407FEFDCF3197E2171B
:1013C000F307B9F7FF2011F087E801C085E98EBD6A
:1013D0000DB407FEFDCF8CE0F81631F48FEF8EBD13
:1013E0000DB407FEFDCF8EB590E02FEF2EBD0DB4EE
:1013F00007FEFDCF8EB587FF02C09150B9F7F80107
:1014000083830F900F900F900F90CF91DF911F91DA
:101410000F91FF900895FC01808161E00E94072DEB
:101420008FEF8EBD0DB407FEFDCF0895CF93DF93F0
:10143000EC010E94A709CE0168E572E00E948409D0
:10144000882389F08DEF8EBD0DB407FEFDCFCE0150
:1014500068E572E00E948409882329F0CE010E9489
:101460000B0A81E006C082E18983CE010E940B0A4B
:1014700080E0DF91CF910895AF92BF92CF92DF923B
:10148000EF92FF920F931F93CF93DF93EC015A01DA
:101490006B017801890167E320E030E040E050E033
:1014A0000E94B809CE0167E1A80197010E94B8091E
:1014B000882311F089E013C08C81833039F089E0F2
:1014C000AA0CBB1CCC1CDD1C8A95D1F7CE0169E1AE
:1014D000A60195010E94B809882339F087E0898325
:1014E000CE010E940B0A80E004C0CE010E940B0ACC
:1014F00081E0DF91CF911F910F91FF90EF90DF90EE
:10150000CF90BF90AF900895CF93DF93EC01DA01B5
:101510006EBD0DB407FEFDCF8C918EBD1196EC9182
:10152000119782E090E00DB407FEFDCFEEBD22E002
:101530008030920731F0FD01E80FF91FE08101963C
:10154000F2CF0DB407FEFDCF8FEF8EBD0DB407FEB9
:10155000FDCF8FEF8EBD0DB407FEFDCF8FEF8EBD9B
:101560000DB407FEFDCF8EB58B838F71853011F4DE
:1015700081E006C083E18983CE010E940B0A80E0EE
:10158000DF91CF9108950F931F93CF93DF93EC01D9
:101590008B010E94A709CE0168E572E00E948409D0
:1015A000882361F0CE016CEFA8010E94840A882391
:1015B00029F0CE010E940B0A81E006C085E18983F3
:1015C000CE010E940B0A80E0DF91CF911F910F9115
:1015D0000895CF92DF92EF92FF920F931F93CF93D4
:1015E000DF93EC017A018B0169018C81833039F042
:1015F00099E0EE0CFF1C001F111F9A95D1F7CE0148
:1016000068E1A80197010E94B809882319F086E0D3
:1016100089830CC0CE016EEFA6010E94840A882344
:1016200029F0CE010E940B0A81E004C0CE010E9485
:101630000B0A80E0DF91CF911F910F91FF90EF9007
:10164000DF90CF900895CF93DF93EC016CE020E022
:1016500030E040E050E00E94B809882339F083E090
:101660008983CE010E940B0A80E004C0CE010E9453
:101670000B0A81E0DF91CF910895CF93DF93EC01C6
:101680009A01AB018C81833039F069E0220F331F5E
:10169000441F551F6A95D1F7CE0162E10E94B80937
:1016A000882339F085E08983CE010E940B0A80E00F
:1016B00004C0CE010E940B0A81E0DF91CF91089512
:1016C000BF92CF92DF92EF92FF920F931F93CF932F
:1016D000DF93EC016B017A010E947C2B8B01BB2410
:1016E000BA9409C00E947C2B601B710B6D52714033
:1016F00010F081E10BC0BEBC0DB407FEFDCF8EB56E
:101700008B838F3F79F38E3F39F08FE08983CE0151
:101710000E940B0A80E030C0D7011197EF28D9F062
:101720008FEF8EBD20E030E09FEF0BC00DB407FEC1
:10173000FDCF8EB59EBDF601E20FF31F80832F5FB4
:101740003F4F2A173B0790F30DB407FEFDCF8EB530
:10175000AC0DBD1D8C931B828FEF8EBD0DB407FEAB
:10176000FDCF8EB58FEF8EBD0DB407FEFDCF8EB5CC
:10177000CE010E940B0A81E0DF91CF911F910F9162
:10178000FF90EF90DF90CF90BF900895EF92FF927F
:101790000F931F938C017B010E94A709C801B70119
:1017A00040E052E00E94600B1F910F91FF90EF907C
:1017B0000895CF92DF92EF92FF920F931F93CF93F2
:1017C000DF93EC017A018B0169018C81833039F060
:1017D000B9E0EE0CFF1C001F111FBA95D1F7CE0126
:1017E00061E1A80197010E94B809882339F084E0DB
:1017F0008983CE010E940B0A80E006C0CE01B601AB
:1018000040E052E00E94600BDF91CF911F910F9159
:10181000FF90EF90DF90CF900895BF92CF92DF922C
:10182000EF92FF920F931F93CF93DF93EC01B42EAF
:101830001C82198268830E947C2B6B01888161E085
:101840000E94542C888161E00E94072D8DE894E06D
:101850000E94EB1680E48A838DE894E060E40E94A5
:10186000D11680E09FEF9EBD0DB407FEFDCF8F5FC8
:101870008A30C9F709C00E947C2B6C197D09615D13
:10188000774010F081E063C0CE0160E020E030E0FE
:1018900040E050E00E94B809813069F71FEFCE01A7
:1018A00068E02AEA31E040E050E00E94B809853063
:1018B00011F481E00DC080E01EBD0DB407FEFDCF28
:1018C0009EB58F5F8430C1F79B839A3A31F482E0F2
:1018D0008C838C81823051F40DC00E947C2B6C195A
:1018E0007D09615D7740D8F282E031C0EE24FF24AB
:1018F00087010FC0E12CF12C012D80E4182F09C0C5
:101900000E947C2B6C197D09615D774010F08AE0A4
:101910001EC0CE0167E320E030E040E050E00E94CE
:10192000B809CE0169E2A80197010E94B80988238D
:1019300039F78C81823031F5CE016AE320E030E066
:1019400040E050E00E94B809882339F088E089839C
:10195000CE010E940B0A80E01AC08FEF8EBD0DB43D
:1019600007FEFDCF8EB5807C803C11F483E08C8334
:1019700080E09FEF9EBD0DB407FEFDCF2EB58F5FBB
:101980008330C1F7CE010E940B0ABA8281E0DF9159
:10199000CF911F910F91FF90EF90DF90CF90BF906C
:1019A00008950F931F93CF93DF93DC01EB018A011E
:1019B00080E090E020E2FE01E80FF91F208301960D
:1019C0008B309105C1F757E040E024C0622F2E32E2
:1019D00019F086E691E007C05A3051F15AE048E02C
:1019E00018C0321729F1FC01019634913323C9F74D
:1019F0005417F0F02132E0F02F37D0F4822F8156C7
:101A00008A3110F4622F6052FE01E40FF11D6083F1
:101A10004F5F11962C91222311F02F32B9F6F80165
:101A2000B183A08390E08881803219F091E001C0F9
:101A300090E0892FDF91CF911F910F910895CF9260
:101A4000DF92EF92FF920F931F93DF93CF9300D01B
:101A50000F92CDB7DEB77C01FC0186899789A08DF6
:101A6000B18D89839A83AB83BC8300E010E06E0163
:101A70000894C11CD11C49815A816B817C81D7019A
:101A800014968D919C91159796010E945E1988235A
:101A900079F1D7011496ED91FC9115978481080F87
:101AA000111DB0E100301B0718F529813A814B81E7
:101AB0005C818389803131F4285F3F4F4040504042
:101AC000D0F205C0285F3F4F4F4F5F40A0F2C801E2
:101AD000A0E0B0E029E0880F991FAA1FBB1F2A953C
:101AE000D1F7F701828B938BA48BB58B81E001C07A
:101AF00080E00F900F900F900F90CF91DF911F918A
:101B00000F91FF90EF90DF90CF900895CF93DF93E8
:101B1000EC01FB018A818823D1F57D836C83838965
:101B20008031C9F582E08A831E8A1F8A188E198E39
:101B300084899589A0E0B0E035E0880F991FAA1F3D
:101B4000BB1F3A95D1F78A8B9B8BAC8BBD8B0FC09B
:101B500083E08A8386899789A08DB18D8E8B9F8B38
:101B6000A88FB98FCE010E941F0D882381F081E0DC
:101B700089831E821F82188619861A861B861C86F8
:101B80001D861E861F86188A198A1B8201C080E066
:101B9000DF91CF9108958032D1F7DACF6F927F92A3
:101BA0008F929F92AF92BF92CF92DF92EF92FF926D
:101BB0000F931F93CF93DF93EC017A018B012A815E
:101BC000222309F480C08A899B89AC89BD89841746
:101BD0009507A607B70708F476C085C0E114F1049D
:101BE0000105110551F41E821F82188619861A8676
:101BF0001B861C861D8681E067C02A853B854C8537
:101C00005D85EC81FD81828590E009962150304010
:101C10004040504039014A01082E04C096948794F0
:101C2000779467940A94D2F72F5F3F4F4F4F5F4FDF
:101C30000894E108F108010911095701680104C07D
:101C4000D694C794B794A7948A95D2F70894E11CC8
:101C5000F11C011D111DA614B704C804D90428F0F5
:101C6000211531054105510549F48E899F89A88DBB
:101C7000B98D8E839F83A887B98716C0A618B70829
:101C8000C808D90811C04E815F81688579858C812B
:101C90009D8194010E945E190894A108B108C108B1
:101CA000D108882331F40FC046E0842E912C8C0E8D
:101CB0009D1EA114B104C104D10429F7EA86FB8654
:101CC0000C871D8798CF80E0DF91CF911F910F91F6
:101CD000FF90EF90DF90CF90BF90AF909F908F904C
:101CE0007F906F900895223009F078CFE7CFCF939F
:101CF000DF93EC01462F6E857F85888999890E9444
:101D00007117AC01009719F420E030E00AC08B8114
:101D1000282F30E065E0220F331F6A95E1F7240F8A
:101D2000351FC901DF91CF9108950F931F93CF9372
:101D3000DF938C01FC0182818823E1F1818187FF9F
:101D400036C0C80161E00E94770EEC01009791F166
:101D50008881853E79F1F8018281823040F4828960
:101D60009389A489B5898C8F9D8FAE8FBF8FF80121
:101D700086899789A08DB18D9B8F8A8FCD01AA27E7
:101D8000BB279D8B8C8BE0919004F0919104309750
:101D900051F0BE016A5E7F4FCE0148961995888D3D
:101DA000998D9B8B8A8BF80181818F7781830E942B
:101DB000291704C081E0F801808380E0DF91CF9192
:101DC0001F910F9108956F927F928F929F92AF9281
:101DD000BF92CF92DF92EF92FF920F931F93DF9308
:101DE000CF9300D00F92CDB7DEB77C015A016B01C3
:101DF000DC0112968C911297813009F091C01196F6
:101E00008C9181FF8DC0A0C00097A105B10511F490
:101E100081E087C0F7016284738484849584C7015C
:101E2000B601A5010E94CE0D882309F479C0D7011F
:101E300014968D919C911597A114B104C104D104FD
:101E400089F456964D915D916D917C9159970E94C0
:101E5000CD19882309F464C0F701168A178A108EF9
:101E6000118E44C0D70116964D915D916D917C9174
:101E700019979E012F5F3F4F0E945E19882309F436
:101E80004FC0D7011496ED91FC91159749815A8165
:101E90006B817C818389803149F4483FBFEF5B07C8
:101EA000B0E06B07B0E07B0748F020C0483F8FEF01
:101EB00058078FEF68078FE07807C0F4CF010E94C2
:101EC000CD19882369F1D70116964D915D916D91D9
:101ED0007C91199714968D919C9115970FEF1FEF98
:101EE0002FEF3FE00E94EE188823D1F0F701A28A7D
:101EF000B38AC48AD58A818180688183C7010E94A0
:101F0000950E882369F0B601A5016A147B048C0440
:101F10009D0410F4B401A301C7010E94CE0D01C0BD
:101F200080E00F900F900F900F90CF91DF911F9155
:101F30000F91FF90EF90DF90CF90BF90AF909F9068
:101F40008F907F906F900895F70182899389A4897B
:101F5000B58984179507A607B70708F055CFE0CFD6
:101F60001F93CF93DF93EC01142F262F30E0F9015C
:101F700085E0EE0FFF1F8A95E1F7E956FB4F838559
:101F8000817121F0842F827109F064C080919706DD
:101F900090919806A0919906B0919A068E879F8796
:101FA000A88BB98B6B83F901B5E0EE0FFF1FBA95D3
:101FB000E1F7E956FB4F2489358940E050E0A9015B
:101FC000332722272E8B3F8B488F598F828D938DFD
:101FD000A0E0B0E0282B392B4A2B5B2B2E8B3F8BBC
:101FE000488F598F838590E088719070009751F4E5
:101FF000848D958DA68DB78D8A8B9B8BAC8BBD8B7D
:1020000081E008C0409731F5CE010E941F0D882362
:1020100009F184E08A83812F8F7089831E821F8259
:10202000188619861A861B861C861D8614FF18C002
:10203000CE0140E050E060E070E00E94E30E8823B3
:1020400079F408C04A895B896C897D89CE010E9438
:10205000CE0D02C01A8280E0DF91CF911F910895CA
:1020600015FDF0CF81E0F8CF0F931F938C010E94F4
:10207000950EF80112821F910F9108953F924F9291
:102080005F926F927F928F929F92AF92BF92CF9208
:10209000DF92EF92FF920F931F93DF93CF93CDB711
:1020A000DEB728970FB6F894DEBF0FBECDBF988776
:1020B0008F835E834D83DC0112968C911297882367
:1020C00009F41DC111968C9180FF19C133C1F5012E
:1020D000EE19FF09FE83ED837A8369838F819885EA
:1020E00006969C838B836D807E8002C1AF81B8850C
:1020F0001A962D913D914D915C911D978FEF482E31
:1021000081E0582E422253221496ED91FC911597AE
:1021100059016A0109E0D694C794B794A7940A9527
:10212000D1F735803A2012968C91823049F4E688B6
:10213000F788008D118DEA0CFB1C0C1D1D1D35C090
:102140004114510411F5332001F5211531054105E4
:10215000510559F4EF81F88586899789A08DB18D55
:1021600086839783A087B18710C0AF81B885169604
:102170004D915D916D917C911997CF012B813C819F
:102180000E945E19882309F4BAC0EF81F885468160
:10219000578160857185848195810E940F177B012D
:1021A0008C01E30CF11C011D111D4114510499F423
:1021B000F0E06F16F2E07F0670F020919706309104
:1021C00098064091990650919A06E216F306040784
:1021D000150709F0CFC0C801B70140E00E94711790
:1021E000009709F48CC040E052E0441955094301BE
:1021F0004615570508F44A019C01240D351D8981B7
:102200009A81B901A4010E942B0259C080919C06B9
:1022100090919D06B801A70129813A810E94D90BAE
:10222000882309F46CC0812C12E0912E48C0D72C71
:10223000D694AF81B88512968C911297823049F06E
:102240001496ED91FC911597848183198D1508F4EE
:10225000D82EE216F3060407150770F02D0D311D78
:10226000411D511DE216F3060407150728F40E94CC
:102270002917882309F443C080919C0690919D06FC
:10228000B801A7010E943D0B8823C9F109811A8179
:10229000FF2408C0B8010E94C60B00501E4F8823BF
:1022A00071F1F39480919C0690919D06FD1490F33A
:1022B0000E94230B882319F19D2C990C8824E98115
:1022C000FA81E80DF91DFA83E983940140E050E0BA
:1022D000EF81F88582859385A485B585820F931F4C
:1022E000A41FB51F82879387A487B58768187908CC
:1022F0006114710409F0FACE4D815E8102C04FEF86
:102300005FEFCA0128960FB6F894DEBF0FBECDBFAF
:10231000CF91DF911F910F91FF90EF90DF90CF90C1
:10232000BF90AF909F908F907F906F905F904F90F5
:102330003F900895AF81B8855296AD90BD90CD90F5
:10234000DC9055971A96ED90FD900D911C911D977C
:10235000ED81FE819F0140E050E0D601C5018E195C
:102360009F09A00BB10B281739074A075B0708F034
:10237000AECEB2CEF0E06F16F4E07F0608F057CF95
:1023800045CFDF93CF930F92CDB7DEB7BE016F5F1E
:102390007F4F41E050E00E943E10019719F02FEF6F
:1023A0003FEF03C08981282F30E0C9010F90CF9102
:1023B000DF910895AF92BF92CF92DF92EF92FF929A
:1023C0000F931F93CF93DF93EC01EA84FB840C857A
:1023D0001D85AE80BF80C884D9840E94C1119C0134
:1023E00097FD08C0EA86FB860C871D87AE82BF82F8
:1023F000C886D986C901DF91CF911F910F91FF90B7
:10240000EF90DF90CF90BF90AF900895CF93DF9380
:10241000EC019C012A5F3F4F8C819D8141E050E09F
:1024200060E070E00E94341A8823A1F08E899F89B1
:10243000A88DB98D0097A105B10559F48E819F81B2
:10244000A885B9858E8B9F8BA88FB98F898180686D
:10245000898381E0DF91CF9108952F923F924F922F
:102460005F926F927F928F929F92AF92BF92CF9224
:10247000DF92EF92FF920F931F93DF93CF93CDB72D
:10248000DEB729970FB6F894DEBF0FBECDBF4C0163
:10249000162F072F59874887DC0112968C911297C7
:1024A000813009F0BDC111968C9181FFB9C1D7C1AE
:1024B000F401428953896489758982859385A4854D
:1024C000B58584179507A607B70731F0C4010E94A8
:1024D000CE0D882309F4A4C1888599859C0140E02C
:1024E00050E0F40182859385A485B585809590950B
:1024F000A095B09582179307A407B50708F490C17B
:10250000812F902F9C013F832E83288439844CC1D6
:10251000D4011496ED91FC911597DA01C90119E0E7
:10252000B695A795979587951A95D1F71581182394
:10253000AFEFEA2EA1E0FA2EE222F322112309F0F6
:1025400052C0E114F10409F04EC0D40116964D9129
:102550005D916D917C91199741155105610571054A
:1025600071F1CF019E012F5F3F4F0E945E198823BA
:1025700009F456C129813A814B815C81D4011496BA
:10258000ED91FC9115978389803149F4283FBFEF85
:102590003B07B0E04B07B0E05B0748F019C0283FAD
:1025A000EFEF3E07EFEF4E07EFE05E0788F4D40150
:1025B00016962D933D934D935C93199714C0F40197
:1025C00086899789A08DB18D0097A105B10531F459
:1025D000C4010E940612882331F422C1F4018683CB
:1025E0009783A087B187D40116964D915D916D9127
:1025F0007C91199714968D919C9115970E940F17B5
:102600005B016C01A10EB11CC11CD11CE114F104D1
:10261000A9F4B0E02B16B2E03B06A0F5F401228548
:1026200033854485558582899389A489B58928177E
:1026300039074A075B0710F045E001C041E0C601D9
:10264000B5010E947117009709F4EAC000E012E09A
:102650000E191F0921010215130508F428019C0118
:102660002E0D3F1DC9016E817F81A2010E942B02A8
:102670004016510609F080C00E946E17882309F0A9
:102680007BC0CEC0F0E02F16F4E03F0600F580914D
:10269000970690919806A0919906B0919A068A158E
:1026A0009B05AC05BD0511F40E94001780919C06A6
:1026B00090919D06B601A5012E813F810E94E90AF5
:1026C000882309F4ADC0412CF2E05F2E55C0D4013F
:1026D0001496ED91FC9115978481811BB32DB695CD
:1026E000BD838B1708F48D83ED810E2F10E020E061
:1026F00030E080919C0690919D06B601A5010E9454
:102700003C0A882309F48CC06E807F8086017501A5
:1027100022C08091970690919806A0919906B09159
:102720009A06E816F9060A071B0711F40E9400171B
:1027300080919C0690919D06B3010E94C30A20E0FF
:1027400032E0620E731E0894E11CF11C011D111D84
:10275000882309F465C08E2D8A193D818317C8F23C
:1027600080919C0690919D060E94160A882309F488
:1027700057C05D80550C4424920140E050E0F401C4
:1027800082859385A485B585820F931FA41FB51FED
:1027900082879387A487B5872E813F81240D351DBD
:1027A0003F832E8324183508D4011A962D913D912C
:1027B0004D915C911D972114310409F0A9CE5296D8
:1027C0008D919D910D90BC91A02D82179307A40728
:1027D000B50748F4F401228B338B448B558B8181F0
:1027E0008068818311C08091900490919104892B1D
:1027F00059F028853985232B39F0D40111968C9115
:102800001197806811968C93F401818183FF05C034
:10281000C4010E94950E882319F04885598505C08A
:1028200081E0D4018C934FEF5FEFCA0129960FB678
:10283000F894DEBF0FBECDBFCF91DF911F910F91F6
:10284000FF90EF90DF90CF90BF90AF909F908F90D0
:102850007F906F905F904F903F902F90089582FDF2
:1028600027CE3ACE9F92AF92BF92CF92DF92EF9255
:10287000FF920F931F93CF93DF938C01FC0182890A
:102880009389A489B589805E9F4FAF41B04008F01D
:102890005CC0C8010E940612882309F456C0D80102
:1028A00016964D915D916D917C91199714968D912D
:1028B0009C9115970E940F175B016C0145E00E94E7
:1028C0007117EC01009709F442C080E092E0FE012C
:1028D0009C01119221503040E1F79C2EED2EFF24F7
:1028E000F39411C0B601A5014F0D511D611D711D5D
:1028F00080919C0690919D06292D3E2D0E94E90A0B
:10290000882319F1F394D8011496ED91FC91159751
:102910002481F21638F330E040E050E089E0220FE5
:10292000331F441F551F8A95D1F752968D919D9163
:102930000D90BC91A02D820F931FA41FB51FF8010D
:10294000828B938BA48BB58B02C0C0E0D0E0CE010C
:10295000DF91CF911F910F91FF90EF90DF90CF907B
:10296000BF90AF909F9008953F924F925F926F9269
:102970007F928F929F92AF92BF92CF92DF92EF920F
:10298000FF920F931F93CF93DF934C01EB01442EE3
:10299000352E522E8C819D81F40195838483CB0149
:1029A00040E050E060E070E00E94CE0D77244FC020
:1029B000CE010E94C11197FDABC08A859B85AC8575
:1029C000BD8581509E4FAF4FBF4F8A879B87AC8795
:1029D000BD87A0909706B0909806C0909906D090B9
:1029E0009A0627E9E22E24E0F22E00E010E0602EA5
:1029F000F7018081882311F0853E79F4772041F436
:102A0000F401A686B786C08AD18A6382772473943C
:102A1000F7018081882391F428C0B80195E0660F02
:102A2000771F9A95E1F769567B4F842D932D4BE0E4
:102A300050E00E941E02009709F47DC00F5F1F4FF7
:102A400080E290E0E80EF91E0031110581F62A853A
:102A50003B854C855D858A899B89AC89BD89281712
:102A600039074A075B0708F4A3CF56FE51C051FE51
:102A70004FC0772051F0F4016380C40161E00E94EF
:102A8000770EEC01009761F443C08A81823009F42B
:102A90003FC0CE010E9432140097D1F1EC016624B0
:102AA00080E2FE0111928A95E9F7DE01242D332D93
:102AB000C901FC018BE001900D928150E1F7E0919A
:102AC0009004F0919104309739F0BE01625F7F4F1E
:102AD000CE014096199508C081E298E2998B888BC7
:102AE00080E098E09F878E87888999899B8B8A8B65
:102AF000998F888F8E859F859F8B8E8B0E9429173B
:102B0000882331F0C401662D452D0E94B00F01C00D
:102B100080E0DF91CF911F910F91FF90EF90DF90B8
:102B2000CF90BF90AF909F908F907F906F905F906D
:102B30004F903F90089557FEE5CFEACF2F923F92F6
:102B40004F925F926F927F928F929F92AF92BF92BD
:102B5000CF92DF92EF92FF920F931F93DF93CF9369
:102B6000CDB7DEB7C454D0400FB6F894DEBF0FBE69
:102B7000CDBF4C016B01DE01A05CBF4F11965C9391
:102B80004E9323962FAF23976115710509F48AC0E0
:102B90001E8618A6FC018281882309F083C01C864A
:102BA0001EA2FA0180818F32F1F086015CE0E52EF1
:102BB000F12CEC0EFD1E40E4A42EB12CAC0EBD1E7B
:102BC0003E010894611C711C2596FFAEEEAE259760
:102BD00036E2232E312C2C0E3D1E27012BC01196E0
:102BE000B183A08301C0FD01A081B1818C918F329E
:102BF000B1F3882349F4D60114966D917C91159711
:102C0000C4010E94860D4FC0F6018281825082303D
:102C100060F28E010A5D1F4F64817581C8010E94B8
:102C2000860D882319F63EC0342D252D8701832F6C
:102C3000922F7C01D5018D919C91B301A5010E9439
:102C4000D10C882329F42EC03196D501ED93FC9345
:102C5000D501ED91FC9180818F32B1F38823C9F0C9
:102C6000C701B801A30121E00E94B4148823D1F068
:102C70000C151D0519F0C8010E9434102596EEAD03
:102C8000FFAD2597EE16FF0679F6C101322D292FEB
:102C9000CDCFC401B801A30123962FAD23970E9485
:102CA000B41401C080E0CC5BDF4F0FB6F894DEBFF8
:102CB0000FBECDBFCF91DF911F910F91FF90EF908D
:102CC000DF90CF90BF90AF909F908F907F906F904C
:102CD0005F904F903F902F900895DF93CF93CDB7A3
:102CE000DEB76A970FB6F894DEBF0FBECDBF9C016A
:102CF000AB0119821B82CE010196B90121E00E942D
:102D00009E156A960FB6F894DEBF0FBECDBFCF9169
:102D1000DF9108954F960E946D160895CF93DF932B
:102D2000EC01662331F06F96D0938F04C0938E042C
:102D30006F9789A1882321F0CE014F960E9434100D
:102D4000CE014F962596BE010E94860DDF91CF9150
:102D500008950F931F93CF93DF93EC010E940D0C06
:102D60008823C9F08E010B5F1F4FC801BE0141E0EF
:102D70000E94B517882339F4C801BE0140E00E94C3
:102D8000B517882341F0CE0161E00E948E1688239A
:102D900019F081E001C080E0DF91CF911F910F9188
:102DA000089540E082E002C0880F4F5F861710F45C
:102DB0004630D1F7242F30E0C9019595879580657D
:102DC0008CBD40FF02C080E004C080E0463009F0C6
:102DD00081E08DBD089585E361E00E94072D85E3C4
:102DE00061E00E94542C82E360E00E94542C83E353
:102DF00061E00E94542C84E361E00E94542C089509
:102E00008FEF9FEFAFEFBFEF8093970690939806F9
:102E1000A0939906B0939A0610929B060895FC0120
:102E20009A01AB012250304040405040028404C01F
:102E3000220F331F441F551F0A94D2F783859485B0
:102E4000A585B685280F391F4A1F5B1FB901CA0126
:102E5000089580919B0680FF3DC040919706509158
:102E600098066091990670919A0680919C069091BF
:102E70009D0627E934E00E94E90A882369F18091E0
:102E80009B0681FF22C0809192048230F0F0409135
:102E900093045091940460919504709196048091EC
:102EA000970690919806A0919906B0919A06480FBE
:102EB000591F6A1F7B1F80919C0690919D0627E9F0
:102EC00034E00E94E90A882339F080919B068E7FC6
:102ED00080939B0681E0089580E008950E94291761
:102EE0000895DF92EF92FF920F931F937B018C0165
:102EF000D42E8091970690919806A0919906B09152
:102F00009A068E159F05A007B107E1F00E942917C8
:102F1000882311F1D2FC0CC080919C0690919D06F3
:102F2000B801A70127E934E00E94D90B8823A1F05A
:102F300010929B06E0929706F092980600939906ED
:102F400010939A0683E0D82280919B068D29809366
:102F50009B0627E934E002C020E030E0C9011F9160
:102F60000F91FF90EF90DF9008956F927F928F9274
:102F70009F92AF92BF92CF92DF92EF92FF920F9308
:102F80001F93CF93DF93EC01142F70939D066093F2
:102F90009C061B8A82E090E0A0E0B0E088839983E1
:102FA000AA83BB8310929B068FEF9FEFAFEFBFEF1B
:102FB0008093970690939806A0939906B0939A06EB
:102FC000442321F466247724430136C0453008F0B9
:102FD000F1C060E070E080E090E040E00E94711796
:102FE000DC01009709F4E6C0412F50E04150504009
:102FF000FA0174E0EE0FFF1F7A95E1F7E80FF91F71
:10300000E254FE4F808190E08F779070892B09F019
:10301000D1C064E0440F551F6A95E1F7A40FB51FB6
:10302000AA53BE4F6D907D908D909C906114710459
:103030008104910409F4BEC0C401B30140E00E94C0
:1030400071175C01009709F4B5C0FC018385948574
:103050008050924009F0AEC0F5012089222309F486
:10306000A9C0468557854115510509F4A3C0209391
:10307000920485858C8381508D831A8691E060E06F
:1030800070E00AC0990F6F5F7F4F6830710509F4D7
:1030900091C08A858F5F8A878C81891799F7F5019E
:1030A000668977896115710519F080E090E005C0A7
:1030B000F50164A175A186A197A160939304709313
:1030C000940480939504909396046A01EE24FF245F
:1030D000C60CD71CE81CF91CCF86D88AE98AFA8A64
:1030E000F501018912891D8B0C8B30E040E050E026
:1030F0000E942C386C0D7D1D8E1D9F1D6E8B7F8B4D
:10310000888F998F35E0000F111F3A95E1F7015034
:103110001E4F012F11270695980140E050E0260F21
:10312000371F481F591F2B873C874D875E87F50146
:1031300083899489009721F07C0100E010E005C0AC
:10314000F501E0A0F1A002A113A1C401B301621B2B
:10315000730B840B950B6E0D7F1D801F911F0A84CE
:1031600004C096958795779567950A94D2F76E83F4
:103170007F8388879987653FFFE07F07F0E08F07AF
:10318000F0E09F0718F48CE08B8B14C0655F7F4FD5
:103190008040904010F480E10AC0F50184A595A517
:1031A000A6A5B7A58E8B9F8BA88FB98F80E28B8B3E
:1031B00081E001C080E0DF91CF911F910F91FF90DE
:1031C000EF90DF90CF90BF90AF909F908F907F90C7
:1031D0006F90089542600E94711708958F929F9298
:1031E000AF92BF92CF92DF92EF92FF920F931F9315
:1031F000CF93DF93EC016A017B0148015901423012
:1032000051056105710508F44BC08E819F81A88529
:10321000B9850196A11DB11D84179507A607B707AB
:1032200008F43EC08B89803129F4252F362F472F93
:1032300055270BC08032A1F59A01AB0117E05695D6
:103240004795379527951A95D1F78F859889A9893C
:10325000BA89280F391F4A1F5B1FCA01B90141E013
:103260000E94EA189C010097D9F08B89803149F4BB
:10327000F601F070EE0FFF1FE20FF31F91828082C4
:103280000DC0F601EF77F070EE0FFF1FEE0FFF1F7E
:10329000E20FF31F80829182A282B38281E001C09B
:1032A00080E0DF91CF911F910F91FF90EF90DF9021
:1032B000CF90BF90AF909F908F900895CF92DF9264
:1032C000EF92FF920F931F93CF93DF93EC017A015C
:1032D0008B016901423051056105710508F453C045
:1032E0008E819F81A885B9850196A11DB11D841786
:1032F0009507A607B70708F446C08B89803129F4E3
:103300005527412F302F2F2D0BC08032E1F59A0128
:10331000AB0167E056954795379527956A95D1F7A4
:103320008F859889A989BA89280F391F4A1F5B1F81
:10333000CA01B90140E00E94EA189C01009719F106
:103340008B89803159F4F701F070EE0FFF1FE20F07
:10335000F31F80819181A0E0B0E00EC0F701EF770C
:10336000F070EE0FFF1FEE0FFF1FE20FF31F8081C3
:103370009181A281B381BF70F60180839183A28382
:10338000B38381E001C080E0DF91CF911F910F9165
:10339000FF90EF90DF90CF9008958F929F92AF9221
:1033A000BF92CF92DF92EF92FF920F931F93DF9322
:1033B000CF9300D00F92CDB7DEB75C016A017B01DD
:1033C0004E010894811C911CC501B701A60194010E
:1033D0000E945E198823B1F1C501B701A60100E082
:1033E00010E020E030E00E94EE18882359F1F5014A
:1033F00080819181A281B381C816D906EA06FB06B5
:1034000020F4C082D182E282F382C980DA80EB802C
:10341000FC80F5018389803151F4F8EFCF16FFEF7E
:10342000DF06F0E0EF06F0E0FF0670F209C088EF7B
:10343000C8168FEFD8068FEFE8068FE0F80620F267
:1034400081E001C080E00F900F900F900F90CF911E
:10345000DF911F910F91FF90EF90DF90CF90BF9081
:10346000AF909F908F9008952F923F924F925F92CE
:103470006F927F928F929F92AF92BF92CF92DF9284
:10348000EF92FF920F931F93DF93CF93CDB7DEB7E9
:1034900066970FB6F894DEBF0FBECDBF1C014987FB
:1034A0005A876B877C873E872D87DC0116962D9186
:1034B0003D914D915C9119972F5F3F4F4F4F5F4F5B
:1034C0002D833E834F835887ED85FE8500811181D2
:1034D00022813381011511052105310549F048018B
:1034E00059010894811C911CA11CB11C10E006C05C
:1034F000DC018D909D90AD90BC9011E07501640150
:10350000442455243201F10186819781A085B1853B
:10351000481659066A067B0608F09DC02D813E813B
:103520004F8158852C153D054E055F0550F4F2E09E
:103530008F2E912CA12CB12CE2E0CE2ED12CE12C9F
:10354000F12CC101B701A6019E012F5F3F4F0E94E0
:103550005E19882309F47FC089819A81AB81BC817F
:103560000097A105B10571F08C149D04AE04BF0451
:1035700009F010E0460157010894811C911CA11C20
:10358000B11C16C0D701C6010196A11DB11D8B8BC0
:103590009C8BAD8BBE8B88199909AA09BB0929851B
:1035A0003A854B855C8582179307A407B50759F0C8
:1035B0000894411C511C611C711C0894C11CD11C35
:1035C000E11CF11CA0CF112349F08B899C89AD89A6
:1035D000BE89F10180839183A283B383C101B701C6
:1035E000A6010FEF1FEF2FEF3FE00E94EE18882398
:1035F00099F431C026013701089441085108610847
:103600007108C101B301A201970186010E94EE1861
:10361000882309F1730162018C149D04AE04BF0478
:1036200048F3AD85BE854D915D916D917C914115BD
:1036300051056105710539F0C101950184010E94B0
:10364000EE18882341F0ED85FE8580829182A2826A
:10365000B38281E001C080E066960FB6F894DEBFC9
:103660000FBECDBFCF91DF911F910F91FF90EF90D3
:10367000DF90CF90BF90AF909F908F907F906F9092
:103680005F904F903F902F90089581E08093E306E4
:103690006093C0061092E1061092E2060895209110
:1036A000BF0630E08091BE06281B3109C90108958C
:1036B0004091BE068091BF06481718F02FEF3FEFEC
:1036C0000AC0E42FF0E0E256F94F8081282F30E065
:1036D0004F5F4093BE06C9010895E091BE068091F8
:1036E000BF06E81718F0EFEFFFEF06C0F0E0E25674
:1036F000F94F8081E82FF0E0CF01089508951092EE
:10370000E7061092E60688EE93E0A0E0B0E0809332
:10371000E8069093E906A093EA06B093EB0684ECE2
:1037200093E09093E5068093E4060895CF92DF92AC
:10373000EF92FF920F931F93CF93DF937C016B0166
:103740008A018091E3068823A1F0C0E0D0E00DC09B
:10375000D701ED91FC91D601AC0FBD1F0190F08116
:10376000E02DC7016C9119952196C017D10780F300
:1037700004C0CB01642F0E94C81CC801DF91CF9107
:103780001F910F91FF90EF90DF90CF900895DF93FE
:10379000CF930F92CDB7DEB7FC0169838091E3062A
:1037A0008823C9F08091E206803238F081E090E011
:1037B0009383828320E030E015C08091E106E82FFA
:1037C000F0E0EF53F94F998190838F5F8093E1068A
:1037D0008093E20605C0CE01019661E00E94C81CFC
:1037E00021E030E0C9010F90CF91DF9108950F9350
:1037F000062F8091C00661EC76E04091E20621E060
:103800000E94731C1092E1061092E2061092E306E9
:103810000F91089561E00E94F71B0895413208F06E
:1038200040E2862F6EE976E00E942A1C1092BE06C6
:103830008093BF06089521E00E940E1C0895109207
:10384000BE061092BF061092E1061092E2060E9498
:10385000781E0895382F413210F040E042C0809128
:10386000F0068823E1F791E09093F0062093F206AA
:103870008FEF80935D07109218074150409319070E
:103880004F5F9093F1068091F106330F832B809365
:10389000F1068091F306813041F41092F306809195
:1038A000F1068093BB0085EC01C085EE8093BC00DF
:1038B0008091F0068130E1F380911807841710F4AD
:1038C0004091180720E030E00AC0FB01E20FF31F2F
:1038D000D901A850B94F8C9180832F5F3F4F241797
:1038E000A0F3842F08950F931F93582F122F413266
:1038F00010F081E04AC08091F0068823E1F782E071
:103900008093F0060093F2068FEF80935D0710928C
:10391000180740931907A8EFB6E0FB0102C0819198
:103920008D938E2F861B8417D0F31092F106809111
:10393000F106550F852B8093F1068091F3068130B7
:1039400041F41092F3068091F1068093BB0085EC60
:1039500001C085EE8093BC00112321F08091F00618
:103960008230E1F380915D078F3F11F480E00DC05C
:1039700080915D07803211F482E007C080915D077D
:10398000803311F084E001C083E01F910F9108950E
:10399000482F613210F081E008958091F006843064
:1039A00011F082E0089560933B07AAE1B7E0842F0D
:1039B0009C01F90102C081918D938E2F841B861783
:1039C000D0F380E008951F920F920FB60F920BB6BE
:1039D0000F9211242F933F934F935F936F937F9395
:1039E0008F939F93AF93BF93EF93FF938091B90011
:1039F00090E0887F90708036910509F4F2C081369E
:103A00009105CCF58832910509F47BC08932910586
:103A1000B4F48031910509F46FC0813191053CF413
:103A2000009709F447C1089709F04FC165C0883174
:103A3000910509F466C0809709F047C182C08034BF
:103A4000910509F4A4C08134910544F480339105B3
:103A500009F482C0C89709F038C189C08035910542
:103A600009F489C08835910509F496C08834910518
:103A700009F02BC1AEC08839910509F413C1893909
:103A80009105ECF48837910509F4ABC089379105AD
:103A90004CF48836910509F4A4C08037910509F0EB
:103AA00014C19FC08838910509F4FCC08039910584
:103AB00009F49DC08038910509F007C198C0803B8A
:103AC000910509F4C6C0813B91054CF4803A9105FB
:103AD00009F49FC0883A910509F0F7C0BAC0803C4C
:103AE000910509F4E3C0883C910509F4DFC0883BE7
:103AF000910509F0EAC0C2C08091F1068093BB0035
:103B0000CFC09091180780911907981768F4909189
:103B10001807E92FF0E0E850F94F80818093BB004F
:103B20009F5F90931807BCC08091F206882309F428
:103B30004BC085ED8093BC008091BC0084FDFCCF20
:103B4000C2C080E280935D0785ED8093BC008091C8
:103B5000BC0084FDFCCFB7C080E380935D0785ED9A
:103B60008093BC008091BC0084FDFCCFACC088E396
:103B700080935D079BC0809118079091BB00E82F50
:103B8000F0E0E850F94F90838F5F80931807909191
:103B900018078091190782C0809118079091BB0087
:103BA000E82FF0E0E850F94F90838F5F809318077B
:103BB0008091F206882341F085ED8093BC008091CE
:103BC000BC0084FDFCCF7FC081E08093F30684EAD3
:103BD0006EC085ED8093BC008091BC0084FDFCCF5D
:103BE00072C083E08093F00610925C0759C0809108
:103BF0005C07803208F056C080915C079091BB0052
:103C0000E82FF0E0E45CF84F90838F5F80935C07CF
:103C100047C080915C07803230F4E0915C07F0E0AF
:103C2000E45CF84F108285ED8093BC008091BC006D
:103C300084FDFCCF1092F00660915C07E091F606DF
:103C4000F091F7068CE397E070E0199510925C070D
:103C50002DC084E08093F00610923A0710923B0743
:103C6000E091F406F091F506199580913B078823C1
:103C700029F481E080933B0710921A0790913A074C
:103C8000E92FF0E0E65EF84F80818093BB009F5FF4
:103C900090933A0790913A0780913B07981710F458
:103CA00085EC01C085E88093BC000FC085EC809353
:103CB000BC0009C010925D0785ED8093BC00809127
:103CC000BC0084FDFCCF1092F006FF91EF91BF91F4
:103CD000AF919F918F917F916F915F914F913F91A4
:103CE0002F910F900BBE0F900FBE0F901F90189545
:103CF0001092F00681E08093F2061092F30684E1C0
:103D000061E00E94072D85E161E00E94072DE9EB4B
:103D1000F0E080818E7F808380818D7F808388E446
:103D20008093B80085E48093BC0008950895CF92F5
:103D3000DF92EF92FF920F931F936C01CB01BA01B8
:103D4000F6012589368940E050E0621B730B840B35
:103D5000950B2389348940E050E00E942C387B0188
:103D60008C013FE015950795F794E7943A95D1F7C4
:103D7000F60165857685882777FD8095982F2BE05D
:103D8000660F771F881F991F2A95D1F727853089DD
:103D9000442737FD4095542F2E0D3F1D401F511FC6
:103DA0000E9481382E0D3F1D401F511FB901CA01CD
:103DB0001F910F91FF90EF90DF90CF900895EF92B9
:103DC000FF920F931F93162F042F44EEE42E46E02C
:103DD000F42EC70167E770E00E94451BC701612F01
:103DE0000E94C71BC701602F0E94C71BC7010E940A
:103DF0000A1C1F910F91FF90EF900895CF92DF92D0
:103E0000EF92FF920F931F93162F54EEE52E56E07C
:103E1000F52EC70167E770E00E94451BC701612FBF
:103E20000E94C71BC7010E940A1CC70167E770E018
:103E30000E94451BC70167E770E042E050E00E9426
:103E40001B1CC7010E94581B182F00E0C7010E94CD
:103E5000581B6C01C7010E940A1C0C291D29C801AE
:103E60001F910F91FF90EF90DF90CF900895EF9208
:103E7000FF921F93162F64EEE62E66E0F62EC70122
:103E800067E770E00E94451BC701612F0E94C71BB6
:103E9000C7010E940A1CC70167E770E00E94451B2A
:103EA000C70167E770E041E050E00E941B1CC701BA
:103EB0000E94581B182FC7010E940A1C812F1F91B6
:103EC000FF90EF900895EF92FF920F931F93CF937F
:103ED000DF93EC0148814295440F440F407C4C5CD9
:103EE00064EF0E94DF1E8881882329F465E070E07A
:103EF00080E090E012C0813029F468E070E080E05A
:103F000090E00BC0823029F46EE070E080E090E039
:103F100004C06AE170E080E090E00E94EC2BCE01EA
:103F200066EF0E94FE1E7C0100E010E0102F0F2DB6
:103F3000FE2CEE24CE0168EF0E94371F282F30E0C0
:103F400040E050E02E293F29402B512B688188E02A
:103F500090E0861B910904C05695479537952795A3
:103F60008A95D2F7B901CA01DF91CF911F910F91C4
:103F7000FF90EF9008950F931F938C0164EF4EE232
:103F80000E94DF1E65E070E080E090E00E94EC2B74
:103F9000C80166EF0E94FE1E1F910F9108950F93B6
:103FA0001F938C010E94BB1FAC0160E070E0C80150
:103FB0000E94971E685F7F4F8F4F9F4FE4E095955B
:103FC000879577956795EA95D1F70E94D63520E0D9
:103FD00030E040E251E40E943B351F910F9108957B
:103FE0003F924F925F926F927F928F929F92AF9289
:103FF000BF92CF92DF92EF92FF920F931F93DF93C6
:10400000CF93CDB7DEB728970FB6F894DEBF0FBEBB
:10401000CDBF4C010E94BB1F7C01C4010E94631FE5
:104020006D837E838F83988700E010E0C401B80120
:10403000A7010E94971E5B016C0180E690EFAFEF35
:10404000BFEFA80EB91ECA1EDB1EC601B501A60130
:1040500095010E942C382B013C01ACE075946794CB
:1040600057944794AA95D1F7D4013C9015966D9139
:104070007C911697882777FD8095982F0E942C3881
:104080007B018C01FDE015950795F794E794FA956F
:10409000D1F782E090E0A0E0B0E0E80EF91E0A1F40
:1040A0001B1FD40117962D913C911897442737FD7B
:1040B0004095542FC301B2010E942C38BC019927AE
:1040C00077FD9095892FE60EF71E081F191F72E0E5
:1040D00015950795F794E7947A95D1F780E090E8E5
:1040E000A0E0B0E0E80EF91E0A1F1B1FD401519694
:1040F0002D913C91529740E050E0C801B7010E94D9
:104100002C38DC01CB016FE0B695A7959795879584
:104110006A95D1F789839A83AB83BC83D4011396C4
:104120006D917C911497882777FD8095982FA60133
:1041300095010E942C387B018C015BE01595079559
:10414000F794E7945A95D1F7F40181819281AA27D7
:1041500097FDA095BA2F42E0880F991FAA1FBB1F99
:104160004A95D1F7E80EF91E0A1F1B1F21853285DB
:10417000442737FD4095542FC301B2010E942C38CB
:104180003BE095958795779567953A95D1F7E60E3B
:10419000F71E081F191F032C04C0EE0CFF1C001F84
:1041A000111F0A94D2F782E090E0A0E0B0E0E80EA0
:1041B000F91E0A1F1B1FC801B70124E030E040E0D0
:1041C00050E00E9481388D819E81AF81B885821B2D
:1041D000930BA40BB50B8D839E83AF83B88720E52B
:1041E00033EC40E050E004C056954795379527954D
:1041F0003A94D2F7BC01CD010E942C3897FD0FC034
:10420000660F771F881F991F29813A814B815C8136
:104210000E945F38C901DA015C016D010CC029817F
:104220003A814B815C810E945F3859016A01AA0C76
:10423000BB1CCC1CDD1C5527D7FC5A954D2D3C2DA5
:104240002B2DCA01B9010E942C382EED3BE040E035
:1042500050E00E942C387B018C01C601B50123E49B
:1042600033EE4FEF5FEF0E942C389C01552737FD4E
:104270005095452F2153314F4F4F5F4F78011127F4
:10428000F7FC1095012F2E0D3F1D401F511FF4E02C
:104290005595479537952795FA95D1F72A0D3B1DEA
:1042A0004C1D5D1DB901CA0128960FB6F894DEBFFA
:1042B0000FBECDBFCF91DF911F910F91FF90EF9077
:1042C000DF90CF90BF90AF909F908F907F906F9036
:1042D0005F904F903F900895EF92FF920F931F933E
:1042E0007A018B010E94F01F0E94D635A801970128
:1042F0000E943B3521E03EED42E45EE30E94C5367C
:104300009B01AC0160E070E080E89FE30E94D6343E
:1043100020E03AE24DE257E40E9462361F910F918D
:10432000FF90EF900895AF92BF92CF92DF92EF92FD
:10433000FF920F931F937A018B010E94F01F5B0184
:104340006C01C801B70120E03AE24DE257EC0E944F
:104350003B3520E030E040E85FE30E94D73426EFB1
:1043600038E248EA50E40E94C5367B018C01C60160
:10437000B5010E94D635A80197010E943B350E94E5
:10438000A3359B01AC01CA011F910F91FF90EF90E3
:10439000DF90CF90BF90AF900895CF93DF93EC0163
:1043A000643008F063E0688384EE96E00E941F1C8E
:1043B000CE0160ED0E94371F853511F080E043C0CB
:1043C000CE016AEA0E94FE1E9A838983CE016CEABE
:1043D0000E94FE1E9C838B83CE016EEA0E94FE1E0D
:1043E0009E838D83CE0160EB0E94FE1E9A8B898B8B
:1043F000CE0162EB0E94FE1E9C8B8B8BCE0164EB88
:104400000E94FE1E9E8B8D8BCE0166EB0E94FE1ECF
:1044100098878F83CE0168EB0E94FE1E9A8789875A
:10442000CE016AEB0E94FE1E9C878B87CE016CEB4F
:104430000E94FE1E9E878D87CE016EEB0E94FE1E9F
:10444000988B8F8781E0DF91CF91089508950E9426
:104450000B050895CF93DF93EC01009739F00E948C
:104460009C26CE010E94D72D0E94FF28DF91CF917C
:1044700008950F931F938C010E949C26C8010E94EF
:104480003A2D182F092F0E94FF28812F902F1F915E
:104490000F910895FC019C012D5F3F4F32832183D2
:1044A0008FEF9FEF94838383368325833087278321
:1044B00010820895FC01118610860895CF93DF9332
:1044C000AC01DB01EC0129813A81F9018281938100
:1044D00013969C938E93129789819A8115969C933B
:1044E0008E9314970280F381E02D75836483E90134
:1044F0007B836A83FA017283618319965C934E937E
:10450000189780818F5F8083DF91CF910895CF933B
:10451000DF939C01EB01488159818FEF4F3F580792
:1045200021F4F901A781B08510C0D901139604C008
:1045300012960D90BC91A02D1296ED91FC911397BF
:10454000808191814817590798F71296ED91FC9157
:104550001397FB83EA83D583C483BD83AC8313960F
:10456000DC93CE93129739872887F90180818F5F7A
:104570008083DF91CF910895CF93DF93DC01129672
:10458000ED91FC91139714968D919C9115979583BD
:1045900084831496CD91DC911597FB83EA8318965A
:1045A000ED91FC911997818192818A179B0711F4F3
:1045B000D283C18319961C921E92189780818150D4
:1045C00080838081DF91CF910895FC0191E19083F8
:1045D00022E2229383E38293629372931292129265
:1045E00080E88293129282E0829383E0829384E057
:1045F000829385E0829386E0829387E0829388E0CD
:10460000829389E0829380E18293929382E1829304
:1046100083E1829384E1829385E1829386E18293B0
:1046200087E1829388E1829389E1829380E2829399
:1046300081E28293229383E282934293529386E2B1
:10464000829387E2829388E2829389E2829380E375
:10465000829381E382933197CF01089581E087BDF2
:10466000EEE6F0E0808182608083A0915E07B091E9
:104670005F07CD91CDBFDD91DEBFFF91EF91DF915F
:10468000CF91BF91AF919F918F917F916F915F91EA
:104690004F913F912F911F910F91FF90EF90DF90DD
:1046A000CF90BF90AF909F908F907F906F905F90D2
:1046B0004F903F902F901F900F900FBE0F90089536
:1046C00081E008950F920FB6F8940F921F92112473
:1046D0002F923F924F925F926F927F928F929F9212
:1046E000AF92BF92CF92DF92EF92FF920F931F9300
:1046F0002F933F934F935F936F937F938F939F93EA
:10470000AF93BF93CF93DF93EF93FF93A0915E0797
:10471000B0915F070DB60D920EB60D920E94532810
:104720000E94A226A0915E07B0915F07CD91CDBFF8
:10473000DD91DEBFFF91EF91DF91CF91BF91AF91FE
:104740009F918F917F916F915F914F913F912F91A9
:104750001F910F91FF90EF90DF90CF90BF90AF909F
:104760009F908F907F906F905F904F903F902F9091
:104770001F900F900FBE0F9008950E94622318950E
:104780000F920FB6F8940F921F9211242F923F921E
:104790004F925F926F927F928F929F92AF92BF9251
:1047A000CF92DF92EF92FF920F931F932F933F933D
:1047B0004F935F936F937F938F939F93AF93BF9329
:1047C000CF93DF93EF93FF93A0915E07B0915F07C4
:1047D0000DB60D920EB60D920E94A226A0915E0714
:1047E000B0915F07CD91CDBFDD91DEBFFF91EF911D
:1047F000DF91CF91BF91AF919F918F917F916F91F9
:104800005F914F913F912F911F910F91FF90EF90EA
:10481000DF90CF90BF90AF909F908F907F906F90E0
:104820005F904F903F902F901F900F900FBE0F9072
:104830000895CF93DF93EC01842F4C8D442359F4DA
:1048400088819981892BD9F58A819B810E9437279C
:104850001B821A8234C08823B1F48C819D8150E080
:104860000E942B028C8D2C813D81280F311D3D83B0
:104870002C838A819B812817390708F188819981C7
:104880009D838C831CC08E819F8150E00E942B02EF
:104890008C8D90E044275527481B590B8E819F81B2
:1048A000840F951F9F838E832881398182179307F8
:1048B00030F48A819B81840F951F9F838E838A8D1C
:1048C0008F5F8A8FDF91CF9108950F931F93CF93BE
:1048D000DF93EC010FB6F8940F928C010F5E1F4F1F
:1048E0000DC08989882369F0C8010E94B1278823F7
:1048F00011F00E942D278E8D81508E8F8E8D18166F
:1049000084F38FEF8E8F0F900FBE0FB6F8940F9237
:104910008E01085F1F4F0DC08885882369F0C8018C
:104920000E94B127882311F00E942D278D8D815080
:104930008D8F8D8D181684F38FEF8D8F0F900FBE96
:10494000DF91CF911F910F9108957F928F929F9247
:10495000AF92BF92CF92DF92EF92FF920F931F938D
:10496000DF93CF9300D00F920F92CDB7DEB78C01BB
:10497000962E872E5D834C83722E91E1C92ED12C09
:10498000C00ED11E20E07E010894E11CF11C84E0E1
:10499000A82EB12CAC0EBD1E01C021E00FB6F894BC
:1049A0000F92F801828D882309F448C0E680F780D1
:1049B0004081518141155105B1F0848D9701280F37
:1049C000311D37832683828193812817390710F0A0
:1049D00057834683F801448D66817781892D982D10
:1049E00050E00E942B027720C1F4F801828D8150A3
:1049F000828F80819181892B29F40E943127F801CF
:104A000093838283F80180858823A1F0C8010896EA
:104A10000E94B127813071F40BC0F801F782E68261
:104A20008189882339F0C6010E94B127882311F0BB
:104A30000E94C0230F900FBE81E059C08C819D81E0
:104A4000892B19F40F900FBE51C0222319F4C7010E
:104A50000E94E4260F900FBE0E949C260FB6F89489
:104A60000F92F801858D8F3F09F4158EF801868D20
:104A70008F3F09F4168E0F900FBEC701B5010E943B
:104A8000EF26882371F50FB6F8940F92F801828D06
:104A90000F900FBE8823F9F4F80180819181892B52
:104AA00051F40FB6F8940F92F801828193810E941D
:104AB00064270F900FBE6C817D81C6010E9427285C
:104AC000C8010E9465240E94FF28882309F065CF51
:104AD0000E94C02362CFC8010E9465240E94FF2863
:104AE0005CCFC8010E9465240E94FF2880E00F90DF
:104AF0000F900F900F900F90CF91DF911F910F911A
:104B0000FF90EF90DF90CF90BF90AF909F908F90ED
:104B10007F9008957F928F929F92AF92BF92CF9293
:104B2000DF92EF92FF920F931F93DF93CF9300D00A
:104B30000F920F92CDB7DEB78C016B015D834C8372
:104B4000722E48E0E42EF12CE80EF91E20E05E0102
:104B50000894A11CB11C34E0832E912C8C0E9D1E58
:104B600001C021E00FB6F8940F92F801928D838D69
:104B70009817A8F4C801B601472D0E941924F8011E
:104B80008189882341F0C80141960E94B127813074
:104B900011F40E94C0230F900FBE81E04CC08C81A5
:104BA0009D81892B19F40F900FBE44C0222319F464
:104BB000C5010E94E4260F900FBE0E949C260FB6EE
:104BC000F8940F92F801858D8F3F09F4158EF80146
:104BD000868D8F3F09F4168E0F900FBEC501B4016C
:104BE0000E94EF26882309F50FB6F8940F92F8017A
:104BF000928D0F900FBEF801838D981781F46C8110
:104C00007D81C7010E942728C8010E9465240E9457
:104C1000FF28882309F0A5CF0E94C023A2CFC80196
:104C20000E9465240E94FF289CCFC8010E94652431
:104C30000E94FF2880E00F900F900F900F900F9030
:104C4000CF91DF911F910F91FF90EF90DF90CF9068
:104C5000BF90AF909F908F907F900895CF93DF93F8
:104C6000EC010FB6F8940F92EC8D2B8DE29FC001F2
:104C7000112448815981840F951F9B838A831A8E42
:104C80005D834C8330E021503040F0E02E9FC00126
:104C90002F9F900D3E9F900D1124480F591F5F8349
:104CA0004E838FEF8D8F8E8F662361F488858823E6
:104CB00089F0CE0108960E94B127813059F40E94F4
:104CC000C02308C0CE0108960E944A22CE01419618
:104CD0000E944A220F900FBE81E0DF91CF9108958C
:104CE0000F931F93CF93DF93182F062F8823E1F0A4
:104CF0008FE190E00E943922EC010097A9F0019F1A
:104D0000C001112401960E9439229983888300975B
:104D100041F01B8F0C8FCE0161E00E942E269E0178
:104D200005C0CE010E942A2220E030E0C901DF91B7
:104D3000CF911F910F910895809165078F5F8093A8
:104D40006507089580916507882351F081E080937D
:104D5000610708958091600781508093600701C0CA
:104D600099E0E0916007E99FF0011124E259F84FC2
:104D70008081882379F39091600789E0989FD00122
:104D80001124A259B84F1196ED91FC91129702800F
:104D9000F381E02D1296FC93EE931197CD010396CB
:104DA000E817F90731F48281938112969C938E93D0
:104DB00011971196ED91FC911297868197819093AE
:104DC0005F0780935E070895FC01809162078083EE
:104DD0008091630790916407928381830895FC0119
:104DE000DB010FB6F8940F924D915C9111978FEF04
:104DF0004F3F580761F1909162078081981749F001
:104E000020916307309164078181928128173907C7
:104E100000F5809163079091640721813281821BA4
:104E2000930B84179507A8F480916307909164070A
:104E3000281B390B240F351F2D933C93809162075B
:104E4000808380916307909164079283818380E0DF
:104E500001C081E00F900FBE089581E0809361074B
:104E6000089520915E0730915F07C90108950F935F
:104E70001F93CF93DF93EC01009709F19E8989A1DD
:104E80009817E9F08E010E5F1F4FC8010E94BC22E7
:104E900029A12E8B84E090E0821B91099D878C874D
:104EA00080916007821710F42093600789E0289FA3
:104EB000C00111248259984FB8010E945E22DF91EF
:104EC000CF911F910F9108950F931F93CF93DF936D
:104ED000EC01009709F440C0E0915E07F0915F0794
:104EE0003E8986893817C0F5E0915E07F0915F072B
:104EF000268984E090E0821B91099D878C8789E058
:104F0000389FC00111248259984F2A853B85281764
:104F10003907E1F48E010E5F1F4FC8010E94BC22C9
:104F2000E0915E07F0915F0796899E8B8091600704
:104F3000891710F49093600789E0989FC0011124AD
:104F40008259984FB8010E945E2206C0E0915E0728
:104F5000F0915F0786898E8BDF91CF911F910F9122
:104F600008950F931F93CF93DF93FC010580F68183
:104F7000E02D06811781E8012C96CE010E94BC220B
:104F8000809165078823A9F4E8012296CE010E944A
:104F9000BC22D80156969C9180916007891710F425
:104FA0009093600789E0989FC00111248259984F1F
:104FB00002C088EA97E0BE010E945E22E0915E078F
:104FC000F0915F0720E0D80156969C91868998174A
:104FD00008F021E0822FDF91CF911F910F9108956A
:104FE000CF93DF93EC01E0915E07F0915F0793832D
:104FF00082838091630790916407C817D90768F48A
:105000008091A6079091A70760915E0770915F0756
:105010006E5F7F4F0E94872217C08091A4079091F6
:10502000A50760915E0770915F076E5F7F4F0E94DA
:1050300087228091A0039091A103C817D90720F47B
:10504000D093A103C093A003DF91CF910895CF9394
:10505000DF93EB0160915E0770915F07645F7F4FA4
:105060000E94872280915E0790915F0702960E94BE
:10507000BC228FEFCF3FD80759F460915E07709143
:105080005F076E5F7F4F8AEB97E00E945E2208C049
:1050900080916307909164078C0F9D1F0E94F027F9
:1050A000DF91CF910895FF920F931F93CF93DF93DA
:1050B00080916507882309F08FC0809163079091E4
:1050C0006407019690936407809363078091630758
:1050D00090916407892B79F52091A4073091A50759
:1050E0008091A6079091A7079093A5078093A407A6
:1050F0003093A7072093A607809162078F5F809364
:105100006207E091A407F091A5078081882319F434
:105110008FEF9FEF0CC0E091A407F091A5070580E9
:10512000F681E02D0680F781E02D828193819093B6
:10513000A1038093A00320916307309164078091BD
:10514000A0039091A1032817390708F44CC099E0F7
:10515000F92EE091A407F091A5078081882339F406
:105160008FEF9FEF9093A1038093A0033CC0E09149
:10517000A407F091A5070580F681E02DC681D781AF
:105180002A813B818091630790916407821793077E
:1051900028F43093A1032093A00325C08E010E5F55
:1051A0001F4FC8010E94BC228C899D89892B21F048
:1051B000CE010C960E94BC229E89809160078917BF
:1051C00010F4909360079F9DC00111248259984F5D
:1051D000B8010E945E22BDCF809166078F5F8093E9
:1051E00066070E94262280916607882311F40E9498
:1051F0002622DF91CF911F910F91FF900895CF92BA
:10520000DF92FF920F931F93DF93CF930F92CDB74F
:10521000DEB70FB6F8940F928091650781508093A6
:10522000650780916507882309F058C08091690758
:10523000882309F453C0198229E0F22E2DC0E09191
:10524000AD07F091AE07C680D780C6010C960E94CC
:10525000BC2286010E5F1F4FC8010E94BC22D601EE
:1052600056969C9180916007891710F4909360077F
:105270009F9DC00111248259984FB8010E945E225F
:10528000E0915E07F0915F07D60156969C91868962
:10529000981710F0B1E0B9838091A807882379F6B8
:1052A00080916607882341F40CC00E9453288091A6
:1052B0006607815080936607809166078823A9F767
:1052C00007C0E981E13021F080916107813031F43C
:1052D000109261070E94C02381E001C080E00F901E
:1052E0000FBE0F90CF91DF911F910F91FF90DF9034
:1052F000CF9008950F931F93CF93DF93EC01009706
:10530000C9F0809165078F5F8093650700916307FF
:105310001091640780915E0790915F0702960E944A
:10532000BC22CE01800F911F0E94F0270E94FF280F
:10533000882311F40E94C023DF91CF911F910F9118
:1053400008950F931F932CC0809165078F5F809302
:1053500065071091B1070E94FF28112309F10FB6CC
:10536000F8940F92E091B607F091B7070681178184
:10537000C80102960E94BC228091690781508093E7
:10538000690780916B07815080936B070F900FBE68
:10539000F8018789908D0E942A22C8010E942A2242
:1053A00080916B07882381F680916E07823010F020
:1053B0000E94C0230E942722F3CF2F923F925F9238
:1053C0006F927F928F929F92AF92BF92CF92DF9215
:1053D000EF92FF920F931F93DF93CF9300D00F9222
:1053E000CDB7DEB79A8389834B015A011901502E3C
:1053F000370182E290E00E9439228B839C838B816B
:105400009C81892B89F0C114D10421F4C5010E942B
:1054100039226C01EB81FC81D08EC78AC114D10482
:1054200029F4CF010E942A228FEFDBC0C60165EA72
:1054300070E0A5010E9434020894A108B108EB8134
:10544000FC81E788F08CEA0CFB1CCF014996B40183
:1054500048E050E00E944202EB81FC8110A2052D41
:10546000F3E0F51508F403E0EB81FC81068B01A362
:1054700062E0C62ED12CCE0EDF1EC6010E945A223B
:105480008B819C810C960E945A228B819C81FC010D
:105490009187808784E090E0801B910995878487BD
:1054A000F38BE28BC70169817A81A1010E94E52219
:1054B000EB81FC81918380836114710421F0CF0121
:1054C000F301918380830FB6F8940F92809169075E
:1054D0008F5F8093690780915E0790915F07892BAA
:1054E000E1F5EB81FC81F0935F07E0935E0780912B
:1054F0006907813009F042C08EE697E00E944A2297
:1055000087E797E00E944A2280E897E00E944A22BB
:1055100089E897E00E944A2252E9E52E57E0F52EED
:10552000C7010E944A220BE917E0C8010E944A22E3
:1055300088EA97E00E944A2281EB97E00E944A2283
:105540008AEB97E00E944A22F092A507E092A40716
:105550001093A7070093A60711C080916A078823BC
:1055600069F4E0915E07F0915F078689581630F084
:105570008B819C8190935F0780935E07EB81FC8118
:10558000968980916D07891710F490936D0780912B
:105590006C078F5F80936C07EB81FC81968980910B
:1055A0006007891710F490936007EB81FC8186896E
:1055B00029E0829FC00111248259984FB6010E94B0
:1055C0005E220F900FBE80916A07882349F0E09118
:1055D0005E07F0915F078689851510F40E94C0234D
:1055E00081E00F900F900F900F90CF91DF911F915E
:1055F0000F91FF90EF90DF90CF90BF90AF909F9072
:105600008F907F906F905F903F902F900895AF9212
:10561000BF92CF92DF92EF92FF920F9381EA99E2CD
:105620006FE873E045E550E020E030E000E0E7E6B9
:10563000EE2EE7E0FE2ECC24DD24AA24BB240E941B
:10564000DD29813049F4F89480936A071092640749
:10565000109263070E942E230F91FF90EF90DF902E
:10566000CF90BF90AF9008951F920F920FB60F92F8
:1056700011242F933F938F939F93AF93BF93809168
:10568000C7079091C807A091C907B091CA07309188
:10569000CB070196A11DB11D232F2D5F2D3720F0C3
:1056A0002D570196A11DB11D2093CB078093C707ED
:1056B0009093C807A093C907B093CA078091C30706
:1056C0009091C407A091C507B091C6070196A11D8E
:1056D000B11D8093C3079093C407A093C507B093EF
:1056E000C607BF91AF919F918F913F912F910F90DE
:1056F0000FBE0F901F9018958FB7F8942091C70791
:105700003091C8074091C9075091CA078FBFB901AE
:10571000CA010895789484B5826084BD84B581609F
:1057200084BD85B5826085BD85B5816085BDEEE6A9
:10573000F0E0808181608083E1E8F0E01082808188
:1057400082608083808181608083E0E8F0E08081F6
:1057500081608083E1EBF0E0808184608083E0EB16
:10576000F0E0808181608083E1E9F0E08081826007
:105770008083808181608083E0E9F0E080818160C6
:105780008083E1EAF0E080818260808380818160B3
:105790008083E0EAF0E0808181608083E1E2F1E0F3
:1057A000808182608083808181608083E0E2F1E09B
:1057B000808181608083EAE7F0E08081846080837B
:1057C0008081826080838081816080838081806825
:1057D00080831092C1000895EF92FF920F931F9360
:1057E000CF93DF937B018C013FB7F8948091C3077F
:1057F0009091C407A091C507B091C60726B5A89B94
:1058000005C02F3F19F00196A11DB11D3FBFBA2F52
:10581000A92F982F8827820F911DA11DB11D52E03D
:10582000880F991FAA1FBB1F5A95D1F7EC0130C0F2
:105830000E94F4333FB7F8948091C3079091C40756
:10584000A091C507B091C60726B5A89B05C02F3FFC
:1058500019F00196A11DB11D3FBFBA2FA92F982F96
:105860008827820F911DA11DB11D32E0880F991F5D
:10587000AA1FBB1F3A95D1F78C1B9D0B885E9340E6
:10588000B8F20894E108F10801091109C851DC4F88
:10589000E114F1040105110559F6DF91CF911F9133
:1058A0000F91FF90EF900895CF93DF93482F50E032
:1058B000CA01865F9D4FFC0134914C535E4FFA0143
:1058C0008491882369F190E0880F991FFC01EA58C0
:1058D000FE4FA591B491FC01E057FE4FC591D491C4
:1058E000662351F42FB7F8948C91932F90958923C8
:1058F0008C93888189230BC0623061F42FB7F894B0
:105900008C91932F909589238C938881832B888306
:105910002FBF06C09FB7F8948C91832B8C939FBFA9
:10592000DF91CF910895893009F449C08A30A0F4FD
:10593000843051F1853040F4823079F1833000F5C4
:10594000813009F063C026C0873079F1883098F53E
:10595000863009F05BC025C08D3009F442C08E301E
:1059600028F48B30B1F18C30C0F52DC0803109F4B2
:1059700042C0813109F445C08F3009F047C037C0BB
:10598000809180008F7703C0809180008F7D80930D
:105990008000089584B58F7702C084B58F7D84BD63
:1059A00008958091B0008F7703C08091B0008F7D03
:1059B0008093B0000895809190008F7707C0809108
:1059C00090008F7D03C080919000877F809390002E
:1059D00008958091A0008F7707C08091A0008F7DEF
:1059E00003C08091A000877F8093A00008958091DC
:1059F00020018F7703C0809120018F7D809320014B
:105A0000089580912001877F809320010895FF925F
:105A10000F931F93F62E482F50E0CA01805B9D4FD5
:105A2000FC012491CA01865F9D4FFC0114914C53E7
:105A30005E4FFA0104910023C9F0222319F0822F4E
:105A40000E94932CE02FF0E0EE0FFF1FE057FE4F77
:105A5000A591B4919FB7F894FF2021F48C911095F3
:105A6000812302C08C91812B8C939FBF1F910F913A
:105A7000FF9008950F931F93CF93DF93BC01823063
:105A8000910510F462E070E0E0910809F0910909D5
:105A900040E050E0A0E0B0E024C080819181861712
:105AA0009707D0F08617970771F48281938110973A
:105AB00029F013969C938E9312972CC0909309090A
:105AC0008093080927C04115510519F084179507DF
:105AD00018F48D01AC01EF01DF01828193819C01FB
