:100000006CC100009BC1000099C1000097C10000B5
:1000100095C1000093C1000091C100008FC1000094
:100020008DC100008BC1000089C1000087C10000A4
:1000300085C1000083C1000081C100007FC10000B4
:100040007DC100007BC1000079C1000077C10000C4
:1000500075C1000073C1000071C100000C948C25B3
:100060006DC100000C94D1280C94072967C10000D1
:1000700065C1000063C1000061C100005FC10000F4
:100080005DC100005BC1000059C1000057C1000004
:1000900055C1000053C1000051C100000C94150A65
:1000A0004DC100004BC1000049C1000047C1000024
:1000B00045C1000043C1000041C100003FC1000034
:1000C0003DC100003BC1000039C1000053C1000028
:1000D00035C1000033C1000031C100002FC1000054
:1000E0002DC10000B726BA26A926AD26B326F126D3
:1000F000BE26C226C826CC26D026D626DA26DE265E
:10010000F126E426E826EC26084AD73B3BCE016ED2
:1001100084BCBFFDC12F3D6C74319ABD56833DDA5E
:100120003D00C77F11BED9E4BB4C3E916BAAAABE6D
:10013000000000803F07634236B79BD8A71A396892
:100140005618AEBAAB558C1D3CB7CC5763BD6DEDA0
:10015000FD753EF6177231BF000000803F080000B9
:1001600000BE922449123EABAAAA2ABECDCCCC4CEA
:100170003E00000080BEABAAAAAA3E00000000BF5D
:10018000000000803F0000000000084178D3BB431E
:1001900087D1133D190E3CC3BD4282AD2B3E68ECA6
:1001A0008276BED98FE1A93E4C80EFFFBE01C4FF2D
:1001B0007F3F0000000000007C3C3E5E2B3D3F2F57
:1001C0005B5D3B2C2A225C0000000A0B02090C0D2F
:1001D0000E080703040100000000000000000000FA
:1001E000000000000000000000000000000000000F
:1001F00000000000121110000000000000000000CC
:1002000000000000000000000000000000000102EB
:100210001020200808102040102040800201020118
:1002200008040201010204081020408080402010D0
:100230000804020180040201804020100804020129
:100240000804020101020408102040800102040891
:10025000102040800505050507050808080802026A
:1002600002020A0A08080404040401010101010150
:1002700001010303030303030303040707070C0C33
:100280000C0C0C0C0C0C02020202060606060606FA
:1002900006060B0B0B0B0B0B0B0B000022002500B3
:1002A00028002B002E00310034000201000005015F
:1002B00008010B0100002100240027002A002D0066
:1002C0003000330001010000040107010A01CA05E2
:1002D0002C093C0F4D123929F10511241FBECFEF17
:1002E000D1E2DEBFCDBF00E00CBF15E0A0E0B2E080
:1002F000E4EDF8E600E00BBF02C007900D92A43ECB
:10030000B107D9F72AE0A4EEB5E001C01D92AD37E0
:10031000B207E1F712E0C8EDD2E000E006C0229794
:100320000109FE010BBF0E94BE31CE3CD10780E027
:100330000807A9F70E947D290C94593461CE85EEF7
:1003400095E00E946F2B8BEE95E00E946F2B81E968
:1003500096E00E946F2B89E996E00C946F2B9093A6
:10036000D5008093D40088ED8093D1008CE08093F9
:10037000D20008951F920F920FB60F9211240BB660
:100380000F921F932F933F934F935F936F937F939E
:100390008F939F93AF93BF93EF93FF93CF93DF938D
:1003A00000D000D0CDB7DEB76091D6006D3039F502
:1003B00026E030E040E050E065EE75E0CE010196C9
:1003C0000E942E2D6CE172E0CE0101960E94E72C76
:1003D000182FCE0101960E946F2B112349F065EE74
:1003E00075E08BEE95E00E94212C81E08093E4057E
:1003F00067ED75E085EE95E00E94412C06C06A30FD
:1004000021F085EE95E00E94AB2C26960FB6F8946D
:10041000DEBF0FBECDBFDF91CF91FF91EF91BF91B6
:10042000AF919F918F917F916F915F914F913F918C
:100430002F911F910F900BBE0F900FBE0F901F902A
:10044000189524E836E046E856E068E876E08AE861
:1004500096E00E942D1E60918806709189064AE000
:1004600050E08FE996E00E94842A6CE28FE996E0E2
:100470000E94D62960918606709187064AE050E076
:100480008FE996E00E94842A6CE28FE996E00E9450
:10049000D62960918406709185064AE050E08FE984
:1004A00096E00E94842A6CE28FE996E00E94D629A9
:1004B00060918806709189064AE050E08CED99E0E1
:1004C0000E94842A6CE28CED99E00E94D62960910A
:1004D0008606709187064AE050E08CED99E00E9414
:1004E000842A6CE28CED99E00E94D6296091840602
:1004F000709185064AE050E08CED99E00E94842AD4
:100500006CE28CED99E00C94D629CF92DF92EF92B9
:10051000FF920F931F936EE281E096E00E946D219F
:100520000E94E2256093F1057093F2058093F30534
:100530009093F4050E94E2256B017C018091F10506
:100540009091F205A091F305B091F405C81AD90A6B
:10055000EA0AFB0A60E081E096E00E94C021A0E088
:10056000B0E0C816D906EA06FB0620F381E096E063
:100570000E94E3216093FD057093FE058093FF05C3
:100580009093000664EF81E096E00E946D210E9446
:10059000E2256B017C018091F1059091F205A0911B
:1005A000F305B091F405C81AD90AEA0AFB0A60E01B
:1005B00081E096E00E94C021A0E0B0E0C816D90614
:1005C000EA06FB0620F381E096E00E945D22AB0183
:1005D000BC014093F9055093FA056093FB057093B5
:1005E000FC0500E816EE25EC37E481E096E00E9479
:1005F000B0236093F5057093F6058093F70590930B
:10060000F8054091FD055091FE056091FF05709140
:10061000000622E030E08FE996E00E946E2B6CE24B
:100620008FE996E00E94D6294091F9055091FA058C
:100630006091FB057091FC0522E030E08FE996E0C7
:100640000E946E2B6CE28FE996E00E94D6294091C1
:10065000F5055091F6056091F7057091F80522E0D7
:1006600030E08FE996E00E946E2B6CE28FE996E015
:100670000E94D6294091FD055091FE056091FF052D
:100680007091000622E030E08CED99E00E946E2B24
:100690006CE28CED99E00E94D6294091F9055091C9
:1006A000FA056091FB057091FC0522E030E08CEDCD
:1006B00099E00E946E2B6CE28CED99E00E94D629A5
:1006C0004091F5055091F6056091F7057091F80598
:1006D00022E030E08CED99E00E946E2B6CE28CED14
:1006E00099E01F910F91FF90EF90DF90CF900C94C5
:1006F000D629CF92DF92EF92FF920F931F93CF9361
:10070000DF9300D01F92CDB7DEB726E736E048E78B
:1007100056E06AE776E08CE796E00E941A240091A2
:100720007A0610917B06B801882777FD8095982F6F
:100730000E94D82E9B01AC016091780670917906D9
:10074000882777FD8095982F29833A834B835C8394
:100750000E94D82E29813A814B815C810E94E62D2E
:100760006B017C0120E030E0A9010E94392E87FF57
:100770000AC02BED3FE049EC50E4C701B6010E94EE
:10078000732D6B017C014AE050E0B8018FE996E0DF
:100790000E94842A6CE28FE996E00E94D62960913B
:1007A0007806709179064AE050E08FE996E00E9461
:1007B000842A6CE28FE996E00E94D6296091760641
:1007C000709177064AE050E08FE996E00E94842A13
:1007D0006CE28FE996E00E94D62920E030E044E305
:1007E00053E4C701B6010E94B82F2BED3FE049E466
:1007F00050E40E943D2E6B017C0122E030E0AB0111
:10080000BC018FE996E00E946E2B6CE28FE996E0C6
:100810000E94D62960917A0670917B064AE050E0EA
:100820008CED99E00E94842A6CE28CED99E00E94A4
:10083000D62960917806709179064AE050E08CEDF7
:1008400099E00E94842A6CE28CED99E00E94D629FE
:1008500060917606709177064AE050E08CED99E061
:100860000E94842A6CE28CED99E00E94D62922E055
:1008700030E0B701A6018CED99E00E946E2B6CE28E
:100880008CED99E00F900F900F900F90DF91CF912A
:100890001F910F91FF90EF90DF90CF900C94D6298D
:1008A0008F929F92AF92BF92CF92DF92EF92FF9280
:1008B000CF93DF93CDB7DEB72C970FB6F894DEBF9A
:1008C0000FBECDBF0E94D62560932D0670932E06D5
:1008D00080932F069093300661E376E0CE01019677
:1008E0000E94C21FC0900602D0900702E09008024A
:1008F000F09009022D813E814F815885C701B601D4
:100900000E94B82F2091290630912A0640912B068B
:1009100050912C060E94732D4B015C0160932906B7
:1009200070932A0680932B0690932C0629813A8196
:100930004B815C81C701B6010E94B82F9B01AC01BD
:1009400060912506709126068091270690912806D1
:100950000E94732D609325067093260680932706C8
:100960009093280629853A854B855C85C701B60199
:100970000E94B82F9B01AC01609121067091220664
:1009800080912306909124060E94732D6093210686
:1009900070932206809323069093240622E030E091
:1009A000B501A4018FE996E00E946E2B6CE28FE9FD
:1009B00096E00E94D6294091250650912606609126
:1009C00027067091280622E030E08FE996E00E9429
:1009D0006E2B6CE28FE996E00E94D62940912106A9
:1009E00050912206609123067091240622E030E0A7
:1009F0008FE996E00E946E2B6CE28FE996E00E94F0
:100A0000D6294091290650912A0660912B067091B3
:100A10002C0622E030E08CED99E00E946E2B6CE217
:100A20008CED99E00E94D62940912506509126062A
:100A3000609127067091280622E030E08CED99E065
:100A40000E946E2B6CE28CED99E00E94D6294091B9
:100A5000210650912206609123067091240622E01F
:100A600030E08CED99E00E946E2B6CE28CED99E009
:100A70002C960FB6F894DEBF0FBECDBFDF91CF919D
:100A8000FF90EF90DF90CF90BF90AF909F908F90AE
:100A90000C94D629CF92DF92EF92FF92CF93DF93FF
:100AA000CDB7DEB768970FB6F894DEBF0FBECDBFE7
:100AB00061E376E0CE010D960E942C1FCD84DE848A
:100AC000EF84F88861E376E0CE0101960E94C21FB0
:100AD00022E030E0B701A6018CED99E00E946E2B78
:100AE0006CE28CED99E00E94D62922E030E0B7015B
:100AF000A6018CED99E00E946E2B6CE28CED99E0E2
:100B00000E94D62949895A896B897C8922E030E084
:100B10008CED99E00E946E2B6CE28CED99E00E94C6
:100B2000D62949815A816B817C8122E030E08CEDAD
:100B300099E00E946E2B6CE28CED99E00E94D62920
:100B40004D815E816F81788522E030E08CED99E007
:100B50000E946E2B6CE28CED99E00E94D6294985AB
:100B60005A856B857C8522E030E08CED99E00E940F
:100B70006E2B6CE28CED99E068960FB6F894DEBFB0
:100B80000FBECDBFDF91CF91FF90EF90DF90CF9060
:100B90000C94D6298FE996E067D664EB73E089E977
:100BA00096E00E94D72B67ED75E081E996E00E9400
:100BB000D72B8AE896E00E94F61D8CE796E00E940B
:100BC000CF2381E096E00E94C92067ED75E08BEEAF
:100BD00095E00E94D72B67ED75E085EE95E00C94CB
:100BE000D72BADCBCF93DF93CDB7DEB76B970FB6D7
:100BF000F894DEBF0FBECDBF60E570E08BEE95E0F0
:100C00000E949D2B60E570E085EE95E00E949D2B93
:100C100089E190E0A4DB26E040E052EC61E070E086
:100C20008CED99E00E946F286AE08EE797E082D70A
:100C3000811103C068E674E002C064E874E08CEDE2
:100C400099E00E94E02964EB73E089E996E00E9454
:100C5000412C64E670E080E090E00E9405266AE0A6
:100C600072E08EE797E00E94320F882309F45FC09C
:100C70006091970670919806CB0101969093980623
:100C8000809397064AE0CE0101960E94572CBE0140
:100C90006F5F7F4F89E996E00E94362CCE01019666
:100CA0000E946F2B80919D0690919E068130910548
:100CB00019F469E974E004C00297A9F46AE974E0E0
:100CC000CE0101960E94D72B69E976E0CE0101960C
:100CD0000E94BE2CBC0189E996E00E94212CCE0125
:100CE00001960E946F2B6CE974E0CE0101960E9480
:100CF000D72B69E976E0CE0101960E94BE2C6BEB02
:100D000073E00E94CF2CBC0189E996E00E94212C5F
:100D1000CE0101960E946F2B20E030E04CE050E0C5
:100D20006AE072E089E996E00E94052D98CF61EAB9
:100D300074E08CED99E00E94D52969E976E08CEDAC
:100D400099E00E94C7296CEA74E08CED99E00E945A
:100D5000D5296AE072E08CED99E00E94E02923E158
:100D60004AE052E06EE777E0CE010196F6D78B813C
:100D70009C819093A2068093A1068D819E81AF8174
:100D8000B8858093A3069093A406A093A506B0937C
:100D9000A60689859A85AB85BC858093A706909326
:100DA000A806A093A906B093AA068DE0FE013D9681
:100DB000ABEAB6E001900D928A95E1F78A8D9B8DA2
:100DC0009093B9068093B80660EB74E08FE996E0E3
:100DD0000E94D5296DEB74E08FE996E00E94E0292E
:100DE00060E475E08FE996E00E94D52961E575E041
:100DF0008FE996E00E94E02960EB74E08CED99E0C9
:100E00000E94D5296DEB74E08CED99E00E94E029F9
:100E100060E475E08CED99E00E94D52961E575E00C
:100E20008CED99E00E94E0296AE675E08CED99E08E
:100E30000E94D5298AEB96E086D18AE896E00E9446
:100E40001E1E8AE896E00E940B1E882319F060ECB3
:100E500073E002C06EED73E08CED99E00E94E02932
:100E60008CE796E00E940B248CE796E00E94D32347
:100E7000882319F068EF73E002C067E174E08CED3D
:100E800099E00E94E02981E096E00E946C2181E0D7
:100E900096E00E94CD20882319F062E374E002C03E
:100EA0006FE474E08CED99E00E94E0294AE050E0A4
:100EB00062E070E081E396E00E94B81E81110DC0EF
:100EC00067E372E08CED99E00E94E02964EF71E045
:100ED00080E090E00E940526E9CF65E775E08CEDA3
:100EE00099E00E94E0298FE996E01ED58FE996E00F
:100EF00031D469E975E081E996E00E94412C6CE209
:100F000081E996E00E94AB2C6B960FB6F894DEBF99
:100F10000FBECDBFDF91CF9108950E94D625AB01C2
:100F2000BC012AE030E08FE996E00E948B2A6CE257
:100F30008FE996E00E94D62961E976E08FE996E094
:100F40000E94C7290E94D625AB01BC012AE030E0EF
:100F50008CED99E00E948B2A6CE28CED99E00E9466
:100F6000D62961E976E08CED99E00E94C72980914D
:100F7000E4058823C9F06BEE75E08CED99E00E94E2
:100F8000C7296CE28CED99E00E94D6296BEE75E0E2
:100F90008FE996E00E94C7296CE28FE996E00E94F3
:100FA000D6291092E4052FC04CDA61E976E08FE98A
:100FB00096E00E94C72961E976E08CED99E00E94F5
:100FC000C72997DB61E976E08FE996E00E94C7299F
:100FD00061E976E08CED99E00E94C72961DC61E966
:100FE00076E08FE996E00E94C72961E976E08CED12
:100FF00099E00E94C7294EDD61E976E08CED99E029
:101000000E94C72982DA8FE996E00E94DD298CEDE3
:1010100099E00E94DD298FE996E09CC38091EA0661
:1010200090E02091EB06821B910908952091EB0638
:101030008091EA06281750F4E22FF0E0E451F94FCE
:10104000808190E02F5F2093EB0608958FEF9FEF54
:101050000895E091EB068091EA06E81730F4F0E09D
:10106000E451F94F808190E008958FEF9FEF08954C
:101070000895CF92DF92EF92FF920F931F93CF9339
:10108000DF937C01CB018A012091C606222389F0DF
:10109000EB016B01C40ED51ECC15DD0561F0699125
:1010A000D701ED91FC910190F081E02DC7011995D8
:1010B000F3CF642F91D1C801DF91CF911F910F9190
:1010C000FF90EF90DF90CF900895CF93DF931F9222
:1010D000CDB7DEB769832091C6062223D1F02091D7
:1010E000C706203240F021E030E0FC013383228348
:1010F00080E090E014C08091C806E82FF0E0E7534C
:10110000F94F998190838F5F8093C8068093C706BB
:1011100004C061E0CE0101965FD181E090E00F90C4
:10112000DF91CF910895FC011382128248EE53E0C3
:1011300060E070E044835583668377838FE995E0B0
:101140009183808308951092EB061092EA06109224
:10115000C8061092C70683C081E08093C6066093DC
:10116000E9061092C8061092C7060895F5CF0F93AE
:10117000062F21E04091C70669EC76E08091E906F0
:10118000D4D01092C8061092C7061092C6060F91CE
:1011900008958F929F92AF92BF92CF92DF92EF927B
:1011A000FF920F931F93CF93DF93EC01F62ED42E73
:1011B00048015901EE2009F1CFDF1E2D143008F04F
:1011C00013E01150B8F0E881F98128E0129FB001D6
:1011D0001124A501940104C056954795379527958C
:1011E0006A95D2F7CA01B9010190F081E02DCE01D4
:1011F0001995E7CF60E0CE01BADF4D2D413208F0FE
:1012000040E22C2D6CEE76E08F2D47D01092EB064D
:101210008093EA06DF91CF911F910F91FF90EF909D
:10122000DF90CF90BF90AF909F908F900895CF9216
:10123000EF920F931F93C22EE12C00E010E0980173
:10124000A8DF1F910F91EF90CF90089521E0EFCF8D
:1012500021E0EDCF61E08BCF8AEB96E064CF109276
:10126000790781E0809377071092760761E084E147
:101270000E942B2761E085E10E942B27E9EBF0E03B
:1012800080818E7F808380818D7F808388E48093BE
:10129000B80085E48093BC000895413208F043C053
:1012A000909179079111FCCF91E090937907209369
:1012B00077072FEF20930C0710925107240F2093EC
:1012C00050079093780790917807880F892B809327
:1012D000780780917607813061F4109276078091CB
:1012E00078078093BB008091BC0083FDF8CF85EC2C
:1012F00001C085EE8093BC00809179078130E1F3D5
:1013000080915107841710F44091510722E537E08E
:10131000FB01D9018A2F821B841718F48D918193C8
:10132000F9CF842F089580E008950F93413208F09B
:101330004AC0909179079111FCCF92E09093790780
:10134000009377079FEF90930C07109251074093FB
:101350005007FB0162E577E0DB019A2F961B94179B
:1013600018F491919D93F9CF109278079091780796
:10137000880F892B8093780780917607813061F4FC
:1013800010927607809178078093BB008091BC0013
:1013900083FDF8CF85EC01C085EE8093BC0022234D
:1013A00021F0809179078230E1F380910C078F3F23
:1013B00061F080910C07803251F080910C078033EE
:1013C00041F483E007C081E005C080E003C082E013
:1013D00001C084E00F910895613298F4209179075B
:1013E000243089F460932E07FC0180E397E0DC0150
:1013F0002A2F281B261718F421912D93F9CF80E06E
:10140000089581E0089582E0089585ED8093BC0001
:101410008091BC0084FDFCCF10927907089585EC83
:101420008093BC001092790708951F920F920FB617
:101430000F9211240BB60F922F933F934F935F930C
:101440006F937F938F939F93AF93BF93EF93FF938C
:101450008091B900887F803609F49DC070F588328C
:1014600009F45CC090F4803109F455C038F4882345
:1014700009F4F3C0883009F44EC0F2C0883109F491
:101480004DC0803209F45EC0EBC0803409F469C0FD
:1014900050F4803309F456C0883309F0E1C08093DA
:1014A0000C07BDDFDDC0803509F44FC0883509F475
:1014B0005DC0883409F0D4C0D2C0883909F4C3C0F3
:1014C000A8F4883709F467C038F4883609F463C093
:1014D000803709F460C0C4C0883809F4B4C08039CA
:1014E00009F45FC0803809F0BBC05BC0803B09F4E1
:1014F00082C038F4803A09F466C0883A09F47BC0A7
:10150000AFC0803C09F4A3C0883C09F4A0C0883B6C
:1015100009F486C0A5C08091780710C0909151074A
:1015200080915007981770F5E091510781E08E0F78
:1015300080935107F0E0EE5AF84F80818093BB0012
:1015400085EC82C080930C078AC0E091510781E04E
:101550008E0F809351078091BB00F0E0EE5AF84F58
:10156000808390915107809150076AC0E0915107A4
:1015700081E08E0F809351078091BB00F0E0EE5A1E
:10158000F84F808380917707811169C081E0809353
:10159000760784EA5DC083E08093790710920D0797
:1015A000CFCF80910D07803208F04DC0E0910D073C
:1015B00081E08E0F80930D078091BB00F0E0E25F29
:1015C000F84F8083BDCF2BDF80910D07803230F440
:1015D000E0910D07F0E0E25FF84F108260910D0797
:1015E00070E0E0917207F09173078EE097E0199533
:1015F00010920D0735C084E08093790710922F0771
:1016000010922E07E0917407F0917507199580915B
:101610002E07811105C081E080932E0710923007BC
:10162000E0912F0781E08E0F80932F07F0E0E05DBF
:10163000F84F80818093BB0090912F0780912E07F7
:10164000981708F47DCF85E88093BC0009C085EC2D
:101650008093BC001092790703C010920C07D5DE6E
:10166000FF91EF91BF91AF919F918F917F916F917A
:101670005F914F913F912F910F900BBE0F900FBE36
:101680000F901F901895CF93CFB7F89480917D0756
:10169000811127C0E9E8F2E08491E3E4F2E094915B
:1016A000E82FF0E0EE0FFF1FEC54FD4FA591B49131
:1016B0008C91892321F461E085E30E942B2761E06E
:1016C00085E30E94F2268CB580618CBD8CB5806468
:1016D0008CBD61E084E30E94F22661E083E30E9416
:1016E000F22680917D078F5F80937D07CFBFCF91DA
:1016F0000895CF93DF931F92CDB7DEB76983DC01E6
:10170000ED91FC910280F381E02D41E050E0BE01BB
:101710006F5F7F4F19950F90DF91CF910895CF9311
:10172000DF93EC01898D9A8D009759F0FC011382AB
:1017300012820E94B317E98DFA8D22813381232B07
:1017400031F081E090E09B838A8380E090E0DF913C
:10175000CF910895FC01818D928D009711F00C942A
:1017600065150895CF93DF931F92CDB7DEB741E0A3
:1017700050E0BE016F5F7F4FBED7019719F489819A
:1017800090E002C08FEF9FEF0F90DF91CF9108950F
:10179000FC01818D928D009709F0E4CF8FEF9FEFD0
:1017A00008950F931F93CF93DF938C01FC01818DDC
:1017B000928D0097B1F0D6DFEC018F3FFFEF9F07CE
:1017C00099F0F801818D928DFC01428553856485E5
:1017D000758541505109610971090E94CA14CE01F1
:1017E00005C080E090E002C08FEF9FEFDF91CF91C6
:1017F0001F910F910895CF92DF92EF92FF920F9376
:101800001F93CF93DF93EC017B016A011B821A8245
:1018100008EE13E020E030E00C831D832E833F832D
:101820008FEA95E0998388838DE190E00E94D13121
:101830009A8F898F009779F02DE1F701DC010190F3
:101840000D922A95E1F74CE050E0B601CE010C96DE
:101850000E940D34188EDF91CF911F910F91FF9050
:10186000EF90DF90CF900895FC011382128248EE32
:1018700053E060E070E044835583668377838FEAAA
:1018800095E091838083128E118E14860895DC0179
:101890005996ED91FC915A97309729F0628573859E
:1018A0008485958508956FEF7FEFCB010895DC0166
:1018B0005996ED91FC915A97309729F06389748974
:1018C00085899689089560E070E0CB010895CF92F4
:1018D000DF92EF92FF92CF93DF93EC01898D9A8D87
:1018E000892BC9F0CE01E3DF6B017C01CE01CFDF94
:1018F000A7019601261B370B480B590BDA01C901CA
:10190000811530E89307A105B10538F08FEF9FE707
:10191000A0E0B0E002C080E090E0DF91CF91FF90C6
:10192000EF90DF90CF900895CF93DF93EC01898DF6
:101930009A8D009741F00E94AA15898D9A8D0E9478
:1019400069321A8E198EDF91CF9108951F93CF932C
:10195000DF93CDB7DEB76D970FB6F894DEBF0FBE3D
:10196000CDBFAB011C821B8221EC35E03A83298379
:101970001E8221E0BC01CE0101960E94D41611E026
:10198000811102C010E004C0CE0101960E94AA1588
:10199000812F6D960FB6F894DEBF0FBECDBFDF91DD
:1019A000CF911F910895CF93DF93FB012081318167
:1019B000FC01E20FF31FE081EF3211F42F5F3F4F84
:1019C000DA01E0E0F0E0EC01C20FD31FC881CF32B2
:1019D00049F0CC2339F031962F5F3F4FCD93EC3057
:1019E000F10589F7E40FF51F1082FC01E20FF31FE8
:1019F00040814F3211F42F5F3F4FFB013183208331
:101A0000FC01E20FF31F81E09081911101C080E0A1
:101A1000DF91CF9108954F925F926F927F928F9254
:101A20009F92AF92BF92CF92DF92EF92FF920F936D
:101A30001F93CF93DF93CDB7DEB7C954D1090FB64B
:101A4000F894DEBF0FBECDBF5C016B013A014901C6
:101A500019A218A281EC95E09F8F8E8F1BA21C8289
:101A60001B829A8389831E822A961FAE1EAE2A97F6
:101A70008B017E018EE1E80EF11C44244394AE01FB
:101A8000455C5F4FBE01685B7F4FC5018CDF582E00
:101A9000482F44259401BE01655C7F4FC801F301C6
:101AA0001995811108C00C151D0519F0C8010E9477
:101AB000AA1580E027C05520B9F021E0AE01455CB1
:101AC0005F4FB801C7010E94D416582E0C151D0592
:101AD00099F0C8010E94AA15552059F3902F812F23
:101AE0008701E92EF82ECBCF0C151D0519F0C80182
:101AF0000E94AA1581E006C08823D9F28E010F5FEB
:101B00001F4FECCFC75BDF4F0FB6F894DEBF0FBEA1
:101B1000CDBFDF91CF911F910F91FF90EF90DF909C
:101B2000CF90BF90AF909F908F907F906F905F907D
:101B30004F9008950F931F93CF93DF93EC01462F9F
:101B400061E0CAD2811102C080E01CC08E01045F36
:101B50001F4F41E0BE01C8010E94E41C882351F0E0
:101B6000B801CE018A9678D591E0811101C090E04C
:101B7000892F08C040E0BE01C8010E94E41C8823F0
:101B800019F3EECFDF91CF911F910F910895FC01D2
:101B9000DB0112968D919C9113979383828381EC44
:101BA00095E09183808314968C9114978483159685
:101BB0008C911597858316964D915D916D917C91D1
:101BC000199746835783608771871A964D915D9167
:101BD0006D917C911D9742875387648775871E9608
:101BE0004D915D916D917C91519746875787608BA0
:101BF000718B52968C915297828B53964D915D9139
:101C00006D917C915697438B548B658B768B579651
:101C10004D915D916D917C915A97478B508F618F5B
:101C2000728F5B968D919C915C97948F838F0895B2
:101C30004F925F926F927F928F929F92AF92BF92DC
:101C4000CF92DF92EF92FF920F931F93CF93DF9388
:101C5000CDB7DEB7C754D1090FB6F894DEBF0FBEBB
:101C6000CDBF6C014A013901665D7F4F5E018EE197
:101C7000A80EB11CC5018BDF1C821B8281EC95E094
:101C80009A8389831E828401FE0131967F015A2C3A
:101C90004B2C6FE270E0C8010E94F2330097D9F13B
:101CA000F80120812F3219F40F5F1F4FF2CF801BF4
:101CB0008D3008F08CE0A82EB12CA501B801CE0122
:101CC000CB960E940D34EBE3F0E0EC0FFD1FEA0D24
:101CD000FB1D1082C7013ED721E0AE01455C5F4F7E
:101CE000652D742DC7010E94D416811109C0F6011B
:101CF0001382128281EC95E091838083158214C057
:101D00000A0D1B1D852D942D25D7C2015E2C4F2C4D
:101D1000E92EF82EBECF08191909F30111830083AB
:101D2000652D742DC60133DFC601C95BDF4F0FB6C9
:101D3000F894DEBF0FBECDBFDF91CF911F910F9101
:101D4000FF90EF90DF90CF90BF90AF909F908F90DB
:101D50007F906F905F904F9008959F92AF92BF9247
:101D6000CF92DF92EF92FF920F931F93CF93DF9367
:101D7000CDB7DEB7C955D1090FB6F894DEBF0FBE97
:101D8000CDBF7C016B015A01922E9E01285A3F4F14
:101D9000CE01CB964DDF6A960EAD1FAD6A970A0D48
:101DA0001B1DF8018081811109C0BE01655C7F4F58
:101DB000CE010196ECDE4BEB55E03BC019A218A218
:101DC00081EC95E09F8F8E8F1BA221968FAD21977E
:101DD000811103C0C70148DD31C08250823058F400
:101DE000B601665D7F4F292DA801CE014E96DCD746
:101DF00081110EC0EFCF292DA801BE01655C7F4F78
:101E0000CE014E96D1D7882329F3CE01CB96A2D608
:101E1000892D867039F049A95AA96BA97CA9CE01F0
:101E20004E96B8D5BE01625E7F4FCE010196AFDE01
:101E3000A801BE016F5F7F4FC701DDDCC701C75A34
:101E4000DF4F0FB6F894DEBF0FBECDBFDF91CF914D
:101E50001F910F91FF90EF90DF90CF90BF90AF90C8
:101E60009F900895FB01BC01665D7F4F20E030E04C
:101E700046EA5CE0CF01CFCD109283071092840731
:101E8000109287071092890782E090E0A0E0B0E00E
:101E900080938A0790938B07A0938C07B0938D074C
:101EA0001092A1071092AB071092AA0781EC95E05F
:101EB0009093A9078093A8071092AD0708959FB744
:101EC000F89420917C0780917A07213019F48DBB1A
:101ED0009FBF08958FBF089520917C07222399F01A
:101EE0003FB7F89420917C07213059F42DB320930B
:101EF0007A074DB320917B07209524232DBB3FBF4C
:101F000002C030937A078CBD9DBD08958EBD000040
:101F10000DB407FEFDCF8EB508958FEFF7CF61E0CA
:101F2000FC0184810E942B278091C707882331F010
:101F30001092C70780917C078111C1CF0895CF937C
:101F4000DF93EC018091C707811108C081E0809385
:101F5000C7078091C8079091C907BEDF60E08C81F8
:101F6000DF91CF910C942B27CF93DF93EC018E81DF
:101F7000882379F08F8198859C012F5F3F4F3887A8
:101F80002F838230924010F4C8DFF4CFCE01C7DF38
:101F90001E82DF91CF910895673028F026E1FC0181
:101FA000258380E00895623081F030F4662359F093
:101FB0006130B1F480E515C0643059F040F065300F
:101FC00079F482E50EC080E505C081E503C081E5B6
:101FD00008C082E58093C80781E08093C90708950F
:101FE00083E58093C8071092C90781E008950F9395
:101FF0001F93CF93DF93EB010E94D6258B018DDFDA
:102000008F3F49F00E94D625601B710B6C177D072E
:10201000B0F380E001C081E0DF91CF911F910F917B
:102020000895CF92DF92FF920F931F93CF93DF9388
:1020300000D01F92CDB7DEB76C01F62E29833A830C
:102040004B835C8391DFC6017ADF6CE271E0C601ED
:10205000CEDF8F2D80645ADF08E110E05C814B8178
:102060003A812981DA01C901002E04C0B695A795ED
:10207000979587950A94D2F729833A834B835C839B
:1020800045DF0850110929813A814B815C81083F65
:102090008FEF180739F7FF2029F0E8E0FE1621F04E
:1020A0008FEF03C085E901C087E830DF10E035DF3E
:1020B000F601828787FF04C01F3F11F01F5FF7CF33
:1020C0000F900F900F900F90DF91CF911F910F9174
:1020D000FF90DF90CF900895BF92CF92DF92EF9262
:1020E000FF920F931F93CF93DF93EC01B62E1B86C5
:1020F00019861E821D824C830E94D6258B0161E0C9
:102100008C810E94F22661E08C810E942B27BBDA31
:1021100082E58093C8071092C9078091C807909103
:10212000C907DADE2AE0F22E8FEFF0DEFA94E1F74B
:1021300080917C078111C3DECE0101DF20E030E019
:10214000A90160E0CE016DDFF82E8A8781E0F816E4
:1021500049F00E94D625601B710B613D774070F3FA
:1021600081E046C02AEA31E040E050E068E0CE017C
:1021700058DF82FF02C0FB860CC094E0F92ECDDE52
:102180008A87FA94E1F78A3A11F082E031C082E05E
:102190008B878B85823031F4C12CD12CE12C80E4EB
:1021A000F82E03C0C12CD12C760120E030E0A9012B
:1021B00067E3CE0136DFA701960169E2CE0131DF88
:1021C0008A87882349F00E94D625601B710B613DE8
:1021D000774058F388E00CC08B85823001F520E011
:1021E00030E0A9016AE3CE011CDF882379F086E0A4
:1021F0008D83CE0194DE80E0DF91CF911F910F910E
:10220000FF90EF90DF90CF90BF90089586DE807CA6
:10221000803C11F483E08B8780DE7FDE7EDECE01A2
:102220007EDE6B2DCE01DF91CF911F910F91FF903C
:10223000EF90DF90CF90BF90AFCE0F931F93CF93CF
:10224000DF93EC010E94D6258B0167DE8A878F3FE2
:1022500049F40E94D625601B710B6D327140A8F3C2
:102260008FE003C08E3F31F08DE08D83CE0157DECD
:1022700080E001C081E0DF91CF911F910F9108951F
:10228000CF92DF92EF92FF920F931F93CF93DF9342
:10229000EC0169010115110509F45DC0C801820F47
:1022A000931F8130924008F058C08E81882371F0CE
:1022B00088819981AA81BB81481759076A077B07E2
:1022C00029F48F819885C816D90600F5488359836B
:1022D0006A837B838B85833039F039E0440F551F47
:1022E000661F771F3A95D1F79A01AB0161E1CE01E4
:1022F00098DE882319F083E08D832FC0CE019DDF07
:10230000882359F118861F8281E08E838F819885FA
:102310008C159D0538F401DE8F819885019698878C
:102320008F83F4CF6701E00EF11ECE14DF0429F095
:10233000F4DDF60181936F01F8CF8F819885800FCE
:10234000911F98878F832985222319F08115924048
:1023500010F0CE0109DE81E003C0CE01E0DD80E0B7
:10236000DF91CF911F910F91FF90EF90DF90CF9071
:102370000895EF92FF920F931F93790100E012E00E
:1023800020E030E07DDF1F910F91FF90EF900895E6
:10239000CF92DF92EF92FF920F931F93CF93DF9331
:1023A0001F921F92CDB7DEB78C01862F49835A83C7
:1023B000ADDD4981C42E5A81D52EE12CF12CF601D8
:1023C00081916F01A3DDFFEFEF1AFF0AE11482E0B4
:1023D000F806A9F78FEF9ADD8FEF98DD9EDDF80103
:1023E00082878F71853031F081E18583C80197DD67
:1023F00080E001C081E00F900F90DF91CF911F919D
:102400000F91FF90EF90DF90CF9008950F931F935F
:10241000CF93DF93EC0189014115510561057105E9
:1024200011F482E12DC08B85833039F089E0440FAF
:10243000551F661F771F8A95D1F79A01AB0168E196
:10244000CE01EFDD882311F084E01AC0A8016EEF01
:10245000CE019EDF8823A9F068E572E0CE01C7DDDA
:10246000811102C085E10CC020E030E0A9016DE0DF
:10247000CE01D7DD811103C050DD882331F084E126
:102480008D83CE014CDD80E003C0CE0148DD81E0CC
:10249000DF91CF911F910F91089580E58093C80738
:1024A0001092C9070895CF93DF93EC019C012A5F36
:1024B0003F4F41E050E060E070E08B8D9C8D0E94CA
:1024C0007F1B8823A1F04F89588D698D7A8D452B0C
:1024D000462B472B71F44E815F81688579854F8B40
:1024E000588F698F7A8F8C8180688C8302C080E0DE
:1024F00001C081E0DF91CF910895CF92DF92EF92FA
:10250000FF921F93CF93DF93EC01CDDF811102C0C7
:1025100080E04AC0EB8DFC8DCE80DF80E884F984BA
:1025200082E0C81AD108E108F108058404C0CC0C87
:10253000DD1CEE1CFF1C0A94D2F746855785608986
:102540007189C40ED51EE61EF71E148181E0C81ADB
:10255000D108E108F108112359F0C701B601610F54
:10256000711D811D911D19D7882391F21150F3CF50
:10257000EB8DFC8DC12C82E0D82EE12CF12C058452
:1025800004C0CC0CDD1CEE1CFF1C0A94D2F74B8956
:102590005C896D897E894C0D5D1D6E1D7F1D4B8B89
:1025A0005C8B6D8B7E8B81E0DF91CF911F91FF90D3
:1025B000EF90DF90CF900895CF93DF93EC01462FFB
:1025C0006E857F8588899989AFD6882341F08A896D
:1025D00020E2829FC00111248D52984F02C080E0FA
:1025E00090E0DF91CF910895282FFB018BE030E23E
:1025F00031938150E9F7A22FB92F20E037E09D9168
:10260000992319F19E3219F0E8EBF1E008C03A3055
:1026100011F128E03AE0F3CF31964917E1F0449107
:102620004111FACF3217B8F04FED490F4E3598F4FB
:1026300041E0420FFB01E20FF11D2FE9290F2A3182
:1026400008F490529083242FDACF81E0FB0190812F
:10265000903209F480E008950F931F93CF93DF9396
:10266000EC018B018D81882311F080E03FC0FB01DC
:1026700087898031B1F482E08D831F8A188E198E8C
:102680001A8E408D518D60E070E095E0440F551F2B
:10269000661F771F9A95D1F74B8B5C8B6D8B7E8B6A
:1026A00014C0803211F783E08D83FB01428D538D7E
:1026B000648D758D4F8B588F698F7A8F9E012D5E3B
:1026C0003F4FC80112D7882381F21C8F0B8F81E006
:1026D0008C831E821F82188619861A861B861C868A
:1026E0001D861E861F86188A198A1A8ADF91CF9145
:1026F0001F910F9108952F923F924F925F926F9288
:102700007F928F929F92AF92BF92CF92DF92EF9281
:10271000FF920F931F93CF93DF93EC016B015A014C
:102720008D81811103C08FEF9FEFD7C08C8180FF17
:10273000FACF4B895C896D897E898A859B85AC85BA
:10274000BD852501612C712C8A019B01081B190B89
:102750002A0B3B0B041515052605370518F45A01FD
:10276000A81AB90A25011E0126E0220E311C4114C7
:10277000510409F47AC04A855B856C857D854A01E0
:1027800081E09822ED818A019B01F9E03695279539
:1027900017950795FA95D1F78B8D9C8DE23051F402
:1027A000FC01628D738D848D958D600F711F821F6A
:1027B000931F3DC0FC0174807A94702281149104AF
:1027C000C1F4711016C0452B462B472B49F48F8955
:1027D000988DA98DBA8D8E839F83A887B98709C0EC
:1027E0004E815F81688579859101FCD5882309F444
:1027F0009ACFEB8DFC8D6E817F81888599856250A3
:10280000710981099109058404C0660F771F881F2B
:10281000991F0A94D2F70685178520893189600FA0
:10282000711F821F931F670D711D811D911D20E077
:1028300032E02819390932012415350508F4390127
:102840002C8126FD04C06114F2E07F0699F5009109
:102850001602109117022091180230911902601788
:1028600071078207930719F425C0C50136C07601A8
:1028700083019401AB01BC018091D1079091D207F3
:10288000FFDC882309F44FCFC60CD71C04C0E81B1B
:10289000F90BCE0EDF1E8A859B85AC85BD85860D26
:1028A000971DA11DB11D8A879B87AC87BD874618E0
:1028B00057085DCF40E038D5882309F434CFC401F0
:1028C0008D52984FD6019C01260D371DFC01E21751
:1028D000F307E9F241914D93FACFDF91CF911F9128
:1028E0000F91FF90EF90DF90CF90BF90AF909F90AF
:1028F0008F907F906F905F904F903F902F900895B2
:10290000FF920F931F93CF93DF931F92CDB7DEB744
:102910008C01FC018581823018F480E090E033C0A6
:10292000F8014285538564857585A5E076956795A0
:1029300057954795AA95D1F7F42FFF70FF2E41E0E8
:1029400050E0BE016F5F7F4FC801D5DE019719F4DB
:10295000298130E002C02FEF3FEF2F3F3F4FE9F2D8
:10296000F8014285538564857585415E5F4F6F4FE1
:102970007F4F4287538764877587F0E2FF9EC001CF
:1029800011248D52984F0F90DF91CF911F910F918D
:10299000FF9008954F925F926F927F92AF92BF9295
:1029A000CF92DF92EF92FF920F931F93CF93DF931B
:1029B000EC016A017B012D81222309F456C08B8929
:1029C0009C89AD89BE8984179507A607B70708F4C7
:1029D0004CC04DC08A859B85AC85BD85EB8DFC8D3B
:1029E000E585F0E03996AC01BD014150510961091E
:1029F00071090E2E04C076956795579547950A94F0
:102A0000D2F797018601015011092109310904C04B
:102A10003695279517950795EA95D2F70417150768
:102A200026073707A8F58F89988DA98DBA8D8E83D3
:102A30009F83A887B987280139015E0186E0A80E27
:102A4000B11C411451046104710459F14E815F813C
:102A50006885798595018B8D9C8DC4D491E0491A48
:102A60005108610871088111ECCF80E01FC022304D
:102A7000C1F0C114D104E104F10409F0ABCF1E820E
:102A80001F82188619861A861B861C861D860DC015
:102A9000892B8A2B8B2B39F2041B150B260B370B3A
:102AA000CACFCA86DB86EC86FD8681E0DF91CF91B6
:102AB0001F910F91FF90EF90DF90CF90BF90AF905C
:102AC0007F906F905F904F9008950F931F93CF93D7
:102AD000DF93EC018D818823B9F18C8187FF2FC0B2
:102AE00061E0CE0169DD8C01009771F18D8182304A
:102AF00048F44B895C896D897E89F801448F558F34
:102B0000668F778F4F89588D698D7A8DF801538F35
:102B1000428F758B648BE091CA07F091CB07309799
:102B200059F0B8016A5E7F4FC80148961995F801BF
:102B3000808D918D938B828B8C818F778C83DF91AD
:102B4000CF911F910F91B7C380E0DF91CF911F917B
:102B50000F910895CF93DF93EC01B7DF882319F02D
:102B60001D8281E001C080E0DF91CF9108954F92F6
:102B70005F926F927F92AF92BF92CF92DF92EF926D
:102B8000FF920F931F93CF93DF9300D01F92CDB787
:102B9000DEB75C016A017B01FC0185818130E9F4CB
:102BA000848181FF1AC0F50183899489A589B6893A
:102BB00084179507A607B70780F0892B8A2B8B2BE4
:102BC00009F472C0F5014284538464847584B701AA
:102BD000A601C501DFDE811102C080E066C0F501FB
:102BE000838D948DC114D104E104F10469F4478903
:102BF000508D618D728D94D6882379F3F501178AF3
:102C0000108E118E128E37C0F50146815781608576
:102C100071859E012F5F3F4FE5D38823F1F24981F3
:102C20005A816B817C81F501838D948DFC0127890C
:102C3000203129F408EF1FEF20E030E004C008EF56
:102C40001FEF2FEF3FE0401751076207730798F41B
:102C500067D6882309F4C1CFF50146815781608585
:102C600071850FEF1FEF2FEF3FE0838D948DA7D479
:102C7000882309F4B2CFF501C38AD48AE58AF68A9B
:102C8000848180688483C50120DF882309F4A5CF6F
:102C9000B701A6014C145D046E047F0410F4B30167
:102CA000A201C50177DE01C081E00F900F900F9067
:102CB0000F90DF91CF911F910F91FF90EF90DF90D8
:102CC000CF90BF90AF907F906F905F904F9008959E
:102CD000FF920F931F93CF93DF93EC01F42E80E2CA
:102CE000689FF0011124ED52F84F8385817129F01E
:102CF000842F827411F080E051C06A8B809116029B
:102D000090911702A0911802B09119028E879F87A7
:102D1000A88BB98B4489558960E070E0BA015527CA
:102D20004427028D138D20E030E0402B512B622B85
:102D3000732B4F8B588F698F7A8F8385887151F4ED
:102D4000048D158D268D378D0B8B1C8B2D8B3E8B1B
:102D500081E00BC0803179F69E012D5E3F4F8B8D57
:102D60009C8DC3D3882339F284E08D838F2D8F709F
:102D70008C831E821F82188619861A861B861C86E3
:102D80001D86F6FE0AC040E050E0BA01CE01DF9198
:102D9000CF911F910F91FF90EACE81E0DF91CF910B
:102DA0001F910F91FF900895AF92BF92CF92DF9243
:102DB000EF92FF920F931F93CF93DF93CDB7DEB7C0
:102DC0002B970FB6F894DEBF0FBECDBF7C016B0111
:102DD000CA01B22EF70125812111B3C0BE016F5F78
:102DE0007F4F02DC882309F4ACC0F601838D948DFB
:102DF000F701948F838FF601168217821086118651
:102E00001286138614861586A12CF6010285138579
:102E10002485358583899489A589B689081719077A
:102E20002A073B07E0F545E0369527951795079566
:102E30004A95D1F70F70C60163DD009709F481C090
:102E4000FC012081222311F0253EB9F4A1100EC00F
:102E5000F701028B409116025091170260911802FF
:102E60007091190246875787608B718BFC018081B6
:102E7000AA24A3948111C9CF12C04BE050E0BC0139
:102E8000CE0101960E94DC33892B09F0BECF8B2D39
:102E90008073803309F455C04B2D602F4FC08B2DAC
:102EA0008271823109F04DC0AA2039F061E0C7017A
:102EB00083DB8C01009771F444C0F6018581823078
:102EC00009F43FC0C60119DB8823D9F1F701128A42
:102ED00003ED17E080E2F80111928A95E9F78BE0A3
:102EE000FE013196D80101900D928A95E1F7E091AB
:102EF000CA07F091CB07309739F0B801625F7F4F76
:102F0000C8014096199509C081E298E2F801918BB9
:102F1000808B80E098E097878687F8018089918987
:102F2000938B828B918F808F86859785978B868BED
:102F3000C2D1882331F04B2DF7016289C701C8DE69
:102F400001C080E02B960FB6F894DEBF0FBECDBF58
:102F5000DF91CF911F910F91FF90EF90DF90CF9075
:102F6000BF90AF9008952F923F924F925F926F92D1
:102F70007F928F929F92AF92BF92CF92DF92EF9209
:102F8000FF920F931F93CF93DF9300D01F921F9256
:102F9000CDB7DEB78C017B013A01DC0115968C912F
:102FA00015978130C1F414968C9181FF14C082FF73
:102FB0001AC0F80143895489658976898285938589
:102FC000A485B58584179507A607B70761F0C801E2
:102FD000E1DC811108C081E090E0F80193838283F5
:102FE00080E090E040C163017FC0D8015B968D9185
:102FF0009C915C97FC01F481F150B501A40129E09A
:1030000076956795579547952A95D1F7F423FD83D3
:1030100021E09222FF2309F473C080E092E0881936
:10302000990956018C159D0508F45C01D8015B9641
:10303000ED91FC915C9716962D903D904D905C9093
:103040001997B2E02B1A310841085108058404C0D1
:10305000220C331C441C551C0A94D2F78685978594
:10306000A089B189280E391E4A1E5B1EED812E0EE5
:10307000311C411C511CA114F2E0BF0609F085C0AF
:103080008091160290911702A0911802B091190236
:1030900082159305A405B50559F48FEF9FEFDC0168
:1030A0008093160290931702A0931802B09319020E
:1030B0009701B201A1018091D1079091D207A6D9C1
:1030C000882309F488CF9EEFF91ACA18DB08F801A3
:1030D00082859385A485B5858A0D9B1DA11DB11D93
:1030E00082879387A487B587D8011A968D909D9083
:1030F000AD90BC901D97C114D10409F076CF86C065
:103100008114910409F089CF16964D915D916D91CE
:103110007C911997411551056105710559F4579630
:103120008D919D910D90BC91A02D0097A105B105A9
:1031300031F520C09E012F5F3F4F54D1882309F401
:1031400050CF89819A81AB81BC81F801238D348D68
:10315000F9012789203129F448EF5FEF60E070E042
:1031600004C048EF5FEF6FEF7FE084179507A60775
:10317000B70728F0C80197D981114FCF2CCFF8019C
:1031800086839783A087B18748CF8114910421F566
:10319000D8011A964D915D916D917C911D97539632
:1031A0008D919D910D90BC91A02D481759076A07EC
:1031B0007B0790F080D0882309F40DCF209216026F
:1031C0003092170240921802509219028091D00753
:1031D00081608093D00707C041E0C201B101A4D053
:1031E000882309F4F8CEC4018D52984FD7019C0171
:1031F0002A0D3B1DFC01E217F30719F04D91419395
:10320000FACFE81BF90BEE0EFF1E5FCF53968D91A0
:103210009D910D90BC91A02DF801248188159905F0
:10322000AA05BB0538F4838A948AA58AB68A2068E1
:1032300024830CC08091CA079091CB07892B31F071
:103240006114710419F02068F8012483D8011496E0
:103250008C9183FD02C0C30106C0C80136DC8823FF
:1032600009F4B9CEF8CF0F900F900F900F900F90F8
:10327000DF91CF911F910F91FF90EF90DF90CF9052
:10328000BF90AF909F908F907F906F905F904F9086
:103290003F902F900895CF93DF931F92CDB7DEB765
:1032A000698341E050E0BE016F5F7F4F5CDE0F90AD
:1032B000DF91CF9108958091D007882389F14091C3
:1032C000160250911702609118027091190223EDB5
:1032D00037E08091D1079091D20798D8882311F1D7
:1032E0004091CC075091CD076091CE077091CF07E8
:1032F000411551056105710589F023ED37E0809195
:10330000D1079091D20782D8882361F01092CC0720
:103310001092CD071092CE071092CF071092D007CF
:1033200081E0089580E00895CF92DF92EF92FF92BE
:10333000CF936B017C01C42F8091160290911702EC
:10334000A0911802B09119028C159D05AE05BF051C
:10335000C1F0B1DF811102C080E019C023ED37E078
:10336000B701A6018091D1079091D20702D8882396
:1033700099F3C0921602D0921702E0921802F092CE
:1033800019028091D0078C2B8093D00781E0CF91D8
:10339000FF90EF90DF90CF900895CF92DF92EF9261
:1033A000FF926B017C0187DF8823B1F0E3EDF7E04A
:1033B000119289E0E33DF807D9F7C0921602D09246
:1033C0001702E0921802F09219028091D0078160F2
:1033D0008093D00781E001C080E0FF90EF90DF9004
:1033E000CF9008958F929F92AF92BF92CF92DF922B
:1033F000EF92FF920F931F93CF93DF938C016A019B
:103400007B01E901FC0181859285A385B485019644
:10341000A11DB11D84179507A607B70710F480E01A
:1034200057C0F80143895489658976898789803135
:1034300029F4BB27AF2D9E2D8D2D09C0D701C601C4
:1034400027E0B695A795979587952A95D1F74C01D2
:103450005D01840E951EA61EB71EC501B4018090A5
:10346000160290901702A0901802B09019026815E9
:1034700079058A059B0589F4F8018789803191F4E3
:10348000DD24EE24FF24F601EE0FFF1FED52F84F6E
:1034900080819181A0E0B0E016C040E045DF81115D
:1034A000EBCFBDCFE894C7F8DD24EE24FF24F6016E
:1034B000EE0FFF1FEE0FFF1FED52F84F808191813D
:1034C000A281B381BF7088839983AA83BB8381E083
:1034D000DF91CF911F910F91FF90EF90DF90CF90F0
:1034E000BF90AF909F908F9008954F925F926F9290
:1034F0007F92AF92BF92CF92DF92EF92FF920F93A3
:103500001F93CF93DF9300D01F92CDB7DEB78C010E
:1035100049835A836B837C835901C12CD12C76015A
:10352000412C42E0542E612C712C49815A816B81CF
:103530007C819E012F5F3F4FC80154DF882359F1E2
:10354000D301C201F801058404C0880F991FAA1F86
:10355000BB1F0A94D2F7C80ED91EEA1EFB1E498172
:103560005A816B817C818789803129F488EF9FEFB4
:10357000A0E0B0E004C088EF9FEFAFEFBFE04817D6
:1035800059076A077B0788F2F501C082D182E2827F
:10359000F38281E001C080E00F900F900F900F90B8
:1035A000DF91CF911F910F91FF90EF90DF90CF901F
:1035B000BF90AF907F906F905F904F9008954F9223
:1035C0005F926F927F928F929F92AF92BF92CF92B3
:1035D000DF92EF92FF920F931F93CF93DF93EC0153
:1035E0006A017B01280139014230510561057105ED
:1035F00008F473C049855A856B857C854F5F5F4FA2
:103600006F4F7F4F4C155D056E057F0508F465C053
:103610008B889C88AD88BE888F89803129F4772774
:103620006F2D5E2D4D2D09C0B701A601E7E07695FF
:10363000679557954795EA95D1F7840E951EA61E76
:10364000B71E4091160250911702609118027091B6
:10365000190284169506A606B70671F48F89803183
:1036600091F4DD24EE24FF24F601EE0FFF1FED524E
:10367000F84F5182408217C040E0C501B40154DECA
:103680008111ECCF2AC0E894C7F8DD24EE24FF2492
:10369000F601EE0FFF1FEE0FFF1FED52F84F4082B5
:1036A0005182628273828091D00781608093D007BB
:1036B0008A89823080F08D819E81AF81B885880DA6
:1036C000991DAA1DBB1D8093CC079093CD07A09395
:1036D000CE07B093CF0781E001C080E0DF91CF91AA
:1036E0001F910F91FF90EF90DF90CF90BF90AF9020
:1036F0009F908F907F906F905F904F9008952F9242
:103700003F924F925F926F927F929F92AF92BF9241
:10371000CF92DF92EF92FF920F931F93CF93DF939D
:10372000CDB7DEB760970FB6F894DEBF0FBECDBF42
:103730005C014D875E876F87788B1901D9014D90A9
:103740005D906D907C90411451046104710431F0DE
:10375000BFEF4B1A5B0A6B0A7B0A10C0FC0140806A
:10376000518062807380992493940D851E852F85E6
:103770003889013011052105310509F0912CD50159
:1037800019962D913D914D915C911C972F5F3F4F64
:103790004F4F5F4F29873A874B875C8773016201E0
:1037A0001D821E821F821886F50181859285A38560
:1037B000B4850D811E812F813885081719072A07C6
:1037C0003B0708F054C029853A854B855C852C154C
:1037D0003D054E055F0550F4A2E0CA2ED12CE12C28
:1037E000F12CB2E04B2E512C612C712C9E012F5FDD
:1037F0003F4FB701A601C501F5DD8823C1F149811D
:103800005A816B817C81D701C6010196A11DB11D32
:10381000452B462B472B19F02C013D010FC0AC0165
:10382000BD0144195509660977090D851E852F8547
:103830003889401751076207730779F02D813E815F
:103840004F8158852F5F3F4F4F4F5F4F2D833E83F2
:103850004F8358876C017D01A7CF0FEF1FEF2FEF2C
:103860003FE0B701A601C501AADE811117C080E0C3
:103870003FC0D701C6010197A109B1098D839E837D
:10388000AF83B88797018601AC01BD01C50197DE02
:10389000882369F3CD80DE80EF80F8844C145D04CA
:1038A0006E047F0430F3D1014D915D916D917C9157
:1038B000411551056105710599F4F101408251826C
:1038C00062827382992099F0FFEF4F1A5F0A6F0AA4
:1038D0007F0AD5014D925D926D927C92139707C03D
:1038E00093018201C5016BDE8111E7CFC0CF81E07A
:1038F00060960FB6F894DEBF0FBECDBFDF91CF91BB
:103900001F910F91FF90EF90DF90CF90BF90AF90FD
:103910009F907F906F905F904F903F902F90089571
:10392000AF92BF92CF92DF92EF92FF920F931F93CD
:10393000CF93DF9300D01F92CDB7DEB75C016A0151
:103940007B0182E090E0A0E0B0E0F501808391830C
:10395000A283B3839E012F5F3F4FB701A601C5012C
:1039600041DD882309F100E010E09801B701A601CC
:10397000C50125DE8823C1F0C980DA80EB80FC8098
:10398000F5018789803129F488EF9FEFA0E0B0E04E
:1039900004C088EF9FEFAFEFBFE0C816D906EA0674
:1039A000FB06C0F281E001C080E00F900F900F9005
:1039B0000F90DF91CF911F910F91FF90EF90DF90CB
:1039C000CF90BF90AF9008958F929F92AF92BF9289
:1039D000CF92DF92EF92FF920F931F93CF93DF93DB
:1039E000EC01142F7093D2076093D107442339F16F
:1039F000453010F080E0EDC040E060E070E0CB01C9
:103A000093DC8823B9F320E1129FF0011124EF57D2
:103A1000F64F80818F7771F784859585A685B78568
:103A200084369105A105B10528F3C084D184E284D0
:103A3000F384C114D104E104F10421F4DBCFC12CDF
:103A4000D12C760140E0C701B6016EDC882391F2EB
:103A50008091DE079091DF078115924059F63091F1
:103A6000E307332339F28091E1079091E207892B34
:103A700009F4C0CF2091E007222309F4BBCF3A8B91
:103A80002C831D8630E041E050E06D85062FCA0191
:103A9000062E02C0880F991F0A94E2F728173907EB
:103AA00031F081E0860F8D87683078F3A3CF2091C5
:103AB000E9073091EA072115310519F040E050E09F
:103AC00008C02091F7073091F8074091F90750910D
:103AD000FA072D833E834F8358878091E1079091A9
:103AE000E20746015701880E991EA11CB11C8B8A62
:103AF0009C8AAD8ABE8AE091E407F091E507F98FD0
:103B0000E88FA091E307B0E00E94AE31680D791D07
:103B10008A1D9B1D6A8F7B8F8C8F9D8F15E0EE0F0A
:103B2000FF1F1A95E1F7E150FE4FEF2FFF27E695B3
:103B3000DC01CB018E0F9F1FA11DB11D8E879F87BA
:103B4000A88BB98B8090E6079090E70781149104C9
:103B500019F0A12CB12C08C08090F3079090F407C5
:103B6000A090F507B090F607A7019601281B390B26
:103B70004A0B5B0BDA01C901880D991DAA1DBB1DFB
:103B800004C0B695A795979587950A95D2F789872A
:103B90009A87AB87BC87853F3FE09307A105B105B6
:103BA00010F48CE014C0853F9F4FA105B10510F4BF
:103BB00080E10DC08091FF0790910008A09101085D
:103BC000B09102088A8F9B8FAC8FBD8F80E28F8B64
:103BD00081E0DF91CF911F910F91FF90EF90DF90E7
:103BE000CF90BF90AF909F908F90089523E5FC01F8
:103BF00020830895CF93DF93EC0120911A02309136
:103C00001B02AC014F5F5F4F60E088814BD7898119
:103C1000DF91CF910895EEDF91E0853E09F090E0CD
:103C2000892F0895262F44E06DE2FC01808143C76F
:103C3000262F43E06DE2FC0180813DC7CF93DF93E7
:103C4000EC0140E06DE2888175D661E0CE01EADFEB
:103C500061E0CE01DF91CF91EBCFAF92BF92CF92D7
:103C6000DF92EF92FF920F931F93CF93DF93EC01BC
:103C70007B015A01690100911A0210911B029C01FB
:103C80002F5F3F4F46E062E3888163D68A8190E0F0
:103C9000982F88272981822BF701918380838C813B
:103CA00090E0982F88272B81822BF50191838083C8
:103CB0008E8190E0982F88272D81822BF6019183A9
:103CC0008083DF91CF911F910F91FF90EF90DF9054
:103CD000CF90BF90AF9008951F93CF93DF931F9223
:103CE000CDB7DEB7162F69E670E08AEB96E0498320
:103CF0000E94B608612F8AEB96E00E946508498110
:103D0000642F8AEB96E00E9465088AEB96E00F909C
:103D1000DF91CF911F910C942A09CF93C62F69E6AA
:103D200070E08AEB96E00E94B6086C2F8AEB96E072
:103D30000E9465088AEB96E00E942A0969E670E015
:103D40008AEB96E00E94B60841E050E069E670E038
:103D50008AEB96E00E9428098AEB96E00E941608FA
:103D6000C82F8AEB96E00E942A098C2FCF910895E4
:103D7000EF92FF920F931F93CF93DF93EC018B0190
:103D80007A01188E198E1A8E1B8E1C8E1D8E1E8E19
:103D90001F8E18A219A21AA21BA218AA1CA21DA249
:103DA0001EA21FA218A619A61AA61BA61CA61DA60F
:103DB0001EA61FA619AA1AAA1BAA1CAA8AEB96E07D
:103DC0000E94A3086FE0CE01A8DF833D09F03CC04C
:103DD000A70184E0440F551F8A95E1F74F6060E228
:103DE000CE017ADF40E061E2CE0176DF48E062E2B8
:103DF000CE0172DF402F4295407F63E2CE016CDF3F
:103E00000130110571F00230110581F0012BB1F480
:103E100089E29CE5AFE0BCE38DAB9EABAFABB8AF46
:103E20000DC049E25CE56FE87CE304C049E25CE573
:103E30006FE87DE34DAB5EAB6FAB78AF40E064E223
:103E4000CE014ADF81E001C080E0DF91CF911F9178
:103E50000F91FF90EF9008954F925F926F927F9233
:103E60008F929F92AF92BF92CF92DF92EF92FF928A
:103E70000F931F93CF93DF938C01EB0169E670E002
:103E80008AEB96E00E94B608E091BA06F091BB0674
:103E90000190F081E02D68EA8AEB96E019958AEBB3
:103EA00096E00E942A0946E050E069E670E08AEB5D
:103EB00096E00E9428098AEB96E00E940E08069779
:103EC000D4F38AEB96E00E941608582E8AEB96E00F
:103ED0000E941608482E8AEB96E00E941608782E5B
:103EE0008AEB96E00E941608682E8AEB96E00E9404
:103EF0001608B82E8AEB96E00E941608A82E942C7D
:103F0000812C8528B401882777FD8095982F0E9401
:103F1000D82E688379838A839B83D62CC12CC728AB
:103F2000B601882777FD8095982F0E94D82E6C8344
:103F30007D838E839F83FA2CE12CEB28B7018827A1
:103F400077FD8095982F0E94D82E688779878A8779
:103F50009B878CE0FE01D80101900D928A95E1F7D4
:103F6000C801DF91CF911F910F91FF90EF90DF90EB
:103F7000CF90BF90AF909F908F907F906F905F9009
:103F80004F900895AF92BF92CF92DF92EF92FF923F
:103F90000F931F93CF93DF93CDB7DEB72C970FB658
:103FA000F894DEBF0FBECDBF5C018B01CE01019640
:103FB00053DFF80180A9C5A8D6A8E7A8F0AC8823EC
:103FC00099F1208D318D428D538D60817181828177
:103FD00093810E94722DA70196010E94B82FF801CB
:103FE0006487758786879787248D358D468D578D95
:103FF00064817581868197810E94722DA701960147
:104000000E94B82FF801608B718B828B938B20A15B
:1040100031A142A153A160857185828593850E945B
:10402000722DA701960121C0A7019601F8016081B8
:104030007181828193810E94B82FF801648775870E
:1040400086879787A701960164817581868197810C
:104050000E94B82FF801608B718B828B938BA70124
:10406000960160857185828593850E94B82FF8013D
:10407000648B758B868B978B20E030E0A901F8016B
:1040800061A972A983A994A90E94AD2F18160CF0FA
:1040900066C0F801C484D584E684F78420E030E06B
:1040A000A901C701B6010E94AD2F181624F0C7015F
:1040B000B601905802C0C701B601F80124A135A18C
:1040C00046A157A10E94392E87FF05C0F80114862A
:1040D000158616861786F801C088D188E288F3888D
:1040E00020E030E0A901C701B6010E94AD2F1816EB
:1040F00024F0C701B601905802C0C701B601F8010B
:1041000020A531A542A553A50E94392E87FF05C0E1
:10411000F801108A118A128A138AF801C488D58896
:10412000E688F78820E030E0A901C701B6010E94C7
:10413000AD2F181624F0C701B601905802C0C70170
:10414000B601F80124A535A546A557A50E94392E2C
:1041500087FF05C0F801148A158A168A178A8CE031
:10416000F8013C96D50101900D928A95E1F7C501C1
:104170002C960FB6F894DEBF0FBECDBFDF91CF9166
:104180001F910F91FF90EF90DF90CF90BF90AF9075
:10419000089527E7FC012083089520911A023091A9
:1041A0001B02AC014F5F5F4F6AEAFC0180817AD449
:1041B00091E0813009F090E0892F0895EF92FF920D
:1041C0000F931F93CF93DF93CDB7DEB766970FB6EC
:1041D000F894DEBF0FBECDBF7C0100911A02109192
:1041E0001B029E012F5F3F4F46E16AEAFC0180817E
:1041F000B0D3898190E0982F88272A81820F911D62
:10420000F701968385838B8190E0982F88272C81F6
:10421000820F911D908787838D8190E0982F88274A
:104220002E81820F911D928781878F8190E0982F38
:1042300088272885820F911D968B858B898590E034
:10424000982F88272A85820F911D908F878B8B85C9
:1042500090E0982F88272C85820F911D928F818F57
:104260008D8590E0982F88272E85820F911D948749
:1042700083878F8590E0982F88272889820F911D4A
:1042800096878587898990E0982F88272A89820FC9
:10429000911D908B87878B8990E0982F88272C8998
:1042A000820F911D928B818B8D8990E0982F8827AA
:1042B0002E89820F911D948B838B81E08483669677
:1042C0000FB6F894DEBF0FBECDBFDF91CF911F9127
:1042D0000F91FF90EF90089571CF1F93CF93DF93CD
:1042E000EC01162F462F64EF888124D31F8FDF91B6
:1042F000CF911F9108950F931F93CF93DF93EC01FC
:1043000000911A0210911B029C012F5F3F4F42E067
:1043100066EF88811ED3898190E0982F88272A81B3
:10432000820F911DDF91CF911F910F9108950F93EF
:104330001F93CF93DF93EC0100911A0210911B029F
:104340009C012F5F3F4F43E066EF888102D3698174
:10435000862F90E0A0E0B0E0772766272B81620FE0
:10436000711D811D911D2A8130E0322F2227620F9D
:10437000731F811D911DDF91CF911F910F910895A2
:10438000FC01878D8E3259F0843349F0843751F027
:10439000843B59F0843F61F48CE993E6089584E905
:1043A00091E108958CE49DE108958CEB94E30895E8
:1043B00080E090E00895FC01278D2E3209F49BCF18
:1043C00080E090E00895CF92DF92EF92FF92CF933A
:1043D000DF93EC01F0DF9C0140E050E0898D9A8D85
:1043E000281B390B41095109AF89B88D0E94AE31A4
:1043F0006B017C016FE0F594E794D794C7946A95BC
:10440000D1F769897A89882777FD8095982FEBE025
:10441000660F771F881F991FEA95D1F72B893C8972
:10442000442737FD4095542F2C0D3D1D4E1D5F1D1B
:104430000E948C312C0D3D1D4E1D5F1D2B8F3C8F1E
:104440004D8F5E8FCA01B901685F7F4F8F4F9F4FBD
:10445000F4E09595879577956795FA95D1F70E9441
:10446000D82E20E030E040E251E40E943D2EDF9162
:10447000CF91FF90EF90DF90CF900895CF93DF938F
:10448000EC018F8D847399F0CE0151DF4F8D4295F1
:1044900046954695437028E030E0241B310904C05E
:1044A00096958795779567952A95D2F703C060E032
:1044B00070E0CB01DF91CF9108952F923F924F9200
:1044C0005F926F927F928F929F92AF92BF92CF92A4
:1044D000DF92EF92FF920F931F93CF93DF93CDB7AD
:1044E000DEB729970FB6F894DEBF0FBECDBF1C0113
:1044F000C5DF6D837E838F839887D1015B96CD90D6
:10450000DD90ED90FC905E97B0EACB1ABFE0DB0A3D
:10451000E108F108A7019601C701B6010E945B31CD
:104520004B015C016CE0B594A794979487946A95CD
:10453000D1F7F10105811681F78DF295F695F69583
:10454000F370F987F101A185B2850E94B8312B0182
:104550003C017DE075946794579447947A95D1F720
:10456000A385B485A50194010E94B831BB2797FDAE
:10457000B095AB2F480E591E6A1E7B1EF2E04F0EFF
:10458000511C611C711CF2E0759467945794479418
:10459000FA95D1F780E8580E611C711CF101A589CC
:1045A000B689A30192010E94AE31DC01CB012FE05C
:1045B000B695A795979587952A95D1F789839A837C
:1045C000AB83BC832801662457FC6094762C32E0D0
:1045D000440C551C661C771C3A95D1F7A585B68509
:1045E000A50194010E94B8314B015C014BE0B594E8
:1045F000A794979487944A95D1F7A781B085A7018E
:1046000096010E94B8315BE09595879577956795FF
:104610005A95D1F7860E971EA81EB91E480C591C34
:104620006A1C7B1C098404C0440C551C661C771C46
:104630000A94D2F792E0490E511C611C711C62E091
:1046400075946794579447946A95D1F78D819E81AC
:10465000AF81B88584199509A609B7098D839E8312
:10466000AF83B88760E573EC80E090E0098404C014
:1046700096958795779567950A94D2F72D813E8117
:104680004F8158850E945B3197FD0DC0660F771FE3
:10469000881F991F29813A814B815C810E946A3170
:1046A00049015A010CC029813A814B815C810E94E9
:1046B0006A3149015A01880C991CAA1CBB1C992714
:1046C000B7FC9A958B2D7A2D692D9B01AC010E9428
:1046D0005B319B01AC01AEEDBBE00E94AE316C01E1
:1046E000FF24D7FCF094EF2CA3E4B3EEA5019401D2
:1046F0000E94BA31BB2797FDB095AB2FC80ED91ECB
:10470000EA1EFB1E9FECC90E9EE0D91EE11CF11CA7
:1047100004E0F594E794D794C7940A95D1F7C80CB0
:10472000D91CEA1CFB1CC701B6010E94D82E299691
:104730000FB6F894DEBF0FBECDBFDF91CF911F91B2
:104740000F91FF90EF90DF90CF90BF90AF909F9030
:104750008F907F906F905F904F903F902F90089533
:104760000F931F93CB01BA01A90198010E943D2E1E
:1047700021E03EED42E45EE30E941B309B01AC0170
:1047800060E070E080E89FE30E94722D20E03AE252
:104790004DE257E40E94B82F1F910F9108952EE12A
:1047A000FC01208308950F931F93CF93DF93EC01B7
:1047B00000911A0210911B029C012F5F3F4F43E0B2
:1047C0006AE08881C6D0833051F48981883439F415
:1047D0008A81843321F481E09B81933309F080E066
:1047E000DF91CF911F910F910895462F4295440F6D
:1047F000407E61E0FC0180819DC01F93CF93DF93D9
:10480000EC01162F462F62E0888194D01F83DF9140
:10481000CF911F910895CF93DF93EC0140E760E0C3
:10482000888188D061E0CE01E0DF61E0CE01DF91D8
:10483000CF91E3CFAF92BF92CF92DF92EF92FF92F0
:104840000F931F93CF93DF93EC017B015A01690112
:1048500000911A0210911B029C012F5F3F4F46E00E
:1048600063E0888176D08F81813021F441E062E07D
:10487000888160D0898190E0982F88272A81822BB7
:10488000F701918380838D8190E0982F88272E8176
:10489000822BF501918380838B8190E0982F88276C
:1048A0002C81822BF60191838083DF91CF911F9120
:1048B0000F91FF90EF90DF90CF90BF90AF90089551
:1048C000EF92FF920F931F93CF93DF931F921F924C
:1048D000CDB7DEB7062F142F682F8AEB96E0298319
:1048E0003A830E94AC08602F8AEB96E00E9465082C
:1048F0002981022FE22E3A81F32E8E2D801B811703
:1049000040F4F70161917F018AEB96E00E9465080F
:10491000F4CF8AEB96E00E942A0991E0811190E0A1
:10492000892F0F900F90DF91CF911F910F91FF90E2
:10493000EF900895CF93DF931F92CDB7DEB74983F1
:104940009E012F5F3F4F41E0BBDF0F90DF91CF9182
:1049500008953F924F925F926F927F928F929F92B3
:10496000AF92BF92CF92DF92EF92FF920F931F937D
:10497000CF93DF9300D000D0CDB7DEB7682E562E90
:10498000742E3A83298312D16B017C01312C412C86
:10499000872D90E09C838B834801A12CB12C371488
:1049A000A8F5662D8AEB96E00E94AC08652D8AEB8F
:1049B00096E00E9465088AEB96E00E942A09662D1F
:1049C0008AEB96E00E94AC084B815C814319510947
:1049D0004132510514F040E250E0662D8AEB96E03A
:1049E0000E9426098AEB96E00E940E08892B49F165
:1049F0000115110569F1DAD06C197D098E099F093D
:104A0000681579058A059B0518F11BC0011511056C
:104A100081F1CCD06C197D098E099F0920E030E02E
:104A2000601771078207930720F1872D90E0242DEE
:104A3000332727FD309528173907DCF444244A949E
:104A400018C0872D90E2971508F480E2380EA7CFA2
:104A5000E981FA81E40DF11D47FCFA95FE83ED83AF
:104A60008AEB96E00E941608ED81FE8180834394D4
:104A7000B9CF842D26960FB6F894DEBF0FBECDBFFA
:104A8000DF91CF911F910F91FF90EF90DF90CF902A
:104A9000BF90AF909F908F907F906F905F904F905E
:104AA0003F9008950F931F9389019A0141E051DFD0
:104AB0001F910F910895EF92FF920F931F93CF9341
:104AC000DF931F92CDB7DEB7182F062FF42EE22EFC
:104AD00020911A0230911B02AE014F5F5F4FE2DF5F
:104AE000898121E030E00F2C01C0220F0A94EAF7FF
:104AF000EE2019F0482F422B03C0422F4095482347
:104B00004983602F812F16DF0F90DF91CF911F9186
:104B10000F91FF90EF9008951F920F920FB60F9292
:104B200011242F933F938F939F93AF93BF938091C3
:104B3000D4099091D509A091D609B091D7093091A7
:104B4000D30923E0230F2D3720F40196A11DB11DB9
:104B500005C026E8230F0296A11DB11D2093D3099D
:104B60008093D4099093D509A093D609B093D7091F
:104B70008091D8099091D909A091DA09B091DB0907
:104B80000196A11DB11D8093D8099093D909A093D6
:104B9000DA09B093DB09BF91AF919F918F913F915B
:104BA0002F910F900FBE0F901F9018952FB7F8946C
:104BB0006091D4097091D5098091D6099091D70957
:104BC0002FBF08953FB7F8948091D8099091D909E3
:104BD000A091DA09B091DB0926B5A89B05C02F3F4B
:104BE00019F00196A11DB11D3FBF6627782F892FAF
:104BF0009A2F620F711D811D911D42E0660F771F74
:104C0000881F991F4A95D1F708958F929F92AF926E
:104C1000BF92CF92DF92EF92FF926B017C01D2DFC5
:104C20004B015C01C114D104E104F104E1F059D756
:104C3000C9DF681979098A099B09683E73408105B3
:104C4000910580F321E0C21AD108E108F10888EE4D
:104C5000880E83E0981EA11CB11CC114D104E1048C
:104C6000F10431F7DFCFFF90EF90DF90CF90BF904E
:104C7000AF909F908F900895789484B5826084BDA2
:104C800084B5816084BD85B5826085BD85B5816050
:104C900085BDEEE6F0E0808181608083E1E8F0E0B0
:104CA0001082808182608083808181608083E0E8DF
:104CB000F0E0808181608083E1EBF0E080818460BE
:104CC0008083E0EBF0E0808181608083E1E9F0E0C7
:104CD000808182608083808181608083E0E9F0E070
:104CE000808181608083E1EAF0E08081826080835E
:104CF000808181608083E0EAF0E080818160808350
:104D0000E1E2F1E080818260808380818160808344
:104D1000E0E2F1E0808181608083EAE7F0E0808179
:104D200084608083808182608083808181608083D1
:104D30008081806880831092C100089590E0FC011A
:104D40003197E231F10508F04CC0EE58FF4F0C945A
:104D5000A831809180008F7703C0809180008F7D83
:104D600080938000089580918000877FF9CF84B57B
:104D70008F7702C084B58F7D84BD08958091B00087
:104D80008F7703C08091B0008F7D8093B00008952D
:104D9000809190008F7707C0809190008F7D03C035
:104DA00080919000877F8093900008958091A0006B
:104DB0008F7707C08091A0008F7D03C08091A000F5
:104DC000877F8093A0000895809120018F7707C08E
:104DD000809120018F7D03C080912001877F809387
:104DE00020010895CF93DF9390E0FC01E25FFD4F37
:104DF0002491FC01EC5AFD4F8491882349F190E005
:104E0000880F991FFC01EC54FD4FA591B491865673
:104E10009D4FFC01C591D4919FB7611108C0F894D2
:104E20008C91209582238C93888182230AC06230E2
:104E300051F4F8948C91322F309583238C93888190
:104E4000822B888304C0F8948C91822B8C939FBF13
:104E5000DF91CF9108950F931F93CF93DF931F920C
:104E6000CDB7DEB7282F30E0F901E853FE4F84912B
:104E7000F901E25FFD4F1491F901EC5AFD4F0491E5
:104E80000023C1F0882319F0698358DF6981E02F7E
:104E9000F0E0EE0FFF1FE656FD4FA591B4919FB7CE
:104EA000F8948C91611103C01095812301C0812B6E
:104EB0008C939FBF0F90DF91CF911F910F91089519
:104EC000FC01818D228D90E0805C9F4F821B9109B7
:104ED0008F7399270895FC01918D828D981731F079
:104EE000828DE80FF11D858D90E008958FEF9FEF83
:104EF0000895FC01918D828D981761F0828DDF01FC
:104F0000A80FB11D5D968C91928D9F5F9F73928FBC
:104F100090E008958FEF9FEF089580E399E2892B49
:104F200039F080E090E0892B19F09AD1811125C0E9
:104F300080E090E0892B41F080E090E0892B21F027
:104F40000E94000081111CC080E090E0892B41F09C
:104F500080E090E0892B21F00E940000811113C0B5
:104F600080E090E0892BA1F080E090E0892B81F037
:104F70000E94000081110AC008950E940000D8CF4D
:104F80000E940000E1CF0E940000EACF0C940000D4
:104F90000895FC01848DDF01A80FB11DA35ABF4FF6
:104FA0002C91848D90E001968F739927848FA68928
:104FB000B7892C93A089B1898C9180648C93938D4F
:104FC000848D981306C00288F389E02D80818F7D3F
:104FD00080830895CF93DF93EC01888D8823C1F0FF
:104FE000EA89FB89808185FD05C0A889B9898C91F2
:104FF00086FD0EC00FB607FCF5CF808185FFF2CF8E
:10500000A889B9898C9185FFEDCFCE01C2DFE8CFA9
:10501000DF91CF910895CF92DF92FF920F931F936C
:10502000CF93DF931F92CDB7DEB76C0181E0D6013D
:1050300058968C9358975B969C915B975C968C9155
:105040005C97981307C05096ED91FC915197808121
:1050500085FD2DC0F601038D10E00F5F1F4F0F730C
:105060001127F02EF601848DF81210C00FB607FC40
:10507000F9CFD6015096ED91FC915197808185FF33
:10508000F1CFC601698385DF6981ECCF838DE80F9D
:10509000F11DE35AFF4F6083D6015B960C935B973B
:1050A0005296ED91FC915397808180620CC0D6019D
:1050B0005696ED91FC91579760835096ED91FC9137
:1050C000519780818064808381E090E00F90DF9130
:1050D000CF911F910F91FF90DF90CF900895BF92D5
:1050E000CF92DF92EF92FF92CF93DF93EC016A01B0
:1050F0007B01B22EE889F98982E08083411581EE37
:10510000580761057105A1F060E079E08DE390E05A
:10511000A70196010E946A312150310941095109C4
:105120005695479537952795211580E1380798F0D2
:10513000E889F989108260E874E88EE190E0A701BF
:1051400096010E946A312150310941095109569551
:10515000479537952795EC85FD853083EE85FF854E
:105160002083188EEC89FD89B082EA89FB898081D1
:1051700080618083EA89FB89808188608083EA89F5
:10518000FB89808180688083EA89FB8980818F7DAB
:105190008083DF91CF91FF90EF90DF90CF90BF9011
:1051A00008951F920F920FB60F9211240BB60F9213
:1051B0002F938F939F93EF93FF93E091EC09F091DE
:1051C000ED098081E091F209F091F30982FD12C0AE
:1051D00090818091F5098F5F8F732091F609821776
:1051E00051F0E091F509F0E0E452F64F958F80938D
:1051F000F50901C08081FF91EF919F918F912F91CF
:105200000F900BBE0F900FBE0F901F9018951F921E
:105210000F920FB60F9211240BB60F922F933F935C
:105220004F935F936F937F938F939F93AF93BF93AE
:10523000EF93FF938CED99E0ACDEFF91EF91BF917E
:10524000AF919F918F917F916F915F914F913F911E
:105250002F910F900BBE0F900FBE0F901F901895BF
:105260008CED99E02DDE21E0892B09F420E0822FDE
:1052700008951092DF091092DE0988EE93E0A0E015
:10528000B0E08093E0099093E109A093E209B09324
:10529000E30989EC95E09093DD098093DC0985ECC6
:1052A00090E09093E9098093E80984EC90E0909372
:1052B000EB098093EA0980EC90E09093ED098093EC
:1052C000EC0981EC90E09093EF098093EE0982EC79
:1052D00090E09093F1098093F00986EC90E0909330
:1052E000F3098093F2091092F5091092F6091092D1
:1052F000F7091092F80908950895BEDCFDDF0E94B9
:10530000F205CDE8D7E20E948D072097E1F305DE94
:10531000FACFCF92DF92EF92FF920F931F93CF932A
:10532000DF937C016A01EB0100E010E00C151D0524
:1053300071F06991D701ED91FC910190F081E02D20
:10534000C7011995892B19F00F5F1F4FEFCFC801C7
:10535000DF91CF911F910F91FF90EF90DF90CF9051
:1053600008956115710581F0DB010D900020E9F7CA
:10537000AD0141505109461B570BDC01ED91FC91E9
:105380000280F381E02D199480E090E00895DC0123
:10539000ED91FC91DB0114964D915C9115976D9107
:1053A0007C910280F381E02D1994DBCFDC01ED913B
:1053B000FC910190F081E02D199465ED75E0D1CF5D
:1053C0000F931F93CF93DF93EC01CBDF8C01CE01C2
:1053D000F4DF800F911FDF91CF911F910F910895FE
:1053E0008F929F92AF92BF92DF92EF92FF920F93B4
:1053F0001F93CF93DF93CDB7DEB7A1970FB6F89485
:10540000DEBF0FBECDBF7C01F42FD52ECB0119A27C
:10541000223008F42AE08E010F5D1F4F822E912C5E
:10542000A12CB12C6F2F7D2DA501940153D7F22F04
:10543000D32ECA01015011096A3014F4E0E301C00F
:10544000E7E3E60FD801EC93232B242B252B51F710
:10545000B801C70186DFA1960FB6F894DEBF0FBE74
:10546000CDBFDF91CF911F910F91FF90EF90DF9013
:10547000BF90AF909F908F900895CF92DF92EF9260
:10548000FF920F931F93CF93DF93EC016A017B018F
:105490002115310579F4E881F9810190F081E02D41
:1054A000642FDF91CF911F910F91FF90EF90DF90CC
:1054B000CF9019942A303105D9F477FF18C06DE2E6
:1054C00075DF8C0144275527BA014C195D096E0917
:1054D0007F092AE0CE0184DF800F911FDF91CF91F9
:1054E0001F910F91FF90EF90DF90CF9008952AE0E9
:1054F000B701A601CE01DF91CF911F910F91FF90CF
:10550000EF90DF90CF906CCF9A01AB01662757FDEB
:105510006095762FB2CF2115310541F4DC01ED9174
:10552000FC910190F081E02D642F199459CF4F9296
:105530005F926F927F928F929F92AF92BF92CF9223
:10554000DF92EF92FF920F931F93CF93DF93EC01C3
:105550006A017B01B22E9A01AB01C701B601BAD52F
:10556000882319F068ED75E024C026013701E8941E
:1055700077F82FEF3FEF4FE75FE7C301B201AAD5FE
:1055800081110CC02FEF3FEF4FE75FE7C301B2017E
:1055900070D318161CF46CED75E00BC02FEF3FEFC5
:1055A0004FE75FE4C701B601D8D41816A4F460EE43
:1055B00075E0CE01DF91CF911F910F91FF90EF9099
:1055C000DF90CF90BF90AF909F908F907F906F9023
:1055D0005F904F90C6CE2FEF3FEF4FE75FECC701D4
:1055E000B60147D387FDE3CF20E030E0A901C70132
:1055F000B6013FD387FF09C06DE2CE01D7DE8C0133
:10560000F7FAF094F7F8F09402C000E010E0A12C53
:1056100060E070E080E09FE3AB1439F020E030E020
:1056200040E251E42AD3A394F7CF9B01AC01C70118
:10563000B60159D26B017C018DD32B013C01B6D34D
:105640009B01AC01C701B6014DD26B017C012AE080
:10565000B301A201CE01C4DE080F191FBB2031F037
:1056600067E974E0CE017DDE080F191F7B2C7720DF
:1056700019F120E030E040E251E4C701B60178D4EE
:105680006B017C0162D34B01AA2497FCA094BA2C35
:105690002AE030E0B501A401CE01EFDE080F191FAA
:1056A000C501B40185D39B01AC01C701B6011AD273
:1056B0006B017C017A94DBCFC801DF91CF911F9100
:1056C0000F91FF90EF90DF90CF90BF90AF909F90A1
:1056D0008F907F906F905F904F90089528CFFC013E
:1056E00080819181F6C6CF93DF93EC018881998107
:1056F000009709F0EED6198218821D821C821B8247
:105700001A82DF91CF9108950F931F93CF93DF9368
:10571000EC018B016F5F7F4F8881998169D700977A
:1057200031F0998388831B830A8381E001C080E084
:10573000DF91CF911F910F910895CF93DF93EC01EB
:1057400088819981892B29F08A819B818617970707
:1057500058F4CE01D9DF882341F08C819D81892BBB
:1057600019F4E881F981108281E0DF91CF910895E9
:10577000EF92FF920F931F93CF93DF93EC017B0186
:105780008A01BA01DADF811103C0CE01ACDF07C0A4
:105790001D830C83B701888199810E940634CE0154
:1057A000DF91CF911F910F91FF90EF900895FC0131
:1057B0001182108213821282158214826115710582
:1057C00051F0FB0101900020E9F7AF014150510970
:1057D000461B570BCDCF08950F931F93CF93DF93A5
:1057E0008C01EB01FC0180819181009791F0428155
:1057F00053812C813D814217530750F06881798194
:105800000E9406348C819D81F8019583848312C0A7
:1058100060D688819981F801918380838A819B81F8
:10582000938382838C819D819583848319821882DE
:105830001B821A821D821C82DF91CF911F910F91D2
:105840000895CF93DF93EC01FB018617970751F082
:10585000608171816115710521F04481558188DF76
:1058600001C041DFCE01DF91CF910895CF93DF9347
:10587000EC018617970709F0AFDFCE01DF91CF91DA
:105880000895CF93DF93EC016115710559F0FB0189
:1058900001900020E9F7AF0141505109461B570B19
:1058A00067DF01C020DFCE01DF91CF9108950F9314
:1058B0001F93CF93DF93CDB7DEB762970FB6F894FF
:1058C000DEBF0FBECDBF8C01CB01F801118210826B
:1058D000138212821582148250E0BE016F5F7F4FE7
:1058E000ABD7BE016F5F7F4FC801CBDF62960FB6AB
:1058F000F894DEBF0FBECDBFDF91CF911F910F9106
:105900000895EF92FF920F931F93CF93DF93EC01D3
:105910007B010C811D816115710511F480E014C0BB
:105920004115510581F0040F151FB80106DF8823CA
:10593000A9F3288139818C819D81B701820F931F42
:1059400065D71D830C8381E0DF91CF911F910F916B
:10595000FF90EF900895CF93DF931F921F92CDB7E2
:10596000DEB769831A8241E050E0BE016F5F7F4F6E
:10597000C8DF0F900F90DF91CF910895CF93DF9301
:10598000EC01FB014481558160817181BADF811195
:1059900002C0CE01A8DECE01DF91CF910895CF9352
:1059A000DF93EC016115710561F0FB0101900020AE
:1059B000E9F7AF0141505109461B570BA2DF811196
:1059C00002C0CE0190DECE01DF91CF910895FC019F
:1059D00024813581232B31F421E06115710599F083
:1059E000FB0108C0FC01808191816115710531F4D2
:1059F00021E0FC018081882331F004C0FED621E043
:105A0000892B09F020E0822F08950F931F93CF93E5
:105A1000DF93EB0141155105E1F02097D1F0FC0136
:105A2000648175812617370798F4621B730B8A010E
:105A3000015011096017710708F48B01FC016081A6
:105A40007181620F731FA801CE01E7D6C00FD11F6D
:105A50001882DF91CF911F910F910895BF92CF923D
:105A6000DF92EF92FF920F931F93CF93DF936C011E
:105A70007B01EA0189012417350720F48D2FE90104
:105A8000042F182F67ED75E0C60191DED70114963B
:105A90008D919C911597C817D907C0F4801791076D
:105AA00008F48C01D701ED91FC911197E00FF11FE3
:105AB000B08010826D917C916C0F7D1FC601E1DE7C
:105AC000D701ED91FC91E00FF11FB082C601DF918B
:105AD000CF911F910F91FF90EF90DF90CF90BF90EB
